{
  "_format": "hh-sol-artifact-1",
  "contractName": "Aaa",
  "sourceName": "src/contracts/solidity/Aaa.sol",
  "abi": [
    {
      "inputs": [
        {
          "internalType": "address payable",
          "name": "_Bbb",
          "type": "address"
        },
        {
          "internalType": "address",
          "name": "_token",
          "type": "address"
        }
      ],
      "stateMutability": "nonpayable",
      "type": "constructor"
    },
    {
      "inputs": [],
      "name": "a",
      "outputs": [
        {
          "internalType": "uint256",
          "name": "",
          "type": "uint256"
        }
      ],
      "stateMutability": "view",
      "type": "function"
    },
    {
      "inputs": [],
      "name": "admin",
      "outputs": [
        {
          "internalType": "address",
          "name": "",
          "type": "address"
        }
      ],
      "stateMutability": "view",
      "type": "function"
    },
    {
      "inputs": [],
      "name": "b",
      "outputs": [
        {
          "internalType": "uint32",
          "name": "",
          "type": "uint32"
        }
      ],
      "stateMutability": "view",
      "type": "function"
    },
    {
      "inputs": [],
      "name": "bbbinternal",
      "outputs": [
        {
          "internalType": "contract Bbb",
          "name": "",
          "type": "address"
        }
      ],
      "stateMutability": "view",
      "type": "function"
    },
    {
      "inputs": [],
      "name": "params",
      "outputs": [
        {
          "internalType": "uint256",
          "name": "",
          "type": "uint256"
        }
      ],
      "stateMutability": "view",
      "type": "function"
    },
    {
      "inputs": [],
      "name": "seeBalance",
      "outputs": [
        {
          "internalType": "uint256",
          "name": "ethHere",
          "type": "uint256"
        }
      ],
      "stateMutability": "view",
      "type": "function"
    },
    {
      "inputs": [
        {
          "internalType": "uint256",
          "name": "_gas",
          "type": "uint256"
        }
      ],
      "name": "sendGet",
      "outputs": [],
      "stateMutability": "nonpayable",
      "type": "function"
    },
    {
      "inputs": [
        {
          "internalType": "uint256",
          "name": "_gas",
          "type": "uint256"
        }
      ],
      "name": "sendOnly",
      "outputs": [],
      "stateMutability": "nonpayable",
      "type": "function"
    },
    {
      "inputs": [
        {
          "internalType": "uint256",
          "name": "_gas",
          "type": "uint256"
        }
      ],
      "name": "sendPay",
      "outputs": [],
      "stateMutability": "nonpayable",
      "type": "function"
    },
    {
      "inputs": [
        {
          "internalType": "address",
          "name": "payor",
          "type": "address"
        },
        {
          "internalType": "address",
          "name": "payee",
          "type": "address"
        },
        {
          "internalType": "uint32",
          "name": "amt",
          "type": "uint32"
        }
      ],
      "name": "sendToken",
      "outputs": [],
      "stateMutability": "nonpayable",
      "type": "function"
    },
    {
      "inputs": [],
      "name": "set",
      "outputs": [],
      "stateMutability": "nonpayable",
      "type": "function"
    },
    {
      "inputs": [],
      "name": "token",
      "outputs": [
        {
          "internalType": "contract Token",
          "name": "",
          "type": "address"
        }
      ],
      "stateMutability": "view",
      "type": "function"
    },
    {
      "stateMutability": "payable",
      "type": "receive"
    }
  ],
  "bytecode": "0x608060405234801561001057600080fd5b506040516108ec3803806108ec83398101604081905261002f91610088565b600180546001600160a01b039384166001600160a01b031991821617909155600a600055600380549290931664010000000002600160201b600160c01b03199092169190911790915560048054909116331790556100d9565b6000806040838503121561009a578182fd5b82516100a5816100c1565b60208401519092506100b6816100c1565b809150509250929050565b6001600160a01b03811681146100d657600080fd5b50565b610804806100e86000396000f3fe6080604052600436106100cb5760003560e01c80634df7e3d011610074578063d36bfc561161004e578063d36bfc56146101e7578063f851a44014610207578063fc0c546a1461021c576100d2565b80634df7e3d01461019b578063b8e010de146101bd578063cff0ab96146101d2576100d2565b80633a7f0fcf116100a55780633a7f0fcf14610144578063429a1bb014610164578063494b284114610179576100d2565b80630dbe671f146100d757806316ceb48a14610102578063327e1d3714610124576100d2565b366100d257005b600080fd5b3480156100e357600080fd5b506100ec610231565b6040516100f99190610741565b60405180910390f35b34801561010e57600080fd5b5061012261011d366004610617565b610237565b005b34801561013057600080fd5b5061012261013f366004610684565b6102f1565b34801561015057600080fd5b5061012261015f366004610684565b6103cd565b34801561017057600080fd5b506100ec610454565b34801561018557600080fd5b5061018e610458565b6040516100f99190610704565b3480156101a757600080fd5b506101b0610467565b6040516100f9919061074a565b3480156101c957600080fd5b50610122610473565b3480156101de57600080fd5b506100ec6104a0565b3480156101f357600080fd5b50610122610202366004610684565b6104a6565b34801561021357600080fd5b5061018e6105d5565b34801561022857600080fd5b5061018e6105e4565b60025481565b6003546040517f84269ed900000000000000000000000000000000000000000000000000000000815260009164010000000090046001600160a01b0316906384269ed99061028d90879087908790600401610718565b602060405180830381600087803b1580156102a757600080fd5b505af11580156102bb573d6000803e3d6000fd5b505050506040513d601f19601f820116820180604052508101906102df919061065d565b9050806102eb57600080fd5b50505050565b6001546000805460405191926001600160a01b031691849161031591602401610741565b60408051601f198184030181529181526020820180517bffffffffffffffffffffffffffffffffffffffffffffffffffffffff167f36b80cc5000000000000000000000000000000000000000000000000000000001790525161037891906106cb565b60006040518083038160008787f1925050503d80600081146103b6576040519150601f19603f3d011682016040523d82523d6000602084013e6103bb565b606091505b50509050806103c957600080fd5b5050565b6001546000805460405191926001600160a01b03169184916103f191602401610741565b60408051601f198184030181529181526020820180517bffffffffffffffffffffffffffffffffffffffffffffffffffffffff167f564d3ffb000000000000000000000000000000000000000000000000000000001790525161037891906106cb565b4790565b6001546001600160a01b031681565b60035463ffffffff1681565b6004546001600160a01b0316331461048a57600080fd5b6000805490806104998361075b565b9190505550565b60005481565b60015460008054604051919283926001600160a01b039091169185916104cf9190602401610741565b60408051601f198184030181529181526020820180517bffffffffffffffffffffffffffffffffffffffffffffffffffffffff167f25fe6ba0000000000000000000000000000000000000000000000000000000001790525161053291906106cb565b60006040518083038160008787f1925050503d8060008114610570576040519150601f19603f3d011682016040523d82523d6000602084013e610575565b606091505b50915091508161058457600080fd5b80806020019051810190610598919061069c565b600380547fffffffffffffffffffffffffffffffffffffffffffffffffffffffff000000001663ffffffff92909216919091179055600255505050565b6004546001600160a01b031681565b60035464010000000090046001600160a01b031681565b80356001600160a01b038116811461061257600080fd5b919050565b60008060006060848603121561062b578283fd5b610634846105fb565b9250610642602085016105fb565b91506040840135610652816107b9565b809150509250925092565b60006020828403121561066e578081fd5b8151801515811461067d578182fd5b9392505050565b600060208284031215610695578081fd5b5035919050565b600080604083850312156106ae578182fd5b8251915060208301516106c0816107b9565b809150509250929050565b60008251815b818110156106eb57602081860181015185830152016106d1565b818111156106f95782828501525b509190910192915050565b6001600160a01b0391909116815260200190565b6001600160a01b03938416815291909216602082015263ffffffff909116604082015260600190565b90815260200190565b63ffffffff91909116815260200190565b60007fffffffffffffffffffffffffffffffffffffffffffffffffffffffffffffffff8214156107b2577f4e487b710000000000000000000000000000000000000000000000000000000081526011600452602481fd5b5060010190565b63ffffffff811681146107cb57600080fd5b5056fea26469706673582212206cbca7a4422c0a56f49dbadc6187fa483796b2ad354a37894c2b37f393fb2acd64736f6c63430008000033",
  "linkReferences": {},
  "deployedLinkReferences": {}
}