{
  "_format": "hh-sol-artifact-1",
  "contractName": "Aaa",
  "sourceName": "src/contracts/solidity/Aaa.sol",
  "abi": [
    {
      "inputs": [
        {
          "internalType": "address payable",
          "name": "_Bbb",
          "type": "address"
        }
      ],
      "stateMutability": "nonpayable",
      "type": "constructor"
    },
    {
      "inputs": [],
      "name": "bbbinternal",
      "outputs": [
        {
          "internalType": "contract Bbb",
          "name": "",
          "type": "address"
        }
      ],
      "stateMutability": "view",
      "type": "function"
    },
    {
      "inputs": [
        {
          "internalType": "uint256",
          "name": "",
          "type": "uint256"
        }
      ],
      "name": "params",
      "outputs": [
        {
          "internalType": "uint256",
          "name": "",
          "type": "uint256"
        }
      ],
      "stateMutability": "view",
      "type": "function"
    },
    {
      "inputs": [],
      "name": "seeBalance",
      "outputs": [
        {
          "internalType": "uint256",
          "name": "ethHere",
          "type": "uint256"
        }
      ],
      "stateMutability": "view",
      "type": "function"
    },
    {
      "inputs": [],
      "name": "sendData",
      "outputs": [],
      "stateMutability": "nonpayable",
      "type": "function"
    },
    {
      "inputs": [],
      "name": "sendData2",
      "outputs": [],
      "stateMutability": "nonpayable",
      "type": "function"
    },
    {
      "inputs": [],
      "name": "sendData3",
      "outputs": [],
      "stateMutability": "nonpayable",
      "type": "function"
    },
    {
      "inputs": [
        {
          "internalType": "uint256[8]",
          "name": "_data",
          "type": "uint256[8]"
        }
      ],
      "name": "setData",
      "outputs": [],
      "stateMutability": "nonpayable",
      "type": "function"
    },
    {
      "stateMutability": "payable",
      "type": "receive"
    }
  ],
  "bytecode": "0x608060405234801561001057600080fd5b5060405161059638038061059683398101604081905261002f91610054565b600880546001600160a01b0319166001600160a01b0392909216919091179055610082565b600060208284031215610065578081fd5b81516001600160a01b038116811461007b578182fd5b9392505050565b610505806100916000396000f3fe6080604052600436106100745760003560e01c80636c7ae20a1161004e5780636c7ae20a146100ef5780638911be30146101045780639d2f053c14610119578063fd4d6c38146101395761007b565b8063429a1bb014610080578063494b2841146100ab5780635c0c8001146100cd5761007b565b3661007b57005b600080fd5b34801561008c57600080fd5b5061009561014e565b6040516100a29190610497565b60405180910390f35b3480156100b757600080fd5b506100c0610152565b6040516100a29190610476565b3480156100d957600080fd5b506100ed6100e8366004610384565b61016e565b005b3480156100fb57600080fd5b506100ed61017f565b34801561011057600080fd5b506100ed610238565b34801561012557600080fd5b50610095610134366004610409565b6102c3565b34801561014557600080fd5b506100ed6102da565b4790565b60085473ffffffffffffffffffffffffffffffffffffffff1681565b61017b6000826008610331565b5050565b6008546040517f830ca615000000000000000000000000000000000000000000000000000000008152600091829173ffffffffffffffffffffffffffffffffffffffff9091169063830ca615906101da908490600401610444565b6040805180830381600087803b1580156101f357600080fd5b505af1158015610207573d6000803e3d6000fd5b505050506040513d601f19601f8201168201806040525081019061022b9190610421565b6000919091556007555050565b6008546040517fd2f7a5c400000000000000000000000000000000000000000000000000000000815273ffffffffffffffffffffffffffffffffffffffff9091169063d2f7a5c49061028f90600090600401610444565b600060405180830381600087803b1580156102a957600080fd5b505af11580156102bd573d6000803e3d6000fd5b50505050565b600081600881106102d357600080fd5b0154905081565b6008546040517fd55995ba00000000000000000000000000000000000000000000000000000000815273ffffffffffffffffffffffffffffffffffffffff9091169063d55995ba9061028f90600090600401610444565b826008810192821561035f579160200282015b8281111561035f578251825591602001919060010190610344565b5061036b92915061036f565b5090565b5b8082111561036b5760008155600101610370565b6000610100808385031215610397578182fd5b83601f8401126103a5578182fd5b60405181810181811067ffffffffffffffff821117156103c7576103c76104a0565b60405280848381018710156103da578485fd5b8493505b60088410156103fe578035825260019390930192602091820191016103de565b509095945050505050565b60006020828403121561041a578081fd5b5035919050565b60008060408385031215610433578081fd5b505080516020909101519092909150565b6101008101818360005b600881101561046d57815483526020909201916001918201910161044e565b50505092915050565b73ffffffffffffffffffffffffffffffffffffffff91909116815260200190565b90815260200190565b7f4e487b7100000000000000000000000000000000000000000000000000000000600052604160045260246000fdfea26469706673582212208a1302c1fd9542d4ed5e553ca3d183e941e3e9536e0d9037649706d5929bb61964736f6c63430008000033",
  "linkReferences": {},
  "deployedLinkReferences": {}
}