{
  "_format": "hh-sol-artifact-1",
  "contractName": "Aaa",
  "sourceName": "src/contracts/solidity/Aaa.sol",
  "abi": [
    {
      "inputs": [
        {
          "internalType": "address payable",
          "name": "_Bbb",
          "type": "address"
        },
        {
          "internalType": "address",
          "name": "_token",
          "type": "address"
        }
      ],
      "stateMutability": "nonpayable",
      "type": "constructor"
    },
    {
      "inputs": [],
      "name": "a",
      "outputs": [
        {
          "internalType": "uint256",
          "name": "",
          "type": "uint256"
        }
      ],
      "stateMutability": "view",
      "type": "function"
    },
    {
      "inputs": [],
      "name": "b",
      "outputs": [
        {
          "internalType": "uint32",
          "name": "",
          "type": "uint32"
        }
      ],
      "stateMutability": "view",
      "type": "function"
    },
    {
      "inputs": [],
      "name": "bbbinternal",
      "outputs": [
        {
          "internalType": "contract Bbb",
          "name": "",
          "type": "address"
        }
      ],
      "stateMutability": "view",
      "type": "function"
    },
    {
      "inputs": [],
      "name": "params",
      "outputs": [
        {
          "internalType": "uint256",
          "name": "",
          "type": "uint256"
        }
      ],
      "stateMutability": "view",
      "type": "function"
    },
    {
      "inputs": [],
      "name": "seeBalance",
      "outputs": [
        {
          "internalType": "uint256",
          "name": "ethHere",
          "type": "uint256"
        }
      ],
      "stateMutability": "view",
      "type": "function"
    },
    {
      "inputs": [
        {
          "internalType": "uint256",
          "name": "_gas",
          "type": "uint256"
        }
      ],
      "name": "sendGet",
      "outputs": [],
      "stateMutability": "nonpayable",
      "type": "function"
    },
    {
      "inputs": [
        {
          "internalType": "uint256",
          "name": "_gas",
          "type": "uint256"
        }
      ],
      "name": "sendOnly",
      "outputs": [],
      "stateMutability": "nonpayable",
      "type": "function"
    },
    {
      "inputs": [
        {
          "internalType": "uint256",
          "name": "_gas",
          "type": "uint256"
        }
      ],
      "name": "sendPay",
      "outputs": [],
      "stateMutability": "nonpayable",
      "type": "function"
    },
    {
      "inputs": [
        {
          "internalType": "address",
          "name": "payor",
          "type": "address"
        },
        {
          "internalType": "address",
          "name": "payee",
          "type": "address"
        },
        {
          "internalType": "uint32",
          "name": "amt",
          "type": "uint32"
        }
      ],
      "name": "sendToken",
      "outputs": [],
      "stateMutability": "nonpayable",
      "type": "function"
    },
    {
      "inputs": [],
      "name": "set",
      "outputs": [],
      "stateMutability": "nonpayable",
      "type": "function"
    },
    {
      "inputs": [],
      "name": "token",
      "outputs": [
        {
          "internalType": "contract Token",
          "name": "",
          "type": "address"
        }
      ],
      "stateMutability": "view",
      "type": "function"
    },
    {
      "stateMutability": "payable",
      "type": "receive"
    }
  ],
  "bytecode": "0x608060405234801561001057600080fd5b5060405161090b38038061090b83398101604081905261002f91610078565b600180546001600160a01b039384166001600160a01b0319909116179055600a600055600380549190921664010000000002600160201b600160c01b03199091161790556100c9565b6000806040838503121561008a578182fd5b8251610095816100b1565b60208401519092506100a6816100b1565b809150509250929050565b6001600160a01b03811681146100c657600080fd5b50565b610833806100d86000396000f3fe6080604052600436106100c05760003560e01c8063494b284111610074578063cff0ab961161004e578063cff0ab96146101c7578063d36bfc56146101dc578063fc0c546a146101fc576100c7565b8063494b28411461016e5780634df7e3d014610190578063b8e010de146101b2576100c7565b8063327e1d37116100a5578063327e1d37146101195780633a7f0fcf14610139578063429a1bb014610159576100c7565b80630dbe671f146100cc57806316ceb48a146100f7576100c7565b366100c757005b600080fd5b3480156100d857600080fd5b506100e1610211565b6040516100ee9190610770565b60405180910390f35b34801561010357600080fd5b5061011761011236600461062c565b610217565b005b34801561012557600080fd5b50610117610134366004610699565b6102de565b34801561014557600080fd5b50610117610154366004610699565b6103c7565b34801561016557600080fd5b506100e161045b565b34801561017a57600080fd5b5061018361045f565b6040516100ee919061074f565b34801561019c57600080fd5b506101a561047b565b6040516100ee9190610779565b3480156101be57600080fd5b50610117610487565b3480156101d357600080fd5b506100e161049d565b3480156101e857600080fd5b506101176101f7366004610699565b6104a3565b34801561020857600080fd5b506101836105df565b60025481565b6003546040517f84269ed9000000000000000000000000000000000000000000000000000000008152600091640100000000900473ffffffffffffffffffffffffffffffffffffffff16906384269ed99061027a90879087908790600401610719565b602060405180830381600087803b15801561029457600080fd5b505af11580156102a8573d6000803e3d6000fd5b505050506040513d601f19601f820116820180604052508101906102cc9190610672565b9050806102d857600080fd5b50505050565b60015460008054604051919273ffffffffffffffffffffffffffffffffffffffff1691849161030f91602401610770565b60408051601f198184030181529181526020820180517bffffffffffffffffffffffffffffffffffffffffffffffffffffffff167f36b80cc5000000000000000000000000000000000000000000000000000000001790525161037291906106e0565b60006040518083038160008787f1925050503d80600081146103b0576040519150601f19603f3d011682016040523d82523d6000602084013e6103b5565b606091505b50509050806103c357600080fd5b5050565b60015460008054604051919273ffffffffffffffffffffffffffffffffffffffff169184916103f891602401610770565b60408051601f198184030181529181526020820180517bffffffffffffffffffffffffffffffffffffffffffffffffffffffff167f564d3ffb000000000000000000000000000000000000000000000000000000001790525161037291906106e0565b4790565b60015473ffffffffffffffffffffffffffffffffffffffff1681565b60035463ffffffff1681565b6000805490806104968361078a565b9190505550565b60005481565b600154600080546040519192839273ffffffffffffffffffffffffffffffffffffffff9091169185916104d99190602401610770565b60408051601f198184030181529181526020820180517bffffffffffffffffffffffffffffffffffffffffffffffffffffffff167f25fe6ba0000000000000000000000000000000000000000000000000000000001790525161053c91906106e0565b60006040518083038160008787f1925050503d806000811461057a576040519150601f19603f3d011682016040523d82523d6000602084013e61057f565b606091505b50915091508161058e57600080fd5b808060200190518101906105a291906106b1565b600380547fffffffffffffffffffffffffffffffffffffffffffffffffffffffff000000001663ffffffff92909216919091179055600255505050565b600354640100000000900473ffffffffffffffffffffffffffffffffffffffff1681565b803573ffffffffffffffffffffffffffffffffffffffff8116811461062757600080fd5b919050565b600080600060608486031215610640578283fd5b61064984610603565b925061065760208501610603565b91506040840135610667816107e8565b809150509250925092565b600060208284031215610683578081fd5b81518015158114610692578182fd5b9392505050565b6000602082840312156106aa578081fd5b5035919050565b600080604083850312156106c3578182fd5b8251915060208301516106d5816107e8565b809150509250929050565b60008251815b8181101561070057602081860181015185830152016106e6565b8181111561070e5782828501525b509190910192915050565b73ffffffffffffffffffffffffffffffffffffffff938416815291909216602082015263ffffffff909116604082015260600190565b73ffffffffffffffffffffffffffffffffffffffff91909116815260200190565b90815260200190565b63ffffffff91909116815260200190565b60007fffffffffffffffffffffffffffffffffffffffffffffffffffffffffffffffff8214156107e1577f4e487b710000000000000000000000000000000000000000000000000000000081526011600452602481fd5b5060010190565b63ffffffff811681146107fa57600080fd5b5056fea264697066735822122076f8fa2e1f31b49713af0c7cffd10d69e4302d9e2acd9790752f9844d72f2adf64736f6c63430008000033",
  "linkReferences": {},
  "deployedLinkReferences": {}
}