{
  "_format": "hh-sol-artifact-1",
  "contractName": "Aaav",
  "sourceName": "src/contracts/solidity/Aaav.sol",
  "abi": [
    {
      "inputs": [
        {
          "internalType": "address payable",
          "name": "_Bbb",
          "type": "address"
        },
        {
          "internalType": "address",
          "name": "_token",
          "type": "address"
        }
      ],
      "stateMutability": "nonpayable",
      "type": "constructor"
    },
    {
      "inputs": [],
      "name": "a",
      "outputs": [
        {
          "internalType": "uint256",
          "name": "",
          "type": "uint256"
        }
      ],
      "stateMutability": "view",
      "type": "function"
    },
    {
      "inputs": [],
      "name": "b",
      "outputs": [
        {
          "internalType": "uint32",
          "name": "",
          "type": "uint32"
        }
      ],
      "stateMutability": "view",
      "type": "function"
    },
    {
      "inputs": [],
      "name": "bbbinternal",
      "outputs": [
        {
          "internalType": "contract Bbbv",
          "name": "",
          "type": "address"
        }
      ],
      "stateMutability": "view",
      "type": "function"
    },
    {
      "inputs": [
        {
          "internalType": "uint256",
          "name": "",
          "type": "uint256"
        }
      ],
      "name": "params",
      "outputs": [
        {
          "internalType": "uint256",
          "name": "",
          "type": "uint256"
        }
      ],
      "stateMutability": "view",
      "type": "function"
    },
    {
      "inputs": [],
      "name": "seeBalance",
      "outputs": [
        {
          "internalType": "uint256",
          "name": "ethHere",
          "type": "uint256"
        }
      ],
      "stateMutability": "view",
      "type": "function"
    },
    {
      "inputs": [
        {
          "internalType": "uint256",
          "name": "_gas",
          "type": "uint256"
        }
      ],
      "name": "sendGet",
      "outputs": [],
      "stateMutability": "nonpayable",
      "type": "function"
    },
    {
      "inputs": [
        {
          "internalType": "uint256",
          "name": "_gas",
          "type": "uint256"
        }
      ],
      "name": "sendOnly",
      "outputs": [],
      "stateMutability": "nonpayable",
      "type": "function"
    },
    {
      "inputs": [
        {
          "internalType": "uint256",
          "name": "_gas",
          "type": "uint256"
        }
      ],
      "name": "sendPay",
      "outputs": [],
      "stateMutability": "nonpayable",
      "type": "function"
    },
    {
      "inputs": [
        {
          "internalType": "address",
          "name": "payee",
          "type": "address"
        },
        {
          "internalType": "uint32",
          "name": "amt",
          "type": "uint32"
        }
      ],
      "name": "sendToken",
      "outputs": [],
      "stateMutability": "nonpayable",
      "type": "function"
    },
    {
      "inputs": [
        {
          "internalType": "address",
          "name": "payee",
          "type": "address"
        },
        {
          "internalType": "uint32",
          "name": "amt",
          "type": "uint32"
        }
      ],
      "name": "sendToken2",
      "outputs": [],
      "stateMutability": "nonpayable",
      "type": "function"
    },
    {
      "inputs": [],
      "name": "set",
      "outputs": [],
      "stateMutability": "nonpayable",
      "type": "function"
    },
    {
      "inputs": [],
      "name": "token",
      "outputs": [
        {
          "internalType": "contract Token",
          "name": "",
          "type": "address"
        }
      ],
      "stateMutability": "view",
      "type": "function"
    },
    {
      "stateMutability": "payable",
      "type": "receive"
    }
  ],
  "bytecode": "0x608060405234801561001057600080fd5b506040516109d63803806109d683398101604081905261002f91610097565b600880546001600160a01b0319166001600160a01b03938416179055600a600081905560026001819055808055600381905560048190556005819055600681905560075580549190921664010000000002600160201b600160c01b03199091161790556100e8565b600080604083850312156100a9578182fd5b82516100b4816100d0565b60208401519092506100c5816100d0565b809150509250929050565b6001600160a01b03811681146100e557600080fd5b50565b6108df806100f76000396000f3fe6080604052600436106100cb5760003560e01c80634df7e3d011610074578063d36bfc561161004e578063d36bfc56146101f2578063ebd83bb714610212578063fc0c546a14610232576100d2565b80634df7e3d01461019b5780639d2f053c146101bd578063b8e010de146101dd576100d2565b80633e2b320e116100a55780633e2b320e14610144578063429a1bb014610164578063494b284114610179576100d2565b80630dbe671f146100d7578063327e1d37146101025780633a7f0fcf14610124576100d2565b366100d257005b600080fd5b3480156100e357600080fd5b506100ec610247565b6040516100f9919061081c565b60405180910390f35b34801561010e57600080fd5b5061012261011d366004610742565b61024d565b005b34801561013057600080fd5b5061012261013f366004610742565b610328565b34801561015057600080fd5b5061012261015f3660046106d8565b6103ae565b34801561017057600080fd5b506100ec610465565b34801561018557600080fd5b5061018e610469565b6040516100f99190610808565b3480156101a757600080fd5b506101b0610478565b6040516100f99190610825565b3480156101c957600080fd5b506100ec6101d8366004610742565b610484565b3480156101e957600080fd5b5061012261049b565b3480156101fe57600080fd5b5061012261020d366004610742565b6104b1565b34801561021e57600080fd5b5061012261022d3660046106d8565b6105de565b34801561023e57600080fd5b5061018e6106c1565b60095481565b6008546040516000916001600160a01b03169083906102709084906024016107d6565b60408051601f198184030181529181526020820180517bffffffffffffffffffffffffffffffffffffffffffffffffffffffff167fd2f7a5c400000000000000000000000000000000000000000000000000000000179052516102d3919061077e565b60006040518083038160008787f1925050503d8060008114610311576040519150601f19603f3d011682016040523d82523d6000602084013e610316565b606091505b505090508061032457600080fd5b5050565b6008546040516000916001600160a01b031690839061034b9084906024016107d6565b60408051601f198184030181529181526020820180517bffffffffffffffffffffffffffffffffffffffffffffffffffffffff167fd55995ba00000000000000000000000000000000000000000000000000000000179052516102d3919061077e565b600a546040517f8009748400000000000000000000000000000000000000000000000000000000815260009164010000000090046001600160a01b03169063800974849061040290869086906004016107b7565b602060405180830381600087803b15801561041c57600080fd5b505af1158015610430573d6000803e3d6000fd5b505050506040513d601f19601f82011682018060405250810190610454919061071b565b90508061046057600080fd5b505050565b4790565b6008546001600160a01b031681565b600a5463ffffffff1681565b6000816008811061049457600080fd5b0154905081565b6000805490806104aa83610836565b9190505550565b60085460405160009182916001600160a01b039091169084906104d89084906024016107d6565b60408051601f198184030181529181526020820180517bffffffffffffffffffffffffffffffffffffffffffffffffffffffff167fecfbfa16000000000000000000000000000000000000000000000000000000001790525161053b919061077e565b60006040518083038160008787f1925050503d8060008114610579576040519150601f19603f3d011682016040523d82523d6000602084013e61057e565b606091505b50915091508161058d57600080fd5b808060200190518101906105a1919061075a565b600a80547fffffffffffffffffffffffffffffffffffffffffffffffffffffffff000000001663ffffffff92909216919091179055600955505050565b600a5460405160009164010000000090046001600160a01b0316906159d89061060d90869086906024016107b7565b60408051601f198184030181529181526020820180517bffffffffffffffffffffffffffffffffffffffffffffffffffffffff167f05c4a13e0000000000000000000000000000000000000000000000000000000017905251610670919061077e565b60006040518083038160008787f1925050503d80600081146106ae576040519150601f19603f3d011682016040523d82523d6000602084013e6106b3565b606091505b505090508061046057600080fd5b600a5464010000000090046001600160a01b031681565b600080604083850312156106ea578182fd5b82356001600160a01b0381168114610700578283fd5b9150602083013561071081610894565b809150509250929050565b60006020828403121561072c578081fd5b8151801515811461073b578182fd5b9392505050565b600060208284031215610753578081fd5b5035919050565b6000806040838503121561076c578182fd5b82519150602083015161071081610894565b60008251815b8181101561079e5760208186018101518583015201610784565b818111156107ac5782828501525b509190910192915050565b6001600160a01b0392909216825263ffffffff16602082015260400190565b6101008101818360005b60088110156107ff5781548352602090920191600191820191016107e0565b50505092915050565b6001600160a01b0391909116815260200190565b90815260200190565b63ffffffff91909116815260200190565b60007fffffffffffffffffffffffffffffffffffffffffffffffffffffffffffffffff82141561088d577f4e487b710000000000000000000000000000000000000000000000000000000081526011600452602481fd5b5060010190565b63ffffffff811681146108a657600080fd5b5056fea26469706673582212202a27f5f162665ef54de359abdf79a33c82780cd6d4cd8404dc9a3113807a146764736f6c63430008000033",
  "linkReferences": {},
  "deployedLinkReferences": {}
}