{"src/contracts/solidity/Bbb.sol":{"Bbb":{"abi":[{"inputs":[],"name":"aaa","outputs":[{"internalType":"address payable","name":"","type":"address"}],"stateMutability":"view","type":"function"},{"inputs":[{"internalType":"uint256","name":"","type":"uint256"}],"name":"paramsb","outputs":[{"internalType":"uint256","name":"","type":"uint256"}],"stateMutability":"view","type":"function"},{"inputs":[{"internalType":"uint256[8]","name":"_params","type":"uint256[8]"}],"name":"pullOnly","outputs":[],"stateMutability":"nonpayable","type":"function"},{"inputs":[{"internalType":"uint256[8]","name":"_params","type":"uint256[8]"}],"name":"pullPay","outputs":[],"stateMutability":"nonpayable","type":"function"},{"inputs":[{"internalType":"uint256[8]","name":"_params","type":"uint256[8]"}],"name":"pullPush","outputs":[{"internalType":"uint256","name":"","type":"uint256"},{"internalType":"uint256","name":"","type":"uint256"}],"stateMutability":"nonpayable","type":"function"},{"inputs":[],"name":"reset","outputs":[],"stateMutability":"nonpayable","type":"function"},{"inputs":[],"name":"seeBalance","outputs":[{"internalType":"uint256","name":"ethHere","type":"uint256"}],"stateMutability":"view","type":"function"},{"inputs":[],"name":"sendEth","outputs":[],"stateMutability":"payable","type":"function"},{"inputs":[{"internalType":"address payable","name":"_admina","type":"address"}],"name":"setAdmin","outputs":[],"stateMutability":"nonpayable","type":"function"},{"stateMutability":"payable","type":"receive"}],"evm":{"bytecode":{"linkReferences":{},"object":"608060405234801561001057600080fd5b506105a2806100206000396000f3fe60806040526004361061009a5760003560e01c8063937c0d0a11610069578063d2f7a5c41161004e578063d2f7a5c41461016b578063d55995ba1461018b578063d826f88f146101ab576100a1565b8063937c0d0a1461012957806393fd4fe81461014b576100a1565b806306e99fef146100a6578063429a1bb0146100b0578063704b6c02146100db578063830ca615146100fb576100a1565b366100a157005b600080fd5b6100ae6101c0565b005b3480156100bc57600080fd5b506100c56101c2565b6040516100d291906104e9565b60405180910390f35b3480156100e757600080fd5b506100ae6100f63660046103b6565b6101c6565b34801561010757600080fd5b5061011b6101163660046103f1565b61020d565b6040516100d29291906104f2565b34801561013557600080fd5b5061013e610242565b6040516100d29190610491565b34801561015757600080fd5b506100c5610166366004610476565b61025e565b34801561017757600080fd5b506100ae6101863660046103f1565b610275565b34801561019757600080fd5b506100ae6101a63660046103f1565b610286565b3480156101b757600080fd5b506100ae610346565b565b4790565b600880547fffffffffffffffffffffffff00000000000000000000000000000000000000001673ffffffffffffffffffffffffffffffffffffffff92909216919091179055565b60008061021c81846008610351565b5060005461022b906001610500565b600154610239906002610500565b91509150915091565b60085473ffffffffffffffffffffffffffffffffffffffff1681565b6000816008811061026e57600080fd5b0154905081565b6102826000826008610351565b5050565b6102936000826008610351565b5060085460405160009173ffffffffffffffffffffffffffffffffffffffff16906064906102c09061048e565b60006040518083038185875af1925050503d80600081146102fd576040519150601f19603f3d011682016040523d82523d6000602084013e610302565b606091505b5050905080610282576040517f08c379a000000000000000000000000000000000000000000000000000000000815260040161033d906104b2565b60405180910390fd5b6101c060008061038f565b826008810192821561037f579160200282015b8281111561037f578251825591602001919060010190610364565b5061038b9291506103a1565b5090565b5061039e9060088101906103a1565b50565b5b8082111561038b57600081556001016103a2565b6000602082840312156103c7578081fd5b813573ffffffffffffffffffffffffffffffffffffffff811681146103ea578182fd5b9392505050565b6000610100808385031215610404578182fd5b83601f840112610412578182fd5b60405181810181811067ffffffffffffffff821117156104345761043461053d565b6040528084838101871015610447578485fd5b8493505b600884101561046b5780358252600193909301926020918201910161044b565b509095945050505050565b600060208284031215610487578081fd5b5035919050565b90565b73ffffffffffffffffffffffffffffffffffffffff91909116815260200190565b6020808252600b908201527f43616c6c206661696c6564000000000000000000000000000000000000000000604082015260600190565b90815260200190565b918252602082015260400190565b60008219821115610538577f4e487b710000000000000000000000000000000000000000000000000000000081526011600452602481fd5b500190565b7f4e487b7100000000000000000000000000000000000000000000000000000000600052604160045260246000fdfea26469706673582212205cfb2a8f97af7ebc907cb38d371739b3cf9f313f3aa0b1633c5b6b409f22265a64736f6c63430008000033","opcodes":"PUSH1 0x80 PUSH1 0x40 MSTORE CALLVALUE DUP1 ISZERO PUSH2 0x10 JUMPI PUSH1 0x0 DUP1 REVERT JUMPDEST POP PUSH2 0x5A2 DUP1 PUSH2 0x20 PUSH1 0x0 CODECOPY PUSH1 0x0 RETURN INVALID PUSH1 0x80 PUSH1 0x40 MSTORE PUSH1 0x4 CALLDATASIZE LT PUSH2 0x9A JUMPI PUSH1 0x0 CALLDATALOAD PUSH1 0xE0 SHR DUP1 PUSH4 0x937C0D0A GT PUSH2 0x69 JUMPI DUP1 PUSH4 0xD2F7A5C4 GT PUSH2 0x4E JUMPI DUP1 PUSH4 0xD2F7A5C4 EQ PUSH2 0x16B JUMPI DUP1 PUSH4 0xD55995BA EQ PUSH2 0x18B JUMPI DUP1 PUSH4 0xD826F88F EQ PUSH2 0x1AB JUMPI PUSH2 0xA1 JUMP JUMPDEST DUP1 PUSH4 0x937C0D0A EQ PUSH2 0x129 JUMPI DUP1 PUSH4 0x93FD4FE8 EQ PUSH2 0x14B JUMPI PUSH2 0xA1 JUMP JUMPDEST DUP1 PUSH4 0x6E99FEF EQ PUSH2 0xA6 JUMPI DUP1 PUSH4 0x429A1BB0 EQ PUSH2 0xB0 JUMPI DUP1 PUSH4 0x704B6C02 EQ PUSH2 0xDB JUMPI DUP1 PUSH4 0x830CA615 EQ PUSH2 0xFB JUMPI PUSH2 0xA1 JUMP JUMPDEST CALLDATASIZE PUSH2 0xA1 JUMPI STOP JUMPDEST PUSH1 0x0 DUP1 REVERT JUMPDEST PUSH2 0xAE PUSH2 0x1C0 JUMP JUMPDEST STOP JUMPDEST CALLVALUE DUP1 ISZERO PUSH2 0xBC JUMPI PUSH1 0x0 DUP1 REVERT JUMPDEST POP PUSH2 0xC5 PUSH2 0x1C2 JUMP JUMPDEST PUSH1 0x40 MLOAD PUSH2 0xD2 SWAP2 SWAP1 PUSH2 0x4E9 JUMP JUMPDEST PUSH1 0x40 MLOAD DUP1 SWAP2 SUB SWAP1 RETURN JUMPDEST CALLVALUE DUP1 ISZERO PUSH2 0xE7 JUMPI PUSH1 0x0 DUP1 REVERT JUMPDEST POP PUSH2 0xAE PUSH2 0xF6 CALLDATASIZE PUSH1 0x4 PUSH2 0x3B6 JUMP JUMPDEST PUSH2 0x1C6 JUMP JUMPDEST CALLVALUE DUP1 ISZERO PUSH2 0x107 JUMPI PUSH1 0x0 DUP1 REVERT JUMPDEST POP PUSH2 0x11B PUSH2 0x116 CALLDATASIZE PUSH1 0x4 PUSH2 0x3F1 JUMP JUMPDEST PUSH2 0x20D JUMP JUMPDEST PUSH1 0x40 MLOAD PUSH2 0xD2 SWAP3 SWAP2 SWAP1 PUSH2 0x4F2 JUMP JUMPDEST CALLVALUE DUP1 ISZERO PUSH2 0x135 JUMPI PUSH1 0x0 DUP1 REVERT JUMPDEST POP PUSH2 0x13E PUSH2 0x242 JUMP JUMPDEST PUSH1 0x40 MLOAD PUSH2 0xD2 SWAP2 SWAP1 PUSH2 0x491 JUMP JUMPDEST CALLVALUE DUP1 ISZERO PUSH2 0x157 JUMPI PUSH1 0x0 DUP1 REVERT JUMPDEST POP PUSH2 0xC5 PUSH2 0x166 CALLDATASIZE PUSH1 0x4 PUSH2 0x476 JUMP JUMPDEST PUSH2 0x25E JUMP JUMPDEST CALLVALUE DUP1 ISZERO PUSH2 0x177 JUMPI PUSH1 0x0 DUP1 REVERT JUMPDEST POP PUSH2 0xAE PUSH2 0x186 CALLDATASIZE PUSH1 0x4 PUSH2 0x3F1 JUMP JUMPDEST PUSH2 0x275 JUMP JUMPDEST CALLVALUE DUP1 ISZERO PUSH2 0x197 JUMPI PUSH1 0x0 DUP1 REVERT JUMPDEST POP PUSH2 0xAE PUSH2 0x1A6 CALLDATASIZE PUSH1 0x4 PUSH2 0x3F1 JUMP JUMPDEST PUSH2 0x286 JUMP JUMPDEST CALLVALUE DUP1 ISZERO PUSH2 0x1B7 JUMPI PUSH1 0x0 DUP1 REVERT JUMPDEST POP PUSH2 0xAE PUSH2 0x346 JUMP JUMPDEST JUMP JUMPDEST SELFBALANCE SWAP1 JUMP JUMPDEST PUSH1 0x8 DUP1 SLOAD PUSH32 0xFFFFFFFFFFFFFFFFFFFFFFFF0000000000000000000000000000000000000000 AND PUSH20 0xFFFFFFFFFFFFFFFFFFFFFFFFFFFFFFFFFFFFFFFF SWAP3 SWAP1 SWAP3 AND SWAP2 SWAP1 SWAP2 OR SWAP1 SSTORE JUMP JUMPDEST PUSH1 0x0 DUP1 PUSH2 0x21C DUP2 DUP5 PUSH1 0x8 PUSH2 0x351 JUMP JUMPDEST POP PUSH1 0x0 SLOAD PUSH2 0x22B SWAP1 PUSH1 0x1 PUSH2 0x500 JUMP JUMPDEST PUSH1 0x1 SLOAD PUSH2 0x239 SWAP1 PUSH1 0x2 PUSH2 0x500 JUMP JUMPDEST SWAP2 POP SWAP2 POP SWAP2 POP SWAP2 JUMP JUMPDEST PUSH1 0x8 SLOAD PUSH20 0xFFFFFFFFFFFFFFFFFFFFFFFFFFFFFFFFFFFFFFFF AND DUP2 JUMP JUMPDEST PUSH1 0x0 DUP2 PUSH1 0x8 DUP2 LT PUSH2 0x26E JUMPI PUSH1 0x0 DUP1 REVERT JUMPDEST ADD SLOAD SWAP1 POP DUP2 JUMP JUMPDEST PUSH2 0x282 PUSH1 0x0 DUP3 PUSH1 0x8 PUSH2 0x351 JUMP JUMPDEST POP POP JUMP JUMPDEST PUSH2 0x293 PUSH1 0x0 DUP3 PUSH1 0x8 PUSH2 0x351 JUMP JUMPDEST POP PUSH1 0x8 SLOAD PUSH1 0x40 MLOAD PUSH1 0x0 SWAP2 PUSH20 0xFFFFFFFFFFFFFFFFFFFFFFFFFFFFFFFFFFFFFFFF AND SWAP1 PUSH1 0x64 SWAP1 PUSH2 0x2C0 SWAP1 PUSH2 0x48E JUMP JUMPDEST PUSH1 0x0 PUSH1 0x40 MLOAD DUP1 DUP4 SUB DUP2 DUP6 DUP8 GAS CALL SWAP3 POP POP POP RETURNDATASIZE DUP1 PUSH1 0x0 DUP2 EQ PUSH2 0x2FD JUMPI PUSH1 0x40 MLOAD SWAP2 POP PUSH1 0x1F NOT PUSH1 0x3F RETURNDATASIZE ADD AND DUP3 ADD PUSH1 0x40 MSTORE RETURNDATASIZE DUP3 MSTORE RETURNDATASIZE PUSH1 0x0 PUSH1 0x20 DUP5 ADD RETURNDATACOPY PUSH2 0x302 JUMP JUMPDEST PUSH1 0x60 SWAP2 POP JUMPDEST POP POP SWAP1 POP DUP1 PUSH2 0x282 JUMPI PUSH1 0x40 MLOAD PUSH32 0x8C379A000000000000000000000000000000000000000000000000000000000 DUP2 MSTORE PUSH1 0x4 ADD PUSH2 0x33D SWAP1 PUSH2 0x4B2 JUMP JUMPDEST PUSH1 0x40 MLOAD DUP1 SWAP2 SUB SWAP1 REVERT JUMPDEST PUSH2 0x1C0 PUSH1 0x0 DUP1 PUSH2 0x38F JUMP JUMPDEST DUP3 PUSH1 0x8 DUP2 ADD SWAP3 DUP3 ISZERO PUSH2 0x37F JUMPI SWAP2 PUSH1 0x20 MUL DUP3 ADD JUMPDEST DUP3 DUP2 GT ISZERO PUSH2 0x37F JUMPI DUP3 MLOAD DUP3 SSTORE SWAP2 PUSH1 0x20 ADD SWAP2 SWAP1 PUSH1 0x1 ADD SWAP1 PUSH2 0x364 JUMP JUMPDEST POP PUSH2 0x38B SWAP3 SWAP2 POP PUSH2 0x3A1 JUMP JUMPDEST POP SWAP1 JUMP JUMPDEST POP PUSH2 0x39E SWAP1 PUSH1 0x8 DUP2 ADD SWAP1 PUSH2 0x3A1 JUMP JUMPDEST POP JUMP JUMPDEST JUMPDEST DUP1 DUP3 GT ISZERO PUSH2 0x38B JUMPI PUSH1 0x0 DUP2 SSTORE PUSH1 0x1 ADD PUSH2 0x3A2 JUMP JUMPDEST PUSH1 0x0 PUSH1 0x20 DUP3 DUP5 SUB SLT ISZERO PUSH2 0x3C7 JUMPI DUP1 DUP2 REVERT JUMPDEST DUP2 CALLDATALOAD PUSH20 0xFFFFFFFFFFFFFFFFFFFFFFFFFFFFFFFFFFFFFFFF DUP2 AND DUP2 EQ PUSH2 0x3EA JUMPI DUP2 DUP3 REVERT JUMPDEST SWAP4 SWAP3 POP POP POP JUMP JUMPDEST PUSH1 0x0 PUSH2 0x100 DUP1 DUP4 DUP6 SUB SLT ISZERO PUSH2 0x404 JUMPI DUP2 DUP3 REVERT JUMPDEST DUP4 PUSH1 0x1F DUP5 ADD SLT PUSH2 0x412 JUMPI DUP2 DUP3 REVERT JUMPDEST PUSH1 0x40 MLOAD DUP2 DUP2 ADD DUP2 DUP2 LT PUSH8 0xFFFFFFFFFFFFFFFF DUP3 GT OR ISZERO PUSH2 0x434 JUMPI PUSH2 0x434 PUSH2 0x53D JUMP JUMPDEST PUSH1 0x40 MSTORE DUP1 DUP5 DUP4 DUP2 ADD DUP8 LT ISZERO PUSH2 0x447 JUMPI DUP5 DUP6 REVERT JUMPDEST DUP5 SWAP4 POP JUMPDEST PUSH1 0x8 DUP5 LT ISZERO PUSH2 0x46B JUMPI DUP1 CALLDATALOAD DUP3 MSTORE PUSH1 0x1 SWAP4 SWAP1 SWAP4 ADD SWAP3 PUSH1 0x20 SWAP2 DUP3 ADD SWAP2 ADD PUSH2 0x44B JUMP JUMPDEST POP SWAP1 SWAP6 SWAP5 POP POP POP POP POP JUMP JUMPDEST PUSH1 0x0 PUSH1 0x20 DUP3 DUP5 SUB SLT ISZERO PUSH2 0x487 JUMPI DUP1 DUP2 REVERT JUMPDEST POP CALLDATALOAD SWAP2 SWAP1 POP JUMP JUMPDEST SWAP1 JUMP JUMPDEST PUSH20 0xFFFFFFFFFFFFFFFFFFFFFFFFFFFFFFFFFFFFFFFF SWAP2 SWAP1 SWAP2 AND DUP2 MSTORE PUSH1 0x20 ADD SWAP1 JUMP JUMPDEST PUSH1 0x20 DUP1 DUP3 MSTORE PUSH1 0xB SWAP1 DUP3 ADD MSTORE PUSH32 0x43616C6C206661696C6564000000000000000000000000000000000000000000 PUSH1 0x40 DUP3 ADD MSTORE PUSH1 0x60 ADD SWAP1 JUMP JUMPDEST SWAP1 DUP2 MSTORE PUSH1 0x20 ADD SWAP1 JUMP JUMPDEST SWAP2 DUP3 MSTORE PUSH1 0x20 DUP3 ADD MSTORE PUSH1 0x40 ADD SWAP1 JUMP JUMPDEST PUSH1 0x0 DUP3 NOT DUP3 GT ISZERO PUSH2 0x538 JUMPI PUSH32 0x4E487B7100000000000000000000000000000000000000000000000000000000 DUP2 MSTORE PUSH1 0x11 PUSH1 0x4 MSTORE PUSH1 0x24 DUP2 REVERT JUMPDEST POP ADD SWAP1 JUMP JUMPDEST PUSH32 0x4E487B7100000000000000000000000000000000000000000000000000000000 PUSH1 0x0 MSTORE PUSH1 0x41 PUSH1 0x4 MSTORE PUSH1 0x24 PUSH1 0x0 REVERT INVALID LOG2 PUSH5 0x6970667358 0x22 SLT KECCAK256 0x5C 0xFB 0x2A DUP16 SWAP8 0xAF PUSH31 0xBC907CB38D371739B3CF9F313F3AA0B1633C5B6B409F22265A64736F6C6343 STOP ADDMOD STOP STOP CALLER "},"methodIdentifiers":{"aaa()":"937c0d0a","paramsb(uint256)":"93fd4fe8","pullOnly(uint256[8])":"d2f7a5c4","pullPay(uint256[8])":"d55995ba","pullPush(uint256[8])":"830ca615","reset()":"d826f88f","seeBalance()":"429a1bb0","sendEth()":"06e99fef","setAdmin(address)":"704b6c02"}}}}}