{"src/contracts/solidity/Aaa.sol":{"Aaa":{"abi":[{"inputs":[{"internalType":"address payable","name":"_Bbb","type":"address"}],"stateMutability":"nonpayable","type":"constructor"},{"inputs":[],"name":"bbbinternal","outputs":[{"internalType":"contract Bbb","name":"","type":"address"}],"stateMutability":"view","type":"function"},{"inputs":[{"internalType":"uint256","name":"","type":"uint256"}],"name":"params","outputs":[{"internalType":"uint256","name":"","type":"uint256"}],"stateMutability":"view","type":"function"},{"inputs":[],"name":"seeBalance","outputs":[{"internalType":"uint256","name":"ethHere","type":"uint256"}],"stateMutability":"view","type":"function"},{"inputs":[],"name":"sendData","outputs":[],"stateMutability":"nonpayable","type":"function"},{"inputs":[],"name":"sendData2","outputs":[],"stateMutability":"nonpayable","type":"function"},{"inputs":[],"name":"sendData3","outputs":[],"stateMutability":"nonpayable","type":"function"},{"inputs":[{"internalType":"uint256[8]","name":"_data","type":"uint256[8]"}],"name":"setData","outputs":[],"stateMutability":"nonpayable","type":"function"},{"stateMutability":"payable","type":"receive"}],"evm":{"bytecode":{"linkReferences":{},"object":"608060405234801561001057600080fd5b5060405161059638038061059683398101604081905261002f91610054565b600880546001600160a01b0319166001600160a01b0392909216919091179055610082565b600060208284031215610065578081fd5b81516001600160a01b038116811461007b578182fd5b9392505050565b610505806100916000396000f3fe6080604052600436106100745760003560e01c80636c7ae20a1161004e5780636c7ae20a146100ef5780638911be30146101045780639d2f053c14610119578063fd4d6c38146101395761007b565b8063429a1bb014610080578063494b2841146100ab5780635c0c8001146100cd5761007b565b3661007b57005b600080fd5b34801561008c57600080fd5b5061009561014e565b6040516100a29190610497565b60405180910390f35b3480156100b757600080fd5b506100c0610152565b6040516100a29190610476565b3480156100d957600080fd5b506100ed6100e8366004610384565b61016e565b005b3480156100fb57600080fd5b506100ed61017f565b34801561011057600080fd5b506100ed610238565b34801561012557600080fd5b50610095610134366004610409565b6102c3565b34801561014557600080fd5b506100ed6102da565b4790565b60085473ffffffffffffffffffffffffffffffffffffffff1681565b61017b6000826008610331565b5050565b6008546040517f830ca615000000000000000000000000000000000000000000000000000000008152600091829173ffffffffffffffffffffffffffffffffffffffff9091169063830ca615906101da908490600401610444565b6040805180830381600087803b1580156101f357600080fd5b505af1158015610207573d6000803e3d6000fd5b505050506040513d601f19601f8201168201806040525081019061022b9190610421565b6000919091556007555050565b6008546040517fd2f7a5c400000000000000000000000000000000000000000000000000000000815273ffffffffffffffffffffffffffffffffffffffff9091169063d2f7a5c49061028f90600090600401610444565b600060405180830381600087803b1580156102a957600080fd5b505af11580156102bd573d6000803e3d6000fd5b50505050565b600081600881106102d357600080fd5b0154905081565b6008546040517fd55995ba00000000000000000000000000000000000000000000000000000000815273ffffffffffffffffffffffffffffffffffffffff9091169063d55995ba9061028f90600090600401610444565b826008810192821561035f579160200282015b8281111561035f578251825591602001919060010190610344565b5061036b92915061036f565b5090565b5b8082111561036b5760008155600101610370565b6000610100808385031215610397578182fd5b83601f8401126103a5578182fd5b60405181810181811067ffffffffffffffff821117156103c7576103c76104a0565b60405280848381018710156103da578485fd5b8493505b60088410156103fe578035825260019390930192602091820191016103de565b509095945050505050565b60006020828403121561041a578081fd5b5035919050565b60008060408385031215610433578081fd5b505080516020909101519092909150565b6101008101818360005b600881101561046d57815483526020909201916001918201910161044e565b50505092915050565b73ffffffffffffffffffffffffffffffffffffffff91909116815260200190565b90815260200190565b7f4e487b7100000000000000000000000000000000000000000000000000000000600052604160045260246000fdfea26469706673582212208a1302c1fd9542d4ed5e553ca3d183e941e3e9536e0d9037649706d5929bb61964736f6c63430008000033","opcodes":"PUSH1 0x80 PUSH1 0x40 MSTORE CALLVALUE DUP1 ISZERO PUSH2 0x10 JUMPI PUSH1 0x0 DUP1 REVERT JUMPDEST POP PUSH1 0x40 MLOAD PUSH2 0x596 CODESIZE SUB DUP1 PUSH2 0x596 DUP4 CODECOPY DUP2 ADD PUSH1 0x40 DUP2 SWAP1 MSTORE PUSH2 0x2F SWAP2 PUSH2 0x54 JUMP JUMPDEST PUSH1 0x8 DUP1 SLOAD PUSH1 0x1 PUSH1 0x1 PUSH1 0xA0 SHL SUB NOT AND PUSH1 0x1 PUSH1 0x1 PUSH1 0xA0 SHL SUB SWAP3 SWAP1 SWAP3 AND SWAP2 SWAP1 SWAP2 OR SWAP1 SSTORE PUSH2 0x82 JUMP JUMPDEST PUSH1 0x0 PUSH1 0x20 DUP3 DUP5 SUB SLT ISZERO PUSH2 0x65 JUMPI DUP1 DUP2 REVERT JUMPDEST DUP2 MLOAD PUSH1 0x1 PUSH1 0x1 PUSH1 0xA0 SHL SUB DUP2 AND DUP2 EQ PUSH2 0x7B JUMPI DUP2 DUP3 REVERT JUMPDEST SWAP4 SWAP3 POP POP POP JUMP JUMPDEST PUSH2 0x505 DUP1 PUSH2 0x91 PUSH1 0x0 CODECOPY PUSH1 0x0 RETURN INVALID PUSH1 0x80 PUSH1 0x40 MSTORE PUSH1 0x4 CALLDATASIZE LT PUSH2 0x74 JUMPI PUSH1 0x0 CALLDATALOAD PUSH1 0xE0 SHR DUP1 PUSH4 0x6C7AE20A GT PUSH2 0x4E JUMPI DUP1 PUSH4 0x6C7AE20A EQ PUSH2 0xEF JUMPI DUP1 PUSH4 0x8911BE30 EQ PUSH2 0x104 JUMPI DUP1 PUSH4 0x9D2F053C EQ PUSH2 0x119 JUMPI DUP1 PUSH4 0xFD4D6C38 EQ PUSH2 0x139 JUMPI PUSH2 0x7B JUMP JUMPDEST DUP1 PUSH4 0x429A1BB0 EQ PUSH2 0x80 JUMPI DUP1 PUSH4 0x494B2841 EQ PUSH2 0xAB JUMPI DUP1 PUSH4 0x5C0C8001 EQ PUSH2 0xCD JUMPI PUSH2 0x7B JUMP JUMPDEST CALLDATASIZE PUSH2 0x7B JUMPI STOP JUMPDEST PUSH1 0x0 DUP1 REVERT JUMPDEST CALLVALUE DUP1 ISZERO PUSH2 0x8C JUMPI PUSH1 0x0 DUP1 REVERT JUMPDEST POP PUSH2 0x95 PUSH2 0x14E JUMP JUMPDEST PUSH1 0x40 MLOAD PUSH2 0xA2 SWAP2 SWAP1 PUSH2 0x497 JUMP JUMPDEST PUSH1 0x40 MLOAD DUP1 SWAP2 SUB SWAP1 RETURN JUMPDEST CALLVALUE DUP1 ISZERO PUSH2 0xB7 JUMPI PUSH1 0x0 DUP1 REVERT JUMPDEST POP PUSH2 0xC0 PUSH2 0x152 JUMP JUMPDEST PUSH1 0x40 MLOAD PUSH2 0xA2 SWAP2 SWAP1 PUSH2 0x476 JUMP JUMPDEST CALLVALUE DUP1 ISZERO PUSH2 0xD9 JUMPI PUSH1 0x0 DUP1 REVERT JUMPDEST POP PUSH2 0xED PUSH2 0xE8 CALLDATASIZE PUSH1 0x4 PUSH2 0x384 JUMP JUMPDEST PUSH2 0x16E JUMP JUMPDEST STOP JUMPDEST CALLVALUE DUP1 ISZERO PUSH2 0xFB JUMPI PUSH1 0x0 DUP1 REVERT JUMPDEST POP PUSH2 0xED PUSH2 0x17F JUMP JUMPDEST CALLVALUE DUP1 ISZERO PUSH2 0x110 JUMPI PUSH1 0x0 DUP1 REVERT JUMPDEST POP PUSH2 0xED PUSH2 0x238 JUMP JUMPDEST CALLVALUE DUP1 ISZERO PUSH2 0x125 JUMPI PUSH1 0x0 DUP1 REVERT JUMPDEST POP PUSH2 0x95 PUSH2 0x134 CALLDATASIZE PUSH1 0x4 PUSH2 0x409 JUMP JUMPDEST PUSH2 0x2C3 JUMP JUMPDEST CALLVALUE DUP1 ISZERO PUSH2 0x145 JUMPI PUSH1 0x0 DUP1 REVERT JUMPDEST POP PUSH2 0xED PUSH2 0x2DA JUMP JUMPDEST SELFBALANCE SWAP1 JUMP JUMPDEST PUSH1 0x8 SLOAD PUSH20 0xFFFFFFFFFFFFFFFFFFFFFFFFFFFFFFFFFFFFFFFF AND DUP2 JUMP JUMPDEST PUSH2 0x17B PUSH1 0x0 DUP3 PUSH1 0x8 PUSH2 0x331 JUMP JUMPDEST POP POP JUMP JUMPDEST PUSH1 0x8 SLOAD PUSH1 0x40 MLOAD PUSH32 0x830CA61500000000000000000000000000000000000000000000000000000000 DUP2 MSTORE PUSH1 0x0 SWAP2 DUP3 SWAP2 PUSH20 0xFFFFFFFFFFFFFFFFFFFFFFFFFFFFFFFFFFFFFFFF SWAP1 SWAP2 AND SWAP1 PUSH4 0x830CA615 SWAP1 PUSH2 0x1DA SWAP1 DUP5 SWAP1 PUSH1 0x4 ADD PUSH2 0x444 JUMP JUMPDEST PUSH1 0x40 DUP1 MLOAD DUP1 DUP4 SUB DUP2 PUSH1 0x0 DUP8 DUP1 EXTCODESIZE ISZERO DUP1 ISZERO PUSH2 0x1F3 JUMPI PUSH1 0x0 DUP1 REVERT JUMPDEST POP GAS CALL ISZERO DUP1 ISZERO PUSH2 0x207 JUMPI RETURNDATASIZE PUSH1 0x0 DUP1 RETURNDATACOPY RETURNDATASIZE PUSH1 0x0 REVERT JUMPDEST POP POP POP POP PUSH1 0x40 MLOAD RETURNDATASIZE PUSH1 0x1F NOT PUSH1 0x1F DUP3 ADD AND DUP3 ADD DUP1 PUSH1 0x40 MSTORE POP DUP2 ADD SWAP1 PUSH2 0x22B SWAP2 SWAP1 PUSH2 0x421 JUMP JUMPDEST PUSH1 0x0 SWAP2 SWAP1 SWAP2 SSTORE PUSH1 0x7 SSTORE POP POP JUMP JUMPDEST PUSH1 0x8 SLOAD PUSH1 0x40 MLOAD PUSH32 0xD2F7A5C400000000000000000000000000000000000000000000000000000000 DUP2 MSTORE PUSH20 0xFFFFFFFFFFFFFFFFFFFFFFFFFFFFFFFFFFFFFFFF SWAP1 SWAP2 AND SWAP1 PUSH4 0xD2F7A5C4 SWAP1 PUSH2 0x28F SWAP1 PUSH1 0x0 SWAP1 PUSH1 0x4 ADD PUSH2 0x444 JUMP JUMPDEST PUSH1 0x0 PUSH1 0x40 MLOAD DUP1 DUP4 SUB DUP2 PUSH1 0x0 DUP8 DUP1 EXTCODESIZE ISZERO DUP1 ISZERO PUSH2 0x2A9 JUMPI PUSH1 0x0 DUP1 REVERT JUMPDEST POP GAS CALL ISZERO DUP1 ISZERO PUSH2 0x2BD JUMPI RETURNDATASIZE PUSH1 0x0 DUP1 RETURNDATACOPY RETURNDATASIZE PUSH1 0x0 REVERT JUMPDEST POP POP POP POP JUMP JUMPDEST PUSH1 0x0 DUP2 PUSH1 0x8 DUP2 LT PUSH2 0x2D3 JUMPI PUSH1 0x0 DUP1 REVERT JUMPDEST ADD SLOAD SWAP1 POP DUP2 JUMP JUMPDEST PUSH1 0x8 SLOAD PUSH1 0x40 MLOAD PUSH32 0xD55995BA00000000000000000000000000000000000000000000000000000000 DUP2 MSTORE PUSH20 0xFFFFFFFFFFFFFFFFFFFFFFFFFFFFFFFFFFFFFFFF SWAP1 SWAP2 AND SWAP1 PUSH4 0xD55995BA SWAP1 PUSH2 0x28F SWAP1 PUSH1 0x0 SWAP1 PUSH1 0x4 ADD PUSH2 0x444 JUMP JUMPDEST DUP3 PUSH1 0x8 DUP2 ADD SWAP3 DUP3 ISZERO PUSH2 0x35F JUMPI SWAP2 PUSH1 0x20 MUL DUP3 ADD JUMPDEST DUP3 DUP2 GT ISZERO PUSH2 0x35F JUMPI DUP3 MLOAD DUP3 SSTORE SWAP2 PUSH1 0x20 ADD SWAP2 SWAP1 PUSH1 0x1 ADD SWAP1 PUSH2 0x344 JUMP JUMPDEST POP PUSH2 0x36B SWAP3 SWAP2 POP PUSH2 0x36F JUMP JUMPDEST POP SWAP1 JUMP JUMPDEST JUMPDEST DUP1 DUP3 GT ISZERO PUSH2 0x36B JUMPI PUSH1 0x0 DUP2 SSTORE PUSH1 0x1 ADD PUSH2 0x370 JUMP JUMPDEST PUSH1 0x0 PUSH2 0x100 DUP1 DUP4 DUP6 SUB SLT ISZERO PUSH2 0x397 JUMPI DUP2 DUP3 REVERT JUMPDEST DUP4 PUSH1 0x1F DUP5 ADD SLT PUSH2 0x3A5 JUMPI DUP2 DUP3 REVERT JUMPDEST PUSH1 0x40 MLOAD DUP2 DUP2 ADD DUP2 DUP2 LT PUSH8 0xFFFFFFFFFFFFFFFF DUP3 GT OR ISZERO PUSH2 0x3C7 JUMPI PUSH2 0x3C7 PUSH2 0x4A0 JUMP JUMPDEST PUSH1 0x40 MSTORE DUP1 DUP5 DUP4 DUP2 ADD DUP8 LT ISZERO PUSH2 0x3DA JUMPI DUP5 DUP6 REVERT JUMPDEST DUP5 SWAP4 POP JUMPDEST PUSH1 0x8 DUP5 LT ISZERO PUSH2 0x3FE JUMPI DUP1 CALLDATALOAD DUP3 MSTORE PUSH1 0x1 SWAP4 SWAP1 SWAP4 ADD SWAP3 PUSH1 0x20 SWAP2 DUP3 ADD SWAP2 ADD PUSH2 0x3DE JUMP JUMPDEST POP SWAP1 SWAP6 SWAP5 POP POP POP POP POP JUMP JUMPDEST PUSH1 0x0 PUSH1 0x20 DUP3 DUP5 SUB SLT ISZERO PUSH2 0x41A JUMPI DUP1 DUP2 REVERT JUMPDEST POP CALLDATALOAD SWAP2 SWAP1 POP JUMP JUMPDEST PUSH1 0x0 DUP1 PUSH1 0x40 DUP4 DUP6 SUB SLT ISZERO PUSH2 0x433 JUMPI DUP1 DUP2 REVERT JUMPDEST POP POP DUP1 MLOAD PUSH1 0x20 SWAP1 SWAP2 ADD MLOAD SWAP1 SWAP3 SWAP1 SWAP2 POP JUMP JUMPDEST PUSH2 0x100 DUP2 ADD DUP2 DUP4 PUSH1 0x0 JUMPDEST PUSH1 0x8 DUP2 LT ISZERO PUSH2 0x46D JUMPI DUP2 SLOAD DUP4 MSTORE PUSH1 0x20 SWAP1 SWAP3 ADD SWAP2 PUSH1 0x1 SWAP2 DUP3 ADD SWAP2 ADD PUSH2 0x44E JUMP JUMPDEST POP POP POP SWAP3 SWAP2 POP POP JUMP JUMPDEST PUSH20 0xFFFFFFFFFFFFFFFFFFFFFFFFFFFFFFFFFFFFFFFF SWAP2 SWAP1 SWAP2 AND DUP2 MSTORE PUSH1 0x20 ADD SWAP1 JUMP JUMPDEST SWAP1 DUP2 MSTORE PUSH1 0x20 ADD SWAP1 JUMP JUMPDEST PUSH32 0x4E487B7100000000000000000000000000000000000000000000000000000000 PUSH1 0x0 MSTORE PUSH1 0x41 PUSH1 0x4 MSTORE PUSH1 0x24 PUSH1 0x0 REVERT INVALID LOG2 PUSH5 0x6970667358 0x22 SLT KECCAK256 DUP11 SGT MUL 0xC1 REVERT SWAP6 TIMESTAMP 0xD4 0xED 0x5E SSTORE EXTCODECOPY LOG3 0xD1 DUP4 0xE9 COINBASE 0xE3 0xE9 MSTORE8 PUSH15 0xD9037649706D5929BB61964736F6C PUSH4 0x43000800 STOP CALLER "},"methodIdentifiers":{"bbbinternal()":"494b2841","params(uint256)":"9d2f053c","seeBalance()":"429a1bb0","sendData()":"8911be30","sendData2()":"fd4d6c38","sendData3()":"6c7ae20a","setData(uint256[8])":"5c0c8001"}}}}}