{"src/contracts/solidity/Oracle.sol":{"Oracle":{"abi":[{"inputs":[{"internalType":"address payable","name":"bettingk","type":"address"},{"internalType":"address","name":"_token","type":"address"}],"stateMutability":"nonpayable","type":"constructor"},{"anonymous":false,"inputs":[{"indexed":false,"internalType":"uint32","name":"epoch","type":"uint32"},{"indexed":false,"internalType":"uint32","name":"propnum","type":"uint32"},{"indexed":false,"internalType":"uint32[32]","name":"oddsStart","type":"uint32[32]"}],"name":"BetDataPosted","type":"event"},{"anonymous":false,"inputs":[{"indexed":false,"internalType":"uint32","name":"epoch","type":"uint32"},{"indexed":false,"internalType":"uint32","name":"propnum","type":"uint32"},{"indexed":false,"internalType":"uint32[32]","name":"decOdds","type":"uint32[32]"}],"name":"DecOddsPosted","type":"event"},{"anonymous":false,"inputs":[{"indexed":false,"internalType":"uint32","name":"tokensChange","type":"uint32"},{"indexed":false,"internalType":"uint256","name":"etherChange","type":"uint256"},{"indexed":false,"internalType":"address","name":"transactor","type":"address"}],"name":"Funding","type":"event"},{"anonymous":false,"inputs":[{"indexed":false,"internalType":"uint32","name":"concLimit","type":"uint32"}],"name":"ParamsPosted","type":"event"},{"anonymous":false,"inputs":[{"indexed":false,"internalType":"uint32","name":"epoch","type":"uint32"},{"indexed":false,"internalType":"uint32","name":"propnum","type":"uint32"},{"indexed":false,"internalType":"uint8[32]","name":"winner","type":"uint8[32]"}],"name":"ResultsPosted","type":"event"},{"anonymous":false,"inputs":[{"indexed":false,"internalType":"uint32","name":"epoch","type":"uint32"},{"indexed":false,"internalType":"uint32","name":"propnum","type":"uint32"},{"indexed":false,"internalType":"string[32]","name":"sched","type":"string[32]"}],"name":"SchedulePosted","type":"event"},{"anonymous":false,"inputs":[{"indexed":false,"internalType":"uint32","name":"propnum","type":"uint32"},{"indexed":false,"internalType":"uint32","name":"epoch","type":"uint32"},{"indexed":false,"internalType":"uint32[32]","name":"starttimes","type":"uint32[32]"}],"name":"StartTimesPosted","type":"event"},{"anonymous":false,"inputs":[{"indexed":false,"internalType":"bool","name":"voteResult","type":"bool"},{"indexed":false,"internalType":"uint32","name":"propnum","type":"uint32"},{"indexed":false,"internalType":"uint32","name":"epoch","type":"uint32"}],"name":"VoteOutcome","type":"event"},{"inputs":[],"name":"CURE_TIME","outputs":[{"internalType":"uint32","name":"","type":"uint32"}],"stateMutability":"view","type":"function"},{"inputs":[],"name":"HOUR_END","outputs":[{"internalType":"uint32","name":"","type":"uint32"}],"stateMutability":"view","type":"function"},{"inputs":[],"name":"HOUR_START","outputs":[{"internalType":"uint32","name":"","type":"uint32"}],"stateMutability":"view","type":"function"},{"inputs":[],"name":"MIN_SUBMIT","outputs":[{"internalType":"uint32","name":"","type":"uint32"}],"stateMutability":"view","type":"function"},{"inputs":[{"internalType":"address","name":"","type":"address"}],"name":"adminStruct","outputs":[{"internalType":"uint32","name":"tokens","type":"uint32"},{"internalType":"uint32","name":"voteTracker","type":"uint32"},{"internalType":"uint32","name":"initFeePool","type":"uint32"}],"stateMutability":"view","type":"function"},{"inputs":[],"name":"bettingContract","outputs":[{"internalType":"contract Betting","name":"","type":"address"}],"stateMutability":"view","type":"function"},{"inputs":[{"internalType":"uint32","name":"_amt","type":"uint32"}],"name":"depositTokens","outputs":[],"stateMutability":"nonpayable","type":"function"},{"inputs":[],"name":"hourOfDay","outputs":[{"internalType":"uint256","name":"hour","type":"uint256"}],"stateMutability":"view","type":"function"},{"inputs":[{"internalType":"string[32]","name":"_teamsched","type":"string[32]"},{"internalType":"uint32[32]","name":"_starts","type":"uint32[32]"},{"internalType":"uint32[32]","name":"_decimalOdds","type":"uint32[32]"}],"name":"initPost","outputs":[],"stateMutability":"nonpayable","type":"function"},{"inputs":[],"name":"initProcess","outputs":[],"stateMutability":"nonpayable","type":"function"},{"inputs":[{"internalType":"uint256","name":"","type":"uint256"}],"name":"matchSchedule","outputs":[{"internalType":"string","name":"","type":"string"}],"stateMutability":"view","type":"function"},{"inputs":[{"internalType":"uint32","name":"_concentrationLim","type":"uint32"}],"name":"paramUpdate","outputs":[],"stateMutability":"nonpayable","type":"function"},{"inputs":[{"internalType":"uint256","name":"","type":"uint256"}],"name":"params","outputs":[{"internalType":"uint32","name":"","type":"uint32"}],"stateMutability":"view","type":"function"},{"inputs":[{"internalType":"uint256","name":"","type":"uint256"}],"name":"propOddsStarts","outputs":[{"internalType":"uint96","name":"","type":"uint96"}],"stateMutability":"view","type":"function"},{"inputs":[{"internalType":"uint256","name":"","type":"uint256"}],"name":"propOddsUpdate","outputs":[{"internalType":"uint64","name":"","type":"uint64"}],"stateMutability":"view","type":"function"},{"inputs":[{"internalType":"uint256","name":"","type":"uint256"}],"name":"propResults","outputs":[{"internalType":"uint8","name":"","type":"uint8"}],"stateMutability":"view","type":"function"},{"inputs":[],"name":"proposer","outputs":[{"internalType":"address","name":"","type":"address"}],"stateMutability":"view","type":"function"},{"inputs":[{"internalType":"uint8[32]","name":"_resultVector","type":"uint8[32]"}],"name":"settlePost","outputs":[],"stateMutability":"nonpayable","type":"function"},{"inputs":[],"name":"settleProcess","outputs":[],"stateMutability":"nonpayable","type":"function"},{"inputs":[],"name":"showSchedString","outputs":[{"internalType":"string[32]","name":"","type":"string[32]"}],"stateMutability":"view","type":"function"},{"inputs":[],"name":"token","outputs":[{"internalType":"contract Token","name":"","type":"address"}],"stateMutability":"view","type":"function"},{"inputs":[{"internalType":"uint32[32]","name":"_decimalOdds","type":"uint32[32]"}],"name":"updatePost","outputs":[],"stateMutability":"nonpayable","type":"function"},{"inputs":[],"name":"updateProcess","outputs":[],"stateMutability":"nonpayable","type":"function"},{"inputs":[{"internalType":"bool","name":"_sendData","type":"bool"}],"name":"vote","outputs":[],"stateMutability":"nonpayable","type":"function"},{"inputs":[{"internalType":"uint32","name":"_amtTokens","type":"uint32"}],"name":"withdrawTokens","outputs":[],"stateMutability":"nonpayable","type":"function"},{"stateMutability":"payable","type":"receive"}],"evm":{"bytecode":{"linkReferences":{},"object":"60806040523480156200001157600080fd5b5060405162002fce38038062002fce8339810160408190526200003491620000a9565b603d80546001600160a01b039384166001600160a01b031991821617909155603c8054929093169116179055600080546801000000000000000063ffffffff60601b199091166f773594000000000000000000000000001763ffffffff191660011763ffffffff60401b191617905562000100565b60008060408385031215620000bc578182fd5b8251620000c981620000e7565b6020840151909250620000dc81620000e7565b809150509250929050565b6001600160a01b0381168114620000fd57600080fd5b50565b612ebe80620001106000396000f3fe60806040526004361061019a5760003560e01c806398823b90116100e1578063c37ac23b1161008a578063e2a9fc3f11610064578063e2a9fc3f1461042b578063e966f49f14610458578063f1ed3b391461046d578063fc0c546a1461049a576101a1565b8063c37ac23b146103dc578063c68ec645146103fc578063d332237414610392576101a1565b80639e6df0d8116100bb5780639e6df0d814610392578063a8e4fb90146103a7578063bd64f10f146103bc576101a1565b806398823b901461033d5780639d2f053c146103525780639d73f0a614610372576101a1565b80634b9f5c98116101435780637345b10b1161011d5780637345b10b146102cc578063862a7982146102ee57806391e04f7e14610310576101a1565b80634b9f5c981461026c57806350abb0181461028c5780635d85579d146102ac576101a1565b806321cb48311161017457806321cb48311461021557806347dee228146102375780634a1247ae14610257576101a1565b806303ecacc7146101a65780630a491d08146101dc578063160919bf146101f3576101a1565b366101a157005b600080fd5b3480156101b257600080fd5b506101c66101c13660046124a8565b6104af565b6040516101d39190612c57565b60405180910390f35b3480156101e857600080fd5b506101f16104d9565b005b3480156101ff57600080fd5b5061020861086d565b6040516101d39190612600565b34801561022157600080fd5b5061022a610936565b6040516101d391906125a4565b34801561024357600080fd5b506101f16102523660046124c0565b610945565b34801561026357600080fd5b506101f1610bfb565b34801561027857600080fd5b506101f1610287366004612470565b610eca565b34801561029857600080fd5b506101f16102a73660046124c0565b611021565b3480156102b857600080fd5b506101f16102c73660046123d9565b6110fe565b3480156102d857600080fd5b506102e161119f565b6040516101d39190612b11565b3480156102fa57600080fd5b506103036111c2565b6040516101d39190612b1a565b34801561031c57600080fd5b5061033061032b3660046124a8565b6111c7565b6040516101d39190612c65565b34801561034957600080fd5b506103036111ff565b34801561035e57600080fd5b5061030361036d3660046124a8565b611204565b34801561037e57600080fd5b506101f161038d3660046123bd565b611234565b34801561039e57600080fd5b506103036112df565b3480156103b357600080fd5b5061022a6112e4565b3480156103c857600080fd5b506101f16103d73660046122c4565b6112f3565b3480156103e857600080fd5b506101f16103f73660046124c0565b611454565b34801561040857600080fd5b5061041c610417366004612296565b611733565b6040516101d393929190612c22565b34801561043757600080fd5b5061044b6104463660046124a8565b611762565b6040516101d39190612c42565b34801561046457600080fd5b506101f1611796565b34801561047957600080fd5b5061048d6104883660046124a8565b611868565b6040516101d3919061297d565b3480156104a657600080fd5b5061022a611908565b601981602081106104bf57600080fd5b60209182820401919006915054906101000a900460ff1681565b600054640100000000900463ffffffff166003146105125760405162461bcd60e51b815260040161050990612ada565b60405180910390fd5b6000546c01000000000000000000000000900463ffffffff1642116105495760405162461bcd60e51b815260040161050990612a35565b60008054819063ffffffff600160c01b82048116600160a01b90920416111561072957603d546040517f0c26f9940000000000000000000000000000000000000000000000000000000081526001600160a01b0390911690630c26f994906105b690601990600401612676565b6040805180830381600087803b1580156105cf57600080fd5b505af11580156105e3573d6000803e3d6000fd5b505050506040513d601f19601f8201168201806040525081019061060791906124dc565b600080547fffffffffffffffffffffffffffffffffffffffffffffffffffffffff000000001663ffffffff84811691909117918290559194509192506106629170010000000000000000000000000000000090041683612d05565b60008054601c90610681908490600160e01b900463ffffffff16612cc9565b92506101000a81548163ffffffff021916908363ffffffff1602179055507f20dd2d358fe34919211e50a7415bbe4e0837dd45b50b2f611e3997dc7562520f6001600080600881106106e357634e487b7160e01b600052603260045260246000fd5b60088104919091015460005460405161071c94936007166004026101000a90920463ffffffff90811692600160401b909204169061295f565b60405180910390a1610861565b61073560026032612d05565b60008054601090610761908490700100000000000000000000000000000000900463ffffffff16612d73565b92506101000a81548163ffffffff021916908363ffffffff1602179055506002603261078d9190612d05565b603a546001600160a01b03166000908152603b6020526040812080549091906107bd90849063ffffffff16612d73565b92506101000a81548163ffffffff021916908363ffffffff1602179055507f20dd2d358fe34919211e50a7415bbe4e0837dd45b50b2f611e3997dc7562520f60008060006008811061081f57634e487b7160e01b600052603260045260246000fd5b60088104919091015460005460405161085894936007166004026101000a90920463ffffffff90811692600160401b909204169061295f565b60405180910390a15b610869611917565b5050565b610875611ed2565b604080516104008101909152601a60206000835b8282101561092c57838201805461089f90612d98565b80601f01602080910402602001604051908101604052809291908181526020018280546108cb90612d98565b80156109185780601f106108ed57610100808354040283529160200191610918565b820191906000526020600020905b8154815290600101906020018083116108fb57829003601f168201915b505050505081526020019060010190610889565b5050505090505b90565b603d546001600160a01b031681565b336000908152603b602052604081205463ffffffff1615610a4857336000908152603b602052604081205490546109939163ffffffff600160401b909104811691600160e01b900416612d73565b336000908152603b60205260409020546109b3919063ffffffff16612d47565b6109c89063ffffffff1664e8d4a51000612d28565b90506000336001600160a01b0316826040516109e390610933565b60006040518083038185875af1925050503d8060008114610a20576040519150601f19603f3d011682016040523d82523d6000602084013e610a25565b606091505b5050905080610a465760405162461bcd60e51b815260040161050990612990565b505b603c546040517f84269ed90000000000000000000000000000000000000000000000000000000081526001600160a01b03909116906384269ed990610a95903390309087906004016125b8565b602060405180830381600087803b158015610aaf57600080fd5b505af1158015610ac3573d6000803e3d6000fd5b505050506040513d601f19601f82011682018060405250810190610ae7919061248c565b5060008054338252603b602052604082208054600160401b63ffffffff600160e01b9094048416026bffffffff0000000000000000199091161780825585939192610b3491859116612cc9565b92506101000a81548163ffffffff021916908363ffffffff160217905550816000600460088110610b7557634e487b7160e01b600052603260045260246000fd5b600891828204019190066004028282829054906101000a900463ffffffff16610b9e9190612cc9565b92506101000a81548163ffffffff021916908363ffffffff1602179055507fcd8a5ece39d0b175e7e2ae6d276a5296bcd7da645b615b3d857b7fa2769db583828233604051610bef93929190612b2b565b60405180910390a15050565b600054640100000000900463ffffffff16600214610c2b5760405162461bcd60e51b815260040161050990612ada565b6000546c01000000000000000000000000900463ffffffff164211610c625760405162461bcd60e51b815260040161050990612a35565b60005463ffffffff600160c01b82048116600160a01b909204161115610d8857603d546040517f6c5975790000000000000000000000000000000000000000000000000000000081526001600160a01b0390911690636c59757990610ccc90601190600401612613565b600060405180830381600087803b158015610ce657600080fd5b505af1158015610cfa573d6000803e3d6000fd5b505050507f20dd2d358fe34919211e50a7415bbe4e0837dd45b50b2f611e3997dc7562520f600160008060088110610d4257634e487b7160e01b600052603260045260246000fd5b600881049190910154600054604051610d7b94936007166004026101000a90920463ffffffff90811692600160401b909204169061295f565b60405180910390a1610ec0565b610d9460026032612d05565b60008054601090610dc0908490700100000000000000000000000000000000900463ffffffff16612d73565b92506101000a81548163ffffffff021916908363ffffffff16021790555060026032610dec9190612d05565b603a546001600160a01b03166000908152603b602052604081208054909190610e1c90849063ffffffff16612d73565b92506101000a81548163ffffffff021916908363ffffffff1602179055507f20dd2d358fe34919211e50a7415bbe4e0837dd45b50b2f611e3997dc7562520f600080600060088110610e7e57634e487b7160e01b600052603260045260246000fd5b600881049190910154600054604051610eb794936007166004026101000a90920463ffffffff90811692600160401b909204169061295f565b60405180910390a15b610ec8611917565b565b336000908152603b602052604090205463ffffffff16610ee957600080fd5b600054640100000000900463ffffffff16610f0357600080fd5b60008054338252603b602052604090912054640100000000900463ffffffff908116600160401b909204161415610f3957600080fd5b60008054338252603b6020526040909120805467ffffffff000000001916600160401b90920463ffffffff16640100000000029190911790558015610fcd57336000908152603b6020526040812054815463ffffffff9182169291601491610faa918591600160a01b900416612cc9565b92506101000a81548163ffffffff021916908363ffffffff16021790555061101e565b336000908152603b6020526040812054815463ffffffff9182169291601891610fff918591600160c01b900416612cc9565b92506101000a81548163ffffffff021916908363ffffffff1602179055505b50565b336000908152603b6020526040902054631dcd650063ffffffff909116101561104957600080fd5b603d546040517f654e207f0000000000000000000000000000000000000000000000000000000081526001600160a01b039091169063654e207f90611092908490600401612b1a565b600060405180830381600087803b1580156110ac57600080fd5b505af11580156110c0573d6000803e3d6000fd5b505050507f0814d5d412c9e5c68d4adafd64c8d3d494e6ce7124cae6745a99b5af1c58ca79816040516110f39190612b1a565b60405180910390a150565b600054640100000000900463ffffffff161561112c5760405162461bcd60e51b815260040161050990612a6c565b6000805467ffffffff00000000191664030000000017905561114c611a47565b6111596019826020611efa565b506000546040517fc3112836f9ee0a75d7eb745ceb3d24f881bd142a63d78420be0ed828947d69dc916110f39163ffffffff80831692600160401b900416908590612bd3565b6000610e106111b16201518042612e12565b6111bb9190612cf1565b9050610933565b603281565b600181602081106111d757600080fd5b60029182820401919006600c02915054906101000a90046bffffffffffffffffffffffff1681565b601881565b6000816008811061121457600080fd5b60089182820401919006600402915054906101000a900463ffffffff1681565b600054640100000000900463ffffffff16156112625760405162461bcd60e51b815260040161050990612a6c565b6000805467ffffffff000000001916640200000000179055611282611a47565b61128b81611bb2565b611299906011906020611f8d565b506000546040517f49b4bc9c053b4c36615642b3229d4b569c3357e92266aed739428f05c2b15407916110f39163ffffffff80831692600160401b900416908590612b84565b600081565b603a546001600160a01b031681565b600054640100000000900463ffffffff16156113215760405162461bcd60e51b815260040161050990612a6c565b61132b8282611d1d565b611339906001906020612023565b506000805467ffffffff00000000191664010000000017905561135a611a47565b611367601a8460206120c5565b506000546040517f6530cb2e3260e20d52f3ae9c7966099ad3ddb5e2bedfd0fe4c0459c7245fae42916113ad9163ffffffff80831692600160401b900416908790612b52565b60405180910390a16000546040517f155123c2dd70f9f15fa563c0d47f5ba62d9dd1602a73d7ab36b33ca4cb2940c6916113fa9163ffffffff80831692600160401b900416908690612b84565b60405180910390a16000546040517f49b4bc9c053b4c36615642b3229d4b569c3357e92266aed739428f05c2b15407916114479163ffffffff80831692600160401b900416908590612b84565b60405180910390a1505050565b336000908152603b602052604090205463ffffffff908116908216111561148d5760405162461bcd60e51b8152600401610509906129fe565b600054640100000000900463ffffffff16156114bb5760405162461bcd60e51b815260040161050990612aa3565b336000908152603b602052604081205481546114ee9163ffffffff600160401b909104811691600160e01b900416612d73565b336000908152603b602052604090205461150e919063ffffffff16612d47565b6115239063ffffffff1664e8d4a51000612d28565b60008054338252603b602052604082208054600160401b63ffffffff600160e01b9094048416026bffffffff0000000000000000199091161790558154929350849260109161158991859170010000000000000000000000000000000090910416612d73565b82546101009290920a63ffffffff818102199093169183160217909155336000908152603b60205260408120805486945090926115c891859116612d73565b92506101000a81548163ffffffff021916908363ffffffff1602179055506000336001600160a01b0316826040516115ff90610933565b60006040518083038185875af1925050503d806000811461163c576040519150601f19603f3d011682016040523d82523d6000602084013e611641565b606091505b50509050806116625760405162461bcd60e51b815260040161050990612990565b603c546040517f800974840000000000000000000000000000000000000000000000000000000081526001600160a01b03909116906380097484906116ad90339087906004016125e1565b602060405180830381600087803b1580156116c757600080fd5b505af11580156116db573d6000803e3d6000fd5b505050506040513d601f19601f820116820180604052508101906116ff919061248c565b507fcd8a5ece39d0b175e7e2ae6d276a5296bcd7da645b615b3d857b7fa2769db58383833360405161144793929190612b2b565b603b6020526000908152604090205463ffffffff808216916401000000008104821691600160401b9091041683565b6011816020811061177257600080fd5b60049182820401919006600802915054906101000a900467ffffffffffffffff1681565b60005463ffffffff640100000000909104166001146117c75760405162461bcd60e51b815260040161050990612ada565b6000546c01000000000000000000000000900463ffffffff1642116117fe5760405162461bcd60e51b815260040161050990612a35565b60005463ffffffff600160c01b82048116600160a01b909204161115610d8857603d546040517f0c05cbb70000000000000000000000000000000000000000000000000000000081526001600160a01b0390911690630c05cbb790610ccc9060019060040161290d565b601a816020811061187857600080fd5b01805490915061188790612d98565b80601f01602080910402602001604051908101604052809291908181526020018280546118b390612d98565b80156119005780601f106118d557610100808354040283529160200191611900565b820191906000526020600020905b8154815290600101906020018083116118e357829003601f168201915b505050505081565b603c546001600160a01b031681565b6000805467ffffffff000000001916808255600160401b900463ffffffff1690600861194283612dee565b91906101000a81548163ffffffff021916908363ffffffff1602179055505060008060036008811061198457634e487b7160e01b600052603260045260246000fd5b600891828204019190066004026101000a81548163ffffffff021916908363ffffffff1602179055506000806005600881106119d057634e487b7160e01b600052603260045260246000fd5b600891828204019190066004026101000a81548163ffffffff021916908363ffffffff160217905550600080600660088110611a1c57634e487b7160e01b600052603260045260246000fd5b600891828204019190066004026101000a81548163ffffffff021916908363ffffffff160217905550565b611a4f61119f565b50336000908152603b6020526040902054603263ffffffff9091161015611a885760405162461bcd60e51b8152600401610509906129c7565b611a93600042612cc9565b600080547fffffffffffffffffffffffffffffffff00000000ffffffffffffffffffffffff166c0100000000000000000000000063ffffffff938416021780825533808352603b6020526040832080548516600160a01b027fffffffffffffffff00000000ffffffffffffffffffffffffffffffffffffffff90931692909217909255603a80547fffffffffffffffffffffffff000000000000000000000000000000000000000016909217909155546101f491161115611b7757600080547fffffffffffffffffffffffffffffffff00000000ffffffffffffffffffffffff1690555b60008054338252603b6020526040909120805467ffffffff000000001916600160401b90920463ffffffff1664010000000002919091179055565b611bba612111565b60008060005b6020811015611d1557607d858260208110611beb57634e487b7160e01b600052603260045260246000fd5b602002015163ffffffff16118015611c2e5750611f40858260208110611c2157634e487b7160e01b600052603260045260246000fd5b602002015163ffffffff16105b611c3757600080fd5b6029858260208110611c5957634e487b7160e01b600052603260045260246000fd5b6020020151611c69906029612cc9565b611c7690620f4240612d05565b611c809190612d73565b92506020858260208110611ca457634e487b7160e01b600052603260045260246000fd5b602002015163ffffffff1667ffffffffffffffff16901b821791508263ffffffff168217915081848260208110611ceb57634e487b7160e01b600052603260045260246000fd5b67ffffffffffffffff90921660209290920201526000915080611d0d81612dd3565b915050611bc0565b505050919050565b611d25612111565b60008060005b6020811015611ec957607d858260208110611d5657634e487b7160e01b600052603260045260246000fd5b602002015163ffffffff16118015611d995750611f40858260208110611d8c57634e487b7160e01b600052603260045260246000fd5b602002015163ffffffff16105b611da257600080fd5b6029858260208110611dc457634e487b7160e01b600052603260045260246000fd5b6020020151611dd4906029612cc9565b611de190620f4240612d05565b611deb9190612d73565b92506040868260208110611e0f57634e487b7160e01b600052603260045260246000fd5b602002015163ffffffff166bffffffffffffffffffffffff16901b821791506020858260208110611e5057634e487b7160e01b600052603260045260246000fd5b602002015163ffffffff166bffffffffffffffffffffffff16901b821791508263ffffffff168217915081848260208110611e9b57634e487b7160e01b600052603260045260246000fd5b6bffffffffffffffffffffffff90921660209290920201526000915080611ec181612dd3565b915050611d2b565b50505092915050565b6040518061040001604052806020905b6060815260200190600190039081611ee25790505090565b600183019183908215611f7d5791602002820160005b83821115611f4e57835183826101000a81548160ff021916908360ff1602179055509260200192600101602081600001049283019260010302611f10565b8015611f7b5782816101000a81549060ff0219169055600101602081600001049283019260010302611f4e565b505b50611f89929150612130565b5090565b600883019183908215611f7d5791602002820160005b83821115611fef57835183826101000a81548167ffffffffffffffff021916908367ffffffffffffffff1602179055509260200192600801602081600701049283019260010302611fa3565b8015611f7b5782816101000a81549067ffffffffffffffff0219169055600801602081600701049283019260010302611fef565b601083019183908215611f7d5791602002820160005b8382111561208d57835183826101000a8154816bffffffffffffffffffffffff02191690836bffffffffffffffffffffffff1602179055509260200192600c01602081600b01049283019260010302612039565b8015611f7b5782816101000a8154906bffffffffffffffffffffffff0219169055600c01602081600b0104928301926001030261208d565b8260208101928215612105579160200282015b8281111561210557825180516120f5918491602090910190612145565b50916020019190600101906120d8565b50611f899291506121b9565b6040518061040001604052806020906020820280368337509192915050565b5b80821115611f895760008155600101612131565b82805461215190612d98565b90600052602060002090601f0160209004810192826121735760008555611f7d565b82601f1061218c57805160ff1916838001178555611f7d565b82800160010185558215611f7d579182015b82811115611f7d57825182559160200191906001019061219e565b80821115611f895760006121cd82826121d6565b506001016121b9565b5080546121e290612d98565b6000825580601f106121f4575061101e565b601f01602090049060005260206000209081019061101e9190612130565b600082601f830112612222578081fd5b60405161040080820182811067ffffffffffffffff8211171561224757612247612e52565b604052818482810187101561225a578485fd5b8492505b602080841061226d575061228b565b813561227881612e76565b835260019390930192918201910161225e565b509195945050505050565b6000602082840312156122a7578081fd5b81356001600160a01b03811681146122bd578182fd5b9392505050565b600080600061082084860312156122d9578182fd5b833567ffffffffffffffff808211156122f0578384fd5b8186019150601f8781840112612304578485fd5b602061231761231282612ca8565b612c7e565b8085885b8481101561238d57813588018d87820112612334578a8bfd5b80358881111561234657612346612e52565b61235787601f198a84011601612c7e565b8181528f8883850101111561236a578c8dfd5b818884018983013790810187018c9052855250928401929084019060010161231b565b505080985050506123a089828a01612212565b9550505050506123b4856104208601612212565b90509250925092565b600061040082840312156123cf578081fd5b6122bd8383612212565b60006104008083850312156123ec578182fd5b83601f8401126123fa578182fd5b60405181810181811067ffffffffffffffff8211171561241c5761241c612e52565b604052808483810187101561242f578485fd5b8493505b60208085106124425750612465565b813560ff81168114612452578687fd5b8352600194909401939182019101612433565b509095945050505050565b600060208284031215612481578081fd5b81356122bd81612e68565b60006020828403121561249d578081fd5b81516122bd81612e68565b6000602082840312156124b9578081fd5b5035919050565b6000602082840312156124d1578081fd5b81356122bd81612e76565b600080604083850312156124ee578182fd5b82516124f981612e76565b602084015190925061250a81612e76565b809150509250929050565b600082610400810183835b602080821061252f5750612465565b848403885261253f848451612552565b9781019793509190910190600101612520565b60008151808452815b818110156125775760208185018101518683018201520161255b565b818111156125885782602083870101525b50601f01601f19169290920160200192915050565b60ff169052565b6001600160a01b0391909116815260200190565b6001600160a01b03938416815291909216602082015263ffffffff909116604082015260600190565b6001600160a01b0392909216825263ffffffff16602082015260400190565b6000602082526122bd6020830184612515565b6104008101818360005b602080600383011061262f5750611ec9565b825467ffffffffffffffff8082168652604082811c821693870193909352608082811c9091169286019290925260c01c60608501529092019160019091019060040161261d565b61040081810190828460005b602080601f8301106126945750612903565b825460ff6126a48682841661259d565b6126b5838701828460081c1661259d565b60406126c8818801838560101c1661259d565b60606126db818901848660181c1661259d565b60806126ed818a018587891c1661259d565b60a09550612702868a01858760281c1661259d565b60c0612715818b01868860301c1661259d565b60e0612728818c01878960381c1661259d565b61273a6101008c018789881c1661259d565b61274d6101208c01878960481c1661259d565b6127606101408c01878960501c1661259d565b6127736101608c01878960581c1661259d565b6127856101808c018789871c1661259d565b6127986101a08c01878960681c1661259d565b6127ab6101c08c01878960701c1661259d565b6127be6101e08c01878960781c1661259d565b6127d06102008c018789861c1661259d565b6127e36102208c01878960881c1661259d565b6127f66102408c01878960901c1661259d565b6128096102608c01878960981c1661259d565b61281b6102808c0187898b1c1661259d565b61282e6102a08c01878960a81c1661259d565b6128416102c08c01878960b01c1661259d565b6128546102e08c01878960b81c1661259d565b6128666103008c018789851c1661259d565b6128796103208c01878960c81c1661259d565b61288c6103408c01878960d01c1661259d565b61289f6103608c01878960d81c1661259d565b6128b16103808c018789841c1661259d565b50505050506128c96103a08701828460e81c1661259d565b6128dc6103c08701828460f01c1661259d565b506128ee6103e086018260f81c61259d565b50509183019160019190910190602001612682565b5050505092915050565b6104008101818360005b60206001818184011061292b575050611ec9565b83546bffffffffffffffffffffffff808216875260609190911c169185019190915260409093019290910190600201612917565b921515835263ffffffff918216602084015216604082015260600190565b6000602082526122bd6020830184612552565b6020808252600b908201527f43616c6c206661696c6564000000000000000000000000000000000000000000604082015260600190565b6020808252600b908201527f4c6f772042616c616e6365000000000000000000000000000000000000000000604082015260600190565b6020808252600b908201527f6e65656420746f6b656e73000000000000000000000000000000000000000000604082015260600190565b60208082526008908201527f746f6f20736f6f6e000000000000000000000000000000000000000000000000604082015260600190565b60208082526014908201527f416c726561647920756e64657220526576696577000000000000000000000000604082015260600190565b60208082526011908201527f6e6f20776420647572696e6720766f7465000000000000000000000000000000604082015260600190565b6020808252600a908201527f77726f6e67206461746100000000000000000000000000000000000000000000604082015260600190565b90815260200190565b63ffffffff91909116815260200190565b63ffffffff93909316835260208301919091526001600160a01b0316604082015260600190565b600063ffffffff808616835280851660208401525060606040830152612b7b6060830184612515565b95945050505050565b60006104408201905063ffffffff8086168352602081861681850152604084018560005b83811015612bc6578151851683529183019190830190600101612ba8565b5050505050949350505050565b63ffffffff8481168252831660208083019190915261044082019060408301908460005b82811015612c1657815160ff1684529282019290820190600101612bf7565b50505050949350505050565b63ffffffff93841681529183166020830152909116604082015260600190565b67ffffffffffffffff91909116815260200190565b60ff91909116815260200190565b6bffffffffffffffffffffffff91909116815260200190565b60405181810167ffffffffffffffff81118282101715612ca057612ca0612e52565b604052919050565b600067ffffffffffffffff821115612cc257612cc2612e52565b5060200290565b600063ffffffff808316818516808303821115612ce857612ce8612e26565b01949350505050565b600082612d0057612d00612e3c565b500490565b600063ffffffff80841680612d1c57612d1c612e3c565b92169190910492915050565b6000816000190483118215151615612d4257612d42612e26565b500290565b600063ffffffff80831681851681830481118215151615612d6a57612d6a612e26565b02949350505050565b600063ffffffff83811690831681811015612d9057612d90612e26565b039392505050565b600281046001821680612dac57607f821691505b60208210811415612dcd57634e487b7160e01b600052602260045260246000fd5b50919050565b6000600019821415612de757612de7612e26565b5060010190565b600063ffffffff80831681811415612e0857612e08612e26565b6001019392505050565b600082612e2157612e21612e3c565b500690565b634e487b7160e01b600052601160045260246000fd5b634e487b7160e01b600052601260045260246000fd5b634e487b7160e01b600052604160045260246000fd5b801515811461101e57600080fd5b63ffffffff8116811461101e57600080fdfea2646970667358221220ba55520f5a0694b7f833b9ee5145b34668065d070e18d303a1c1aa5ee583e8b064736f6c63430008000033","opcodes":"PUSH1 0x80 PUSH1 0x40 MSTORE CALLVALUE DUP1 ISZERO PUSH3 0x11 JUMPI PUSH1 0x0 DUP1 REVERT JUMPDEST POP PUSH1 0x40 MLOAD PUSH3 0x2FCE CODESIZE SUB DUP1 PUSH3 0x2FCE DUP4 CODECOPY DUP2 ADD PUSH1 0x40 DUP2 SWAP1 MSTORE PUSH3 0x34 SWAP2 PUSH3 0xA9 JUMP JUMPDEST PUSH1 0x3D DUP1 SLOAD PUSH1 0x1 PUSH1 0x1 PUSH1 0xA0 SHL SUB SWAP4 DUP5 AND PUSH1 0x1 PUSH1 0x1 PUSH1 0xA0 SHL SUB NOT SWAP2 DUP3 AND OR SWAP1 SWAP2 SSTORE PUSH1 0x3C DUP1 SLOAD SWAP3 SWAP1 SWAP4 AND SWAP2 AND OR SWAP1 SSTORE PUSH1 0x0 DUP1 SLOAD PUSH9 0x10000000000000000 PUSH4 0xFFFFFFFF PUSH1 0x60 SHL NOT SWAP1 SWAP2 AND PUSH16 0x77359400000000000000000000000000 OR PUSH4 0xFFFFFFFF NOT AND PUSH1 0x1 OR PUSH4 0xFFFFFFFF PUSH1 0x40 SHL NOT AND OR SWAP1 SSTORE PUSH3 0x100 JUMP JUMPDEST PUSH1 0x0 DUP1 PUSH1 0x40 DUP4 DUP6 SUB SLT ISZERO PUSH3 0xBC JUMPI DUP2 DUP3 REVERT JUMPDEST DUP3 MLOAD PUSH3 0xC9 DUP2 PUSH3 0xE7 JUMP JUMPDEST PUSH1 0x20 DUP5 ADD MLOAD SWAP1 SWAP3 POP PUSH3 0xDC DUP2 PUSH3 0xE7 JUMP JUMPDEST DUP1 SWAP2 POP POP SWAP3 POP SWAP3 SWAP1 POP JUMP JUMPDEST PUSH1 0x1 PUSH1 0x1 PUSH1 0xA0 SHL SUB DUP2 AND DUP2 EQ PUSH3 0xFD JUMPI PUSH1 0x0 DUP1 REVERT JUMPDEST POP JUMP JUMPDEST PUSH2 0x2EBE DUP1 PUSH3 0x110 PUSH1 0x0 CODECOPY PUSH1 0x0 RETURN INVALID PUSH1 0x80 PUSH1 0x40 MSTORE PUSH1 0x4 CALLDATASIZE LT PUSH2 0x19A JUMPI PUSH1 0x0 CALLDATALOAD PUSH1 0xE0 SHR DUP1 PUSH4 0x98823B90 GT PUSH2 0xE1 JUMPI DUP1 PUSH4 0xC37AC23B GT PUSH2 0x8A JUMPI DUP1 PUSH4 0xE2A9FC3F GT PUSH2 0x64 JUMPI DUP1 PUSH4 0xE2A9FC3F EQ PUSH2 0x42B JUMPI DUP1 PUSH4 0xE966F49F EQ PUSH2 0x458 JUMPI DUP1 PUSH4 0xF1ED3B39 EQ PUSH2 0x46D JUMPI DUP1 PUSH4 0xFC0C546A EQ PUSH2 0x49A JUMPI PUSH2 0x1A1 JUMP JUMPDEST DUP1 PUSH4 0xC37AC23B EQ PUSH2 0x3DC JUMPI DUP1 PUSH4 0xC68EC645 EQ PUSH2 0x3FC JUMPI DUP1 PUSH4 0xD3322374 EQ PUSH2 0x392 JUMPI PUSH2 0x1A1 JUMP JUMPDEST DUP1 PUSH4 0x9E6DF0D8 GT PUSH2 0xBB JUMPI DUP1 PUSH4 0x9E6DF0D8 EQ PUSH2 0x392 JUMPI DUP1 PUSH4 0xA8E4FB90 EQ PUSH2 0x3A7 JUMPI DUP1 PUSH4 0xBD64F10F EQ PUSH2 0x3BC JUMPI PUSH2 0x1A1 JUMP JUMPDEST DUP1 PUSH4 0x98823B90 EQ PUSH2 0x33D JUMPI DUP1 PUSH4 0x9D2F053C EQ PUSH2 0x352 JUMPI DUP1 PUSH4 0x9D73F0A6 EQ PUSH2 0x372 JUMPI PUSH2 0x1A1 JUMP JUMPDEST DUP1 PUSH4 0x4B9F5C98 GT PUSH2 0x143 JUMPI DUP1 PUSH4 0x7345B10B GT PUSH2 0x11D JUMPI DUP1 PUSH4 0x7345B10B EQ PUSH2 0x2CC JUMPI DUP1 PUSH4 0x862A7982 EQ PUSH2 0x2EE JUMPI DUP1 PUSH4 0x91E04F7E EQ PUSH2 0x310 JUMPI PUSH2 0x1A1 JUMP JUMPDEST DUP1 PUSH4 0x4B9F5C98 EQ PUSH2 0x26C JUMPI DUP1 PUSH4 0x50ABB018 EQ PUSH2 0x28C JUMPI DUP1 PUSH4 0x5D85579D EQ PUSH2 0x2AC JUMPI PUSH2 0x1A1 JUMP JUMPDEST DUP1 PUSH4 0x21CB4831 GT PUSH2 0x174 JUMPI DUP1 PUSH4 0x21CB4831 EQ PUSH2 0x215 JUMPI DUP1 PUSH4 0x47DEE228 EQ PUSH2 0x237 JUMPI DUP1 PUSH4 0x4A1247AE EQ PUSH2 0x257 JUMPI PUSH2 0x1A1 JUMP JUMPDEST DUP1 PUSH4 0x3ECACC7 EQ PUSH2 0x1A6 JUMPI DUP1 PUSH4 0xA491D08 EQ PUSH2 0x1DC JUMPI DUP1 PUSH4 0x160919BF EQ PUSH2 0x1F3 JUMPI PUSH2 0x1A1 JUMP JUMPDEST CALLDATASIZE PUSH2 0x1A1 JUMPI STOP JUMPDEST PUSH1 0x0 DUP1 REVERT JUMPDEST CALLVALUE DUP1 ISZERO PUSH2 0x1B2 JUMPI PUSH1 0x0 DUP1 REVERT JUMPDEST POP PUSH2 0x1C6 PUSH2 0x1C1 CALLDATASIZE PUSH1 0x4 PUSH2 0x24A8 JUMP JUMPDEST PUSH2 0x4AF JUMP JUMPDEST PUSH1 0x40 MLOAD PUSH2 0x1D3 SWAP2 SWAP1 PUSH2 0x2C57 JUMP JUMPDEST PUSH1 0x40 MLOAD DUP1 SWAP2 SUB SWAP1 RETURN JUMPDEST CALLVALUE DUP1 ISZERO PUSH2 0x1E8 JUMPI PUSH1 0x0 DUP1 REVERT JUMPDEST POP PUSH2 0x1F1 PUSH2 0x4D9 JUMP JUMPDEST STOP JUMPDEST CALLVALUE DUP1 ISZERO PUSH2 0x1FF JUMPI PUSH1 0x0 DUP1 REVERT JUMPDEST POP PUSH2 0x208 PUSH2 0x86D JUMP JUMPDEST PUSH1 0x40 MLOAD PUSH2 0x1D3 SWAP2 SWAP1 PUSH2 0x2600 JUMP JUMPDEST CALLVALUE DUP1 ISZERO PUSH2 0x221 JUMPI PUSH1 0x0 DUP1 REVERT JUMPDEST POP PUSH2 0x22A PUSH2 0x936 JUMP JUMPDEST PUSH1 0x40 MLOAD PUSH2 0x1D3 SWAP2 SWAP1 PUSH2 0x25A4 JUMP JUMPDEST CALLVALUE DUP1 ISZERO PUSH2 0x243 JUMPI PUSH1 0x0 DUP1 REVERT JUMPDEST POP PUSH2 0x1F1 PUSH2 0x252 CALLDATASIZE PUSH1 0x4 PUSH2 0x24C0 JUMP JUMPDEST PUSH2 0x945 JUMP JUMPDEST CALLVALUE DUP1 ISZERO PUSH2 0x263 JUMPI PUSH1 0x0 DUP1 REVERT JUMPDEST POP PUSH2 0x1F1 PUSH2 0xBFB JUMP JUMPDEST CALLVALUE DUP1 ISZERO PUSH2 0x278 JUMPI PUSH1 0x0 DUP1 REVERT JUMPDEST POP PUSH2 0x1F1 PUSH2 0x287 CALLDATASIZE PUSH1 0x4 PUSH2 0x2470 JUMP JUMPDEST PUSH2 0xECA JUMP JUMPDEST CALLVALUE DUP1 ISZERO PUSH2 0x298 JUMPI PUSH1 0x0 DUP1 REVERT JUMPDEST POP PUSH2 0x1F1 PUSH2 0x2A7 CALLDATASIZE PUSH1 0x4 PUSH2 0x24C0 JUMP JUMPDEST PUSH2 0x1021 JUMP JUMPDEST CALLVALUE DUP1 ISZERO PUSH2 0x2B8 JUMPI PUSH1 0x0 DUP1 REVERT JUMPDEST POP PUSH2 0x1F1 PUSH2 0x2C7 CALLDATASIZE PUSH1 0x4 PUSH2 0x23D9 JUMP JUMPDEST PUSH2 0x10FE JUMP JUMPDEST CALLVALUE DUP1 ISZERO PUSH2 0x2D8 JUMPI PUSH1 0x0 DUP1 REVERT JUMPDEST POP PUSH2 0x2E1 PUSH2 0x119F JUMP JUMPDEST PUSH1 0x40 MLOAD PUSH2 0x1D3 SWAP2 SWAP1 PUSH2 0x2B11 JUMP JUMPDEST CALLVALUE DUP1 ISZERO PUSH2 0x2FA JUMPI PUSH1 0x0 DUP1 REVERT JUMPDEST POP PUSH2 0x303 PUSH2 0x11C2 JUMP JUMPDEST PUSH1 0x40 MLOAD PUSH2 0x1D3 SWAP2 SWAP1 PUSH2 0x2B1A JUMP JUMPDEST CALLVALUE DUP1 ISZERO PUSH2 0x31C JUMPI PUSH1 0x0 DUP1 REVERT JUMPDEST POP PUSH2 0x330 PUSH2 0x32B CALLDATASIZE PUSH1 0x4 PUSH2 0x24A8 JUMP JUMPDEST PUSH2 0x11C7 JUMP JUMPDEST PUSH1 0x40 MLOAD PUSH2 0x1D3 SWAP2 SWAP1 PUSH2 0x2C65 JUMP JUMPDEST CALLVALUE DUP1 ISZERO PUSH2 0x349 JUMPI PUSH1 0x0 DUP1 REVERT JUMPDEST POP PUSH2 0x303 PUSH2 0x11FF JUMP JUMPDEST CALLVALUE DUP1 ISZERO PUSH2 0x35E JUMPI PUSH1 0x0 DUP1 REVERT JUMPDEST POP PUSH2 0x303 PUSH2 0x36D CALLDATASIZE PUSH1 0x4 PUSH2 0x24A8 JUMP JUMPDEST PUSH2 0x1204 JUMP JUMPDEST CALLVALUE DUP1 ISZERO PUSH2 0x37E JUMPI PUSH1 0x0 DUP1 REVERT JUMPDEST POP PUSH2 0x1F1 PUSH2 0x38D CALLDATASIZE PUSH1 0x4 PUSH2 0x23BD JUMP JUMPDEST PUSH2 0x1234 JUMP JUMPDEST CALLVALUE DUP1 ISZERO PUSH2 0x39E JUMPI PUSH1 0x0 DUP1 REVERT JUMPDEST POP PUSH2 0x303 PUSH2 0x12DF JUMP JUMPDEST CALLVALUE DUP1 ISZERO PUSH2 0x3B3 JUMPI PUSH1 0x0 DUP1 REVERT JUMPDEST POP PUSH2 0x22A PUSH2 0x12E4 JUMP JUMPDEST CALLVALUE DUP1 ISZERO PUSH2 0x3C8 JUMPI PUSH1 0x0 DUP1 REVERT JUMPDEST POP PUSH2 0x1F1 PUSH2 0x3D7 CALLDATASIZE PUSH1 0x4 PUSH2 0x22C4 JUMP JUMPDEST PUSH2 0x12F3 JUMP JUMPDEST CALLVALUE DUP1 ISZERO PUSH2 0x3E8 JUMPI PUSH1 0x0 DUP1 REVERT JUMPDEST POP PUSH2 0x1F1 PUSH2 0x3F7 CALLDATASIZE PUSH1 0x4 PUSH2 0x24C0 JUMP JUMPDEST PUSH2 0x1454 JUMP JUMPDEST CALLVALUE DUP1 ISZERO PUSH2 0x408 JUMPI PUSH1 0x0 DUP1 REVERT JUMPDEST POP PUSH2 0x41C PUSH2 0x417 CALLDATASIZE PUSH1 0x4 PUSH2 0x2296 JUMP JUMPDEST PUSH2 0x1733 JUMP JUMPDEST PUSH1 0x40 MLOAD PUSH2 0x1D3 SWAP4 SWAP3 SWAP2 SWAP1 PUSH2 0x2C22 JUMP JUMPDEST CALLVALUE DUP1 ISZERO PUSH2 0x437 JUMPI PUSH1 0x0 DUP1 REVERT JUMPDEST POP PUSH2 0x44B PUSH2 0x446 CALLDATASIZE PUSH1 0x4 PUSH2 0x24A8 JUMP JUMPDEST PUSH2 0x1762 JUMP JUMPDEST PUSH1 0x40 MLOAD PUSH2 0x1D3 SWAP2 SWAP1 PUSH2 0x2C42 JUMP JUMPDEST CALLVALUE DUP1 ISZERO PUSH2 0x464 JUMPI PUSH1 0x0 DUP1 REVERT JUMPDEST POP PUSH2 0x1F1 PUSH2 0x1796 JUMP JUMPDEST CALLVALUE DUP1 ISZERO PUSH2 0x479 JUMPI PUSH1 0x0 DUP1 REVERT JUMPDEST POP PUSH2 0x48D PUSH2 0x488 CALLDATASIZE PUSH1 0x4 PUSH2 0x24A8 JUMP JUMPDEST PUSH2 0x1868 JUMP JUMPDEST PUSH1 0x40 MLOAD PUSH2 0x1D3 SWAP2 SWAP1 PUSH2 0x297D JUMP JUMPDEST CALLVALUE DUP1 ISZERO PUSH2 0x4A6 JUMPI PUSH1 0x0 DUP1 REVERT JUMPDEST POP PUSH2 0x22A PUSH2 0x1908 JUMP JUMPDEST PUSH1 0x19 DUP2 PUSH1 0x20 DUP2 LT PUSH2 0x4BF JUMPI PUSH1 0x0 DUP1 REVERT JUMPDEST PUSH1 0x20 SWAP2 DUP3 DUP3 DIV ADD SWAP2 SWAP1 MOD SWAP2 POP SLOAD SWAP1 PUSH2 0x100 EXP SWAP1 DIV PUSH1 0xFF AND DUP2 JUMP JUMPDEST PUSH1 0x0 SLOAD PUSH5 0x100000000 SWAP1 DIV PUSH4 0xFFFFFFFF AND PUSH1 0x3 EQ PUSH2 0x512 JUMPI PUSH1 0x40 MLOAD PUSH3 0x461BCD PUSH1 0xE5 SHL DUP2 MSTORE PUSH1 0x4 ADD PUSH2 0x509 SWAP1 PUSH2 0x2ADA JUMP JUMPDEST PUSH1 0x40 MLOAD DUP1 SWAP2 SUB SWAP1 REVERT JUMPDEST PUSH1 0x0 SLOAD PUSH13 0x1000000000000000000000000 SWAP1 DIV PUSH4 0xFFFFFFFF AND TIMESTAMP GT PUSH2 0x549 JUMPI PUSH1 0x40 MLOAD PUSH3 0x461BCD PUSH1 0xE5 SHL DUP2 MSTORE PUSH1 0x4 ADD PUSH2 0x509 SWAP1 PUSH2 0x2A35 JUMP JUMPDEST PUSH1 0x0 DUP1 SLOAD DUP2 SWAP1 PUSH4 0xFFFFFFFF PUSH1 0x1 PUSH1 0xC0 SHL DUP3 DIV DUP2 AND PUSH1 0x1 PUSH1 0xA0 SHL SWAP1 SWAP3 DIV AND GT ISZERO PUSH2 0x729 JUMPI PUSH1 0x3D SLOAD PUSH1 0x40 MLOAD PUSH32 0xC26F99400000000000000000000000000000000000000000000000000000000 DUP2 MSTORE PUSH1 0x1 PUSH1 0x1 PUSH1 0xA0 SHL SUB SWAP1 SWAP2 AND SWAP1 PUSH4 0xC26F994 SWAP1 PUSH2 0x5B6 SWAP1 PUSH1 0x19 SWAP1 PUSH1 0x4 ADD PUSH2 0x2676 JUMP JUMPDEST PUSH1 0x40 DUP1 MLOAD DUP1 DUP4 SUB DUP2 PUSH1 0x0 DUP8 DUP1 EXTCODESIZE ISZERO DUP1 ISZERO PUSH2 0x5CF JUMPI PUSH1 0x0 DUP1 REVERT JUMPDEST POP GAS CALL ISZERO DUP1 ISZERO PUSH2 0x5E3 JUMPI RETURNDATASIZE PUSH1 0x0 DUP1 RETURNDATACOPY RETURNDATASIZE PUSH1 0x0 REVERT JUMPDEST POP POP POP POP PUSH1 0x40 MLOAD RETURNDATASIZE PUSH1 0x1F NOT PUSH1 0x1F DUP3 ADD AND DUP3 ADD DUP1 PUSH1 0x40 MSTORE POP DUP2 ADD SWAP1 PUSH2 0x607 SWAP2 SWAP1 PUSH2 0x24DC JUMP JUMPDEST PUSH1 0x0 DUP1 SLOAD PUSH32 0xFFFFFFFFFFFFFFFFFFFFFFFFFFFFFFFFFFFFFFFFFFFFFFFFFFFFFFFF00000000 AND PUSH4 0xFFFFFFFF DUP5 DUP2 AND SWAP2 SWAP1 SWAP2 OR SWAP2 DUP3 SWAP1 SSTORE SWAP2 SWAP5 POP SWAP2 SWAP3 POP PUSH2 0x662 SWAP2 PUSH17 0x100000000000000000000000000000000 SWAP1 DIV AND DUP4 PUSH2 0x2D05 JUMP JUMPDEST PUSH1 0x0 DUP1 SLOAD PUSH1 0x1C SWAP1 PUSH2 0x681 SWAP1 DUP5 SWAP1 PUSH1 0x1 PUSH1 0xE0 SHL SWAP1 DIV PUSH4 0xFFFFFFFF AND PUSH2 0x2CC9 JUMP JUMPDEST SWAP3 POP PUSH2 0x100 EXP DUP2 SLOAD DUP2 PUSH4 0xFFFFFFFF MUL NOT AND SWAP1 DUP4 PUSH4 0xFFFFFFFF AND MUL OR SWAP1 SSTORE POP PUSH32 0x20DD2D358FE34919211E50A7415BBE4E0837DD45B50B2F611E3997DC7562520F PUSH1 0x1 PUSH1 0x0 DUP1 PUSH1 0x8 DUP2 LT PUSH2 0x6E3 JUMPI PUSH4 0x4E487B71 PUSH1 0xE0 SHL PUSH1 0x0 MSTORE PUSH1 0x32 PUSH1 0x4 MSTORE PUSH1 0x24 PUSH1 0x0 REVERT JUMPDEST PUSH1 0x8 DUP2 DIV SWAP2 SWAP1 SWAP2 ADD SLOAD PUSH1 0x0 SLOAD PUSH1 0x40 MLOAD PUSH2 0x71C SWAP5 SWAP4 PUSH1 0x7 AND PUSH1 0x4 MUL PUSH2 0x100 EXP SWAP1 SWAP3 DIV PUSH4 0xFFFFFFFF SWAP1 DUP2 AND SWAP3 PUSH1 0x1 PUSH1 0x40 SHL SWAP1 SWAP3 DIV AND SWAP1 PUSH2 0x295F JUMP JUMPDEST PUSH1 0x40 MLOAD DUP1 SWAP2 SUB SWAP1 LOG1 PUSH2 0x861 JUMP JUMPDEST PUSH2 0x735 PUSH1 0x2 PUSH1 0x32 PUSH2 0x2D05 JUMP JUMPDEST PUSH1 0x0 DUP1 SLOAD PUSH1 0x10 SWAP1 PUSH2 0x761 SWAP1 DUP5 SWAP1 PUSH17 0x100000000000000000000000000000000 SWAP1 DIV PUSH4 0xFFFFFFFF AND PUSH2 0x2D73 JUMP JUMPDEST SWAP3 POP PUSH2 0x100 EXP DUP2 SLOAD DUP2 PUSH4 0xFFFFFFFF MUL NOT AND SWAP1 DUP4 PUSH4 0xFFFFFFFF AND MUL OR SWAP1 SSTORE POP PUSH1 0x2 PUSH1 0x32 PUSH2 0x78D SWAP2 SWAP1 PUSH2 0x2D05 JUMP JUMPDEST PUSH1 0x3A SLOAD PUSH1 0x1 PUSH1 0x1 PUSH1 0xA0 SHL SUB AND PUSH1 0x0 SWAP1 DUP2 MSTORE PUSH1 0x3B PUSH1 0x20 MSTORE PUSH1 0x40 DUP2 KECCAK256 DUP1 SLOAD SWAP1 SWAP2 SWAP1 PUSH2 0x7BD SWAP1 DUP5 SWAP1 PUSH4 0xFFFFFFFF AND PUSH2 0x2D73 JUMP JUMPDEST SWAP3 POP PUSH2 0x100 EXP DUP2 SLOAD DUP2 PUSH4 0xFFFFFFFF MUL NOT AND SWAP1 DUP4 PUSH4 0xFFFFFFFF AND MUL OR SWAP1 SSTORE POP PUSH32 0x20DD2D358FE34919211E50A7415BBE4E0837DD45B50B2F611E3997DC7562520F PUSH1 0x0 DUP1 PUSH1 0x0 PUSH1 0x8 DUP2 LT PUSH2 0x81F JUMPI PUSH4 0x4E487B71 PUSH1 0xE0 SHL PUSH1 0x0 MSTORE PUSH1 0x32 PUSH1 0x4 MSTORE PUSH1 0x24 PUSH1 0x0 REVERT JUMPDEST PUSH1 0x8 DUP2 DIV SWAP2 SWAP1 SWAP2 ADD SLOAD PUSH1 0x0 SLOAD PUSH1 0x40 MLOAD PUSH2 0x858 SWAP5 SWAP4 PUSH1 0x7 AND PUSH1 0x4 MUL PUSH2 0x100 EXP SWAP1 SWAP3 DIV PUSH4 0xFFFFFFFF SWAP1 DUP2 AND SWAP3 PUSH1 0x1 PUSH1 0x40 SHL SWAP1 SWAP3 DIV AND SWAP1 PUSH2 0x295F JUMP JUMPDEST PUSH1 0x40 MLOAD DUP1 SWAP2 SUB SWAP1 LOG1 JUMPDEST PUSH2 0x869 PUSH2 0x1917 JUMP JUMPDEST POP POP JUMP JUMPDEST PUSH2 0x875 PUSH2 0x1ED2 JUMP JUMPDEST PUSH1 0x40 DUP1 MLOAD PUSH2 0x400 DUP2 ADD SWAP1 SWAP2 MSTORE PUSH1 0x1A PUSH1 0x20 PUSH1 0x0 DUP4 JUMPDEST DUP3 DUP3 LT ISZERO PUSH2 0x92C JUMPI DUP4 DUP3 ADD DUP1 SLOAD PUSH2 0x89F SWAP1 PUSH2 0x2D98 JUMP JUMPDEST DUP1 PUSH1 0x1F ADD PUSH1 0x20 DUP1 SWAP2 DIV MUL PUSH1 0x20 ADD PUSH1 0x40 MLOAD SWAP1 DUP2 ADD PUSH1 0x40 MSTORE DUP1 SWAP3 SWAP2 SWAP1 DUP2 DUP2 MSTORE PUSH1 0x20 ADD DUP3 DUP1 SLOAD PUSH2 0x8CB SWAP1 PUSH2 0x2D98 JUMP JUMPDEST DUP1 ISZERO PUSH2 0x918 JUMPI DUP1 PUSH1 0x1F LT PUSH2 0x8ED JUMPI PUSH2 0x100 DUP1 DUP4 SLOAD DIV MUL DUP4 MSTORE SWAP2 PUSH1 0x20 ADD SWAP2 PUSH2 0x918 JUMP JUMPDEST DUP3 ADD SWAP2 SWAP1 PUSH1 0x0 MSTORE PUSH1 0x20 PUSH1 0x0 KECCAK256 SWAP1 JUMPDEST DUP2 SLOAD DUP2 MSTORE SWAP1 PUSH1 0x1 ADD SWAP1 PUSH1 0x20 ADD DUP1 DUP4 GT PUSH2 0x8FB JUMPI DUP3 SWAP1 SUB PUSH1 0x1F AND DUP3 ADD SWAP2 JUMPDEST POP POP POP POP POP DUP2 MSTORE PUSH1 0x20 ADD SWAP1 PUSH1 0x1 ADD SWAP1 PUSH2 0x889 JUMP JUMPDEST POP POP POP POP SWAP1 POP JUMPDEST SWAP1 JUMP JUMPDEST PUSH1 0x3D SLOAD PUSH1 0x1 PUSH1 0x1 PUSH1 0xA0 SHL SUB AND DUP2 JUMP JUMPDEST CALLER PUSH1 0x0 SWAP1 DUP2 MSTORE PUSH1 0x3B PUSH1 0x20 MSTORE PUSH1 0x40 DUP2 KECCAK256 SLOAD PUSH4 0xFFFFFFFF AND ISZERO PUSH2 0xA48 JUMPI CALLER PUSH1 0x0 SWAP1 DUP2 MSTORE PUSH1 0x3B PUSH1 0x20 MSTORE PUSH1 0x40 DUP2 KECCAK256 SLOAD SWAP1 SLOAD PUSH2 0x993 SWAP2 PUSH4 0xFFFFFFFF PUSH1 0x1 PUSH1 0x40 SHL SWAP1 SWAP2 DIV DUP2 AND SWAP2 PUSH1 0x1 PUSH1 0xE0 SHL SWAP1 DIV AND PUSH2 0x2D73 JUMP JUMPDEST CALLER PUSH1 0x0 SWAP1 DUP2 MSTORE PUSH1 0x3B PUSH1 0x20 MSTORE PUSH1 0x40 SWAP1 KECCAK256 SLOAD PUSH2 0x9B3 SWAP2 SWAP1 PUSH4 0xFFFFFFFF AND PUSH2 0x2D47 JUMP JUMPDEST PUSH2 0x9C8 SWAP1 PUSH4 0xFFFFFFFF AND PUSH5 0xE8D4A51000 PUSH2 0x2D28 JUMP JUMPDEST SWAP1 POP PUSH1 0x0 CALLER PUSH1 0x1 PUSH1 0x1 PUSH1 0xA0 SHL SUB AND DUP3 PUSH1 0x40 MLOAD PUSH2 0x9E3 SWAP1 PUSH2 0x933 JUMP JUMPDEST PUSH1 0x0 PUSH1 0x40 MLOAD DUP1 DUP4 SUB DUP2 DUP6 DUP8 GAS CALL SWAP3 POP POP POP RETURNDATASIZE DUP1 PUSH1 0x0 DUP2 EQ PUSH2 0xA20 JUMPI PUSH1 0x40 MLOAD SWAP2 POP PUSH1 0x1F NOT PUSH1 0x3F RETURNDATASIZE ADD AND DUP3 ADD PUSH1 0x40 MSTORE RETURNDATASIZE DUP3 MSTORE RETURNDATASIZE PUSH1 0x0 PUSH1 0x20 DUP5 ADD RETURNDATACOPY PUSH2 0xA25 JUMP JUMPDEST PUSH1 0x60 SWAP2 POP JUMPDEST POP POP SWAP1 POP DUP1 PUSH2 0xA46 JUMPI PUSH1 0x40 MLOAD PUSH3 0x461BCD PUSH1 0xE5 SHL DUP2 MSTORE PUSH1 0x4 ADD PUSH2 0x509 SWAP1 PUSH2 0x2990 JUMP JUMPDEST POP JUMPDEST PUSH1 0x3C SLOAD PUSH1 0x40 MLOAD PUSH32 0x84269ED900000000000000000000000000000000000000000000000000000000 DUP2 MSTORE PUSH1 0x1 PUSH1 0x1 PUSH1 0xA0 SHL SUB SWAP1 SWAP2 AND SWAP1 PUSH4 0x84269ED9 SWAP1 PUSH2 0xA95 SWAP1 CALLER SWAP1 ADDRESS SWAP1 DUP8 SWAP1 PUSH1 0x4 ADD PUSH2 0x25B8 JUMP JUMPDEST PUSH1 0x20 PUSH1 0x40 MLOAD DUP1 DUP4 SUB DUP2 PUSH1 0x0 DUP8 DUP1 EXTCODESIZE ISZERO DUP1 ISZERO PUSH2 0xAAF JUMPI PUSH1 0x0 DUP1 REVERT JUMPDEST POP GAS CALL ISZERO DUP1 ISZERO PUSH2 0xAC3 JUMPI RETURNDATASIZE PUSH1 0x0 DUP1 RETURNDATACOPY RETURNDATASIZE PUSH1 0x0 REVERT JUMPDEST POP POP POP POP PUSH1 0x40 MLOAD RETURNDATASIZE PUSH1 0x1F NOT PUSH1 0x1F DUP3 ADD AND DUP3 ADD DUP1 PUSH1 0x40 MSTORE POP DUP2 ADD SWAP1 PUSH2 0xAE7 SWAP2 SWAP1 PUSH2 0x248C JUMP JUMPDEST POP PUSH1 0x0 DUP1 SLOAD CALLER DUP3 MSTORE PUSH1 0x3B PUSH1 0x20 MSTORE PUSH1 0x40 DUP3 KECCAK256 DUP1 SLOAD PUSH1 0x1 PUSH1 0x40 SHL PUSH4 0xFFFFFFFF PUSH1 0x1 PUSH1 0xE0 SHL SWAP1 SWAP5 DIV DUP5 AND MUL PUSH12 0xFFFFFFFF0000000000000000 NOT SWAP1 SWAP2 AND OR DUP1 DUP3 SSTORE DUP6 SWAP4 SWAP2 SWAP3 PUSH2 0xB34 SWAP2 DUP6 SWAP2 AND PUSH2 0x2CC9 JUMP JUMPDEST SWAP3 POP PUSH2 0x100 EXP DUP2 SLOAD DUP2 PUSH4 0xFFFFFFFF MUL NOT AND SWAP1 DUP4 PUSH4 0xFFFFFFFF AND MUL OR SWAP1 SSTORE POP DUP2 PUSH1 0x0 PUSH1 0x4 PUSH1 0x8 DUP2 LT PUSH2 0xB75 JUMPI PUSH4 0x4E487B71 PUSH1 0xE0 SHL PUSH1 0x0 MSTORE PUSH1 0x32 PUSH1 0x4 MSTORE PUSH1 0x24 PUSH1 0x0 REVERT JUMPDEST PUSH1 0x8 SWAP2 DUP3 DUP3 DIV ADD SWAP2 SWAP1 MOD PUSH1 0x4 MUL DUP3 DUP3 DUP3 SWAP1 SLOAD SWAP1 PUSH2 0x100 EXP SWAP1 DIV PUSH4 0xFFFFFFFF AND PUSH2 0xB9E SWAP2 SWAP1 PUSH2 0x2CC9 JUMP JUMPDEST SWAP3 POP PUSH2 0x100 EXP DUP2 SLOAD DUP2 PUSH4 0xFFFFFFFF MUL NOT AND SWAP1 DUP4 PUSH4 0xFFFFFFFF AND MUL OR SWAP1 SSTORE POP PUSH32 0xCD8A5ECE39D0B175E7E2AE6D276A5296BCD7DA645B615B3D857B7FA2769DB583 DUP3 DUP3 CALLER PUSH1 0x40 MLOAD PUSH2 0xBEF SWAP4 SWAP3 SWAP2 SWAP1 PUSH2 0x2B2B JUMP JUMPDEST PUSH1 0x40 MLOAD DUP1 SWAP2 SUB SWAP1 LOG1 POP POP JUMP JUMPDEST PUSH1 0x0 SLOAD PUSH5 0x100000000 SWAP1 DIV PUSH4 0xFFFFFFFF AND PUSH1 0x2 EQ PUSH2 0xC2B JUMPI PUSH1 0x40 MLOAD PUSH3 0x461BCD PUSH1 0xE5 SHL DUP2 MSTORE PUSH1 0x4 ADD PUSH2 0x509 SWAP1 PUSH2 0x2ADA JUMP JUMPDEST PUSH1 0x0 SLOAD PUSH13 0x1000000000000000000000000 SWAP1 DIV PUSH4 0xFFFFFFFF AND TIMESTAMP GT PUSH2 0xC62 JUMPI PUSH1 0x40 MLOAD PUSH3 0x461BCD PUSH1 0xE5 SHL DUP2 MSTORE PUSH1 0x4 ADD PUSH2 0x509 SWAP1 PUSH2 0x2A35 JUMP JUMPDEST PUSH1 0x0 SLOAD PUSH4 0xFFFFFFFF PUSH1 0x1 PUSH1 0xC0 SHL DUP3 DIV DUP2 AND PUSH1 0x1 PUSH1 0xA0 SHL SWAP1 SWAP3 DIV AND GT ISZERO PUSH2 0xD88 JUMPI PUSH1 0x3D SLOAD PUSH1 0x40 MLOAD PUSH32 0x6C59757900000000000000000000000000000000000000000000000000000000 DUP2 MSTORE PUSH1 0x1 PUSH1 0x1 PUSH1 0xA0 SHL SUB SWAP1 SWAP2 AND SWAP1 PUSH4 0x6C597579 SWAP1 PUSH2 0xCCC SWAP1 PUSH1 0x11 SWAP1 PUSH1 0x4 ADD PUSH2 0x2613 JUMP JUMPDEST PUSH1 0x0 PUSH1 0x40 MLOAD DUP1 DUP4 SUB DUP2 PUSH1 0x0 DUP8 DUP1 EXTCODESIZE ISZERO DUP1 ISZERO PUSH2 0xCE6 JUMPI PUSH1 0x0 DUP1 REVERT JUMPDEST POP GAS CALL ISZERO DUP1 ISZERO PUSH2 0xCFA JUMPI RETURNDATASIZE PUSH1 0x0 DUP1 RETURNDATACOPY RETURNDATASIZE PUSH1 0x0 REVERT JUMPDEST POP POP POP POP PUSH32 0x20DD2D358FE34919211E50A7415BBE4E0837DD45B50B2F611E3997DC7562520F PUSH1 0x1 PUSH1 0x0 DUP1 PUSH1 0x8 DUP2 LT PUSH2 0xD42 JUMPI PUSH4 0x4E487B71 PUSH1 0xE0 SHL PUSH1 0x0 MSTORE PUSH1 0x32 PUSH1 0x4 MSTORE PUSH1 0x24 PUSH1 0x0 REVERT JUMPDEST PUSH1 0x8 DUP2 DIV SWAP2 SWAP1 SWAP2 ADD SLOAD PUSH1 0x0 SLOAD PUSH1 0x40 MLOAD PUSH2 0xD7B SWAP5 SWAP4 PUSH1 0x7 AND PUSH1 0x4 MUL PUSH2 0x100 EXP SWAP1 SWAP3 DIV PUSH4 0xFFFFFFFF SWAP1 DUP2 AND SWAP3 PUSH1 0x1 PUSH1 0x40 SHL SWAP1 SWAP3 DIV AND SWAP1 PUSH2 0x295F JUMP JUMPDEST PUSH1 0x40 MLOAD DUP1 SWAP2 SUB SWAP1 LOG1 PUSH2 0xEC0 JUMP JUMPDEST PUSH2 0xD94 PUSH1 0x2 PUSH1 0x32 PUSH2 0x2D05 JUMP JUMPDEST PUSH1 0x0 DUP1 SLOAD PUSH1 0x10 SWAP1 PUSH2 0xDC0 SWAP1 DUP5 SWAP1 PUSH17 0x100000000000000000000000000000000 SWAP1 DIV PUSH4 0xFFFFFFFF AND PUSH2 0x2D73 JUMP JUMPDEST SWAP3 POP PUSH2 0x100 EXP DUP2 SLOAD DUP2 PUSH4 0xFFFFFFFF MUL NOT AND SWAP1 DUP4 PUSH4 0xFFFFFFFF AND MUL OR SWAP1 SSTORE POP PUSH1 0x2 PUSH1 0x32 PUSH2 0xDEC SWAP2 SWAP1 PUSH2 0x2D05 JUMP JUMPDEST PUSH1 0x3A SLOAD PUSH1 0x1 PUSH1 0x1 PUSH1 0xA0 SHL SUB AND PUSH1 0x0 SWAP1 DUP2 MSTORE PUSH1 0x3B PUSH1 0x20 MSTORE PUSH1 0x40 DUP2 KECCAK256 DUP1 SLOAD SWAP1 SWAP2 SWAP1 PUSH2 0xE1C SWAP1 DUP5 SWAP1 PUSH4 0xFFFFFFFF AND PUSH2 0x2D73 JUMP JUMPDEST SWAP3 POP PUSH2 0x100 EXP DUP2 SLOAD DUP2 PUSH4 0xFFFFFFFF MUL NOT AND SWAP1 DUP4 PUSH4 0xFFFFFFFF AND MUL OR SWAP1 SSTORE POP PUSH32 0x20DD2D358FE34919211E50A7415BBE4E0837DD45B50B2F611E3997DC7562520F PUSH1 0x0 DUP1 PUSH1 0x0 PUSH1 0x8 DUP2 LT PUSH2 0xE7E JUMPI PUSH4 0x4E487B71 PUSH1 0xE0 SHL PUSH1 0x0 MSTORE PUSH1 0x32 PUSH1 0x4 MSTORE PUSH1 0x24 PUSH1 0x0 REVERT JUMPDEST PUSH1 0x8 DUP2 DIV SWAP2 SWAP1 SWAP2 ADD SLOAD PUSH1 0x0 SLOAD PUSH1 0x40 MLOAD PUSH2 0xEB7 SWAP5 SWAP4 PUSH1 0x7 AND PUSH1 0x4 MUL PUSH2 0x100 EXP SWAP1 SWAP3 DIV PUSH4 0xFFFFFFFF SWAP1 DUP2 AND SWAP3 PUSH1 0x1 PUSH1 0x40 SHL SWAP1 SWAP3 DIV AND SWAP1 PUSH2 0x295F JUMP JUMPDEST PUSH1 0x40 MLOAD DUP1 SWAP2 SUB SWAP1 LOG1 JUMPDEST PUSH2 0xEC8 PUSH2 0x1917 JUMP JUMPDEST JUMP JUMPDEST CALLER PUSH1 0x0 SWAP1 DUP2 MSTORE PUSH1 0x3B PUSH1 0x20 MSTORE PUSH1 0x40 SWAP1 KECCAK256 SLOAD PUSH4 0xFFFFFFFF AND PUSH2 0xEE9 JUMPI PUSH1 0x0 DUP1 REVERT JUMPDEST PUSH1 0x0 SLOAD PUSH5 0x100000000 SWAP1 DIV PUSH4 0xFFFFFFFF AND PUSH2 0xF03 JUMPI PUSH1 0x0 DUP1 REVERT JUMPDEST PUSH1 0x0 DUP1 SLOAD CALLER DUP3 MSTORE PUSH1 0x3B PUSH1 0x20 MSTORE PUSH1 0x40 SWAP1 SWAP2 KECCAK256 SLOAD PUSH5 0x100000000 SWAP1 DIV PUSH4 0xFFFFFFFF SWAP1 DUP2 AND PUSH1 0x1 PUSH1 0x40 SHL SWAP1 SWAP3 DIV AND EQ ISZERO PUSH2 0xF39 JUMPI PUSH1 0x0 DUP1 REVERT JUMPDEST PUSH1 0x0 DUP1 SLOAD CALLER DUP3 MSTORE PUSH1 0x3B PUSH1 0x20 MSTORE PUSH1 0x40 SWAP1 SWAP2 KECCAK256 DUP1 SLOAD PUSH8 0xFFFFFFFF00000000 NOT AND PUSH1 0x1 PUSH1 0x40 SHL SWAP1 SWAP3 DIV PUSH4 0xFFFFFFFF AND PUSH5 0x100000000 MUL SWAP2 SWAP1 SWAP2 OR SWAP1 SSTORE DUP1 ISZERO PUSH2 0xFCD JUMPI CALLER PUSH1 0x0 SWAP1 DUP2 MSTORE PUSH1 0x3B PUSH1 0x20 MSTORE PUSH1 0x40 DUP2 KECCAK256 SLOAD DUP2 SLOAD PUSH4 0xFFFFFFFF SWAP2 DUP3 AND SWAP3 SWAP2 PUSH1 0x14 SWAP2 PUSH2 0xFAA SWAP2 DUP6 SWAP2 PUSH1 0x1 PUSH1 0xA0 SHL SWAP1 DIV AND PUSH2 0x2CC9 JUMP JUMPDEST SWAP3 POP PUSH2 0x100 EXP DUP2 SLOAD DUP2 PUSH4 0xFFFFFFFF MUL NOT AND SWAP1 DUP4 PUSH4 0xFFFFFFFF AND MUL OR SWAP1 SSTORE POP PUSH2 0x101E JUMP JUMPDEST CALLER PUSH1 0x0 SWAP1 DUP2 MSTORE PUSH1 0x3B PUSH1 0x20 MSTORE PUSH1 0x40 DUP2 KECCAK256 SLOAD DUP2 SLOAD PUSH4 0xFFFFFFFF SWAP2 DUP3 AND SWAP3 SWAP2 PUSH1 0x18 SWAP2 PUSH2 0xFFF SWAP2 DUP6 SWAP2 PUSH1 0x1 PUSH1 0xC0 SHL SWAP1 DIV AND PUSH2 0x2CC9 JUMP JUMPDEST SWAP3 POP PUSH2 0x100 EXP DUP2 SLOAD DUP2 PUSH4 0xFFFFFFFF MUL NOT AND SWAP1 DUP4 PUSH4 0xFFFFFFFF AND MUL OR SWAP1 SSTORE POP JUMPDEST POP JUMP JUMPDEST CALLER PUSH1 0x0 SWAP1 DUP2 MSTORE PUSH1 0x3B PUSH1 0x20 MSTORE PUSH1 0x40 SWAP1 KECCAK256 SLOAD PUSH4 0x1DCD6500 PUSH4 0xFFFFFFFF SWAP1 SWAP2 AND LT ISZERO PUSH2 0x1049 JUMPI PUSH1 0x0 DUP1 REVERT JUMPDEST PUSH1 0x3D SLOAD PUSH1 0x40 MLOAD PUSH32 0x654E207F00000000000000000000000000000000000000000000000000000000 DUP2 MSTORE PUSH1 0x1 PUSH1 0x1 PUSH1 0xA0 SHL SUB SWAP1 SWAP2 AND SWAP1 PUSH4 0x654E207F SWAP1 PUSH2 0x1092 SWAP1 DUP5 SWAP1 PUSH1 0x4 ADD PUSH2 0x2B1A JUMP JUMPDEST PUSH1 0x0 PUSH1 0x40 MLOAD DUP1 DUP4 SUB DUP2 PUSH1 0x0 DUP8 DUP1 EXTCODESIZE ISZERO DUP1 ISZERO PUSH2 0x10AC JUMPI PUSH1 0x0 DUP1 REVERT JUMPDEST POP GAS CALL ISZERO DUP1 ISZERO PUSH2 0x10C0 JUMPI RETURNDATASIZE PUSH1 0x0 DUP1 RETURNDATACOPY RETURNDATASIZE PUSH1 0x0 REVERT JUMPDEST POP POP POP POP PUSH32 0x814D5D412C9E5C68D4ADAFD64C8D3D494E6CE7124CAE6745A99B5AF1C58CA79 DUP2 PUSH1 0x40 MLOAD PUSH2 0x10F3 SWAP2 SWAP1 PUSH2 0x2B1A JUMP JUMPDEST PUSH1 0x40 MLOAD DUP1 SWAP2 SUB SWAP1 LOG1 POP JUMP JUMPDEST PUSH1 0x0 SLOAD PUSH5 0x100000000 SWAP1 DIV PUSH4 0xFFFFFFFF AND ISZERO PUSH2 0x112C JUMPI PUSH1 0x40 MLOAD PUSH3 0x461BCD PUSH1 0xE5 SHL DUP2 MSTORE PUSH1 0x4 ADD PUSH2 0x509 SWAP1 PUSH2 0x2A6C JUMP JUMPDEST PUSH1 0x0 DUP1 SLOAD PUSH8 0xFFFFFFFF00000000 NOT AND PUSH5 0x300000000 OR SWAP1 SSTORE PUSH2 0x114C PUSH2 0x1A47 JUMP JUMPDEST PUSH2 0x1159 PUSH1 0x19 DUP3 PUSH1 0x20 PUSH2 0x1EFA JUMP JUMPDEST POP PUSH1 0x0 SLOAD PUSH1 0x40 MLOAD PUSH32 0xC3112836F9EE0A75D7EB745CEB3D24F881BD142A63D78420BE0ED828947D69DC SWAP2 PUSH2 0x10F3 SWAP2 PUSH4 0xFFFFFFFF DUP1 DUP4 AND SWAP3 PUSH1 0x1 PUSH1 0x40 SHL SWAP1 DIV AND SWAP1 DUP6 SWAP1 PUSH2 0x2BD3 JUMP JUMPDEST PUSH1 0x0 PUSH2 0xE10 PUSH2 0x11B1 PUSH3 0x15180 TIMESTAMP PUSH2 0x2E12 JUMP JUMPDEST PUSH2 0x11BB SWAP2 SWAP1 PUSH2 0x2CF1 JUMP JUMPDEST SWAP1 POP PUSH2 0x933 JUMP JUMPDEST PUSH1 0x32 DUP2 JUMP JUMPDEST PUSH1 0x1 DUP2 PUSH1 0x20 DUP2 LT PUSH2 0x11D7 JUMPI PUSH1 0x0 DUP1 REVERT JUMPDEST PUSH1 0x2 SWAP2 DUP3 DUP3 DIV ADD SWAP2 SWAP1 MOD PUSH1 0xC MUL SWAP2 POP SLOAD SWAP1 PUSH2 0x100 EXP SWAP1 DIV PUSH12 0xFFFFFFFFFFFFFFFFFFFFFFFF AND DUP2 JUMP JUMPDEST PUSH1 0x18 DUP2 JUMP JUMPDEST PUSH1 0x0 DUP2 PUSH1 0x8 DUP2 LT PUSH2 0x1214 JUMPI PUSH1 0x0 DUP1 REVERT JUMPDEST PUSH1 0x8 SWAP2 DUP3 DUP3 DIV ADD SWAP2 SWAP1 MOD PUSH1 0x4 MUL SWAP2 POP SLOAD SWAP1 PUSH2 0x100 EXP SWAP1 DIV PUSH4 0xFFFFFFFF AND DUP2 JUMP JUMPDEST PUSH1 0x0 SLOAD PUSH5 0x100000000 SWAP1 DIV PUSH4 0xFFFFFFFF AND ISZERO PUSH2 0x1262 JUMPI PUSH1 0x40 MLOAD PUSH3 0x461BCD PUSH1 0xE5 SHL DUP2 MSTORE PUSH1 0x4 ADD PUSH2 0x509 SWAP1 PUSH2 0x2A6C JUMP JUMPDEST PUSH1 0x0 DUP1 SLOAD PUSH8 0xFFFFFFFF00000000 NOT AND PUSH5 0x200000000 OR SWAP1 SSTORE PUSH2 0x1282 PUSH2 0x1A47 JUMP JUMPDEST PUSH2 0x128B DUP2 PUSH2 0x1BB2 JUMP JUMPDEST PUSH2 0x1299 SWAP1 PUSH1 0x11 SWAP1 PUSH1 0x20 PUSH2 0x1F8D JUMP JUMPDEST POP PUSH1 0x0 SLOAD PUSH1 0x40 MLOAD PUSH32 0x49B4BC9C053B4C36615642B3229D4B569C3357E92266AED739428F05C2B15407 SWAP2 PUSH2 0x10F3 SWAP2 PUSH4 0xFFFFFFFF DUP1 DUP4 AND SWAP3 PUSH1 0x1 PUSH1 0x40 SHL SWAP1 DIV AND SWAP1 DUP6 SWAP1 PUSH2 0x2B84 JUMP JUMPDEST PUSH1 0x0 DUP2 JUMP JUMPDEST PUSH1 0x3A SLOAD PUSH1 0x1 PUSH1 0x1 PUSH1 0xA0 SHL SUB AND DUP2 JUMP JUMPDEST PUSH1 0x0 SLOAD PUSH5 0x100000000 SWAP1 DIV PUSH4 0xFFFFFFFF AND ISZERO PUSH2 0x1321 JUMPI PUSH1 0x40 MLOAD PUSH3 0x461BCD PUSH1 0xE5 SHL DUP2 MSTORE PUSH1 0x4 ADD PUSH2 0x509 SWAP1 PUSH2 0x2A6C JUMP JUMPDEST PUSH2 0x132B DUP3 DUP3 PUSH2 0x1D1D JUMP JUMPDEST PUSH2 0x1339 SWAP1 PUSH1 0x1 SWAP1 PUSH1 0x20 PUSH2 0x2023 JUMP JUMPDEST POP PUSH1 0x0 DUP1 SLOAD PUSH8 0xFFFFFFFF00000000 NOT AND PUSH5 0x100000000 OR SWAP1 SSTORE PUSH2 0x135A PUSH2 0x1A47 JUMP JUMPDEST PUSH2 0x1367 PUSH1 0x1A DUP5 PUSH1 0x20 PUSH2 0x20C5 JUMP JUMPDEST POP PUSH1 0x0 SLOAD PUSH1 0x40 MLOAD PUSH32 0x6530CB2E3260E20D52F3AE9C7966099AD3DDB5E2BEDFD0FE4C0459C7245FAE42 SWAP2 PUSH2 0x13AD SWAP2 PUSH4 0xFFFFFFFF DUP1 DUP4 AND SWAP3 PUSH1 0x1 PUSH1 0x40 SHL SWAP1 DIV AND SWAP1 DUP8 SWAP1 PUSH2 0x2B52 JUMP JUMPDEST PUSH1 0x40 MLOAD DUP1 SWAP2 SUB SWAP1 LOG1 PUSH1 0x0 SLOAD PUSH1 0x40 MLOAD PUSH32 0x155123C2DD70F9F15FA563C0D47F5BA62D9DD1602A73D7AB36B33CA4CB2940C6 SWAP2 PUSH2 0x13FA SWAP2 PUSH4 0xFFFFFFFF DUP1 DUP4 AND SWAP3 PUSH1 0x1 PUSH1 0x40 SHL SWAP1 DIV AND SWAP1 DUP7 SWAP1 PUSH2 0x2B84 JUMP JUMPDEST PUSH1 0x40 MLOAD DUP1 SWAP2 SUB SWAP1 LOG1 PUSH1 0x0 SLOAD PUSH1 0x40 MLOAD PUSH32 0x49B4BC9C053B4C36615642B3229D4B569C3357E92266AED739428F05C2B15407 SWAP2 PUSH2 0x1447 SWAP2 PUSH4 0xFFFFFFFF DUP1 DUP4 AND SWAP3 PUSH1 0x1 PUSH1 0x40 SHL SWAP1 DIV AND SWAP1 DUP6 SWAP1 PUSH2 0x2B84 JUMP JUMPDEST PUSH1 0x40 MLOAD DUP1 SWAP2 SUB SWAP1 LOG1 POP POP POP JUMP JUMPDEST CALLER PUSH1 0x0 SWAP1 DUP2 MSTORE PUSH1 0x3B PUSH1 0x20 MSTORE PUSH1 0x40 SWAP1 KECCAK256 SLOAD PUSH4 0xFFFFFFFF SWAP1 DUP2 AND SWAP1 DUP3 AND GT ISZERO PUSH2 0x148D JUMPI PUSH1 0x40 MLOAD PUSH3 0x461BCD PUSH1 0xE5 SHL DUP2 MSTORE PUSH1 0x4 ADD PUSH2 0x509 SWAP1 PUSH2 0x29FE JUMP JUMPDEST PUSH1 0x0 SLOAD PUSH5 0x100000000 SWAP1 DIV PUSH4 0xFFFFFFFF AND ISZERO PUSH2 0x14BB JUMPI PUSH1 0x40 MLOAD PUSH3 0x461BCD PUSH1 0xE5 SHL DUP2 MSTORE PUSH1 0x4 ADD PUSH2 0x509 SWAP1 PUSH2 0x2AA3 JUMP JUMPDEST CALLER PUSH1 0x0 SWAP1 DUP2 MSTORE PUSH1 0x3B PUSH1 0x20 MSTORE PUSH1 0x40 DUP2 KECCAK256 SLOAD DUP2 SLOAD PUSH2 0x14EE SWAP2 PUSH4 0xFFFFFFFF PUSH1 0x1 PUSH1 0x40 SHL SWAP1 SWAP2 DIV DUP2 AND SWAP2 PUSH1 0x1 PUSH1 0xE0 SHL SWAP1 DIV AND PUSH2 0x2D73 JUMP JUMPDEST CALLER PUSH1 0x0 SWAP1 DUP2 MSTORE PUSH1 0x3B PUSH1 0x20 MSTORE PUSH1 0x40 SWAP1 KECCAK256 SLOAD PUSH2 0x150E SWAP2 SWAP1 PUSH4 0xFFFFFFFF AND PUSH2 0x2D47 JUMP JUMPDEST PUSH2 0x1523 SWAP1 PUSH4 0xFFFFFFFF AND PUSH5 0xE8D4A51000 PUSH2 0x2D28 JUMP JUMPDEST PUSH1 0x0 DUP1 SLOAD CALLER DUP3 MSTORE PUSH1 0x3B PUSH1 0x20 MSTORE PUSH1 0x40 DUP3 KECCAK256 DUP1 SLOAD PUSH1 0x1 PUSH1 0x40 SHL PUSH4 0xFFFFFFFF PUSH1 0x1 PUSH1 0xE0 SHL SWAP1 SWAP5 DIV DUP5 AND MUL PUSH12 0xFFFFFFFF0000000000000000 NOT SWAP1 SWAP2 AND OR SWAP1 SSTORE DUP2 SLOAD SWAP3 SWAP4 POP DUP5 SWAP3 PUSH1 0x10 SWAP2 PUSH2 0x1589 SWAP2 DUP6 SWAP2 PUSH17 0x100000000000000000000000000000000 SWAP1 SWAP2 DIV AND PUSH2 0x2D73 JUMP JUMPDEST DUP3 SLOAD PUSH2 0x100 SWAP3 SWAP1 SWAP3 EXP PUSH4 0xFFFFFFFF DUP2 DUP2 MUL NOT SWAP1 SWAP4 AND SWAP2 DUP4 AND MUL OR SWAP1 SWAP2 SSTORE CALLER PUSH1 0x0 SWAP1 DUP2 MSTORE PUSH1 0x3B PUSH1 0x20 MSTORE PUSH1 0x40 DUP2 KECCAK256 DUP1 SLOAD DUP7 SWAP5 POP SWAP1 SWAP3 PUSH2 0x15C8 SWAP2 DUP6 SWAP2 AND PUSH2 0x2D73 JUMP JUMPDEST SWAP3 POP PUSH2 0x100 EXP DUP2 SLOAD DUP2 PUSH4 0xFFFFFFFF MUL NOT AND SWAP1 DUP4 PUSH4 0xFFFFFFFF AND MUL OR SWAP1 SSTORE POP PUSH1 0x0 CALLER PUSH1 0x1 PUSH1 0x1 PUSH1 0xA0 SHL SUB AND DUP3 PUSH1 0x40 MLOAD PUSH2 0x15FF SWAP1 PUSH2 0x933 JUMP JUMPDEST PUSH1 0x0 PUSH1 0x40 MLOAD DUP1 DUP4 SUB DUP2 DUP6 DUP8 GAS CALL SWAP3 POP POP POP RETURNDATASIZE DUP1 PUSH1 0x0 DUP2 EQ PUSH2 0x163C JUMPI PUSH1 0x40 MLOAD SWAP2 POP PUSH1 0x1F NOT PUSH1 0x3F RETURNDATASIZE ADD AND DUP3 ADD PUSH1 0x40 MSTORE RETURNDATASIZE DUP3 MSTORE RETURNDATASIZE PUSH1 0x0 PUSH1 0x20 DUP5 ADD RETURNDATACOPY PUSH2 0x1641 JUMP JUMPDEST PUSH1 0x60 SWAP2 POP JUMPDEST POP POP SWAP1 POP DUP1 PUSH2 0x1662 JUMPI PUSH1 0x40 MLOAD PUSH3 0x461BCD PUSH1 0xE5 SHL DUP2 MSTORE PUSH1 0x4 ADD PUSH2 0x509 SWAP1 PUSH2 0x2990 JUMP JUMPDEST PUSH1 0x3C SLOAD PUSH1 0x40 MLOAD PUSH32 0x8009748400000000000000000000000000000000000000000000000000000000 DUP2 MSTORE PUSH1 0x1 PUSH1 0x1 PUSH1 0xA0 SHL SUB SWAP1 SWAP2 AND SWAP1 PUSH4 0x80097484 SWAP1 PUSH2 0x16AD SWAP1 CALLER SWAP1 DUP8 SWAP1 PUSH1 0x4 ADD PUSH2 0x25E1 JUMP JUMPDEST PUSH1 0x20 PUSH1 0x40 MLOAD DUP1 DUP4 SUB DUP2 PUSH1 0x0 DUP8 DUP1 EXTCODESIZE ISZERO DUP1 ISZERO PUSH2 0x16C7 JUMPI PUSH1 0x0 DUP1 REVERT JUMPDEST POP GAS CALL ISZERO DUP1 ISZERO PUSH2 0x16DB JUMPI RETURNDATASIZE PUSH1 0x0 DUP1 RETURNDATACOPY RETURNDATASIZE PUSH1 0x0 REVERT JUMPDEST POP POP POP POP PUSH1 0x40 MLOAD RETURNDATASIZE PUSH1 0x1F NOT PUSH1 0x1F DUP3 ADD AND DUP3 ADD DUP1 PUSH1 0x40 MSTORE POP DUP2 ADD SWAP1 PUSH2 0x16FF SWAP2 SWAP1 PUSH2 0x248C JUMP JUMPDEST POP PUSH32 0xCD8A5ECE39D0B175E7E2AE6D276A5296BCD7DA645B615B3D857B7FA2769DB583 DUP4 DUP4 CALLER PUSH1 0x40 MLOAD PUSH2 0x1447 SWAP4 SWAP3 SWAP2 SWAP1 PUSH2 0x2B2B JUMP JUMPDEST PUSH1 0x3B PUSH1 0x20 MSTORE PUSH1 0x0 SWAP1 DUP2 MSTORE PUSH1 0x40 SWAP1 KECCAK256 SLOAD PUSH4 0xFFFFFFFF DUP1 DUP3 AND SWAP2 PUSH5 0x100000000 DUP2 DIV DUP3 AND SWAP2 PUSH1 0x1 PUSH1 0x40 SHL SWAP1 SWAP2 DIV AND DUP4 JUMP JUMPDEST PUSH1 0x11 DUP2 PUSH1 0x20 DUP2 LT PUSH2 0x1772 JUMPI PUSH1 0x0 DUP1 REVERT JUMPDEST PUSH1 0x4 SWAP2 DUP3 DUP3 DIV ADD SWAP2 SWAP1 MOD PUSH1 0x8 MUL SWAP2 POP SLOAD SWAP1 PUSH2 0x100 EXP SWAP1 DIV PUSH8 0xFFFFFFFFFFFFFFFF AND DUP2 JUMP JUMPDEST PUSH1 0x0 SLOAD PUSH4 0xFFFFFFFF PUSH5 0x100000000 SWAP1 SWAP2 DIV AND PUSH1 0x1 EQ PUSH2 0x17C7 JUMPI PUSH1 0x40 MLOAD PUSH3 0x461BCD PUSH1 0xE5 SHL DUP2 MSTORE PUSH1 0x4 ADD PUSH2 0x509 SWAP1 PUSH2 0x2ADA JUMP JUMPDEST PUSH1 0x0 SLOAD PUSH13 0x1000000000000000000000000 SWAP1 DIV PUSH4 0xFFFFFFFF AND TIMESTAMP GT PUSH2 0x17FE JUMPI PUSH1 0x40 MLOAD PUSH3 0x461BCD PUSH1 0xE5 SHL DUP2 MSTORE PUSH1 0x4 ADD PUSH2 0x509 SWAP1 PUSH2 0x2A35 JUMP JUMPDEST PUSH1 0x0 SLOAD PUSH4 0xFFFFFFFF PUSH1 0x1 PUSH1 0xC0 SHL DUP3 DIV DUP2 AND PUSH1 0x1 PUSH1 0xA0 SHL SWAP1 SWAP3 DIV AND GT ISZERO PUSH2 0xD88 JUMPI PUSH1 0x3D SLOAD PUSH1 0x40 MLOAD PUSH32 0xC05CBB700000000000000000000000000000000000000000000000000000000 DUP2 MSTORE PUSH1 0x1 PUSH1 0x1 PUSH1 0xA0 SHL SUB SWAP1 SWAP2 AND SWAP1 PUSH4 0xC05CBB7 SWAP1 PUSH2 0xCCC SWAP1 PUSH1 0x1 SWAP1 PUSH1 0x4 ADD PUSH2 0x290D JUMP JUMPDEST PUSH1 0x1A DUP2 PUSH1 0x20 DUP2 LT PUSH2 0x1878 JUMPI PUSH1 0x0 DUP1 REVERT JUMPDEST ADD DUP1 SLOAD SWAP1 SWAP2 POP PUSH2 0x1887 SWAP1 PUSH2 0x2D98 JUMP JUMPDEST DUP1 PUSH1 0x1F ADD PUSH1 0x20 DUP1 SWAP2 DIV MUL PUSH1 0x20 ADD PUSH1 0x40 MLOAD SWAP1 DUP2 ADD PUSH1 0x40 MSTORE DUP1 SWAP3 SWAP2 SWAP1 DUP2 DUP2 MSTORE PUSH1 0x20 ADD DUP3 DUP1 SLOAD PUSH2 0x18B3 SWAP1 PUSH2 0x2D98 JUMP JUMPDEST DUP1 ISZERO PUSH2 0x1900 JUMPI DUP1 PUSH1 0x1F LT PUSH2 0x18D5 JUMPI PUSH2 0x100 DUP1 DUP4 SLOAD DIV MUL DUP4 MSTORE SWAP2 PUSH1 0x20 ADD SWAP2 PUSH2 0x1900 JUMP JUMPDEST DUP3 ADD SWAP2 SWAP1 PUSH1 0x0 MSTORE PUSH1 0x20 PUSH1 0x0 KECCAK256 SWAP1 JUMPDEST DUP2 SLOAD DUP2 MSTORE SWAP1 PUSH1 0x1 ADD SWAP1 PUSH1 0x20 ADD DUP1 DUP4 GT PUSH2 0x18E3 JUMPI DUP3 SWAP1 SUB PUSH1 0x1F AND DUP3 ADD SWAP2 JUMPDEST POP POP POP POP POP DUP2 JUMP JUMPDEST PUSH1 0x3C SLOAD PUSH1 0x1 PUSH1 0x1 PUSH1 0xA0 SHL SUB AND DUP2 JUMP JUMPDEST PUSH1 0x0 DUP1 SLOAD PUSH8 0xFFFFFFFF00000000 NOT AND DUP1 DUP3 SSTORE PUSH1 0x1 PUSH1 0x40 SHL SWAP1 DIV PUSH4 0xFFFFFFFF AND SWAP1 PUSH1 0x8 PUSH2 0x1942 DUP4 PUSH2 0x2DEE JUMP JUMPDEST SWAP2 SWAP1 PUSH2 0x100 EXP DUP2 SLOAD DUP2 PUSH4 0xFFFFFFFF MUL NOT AND SWAP1 DUP4 PUSH4 0xFFFFFFFF AND MUL OR SWAP1 SSTORE POP POP PUSH1 0x0 DUP1 PUSH1 0x3 PUSH1 0x8 DUP2 LT PUSH2 0x1984 JUMPI PUSH4 0x4E487B71 PUSH1 0xE0 SHL PUSH1 0x0 MSTORE PUSH1 0x32 PUSH1 0x4 MSTORE PUSH1 0x24 PUSH1 0x0 REVERT JUMPDEST PUSH1 0x8 SWAP2 DUP3 DUP3 DIV ADD SWAP2 SWAP1 MOD PUSH1 0x4 MUL PUSH2 0x100 EXP DUP2 SLOAD DUP2 PUSH4 0xFFFFFFFF MUL NOT AND SWAP1 DUP4 PUSH4 0xFFFFFFFF AND MUL OR SWAP1 SSTORE POP PUSH1 0x0 DUP1 PUSH1 0x5 PUSH1 0x8 DUP2 LT PUSH2 0x19D0 JUMPI PUSH4 0x4E487B71 PUSH1 0xE0 SHL PUSH1 0x0 MSTORE PUSH1 0x32 PUSH1 0x4 MSTORE PUSH1 0x24 PUSH1 0x0 REVERT JUMPDEST PUSH1 0x8 SWAP2 DUP3 DUP3 DIV ADD SWAP2 SWAP1 MOD PUSH1 0x4 MUL PUSH2 0x100 EXP DUP2 SLOAD DUP2 PUSH4 0xFFFFFFFF MUL NOT AND SWAP1 DUP4 PUSH4 0xFFFFFFFF AND MUL OR SWAP1 SSTORE POP PUSH1 0x0 DUP1 PUSH1 0x6 PUSH1 0x8 DUP2 LT PUSH2 0x1A1C JUMPI PUSH4 0x4E487B71 PUSH1 0xE0 SHL PUSH1 0x0 MSTORE PUSH1 0x32 PUSH1 0x4 MSTORE PUSH1 0x24 PUSH1 0x0 REVERT JUMPDEST PUSH1 0x8 SWAP2 DUP3 DUP3 DIV ADD SWAP2 SWAP1 MOD PUSH1 0x4 MUL PUSH2 0x100 EXP DUP2 SLOAD DUP2 PUSH4 0xFFFFFFFF MUL NOT AND SWAP1 DUP4 PUSH4 0xFFFFFFFF AND MUL OR SWAP1 SSTORE POP JUMP JUMPDEST PUSH2 0x1A4F PUSH2 0x119F JUMP JUMPDEST POP CALLER PUSH1 0x0 SWAP1 DUP2 MSTORE PUSH1 0x3B PUSH1 0x20 MSTORE PUSH1 0x40 SWAP1 KECCAK256 SLOAD PUSH1 0x32 PUSH4 0xFFFFFFFF SWAP1 SWAP2 AND LT ISZERO PUSH2 0x1A88 JUMPI PUSH1 0x40 MLOAD PUSH3 0x461BCD PUSH1 0xE5 SHL DUP2 MSTORE PUSH1 0x4 ADD PUSH2 0x509 SWAP1 PUSH2 0x29C7 JUMP JUMPDEST PUSH2 0x1A93 PUSH1 0x0 TIMESTAMP PUSH2 0x2CC9 JUMP JUMPDEST PUSH1 0x0 DUP1 SLOAD PUSH32 0xFFFFFFFFFFFFFFFFFFFFFFFFFFFFFFFF00000000FFFFFFFFFFFFFFFFFFFFFFFF AND PUSH13 0x1000000000000000000000000 PUSH4 0xFFFFFFFF SWAP4 DUP5 AND MUL OR DUP1 DUP3 SSTORE CALLER DUP1 DUP4 MSTORE PUSH1 0x3B PUSH1 0x20 MSTORE PUSH1 0x40 DUP4 KECCAK256 DUP1 SLOAD DUP6 AND PUSH1 0x1 PUSH1 0xA0 SHL MUL PUSH32 0xFFFFFFFFFFFFFFFF00000000FFFFFFFFFFFFFFFFFFFFFFFFFFFFFFFFFFFFFFFF SWAP1 SWAP4 AND SWAP3 SWAP1 SWAP3 OR SWAP1 SWAP3 SSTORE PUSH1 0x3A DUP1 SLOAD PUSH32 0xFFFFFFFFFFFFFFFFFFFFFFFF0000000000000000000000000000000000000000 AND SWAP1 SWAP3 OR SWAP1 SWAP2 SSTORE SLOAD PUSH2 0x1F4 SWAP2 AND GT ISZERO PUSH2 0x1B77 JUMPI PUSH1 0x0 DUP1 SLOAD PUSH32 0xFFFFFFFFFFFFFFFFFFFFFFFFFFFFFFFF00000000FFFFFFFFFFFFFFFFFFFFFFFF AND SWAP1 SSTORE JUMPDEST PUSH1 0x0 DUP1 SLOAD CALLER DUP3 MSTORE PUSH1 0x3B PUSH1 0x20 MSTORE PUSH1 0x40 SWAP1 SWAP2 KECCAK256 DUP1 SLOAD PUSH8 0xFFFFFFFF00000000 NOT AND PUSH1 0x1 PUSH1 0x40 SHL SWAP1 SWAP3 DIV PUSH4 0xFFFFFFFF AND PUSH5 0x100000000 MUL SWAP2 SWAP1 SWAP2 OR SWAP1 SSTORE JUMP JUMPDEST PUSH2 0x1BBA PUSH2 0x2111 JUMP JUMPDEST PUSH1 0x0 DUP1 PUSH1 0x0 JUMPDEST PUSH1 0x20 DUP2 LT ISZERO PUSH2 0x1D15 JUMPI PUSH1 0x7D DUP6 DUP3 PUSH1 0x20 DUP2 LT PUSH2 0x1BEB JUMPI PUSH4 0x4E487B71 PUSH1 0xE0 SHL PUSH1 0x0 MSTORE PUSH1 0x32 PUSH1 0x4 MSTORE PUSH1 0x24 PUSH1 0x0 REVERT JUMPDEST PUSH1 0x20 MUL ADD MLOAD PUSH4 0xFFFFFFFF AND GT DUP1 ISZERO PUSH2 0x1C2E JUMPI POP PUSH2 0x1F40 DUP6 DUP3 PUSH1 0x20 DUP2 LT PUSH2 0x1C21 JUMPI PUSH4 0x4E487B71 PUSH1 0xE0 SHL PUSH1 0x0 MSTORE PUSH1 0x32 PUSH1 0x4 MSTORE PUSH1 0x24 PUSH1 0x0 REVERT JUMPDEST PUSH1 0x20 MUL ADD MLOAD PUSH4 0xFFFFFFFF AND LT JUMPDEST PUSH2 0x1C37 JUMPI PUSH1 0x0 DUP1 REVERT JUMPDEST PUSH1 0x29 DUP6 DUP3 PUSH1 0x20 DUP2 LT PUSH2 0x1C59 JUMPI PUSH4 0x4E487B71 PUSH1 0xE0 SHL PUSH1 0x0 MSTORE PUSH1 0x32 PUSH1 0x4 MSTORE PUSH1 0x24 PUSH1 0x0 REVERT JUMPDEST PUSH1 0x20 MUL ADD MLOAD PUSH2 0x1C69 SWAP1 PUSH1 0x29 PUSH2 0x2CC9 JUMP JUMPDEST PUSH2 0x1C76 SWAP1 PUSH3 0xF4240 PUSH2 0x2D05 JUMP JUMPDEST PUSH2 0x1C80 SWAP2 SWAP1 PUSH2 0x2D73 JUMP JUMPDEST SWAP3 POP PUSH1 0x20 DUP6 DUP3 PUSH1 0x20 DUP2 LT PUSH2 0x1CA4 JUMPI PUSH4 0x4E487B71 PUSH1 0xE0 SHL PUSH1 0x0 MSTORE PUSH1 0x32 PUSH1 0x4 MSTORE PUSH1 0x24 PUSH1 0x0 REVERT JUMPDEST PUSH1 0x20 MUL ADD MLOAD PUSH4 0xFFFFFFFF AND PUSH8 0xFFFFFFFFFFFFFFFF AND SWAP1 SHL DUP3 OR SWAP2 POP DUP3 PUSH4 0xFFFFFFFF AND DUP3 OR SWAP2 POP DUP2 DUP5 DUP3 PUSH1 0x20 DUP2 LT PUSH2 0x1CEB JUMPI PUSH4 0x4E487B71 PUSH1 0xE0 SHL PUSH1 0x0 MSTORE PUSH1 0x32 PUSH1 0x4 MSTORE PUSH1 0x24 PUSH1 0x0 REVERT JUMPDEST PUSH8 0xFFFFFFFFFFFFFFFF SWAP1 SWAP3 AND PUSH1 0x20 SWAP3 SWAP1 SWAP3 MUL ADD MSTORE PUSH1 0x0 SWAP2 POP DUP1 PUSH2 0x1D0D DUP2 PUSH2 0x2DD3 JUMP JUMPDEST SWAP2 POP POP PUSH2 0x1BC0 JUMP JUMPDEST POP POP POP SWAP2 SWAP1 POP JUMP JUMPDEST PUSH2 0x1D25 PUSH2 0x2111 JUMP JUMPDEST PUSH1 0x0 DUP1 PUSH1 0x0 JUMPDEST PUSH1 0x20 DUP2 LT ISZERO PUSH2 0x1EC9 JUMPI PUSH1 0x7D DUP6 DUP3 PUSH1 0x20 DUP2 LT PUSH2 0x1D56 JUMPI PUSH4 0x4E487B71 PUSH1 0xE0 SHL PUSH1 0x0 MSTORE PUSH1 0x32 PUSH1 0x4 MSTORE PUSH1 0x24 PUSH1 0x0 REVERT JUMPDEST PUSH1 0x20 MUL ADD MLOAD PUSH4 0xFFFFFFFF AND GT DUP1 ISZERO PUSH2 0x1D99 JUMPI POP PUSH2 0x1F40 DUP6 DUP3 PUSH1 0x20 DUP2 LT PUSH2 0x1D8C JUMPI PUSH4 0x4E487B71 PUSH1 0xE0 SHL PUSH1 0x0 MSTORE PUSH1 0x32 PUSH1 0x4 MSTORE PUSH1 0x24 PUSH1 0x0 REVERT JUMPDEST PUSH1 0x20 MUL ADD MLOAD PUSH4 0xFFFFFFFF AND LT JUMPDEST PUSH2 0x1DA2 JUMPI PUSH1 0x0 DUP1 REVERT JUMPDEST PUSH1 0x29 DUP6 DUP3 PUSH1 0x20 DUP2 LT PUSH2 0x1DC4 JUMPI PUSH4 0x4E487B71 PUSH1 0xE0 SHL PUSH1 0x0 MSTORE PUSH1 0x32 PUSH1 0x4 MSTORE PUSH1 0x24 PUSH1 0x0 REVERT JUMPDEST PUSH1 0x20 MUL ADD MLOAD PUSH2 0x1DD4 SWAP1 PUSH1 0x29 PUSH2 0x2CC9 JUMP JUMPDEST PUSH2 0x1DE1 SWAP1 PUSH3 0xF4240 PUSH2 0x2D05 JUMP JUMPDEST PUSH2 0x1DEB SWAP2 SWAP1 PUSH2 0x2D73 JUMP JUMPDEST SWAP3 POP PUSH1 0x40 DUP7 DUP3 PUSH1 0x20 DUP2 LT PUSH2 0x1E0F JUMPI PUSH4 0x4E487B71 PUSH1 0xE0 SHL PUSH1 0x0 MSTORE PUSH1 0x32 PUSH1 0x4 MSTORE PUSH1 0x24 PUSH1 0x0 REVERT JUMPDEST PUSH1 0x20 MUL ADD MLOAD PUSH4 0xFFFFFFFF AND PUSH12 0xFFFFFFFFFFFFFFFFFFFFFFFF AND SWAP1 SHL DUP3 OR SWAP2 POP PUSH1 0x20 DUP6 DUP3 PUSH1 0x20 DUP2 LT PUSH2 0x1E50 JUMPI PUSH4 0x4E487B71 PUSH1 0xE0 SHL PUSH1 0x0 MSTORE PUSH1 0x32 PUSH1 0x4 MSTORE PUSH1 0x24 PUSH1 0x0 REVERT JUMPDEST PUSH1 0x20 MUL ADD MLOAD PUSH4 0xFFFFFFFF AND PUSH12 0xFFFFFFFFFFFFFFFFFFFFFFFF AND SWAP1 SHL DUP3 OR SWAP2 POP DUP3 PUSH4 0xFFFFFFFF AND DUP3 OR SWAP2 POP DUP2 DUP5 DUP3 PUSH1 0x20 DUP2 LT PUSH2 0x1E9B JUMPI PUSH4 0x4E487B71 PUSH1 0xE0 SHL PUSH1 0x0 MSTORE PUSH1 0x32 PUSH1 0x4 MSTORE PUSH1 0x24 PUSH1 0x0 REVERT JUMPDEST PUSH12 0xFFFFFFFFFFFFFFFFFFFFFFFF SWAP1 SWAP3 AND PUSH1 0x20 SWAP3 SWAP1 SWAP3 MUL ADD MSTORE PUSH1 0x0 SWAP2 POP DUP1 PUSH2 0x1EC1 DUP2 PUSH2 0x2DD3 JUMP JUMPDEST SWAP2 POP POP PUSH2 0x1D2B JUMP JUMPDEST POP POP POP SWAP3 SWAP2 POP POP JUMP JUMPDEST PUSH1 0x40 MLOAD DUP1 PUSH2 0x400 ADD PUSH1 0x40 MSTORE DUP1 PUSH1 0x20 SWAP1 JUMPDEST PUSH1 0x60 DUP2 MSTORE PUSH1 0x20 ADD SWAP1 PUSH1 0x1 SWAP1 SUB SWAP1 DUP2 PUSH2 0x1EE2 JUMPI SWAP1 POP POP SWAP1 JUMP JUMPDEST PUSH1 0x1 DUP4 ADD SWAP2 DUP4 SWAP1 DUP3 ISZERO PUSH2 0x1F7D JUMPI SWAP2 PUSH1 0x20 MUL DUP3 ADD PUSH1 0x0 JUMPDEST DUP4 DUP3 GT ISZERO PUSH2 0x1F4E JUMPI DUP4 MLOAD DUP4 DUP3 PUSH2 0x100 EXP DUP2 SLOAD DUP2 PUSH1 0xFF MUL NOT AND SWAP1 DUP4 PUSH1 0xFF AND MUL OR SWAP1 SSTORE POP SWAP3 PUSH1 0x20 ADD SWAP3 PUSH1 0x1 ADD PUSH1 0x20 DUP2 PUSH1 0x0 ADD DIV SWAP3 DUP4 ADD SWAP3 PUSH1 0x1 SUB MUL PUSH2 0x1F10 JUMP JUMPDEST DUP1 ISZERO PUSH2 0x1F7B JUMPI DUP3 DUP2 PUSH2 0x100 EXP DUP2 SLOAD SWAP1 PUSH1 0xFF MUL NOT AND SWAP1 SSTORE PUSH1 0x1 ADD PUSH1 0x20 DUP2 PUSH1 0x0 ADD DIV SWAP3 DUP4 ADD SWAP3 PUSH1 0x1 SUB MUL PUSH2 0x1F4E JUMP JUMPDEST POP JUMPDEST POP PUSH2 0x1F89 SWAP3 SWAP2 POP PUSH2 0x2130 JUMP JUMPDEST POP SWAP1 JUMP JUMPDEST PUSH1 0x8 DUP4 ADD SWAP2 DUP4 SWAP1 DUP3 ISZERO PUSH2 0x1F7D JUMPI SWAP2 PUSH1 0x20 MUL DUP3 ADD PUSH1 0x0 JUMPDEST DUP4 DUP3 GT ISZERO PUSH2 0x1FEF JUMPI DUP4 MLOAD DUP4 DUP3 PUSH2 0x100 EXP DUP2 SLOAD DUP2 PUSH8 0xFFFFFFFFFFFFFFFF MUL NOT AND SWAP1 DUP4 PUSH8 0xFFFFFFFFFFFFFFFF AND MUL OR SWAP1 SSTORE POP SWAP3 PUSH1 0x20 ADD SWAP3 PUSH1 0x8 ADD PUSH1 0x20 DUP2 PUSH1 0x7 ADD DIV SWAP3 DUP4 ADD SWAP3 PUSH1 0x1 SUB MUL PUSH2 0x1FA3 JUMP JUMPDEST DUP1 ISZERO PUSH2 0x1F7B JUMPI DUP3 DUP2 PUSH2 0x100 EXP DUP2 SLOAD SWAP1 PUSH8 0xFFFFFFFFFFFFFFFF MUL NOT AND SWAP1 SSTORE PUSH1 0x8 ADD PUSH1 0x20 DUP2 PUSH1 0x7 ADD DIV SWAP3 DUP4 ADD SWAP3 PUSH1 0x1 SUB MUL PUSH2 0x1FEF JUMP JUMPDEST PUSH1 0x10 DUP4 ADD SWAP2 DUP4 SWAP1 DUP3 ISZERO PUSH2 0x1F7D JUMPI SWAP2 PUSH1 0x20 MUL DUP3 ADD PUSH1 0x0 JUMPDEST DUP4 DUP3 GT ISZERO PUSH2 0x208D JUMPI DUP4 MLOAD DUP4 DUP3 PUSH2 0x100 EXP DUP2 SLOAD DUP2 PUSH12 0xFFFFFFFFFFFFFFFFFFFFFFFF MUL NOT AND SWAP1 DUP4 PUSH12 0xFFFFFFFFFFFFFFFFFFFFFFFF AND MUL OR SWAP1 SSTORE POP SWAP3 PUSH1 0x20 ADD SWAP3 PUSH1 0xC ADD PUSH1 0x20 DUP2 PUSH1 0xB ADD DIV SWAP3 DUP4 ADD SWAP3 PUSH1 0x1 SUB MUL PUSH2 0x2039 JUMP JUMPDEST DUP1 ISZERO PUSH2 0x1F7B JUMPI DUP3 DUP2 PUSH2 0x100 EXP DUP2 SLOAD SWAP1 PUSH12 0xFFFFFFFFFFFFFFFFFFFFFFFF MUL NOT AND SWAP1 SSTORE PUSH1 0xC ADD PUSH1 0x20 DUP2 PUSH1 0xB ADD DIV SWAP3 DUP4 ADD SWAP3 PUSH1 0x1 SUB MUL PUSH2 0x208D JUMP JUMPDEST DUP3 PUSH1 0x20 DUP2 ADD SWAP3 DUP3 ISZERO PUSH2 0x2105 JUMPI SWAP2 PUSH1 0x20 MUL DUP3 ADD JUMPDEST DUP3 DUP2 GT ISZERO PUSH2 0x2105 JUMPI DUP3 MLOAD DUP1 MLOAD PUSH2 0x20F5 SWAP2 DUP5 SWAP2 PUSH1 0x20 SWAP1 SWAP2 ADD SWAP1 PUSH2 0x2145 JUMP JUMPDEST POP SWAP2 PUSH1 0x20 ADD SWAP2 SWAP1 PUSH1 0x1 ADD SWAP1 PUSH2 0x20D8 JUMP JUMPDEST POP PUSH2 0x1F89 SWAP3 SWAP2 POP PUSH2 0x21B9 JUMP JUMPDEST PUSH1 0x40 MLOAD DUP1 PUSH2 0x400 ADD PUSH1 0x40 MSTORE DUP1 PUSH1 0x20 SWAP1 PUSH1 0x20 DUP3 MUL DUP1 CALLDATASIZE DUP4 CALLDATACOPY POP SWAP2 SWAP3 SWAP2 POP POP JUMP JUMPDEST JUMPDEST DUP1 DUP3 GT ISZERO PUSH2 0x1F89 JUMPI PUSH1 0x0 DUP2 SSTORE PUSH1 0x1 ADD PUSH2 0x2131 JUMP JUMPDEST DUP3 DUP1 SLOAD PUSH2 0x2151 SWAP1 PUSH2 0x2D98 JUMP JUMPDEST SWAP1 PUSH1 0x0 MSTORE PUSH1 0x20 PUSH1 0x0 KECCAK256 SWAP1 PUSH1 0x1F ADD PUSH1 0x20 SWAP1 DIV DUP2 ADD SWAP3 DUP3 PUSH2 0x2173 JUMPI PUSH1 0x0 DUP6 SSTORE PUSH2 0x1F7D JUMP JUMPDEST DUP3 PUSH1 0x1F LT PUSH2 0x218C JUMPI DUP1 MLOAD PUSH1 0xFF NOT AND DUP4 DUP1 ADD OR DUP6 SSTORE PUSH2 0x1F7D JUMP JUMPDEST DUP3 DUP1 ADD PUSH1 0x1 ADD DUP6 SSTORE DUP3 ISZERO PUSH2 0x1F7D JUMPI SWAP2 DUP3 ADD JUMPDEST DUP3 DUP2 GT ISZERO PUSH2 0x1F7D JUMPI DUP3 MLOAD DUP3 SSTORE SWAP2 PUSH1 0x20 ADD SWAP2 SWAP1 PUSH1 0x1 ADD SWAP1 PUSH2 0x219E JUMP JUMPDEST DUP1 DUP3 GT ISZERO PUSH2 0x1F89 JUMPI PUSH1 0x0 PUSH2 0x21CD DUP3 DUP3 PUSH2 0x21D6 JUMP JUMPDEST POP PUSH1 0x1 ADD PUSH2 0x21B9 JUMP JUMPDEST POP DUP1 SLOAD PUSH2 0x21E2 SWAP1 PUSH2 0x2D98 JUMP JUMPDEST PUSH1 0x0 DUP3 SSTORE DUP1 PUSH1 0x1F LT PUSH2 0x21F4 JUMPI POP PUSH2 0x101E JUMP JUMPDEST PUSH1 0x1F ADD PUSH1 0x20 SWAP1 DIV SWAP1 PUSH1 0x0 MSTORE PUSH1 0x20 PUSH1 0x0 KECCAK256 SWAP1 DUP2 ADD SWAP1 PUSH2 0x101E SWAP2 SWAP1 PUSH2 0x2130 JUMP JUMPDEST PUSH1 0x0 DUP3 PUSH1 0x1F DUP4 ADD SLT PUSH2 0x2222 JUMPI DUP1 DUP2 REVERT JUMPDEST PUSH1 0x40 MLOAD PUSH2 0x400 DUP1 DUP3 ADD DUP3 DUP2 LT PUSH8 0xFFFFFFFFFFFFFFFF DUP3 GT OR ISZERO PUSH2 0x2247 JUMPI PUSH2 0x2247 PUSH2 0x2E52 JUMP JUMPDEST PUSH1 0x40 MSTORE DUP2 DUP5 DUP3 DUP2 ADD DUP8 LT ISZERO PUSH2 0x225A JUMPI DUP5 DUP6 REVERT JUMPDEST DUP5 SWAP3 POP JUMPDEST PUSH1 0x20 DUP1 DUP5 LT PUSH2 0x226D JUMPI POP PUSH2 0x228B JUMP JUMPDEST DUP2 CALLDATALOAD PUSH2 0x2278 DUP2 PUSH2 0x2E76 JUMP JUMPDEST DUP4 MSTORE PUSH1 0x1 SWAP4 SWAP1 SWAP4 ADD SWAP3 SWAP2 DUP3 ADD SWAP2 ADD PUSH2 0x225E JUMP JUMPDEST POP SWAP2 SWAP6 SWAP5 POP POP POP POP POP JUMP JUMPDEST PUSH1 0x0 PUSH1 0x20 DUP3 DUP5 SUB SLT ISZERO PUSH2 0x22A7 JUMPI DUP1 DUP2 REVERT JUMPDEST DUP2 CALLDATALOAD PUSH1 0x1 PUSH1 0x1 PUSH1 0xA0 SHL SUB DUP2 AND DUP2 EQ PUSH2 0x22BD JUMPI DUP2 DUP3 REVERT JUMPDEST SWAP4 SWAP3 POP POP POP JUMP JUMPDEST PUSH1 0x0 DUP1 PUSH1 0x0 PUSH2 0x820 DUP5 DUP7 SUB SLT ISZERO PUSH2 0x22D9 JUMPI DUP2 DUP3 REVERT JUMPDEST DUP4 CALLDATALOAD PUSH8 0xFFFFFFFFFFFFFFFF DUP1 DUP3 GT ISZERO PUSH2 0x22F0 JUMPI DUP4 DUP5 REVERT JUMPDEST DUP2 DUP7 ADD SWAP2 POP PUSH1 0x1F DUP8 DUP2 DUP5 ADD SLT PUSH2 0x2304 JUMPI DUP5 DUP6 REVERT JUMPDEST PUSH1 0x20 PUSH2 0x2317 PUSH2 0x2312 DUP3 PUSH2 0x2CA8 JUMP JUMPDEST PUSH2 0x2C7E JUMP JUMPDEST DUP1 DUP6 DUP9 JUMPDEST DUP5 DUP2 LT ISZERO PUSH2 0x238D JUMPI DUP2 CALLDATALOAD DUP9 ADD DUP14 DUP8 DUP3 ADD SLT PUSH2 0x2334 JUMPI DUP11 DUP12 REVERT JUMPDEST DUP1 CALLDATALOAD DUP9 DUP2 GT ISZERO PUSH2 0x2346 JUMPI PUSH2 0x2346 PUSH2 0x2E52 JUMP JUMPDEST PUSH2 0x2357 DUP8 PUSH1 0x1F NOT DUP11 DUP5 ADD AND ADD PUSH2 0x2C7E JUMP JUMPDEST DUP2 DUP2 MSTORE DUP16 DUP9 DUP4 DUP6 ADD ADD GT ISZERO PUSH2 0x236A JUMPI DUP13 DUP14 REVERT JUMPDEST DUP2 DUP9 DUP5 ADD DUP10 DUP4 ADD CALLDATACOPY SWAP1 DUP2 ADD DUP8 ADD DUP13 SWAP1 MSTORE DUP6 MSTORE POP SWAP3 DUP5 ADD SWAP3 SWAP1 DUP5 ADD SWAP1 PUSH1 0x1 ADD PUSH2 0x231B JUMP JUMPDEST POP POP DUP1 SWAP9 POP POP POP PUSH2 0x23A0 DUP10 DUP3 DUP11 ADD PUSH2 0x2212 JUMP JUMPDEST SWAP6 POP POP POP POP POP PUSH2 0x23B4 DUP6 PUSH2 0x420 DUP7 ADD PUSH2 0x2212 JUMP JUMPDEST SWAP1 POP SWAP3 POP SWAP3 POP SWAP3 JUMP JUMPDEST PUSH1 0x0 PUSH2 0x400 DUP3 DUP5 SUB SLT ISZERO PUSH2 0x23CF JUMPI DUP1 DUP2 REVERT JUMPDEST PUSH2 0x22BD DUP4 DUP4 PUSH2 0x2212 JUMP JUMPDEST PUSH1 0x0 PUSH2 0x400 DUP1 DUP4 DUP6 SUB SLT ISZERO PUSH2 0x23EC JUMPI DUP2 DUP3 REVERT JUMPDEST DUP4 PUSH1 0x1F DUP5 ADD SLT PUSH2 0x23FA JUMPI DUP2 DUP3 REVERT JUMPDEST PUSH1 0x40 MLOAD DUP2 DUP2 ADD DUP2 DUP2 LT PUSH8 0xFFFFFFFFFFFFFFFF DUP3 GT OR ISZERO PUSH2 0x241C JUMPI PUSH2 0x241C PUSH2 0x2E52 JUMP JUMPDEST PUSH1 0x40 MSTORE DUP1 DUP5 DUP4 DUP2 ADD DUP8 LT ISZERO PUSH2 0x242F JUMPI DUP5 DUP6 REVERT JUMPDEST DUP5 SWAP4 POP JUMPDEST PUSH1 0x20 DUP1 DUP6 LT PUSH2 0x2442 JUMPI POP PUSH2 0x2465 JUMP JUMPDEST DUP2 CALLDATALOAD PUSH1 0xFF DUP2 AND DUP2 EQ PUSH2 0x2452 JUMPI DUP7 DUP8 REVERT JUMPDEST DUP4 MSTORE PUSH1 0x1 SWAP5 SWAP1 SWAP5 ADD SWAP4 SWAP2 DUP3 ADD SWAP2 ADD PUSH2 0x2433 JUMP JUMPDEST POP SWAP1 SWAP6 SWAP5 POP POP POP POP POP JUMP JUMPDEST PUSH1 0x0 PUSH1 0x20 DUP3 DUP5 SUB SLT ISZERO PUSH2 0x2481 JUMPI DUP1 DUP2 REVERT JUMPDEST DUP2 CALLDATALOAD PUSH2 0x22BD DUP2 PUSH2 0x2E68 JUMP JUMPDEST PUSH1 0x0 PUSH1 0x20 DUP3 DUP5 SUB SLT ISZERO PUSH2 0x249D JUMPI DUP1 DUP2 REVERT JUMPDEST DUP2 MLOAD PUSH2 0x22BD DUP2 PUSH2 0x2E68 JUMP JUMPDEST PUSH1 0x0 PUSH1 0x20 DUP3 DUP5 SUB SLT ISZERO PUSH2 0x24B9 JUMPI DUP1 DUP2 REVERT JUMPDEST POP CALLDATALOAD SWAP2 SWAP1 POP JUMP JUMPDEST PUSH1 0x0 PUSH1 0x20 DUP3 DUP5 SUB SLT ISZERO PUSH2 0x24D1 JUMPI DUP1 DUP2 REVERT JUMPDEST DUP2 CALLDATALOAD PUSH2 0x22BD DUP2 PUSH2 0x2E76 JUMP JUMPDEST PUSH1 0x0 DUP1 PUSH1 0x40 DUP4 DUP6 SUB SLT ISZERO PUSH2 0x24EE JUMPI DUP2 DUP3 REVERT JUMPDEST DUP3 MLOAD PUSH2 0x24F9 DUP2 PUSH2 0x2E76 JUMP JUMPDEST PUSH1 0x20 DUP5 ADD MLOAD SWAP1 SWAP3 POP PUSH2 0x250A DUP2 PUSH2 0x2E76 JUMP JUMPDEST DUP1 SWAP2 POP POP SWAP3 POP SWAP3 SWAP1 POP JUMP JUMPDEST PUSH1 0x0 DUP3 PUSH2 0x400 DUP2 ADD DUP4 DUP4 JUMPDEST PUSH1 0x20 DUP1 DUP3 LT PUSH2 0x252F JUMPI POP PUSH2 0x2465 JUMP JUMPDEST DUP5 DUP5 SUB DUP9 MSTORE PUSH2 0x253F DUP5 DUP5 MLOAD PUSH2 0x2552 JUMP JUMPDEST SWAP8 DUP2 ADD SWAP8 SWAP4 POP SWAP2 SWAP1 SWAP2 ADD SWAP1 PUSH1 0x1 ADD PUSH2 0x2520 JUMP JUMPDEST PUSH1 0x0 DUP2 MLOAD DUP1 DUP5 MSTORE DUP2 JUMPDEST DUP2 DUP2 LT ISZERO PUSH2 0x2577 JUMPI PUSH1 0x20 DUP2 DUP6 ADD DUP2 ADD MLOAD DUP7 DUP4 ADD DUP3 ADD MSTORE ADD PUSH2 0x255B JUMP JUMPDEST DUP2 DUP2 GT ISZERO PUSH2 0x2588 JUMPI DUP3 PUSH1 0x20 DUP4 DUP8 ADD ADD MSTORE JUMPDEST POP PUSH1 0x1F ADD PUSH1 0x1F NOT AND SWAP3 SWAP1 SWAP3 ADD PUSH1 0x20 ADD SWAP3 SWAP2 POP POP JUMP JUMPDEST PUSH1 0xFF AND SWAP1 MSTORE JUMP JUMPDEST PUSH1 0x1 PUSH1 0x1 PUSH1 0xA0 SHL SUB SWAP2 SWAP1 SWAP2 AND DUP2 MSTORE PUSH1 0x20 ADD SWAP1 JUMP JUMPDEST PUSH1 0x1 PUSH1 0x1 PUSH1 0xA0 SHL SUB SWAP4 DUP5 AND DUP2 MSTORE SWAP2 SWAP1 SWAP3 AND PUSH1 0x20 DUP3 ADD MSTORE PUSH4 0xFFFFFFFF SWAP1 SWAP2 AND PUSH1 0x40 DUP3 ADD MSTORE PUSH1 0x60 ADD SWAP1 JUMP JUMPDEST PUSH1 0x1 PUSH1 0x1 PUSH1 0xA0 SHL SUB SWAP3 SWAP1 SWAP3 AND DUP3 MSTORE PUSH4 0xFFFFFFFF AND PUSH1 0x20 DUP3 ADD MSTORE PUSH1 0x40 ADD SWAP1 JUMP JUMPDEST PUSH1 0x0 PUSH1 0x20 DUP3 MSTORE PUSH2 0x22BD PUSH1 0x20 DUP4 ADD DUP5 PUSH2 0x2515 JUMP JUMPDEST PUSH2 0x400 DUP2 ADD DUP2 DUP4 PUSH1 0x0 JUMPDEST PUSH1 0x20 DUP1 PUSH1 0x3 DUP4 ADD LT PUSH2 0x262F JUMPI POP PUSH2 0x1EC9 JUMP JUMPDEST DUP3 SLOAD PUSH8 0xFFFFFFFFFFFFFFFF DUP1 DUP3 AND DUP7 MSTORE PUSH1 0x40 DUP3 DUP2 SHR DUP3 AND SWAP4 DUP8 ADD SWAP4 SWAP1 SWAP4 MSTORE PUSH1 0x80 DUP3 DUP2 SHR SWAP1 SWAP2 AND SWAP3 DUP7 ADD SWAP3 SWAP1 SWAP3 MSTORE PUSH1 0xC0 SHR PUSH1 0x60 DUP6 ADD MSTORE SWAP1 SWAP3 ADD SWAP2 PUSH1 0x1 SWAP1 SWAP2 ADD SWAP1 PUSH1 0x4 ADD PUSH2 0x261D JUMP JUMPDEST PUSH2 0x400 DUP2 DUP2 ADD SWAP1 DUP3 DUP5 PUSH1 0x0 JUMPDEST PUSH1 0x20 DUP1 PUSH1 0x1F DUP4 ADD LT PUSH2 0x2694 JUMPI POP PUSH2 0x2903 JUMP JUMPDEST DUP3 SLOAD PUSH1 0xFF PUSH2 0x26A4 DUP7 DUP3 DUP5 AND PUSH2 0x259D JUMP JUMPDEST PUSH2 0x26B5 DUP4 DUP8 ADD DUP3 DUP5 PUSH1 0x8 SHR AND PUSH2 0x259D JUMP JUMPDEST PUSH1 0x40 PUSH2 0x26C8 DUP2 DUP9 ADD DUP4 DUP6 PUSH1 0x10 SHR AND PUSH2 0x259D JUMP JUMPDEST PUSH1 0x60 PUSH2 0x26DB DUP2 DUP10 ADD DUP5 DUP7 PUSH1 0x18 SHR AND PUSH2 0x259D JUMP JUMPDEST PUSH1 0x80 PUSH2 0x26ED DUP2 DUP11 ADD DUP6 DUP8 DUP10 SHR AND PUSH2 0x259D JUMP JUMPDEST PUSH1 0xA0 SWAP6 POP PUSH2 0x2702 DUP7 DUP11 ADD DUP6 DUP8 PUSH1 0x28 SHR AND PUSH2 0x259D JUMP JUMPDEST PUSH1 0xC0 PUSH2 0x2715 DUP2 DUP12 ADD DUP7 DUP9 PUSH1 0x30 SHR AND PUSH2 0x259D JUMP JUMPDEST PUSH1 0xE0 PUSH2 0x2728 DUP2 DUP13 ADD DUP8 DUP10 PUSH1 0x38 SHR AND PUSH2 0x259D JUMP JUMPDEST PUSH2 0x273A PUSH2 0x100 DUP13 ADD DUP8 DUP10 DUP9 SHR AND PUSH2 0x259D JUMP JUMPDEST PUSH2 0x274D PUSH2 0x120 DUP13 ADD DUP8 DUP10 PUSH1 0x48 SHR AND PUSH2 0x259D JUMP JUMPDEST PUSH2 0x2760 PUSH2 0x140 DUP13 ADD DUP8 DUP10 PUSH1 0x50 SHR AND PUSH2 0x259D JUMP JUMPDEST PUSH2 0x2773 PUSH2 0x160 DUP13 ADD DUP8 DUP10 PUSH1 0x58 SHR AND PUSH2 0x259D JUMP JUMPDEST PUSH2 0x2785 PUSH2 0x180 DUP13 ADD DUP8 DUP10 DUP8 SHR AND PUSH2 0x259D JUMP JUMPDEST PUSH2 0x2798 PUSH2 0x1A0 DUP13 ADD DUP8 DUP10 PUSH1 0x68 SHR AND PUSH2 0x259D JUMP JUMPDEST PUSH2 0x27AB PUSH2 0x1C0 DUP13 ADD DUP8 DUP10 PUSH1 0x70 SHR AND PUSH2 0x259D JUMP JUMPDEST PUSH2 0x27BE PUSH2 0x1E0 DUP13 ADD DUP8 DUP10 PUSH1 0x78 SHR AND PUSH2 0x259D JUMP JUMPDEST PUSH2 0x27D0 PUSH2 0x200 DUP13 ADD DUP8 DUP10 DUP7 SHR AND PUSH2 0x259D JUMP JUMPDEST PUSH2 0x27E3 PUSH2 0x220 DUP13 ADD DUP8 DUP10 PUSH1 0x88 SHR AND PUSH2 0x259D JUMP JUMPDEST PUSH2 0x27F6 PUSH2 0x240 DUP13 ADD DUP8 DUP10 PUSH1 0x90 SHR AND PUSH2 0x259D JUMP JUMPDEST PUSH2 0x2809 PUSH2 0x260 DUP13 ADD DUP8 DUP10 PUSH1 0x98 SHR AND PUSH2 0x259D JUMP JUMPDEST PUSH2 0x281B PUSH2 0x280 DUP13 ADD DUP8 DUP10 DUP12 SHR AND PUSH2 0x259D JUMP JUMPDEST PUSH2 0x282E PUSH2 0x2A0 DUP13 ADD DUP8 DUP10 PUSH1 0xA8 SHR AND PUSH2 0x259D JUMP JUMPDEST PUSH2 0x2841 PUSH2 0x2C0 DUP13 ADD DUP8 DUP10 PUSH1 0xB0 SHR AND PUSH2 0x259D JUMP JUMPDEST PUSH2 0x2854 PUSH2 0x2E0 DUP13 ADD DUP8 DUP10 PUSH1 0xB8 SHR AND PUSH2 0x259D JUMP JUMPDEST PUSH2 0x2866 PUSH2 0x300 DUP13 ADD DUP8 DUP10 DUP6 SHR AND PUSH2 0x259D JUMP JUMPDEST PUSH2 0x2879 PUSH2 0x320 DUP13 ADD DUP8 DUP10 PUSH1 0xC8 SHR AND PUSH2 0x259D JUMP JUMPDEST PUSH2 0x288C PUSH2 0x340 DUP13 ADD DUP8 DUP10 PUSH1 0xD0 SHR AND PUSH2 0x259D JUMP JUMPDEST PUSH2 0x289F PUSH2 0x360 DUP13 ADD DUP8 DUP10 PUSH1 0xD8 SHR AND PUSH2 0x259D JUMP JUMPDEST PUSH2 0x28B1 PUSH2 0x380 DUP13 ADD DUP8 DUP10 DUP5 SHR AND PUSH2 0x259D JUMP JUMPDEST POP POP POP POP POP PUSH2 0x28C9 PUSH2 0x3A0 DUP8 ADD DUP3 DUP5 PUSH1 0xE8 SHR AND PUSH2 0x259D JUMP JUMPDEST PUSH2 0x28DC PUSH2 0x3C0 DUP8 ADD DUP3 DUP5 PUSH1 0xF0 SHR AND PUSH2 0x259D JUMP JUMPDEST POP PUSH2 0x28EE PUSH2 0x3E0 DUP7 ADD DUP3 PUSH1 0xF8 SHR PUSH2 0x259D JUMP JUMPDEST POP POP SWAP2 DUP4 ADD SWAP2 PUSH1 0x1 SWAP2 SWAP1 SWAP2 ADD SWAP1 PUSH1 0x20 ADD PUSH2 0x2682 JUMP JUMPDEST POP POP POP POP SWAP3 SWAP2 POP POP JUMP JUMPDEST PUSH2 0x400 DUP2 ADD DUP2 DUP4 PUSH1 0x0 JUMPDEST PUSH1 0x20 PUSH1 0x1 DUP2 DUP2 DUP5 ADD LT PUSH2 0x292B JUMPI POP POP PUSH2 0x1EC9 JUMP JUMPDEST DUP4 SLOAD PUSH12 0xFFFFFFFFFFFFFFFFFFFFFFFF DUP1 DUP3 AND DUP8 MSTORE PUSH1 0x60 SWAP2 SWAP1 SWAP2 SHR AND SWAP2 DUP6 ADD SWAP2 SWAP1 SWAP2 MSTORE PUSH1 0x40 SWAP1 SWAP4 ADD SWAP3 SWAP1 SWAP2 ADD SWAP1 PUSH1 0x2 ADD PUSH2 0x2917 JUMP JUMPDEST SWAP3 ISZERO ISZERO DUP4 MSTORE PUSH4 0xFFFFFFFF SWAP2 DUP3 AND PUSH1 0x20 DUP5 ADD MSTORE AND PUSH1 0x40 DUP3 ADD MSTORE PUSH1 0x60 ADD SWAP1 JUMP JUMPDEST PUSH1 0x0 PUSH1 0x20 DUP3 MSTORE PUSH2 0x22BD PUSH1 0x20 DUP4 ADD DUP5 PUSH2 0x2552 JUMP JUMPDEST PUSH1 0x20 DUP1 DUP3 MSTORE PUSH1 0xB SWAP1 DUP3 ADD MSTORE PUSH32 0x43616C6C206661696C6564000000000000000000000000000000000000000000 PUSH1 0x40 DUP3 ADD MSTORE PUSH1 0x60 ADD SWAP1 JUMP JUMPDEST PUSH1 0x20 DUP1 DUP3 MSTORE PUSH1 0xB SWAP1 DUP3 ADD MSTORE PUSH32 0x4C6F772042616C616E6365000000000000000000000000000000000000000000 PUSH1 0x40 DUP3 ADD MSTORE PUSH1 0x60 ADD SWAP1 JUMP JUMPDEST PUSH1 0x20 DUP1 DUP3 MSTORE PUSH1 0xB SWAP1 DUP3 ADD MSTORE PUSH32 0x6E65656420746F6B656E73000000000000000000000000000000000000000000 PUSH1 0x40 DUP3 ADD MSTORE PUSH1 0x60 ADD SWAP1 JUMP JUMPDEST PUSH1 0x20 DUP1 DUP3 MSTORE PUSH1 0x8 SWAP1 DUP3 ADD MSTORE PUSH32 0x746F6F20736F6F6E000000000000000000000000000000000000000000000000 PUSH1 0x40 DUP3 ADD MSTORE PUSH1 0x60 ADD SWAP1 JUMP JUMPDEST PUSH1 0x20 DUP1 DUP3 MSTORE PUSH1 0x14 SWAP1 DUP3 ADD MSTORE PUSH32 0x416C726561647920756E64657220526576696577000000000000000000000000 PUSH1 0x40 DUP3 ADD MSTORE PUSH1 0x60 ADD SWAP1 JUMP JUMPDEST PUSH1 0x20 DUP1 DUP3 MSTORE PUSH1 0x11 SWAP1 DUP3 ADD MSTORE PUSH32 0x6E6F20776420647572696E6720766F7465000000000000000000000000000000 PUSH1 0x40 DUP3 ADD MSTORE PUSH1 0x60 ADD SWAP1 JUMP JUMPDEST PUSH1 0x20 DUP1 DUP3 MSTORE PUSH1 0xA SWAP1 DUP3 ADD MSTORE PUSH32 0x77726F6E67206461746100000000000000000000000000000000000000000000 PUSH1 0x40 DUP3 ADD MSTORE PUSH1 0x60 ADD SWAP1 JUMP JUMPDEST SWAP1 DUP2 MSTORE PUSH1 0x20 ADD SWAP1 JUMP JUMPDEST PUSH4 0xFFFFFFFF SWAP2 SWAP1 SWAP2 AND DUP2 MSTORE PUSH1 0x20 ADD SWAP1 JUMP JUMPDEST PUSH4 0xFFFFFFFF SWAP4 SWAP1 SWAP4 AND DUP4 MSTORE PUSH1 0x20 DUP4 ADD SWAP2 SWAP1 SWAP2 MSTORE PUSH1 0x1 PUSH1 0x1 PUSH1 0xA0 SHL SUB AND PUSH1 0x40 DUP3 ADD MSTORE PUSH1 0x60 ADD SWAP1 JUMP JUMPDEST PUSH1 0x0 PUSH4 0xFFFFFFFF DUP1 DUP7 AND DUP4 MSTORE DUP1 DUP6 AND PUSH1 0x20 DUP5 ADD MSTORE POP PUSH1 0x60 PUSH1 0x40 DUP4 ADD MSTORE PUSH2 0x2B7B PUSH1 0x60 DUP4 ADD DUP5 PUSH2 0x2515 JUMP JUMPDEST SWAP6 SWAP5 POP POP POP POP POP JUMP JUMPDEST PUSH1 0x0 PUSH2 0x440 DUP3 ADD SWAP1 POP PUSH4 0xFFFFFFFF DUP1 DUP7 AND DUP4 MSTORE PUSH1 0x20 DUP2 DUP7 AND DUP2 DUP6 ADD MSTORE PUSH1 0x40 DUP5 ADD DUP6 PUSH1 0x0 JUMPDEST DUP4 DUP2 LT ISZERO PUSH2 0x2BC6 JUMPI DUP2 MLOAD DUP6 AND DUP4 MSTORE SWAP2 DUP4 ADD SWAP2 SWAP1 DUP4 ADD SWAP1 PUSH1 0x1 ADD PUSH2 0x2BA8 JUMP JUMPDEST POP POP POP POP POP SWAP5 SWAP4 POP POP POP POP JUMP JUMPDEST PUSH4 0xFFFFFFFF DUP5 DUP2 AND DUP3 MSTORE DUP4 AND PUSH1 0x20 DUP1 DUP4 ADD SWAP2 SWAP1 SWAP2 MSTORE PUSH2 0x440 DUP3 ADD SWAP1 PUSH1 0x40 DUP4 ADD SWAP1 DUP5 PUSH1 0x0 JUMPDEST DUP3 DUP2 LT ISZERO PUSH2 0x2C16 JUMPI DUP2 MLOAD PUSH1 0xFF AND DUP5 MSTORE SWAP3 DUP3 ADD SWAP3 SWAP1 DUP3 ADD SWAP1 PUSH1 0x1 ADD PUSH2 0x2BF7 JUMP JUMPDEST POP POP POP POP SWAP5 SWAP4 POP POP POP POP JUMP JUMPDEST PUSH4 0xFFFFFFFF SWAP4 DUP5 AND DUP2 MSTORE SWAP2 DUP4 AND PUSH1 0x20 DUP4 ADD MSTORE SWAP1 SWAP2 AND PUSH1 0x40 DUP3 ADD MSTORE PUSH1 0x60 ADD SWAP1 JUMP JUMPDEST PUSH8 0xFFFFFFFFFFFFFFFF SWAP2 SWAP1 SWAP2 AND DUP2 MSTORE PUSH1 0x20 ADD SWAP1 JUMP JUMPDEST PUSH1 0xFF SWAP2 SWAP1 SWAP2 AND DUP2 MSTORE PUSH1 0x20 ADD SWAP1 JUMP JUMPDEST PUSH12 0xFFFFFFFFFFFFFFFFFFFFFFFF SWAP2 SWAP1 SWAP2 AND DUP2 MSTORE PUSH1 0x20 ADD SWAP1 JUMP JUMPDEST PUSH1 0x40 MLOAD DUP2 DUP2 ADD PUSH8 0xFFFFFFFFFFFFFFFF DUP2 GT DUP3 DUP3 LT OR ISZERO PUSH2 0x2CA0 JUMPI PUSH2 0x2CA0 PUSH2 0x2E52 JUMP JUMPDEST PUSH1 0x40 MSTORE SWAP2 SWAP1 POP JUMP JUMPDEST PUSH1 0x0 PUSH8 0xFFFFFFFFFFFFFFFF DUP3 GT ISZERO PUSH2 0x2CC2 JUMPI PUSH2 0x2CC2 PUSH2 0x2E52 JUMP JUMPDEST POP PUSH1 0x20 MUL SWAP1 JUMP JUMPDEST PUSH1 0x0 PUSH4 0xFFFFFFFF DUP1 DUP4 AND DUP2 DUP6 AND DUP1 DUP4 SUB DUP3 GT ISZERO PUSH2 0x2CE8 JUMPI PUSH2 0x2CE8 PUSH2 0x2E26 JUMP JUMPDEST ADD SWAP5 SWAP4 POP POP POP POP JUMP JUMPDEST PUSH1 0x0 DUP3 PUSH2 0x2D00 JUMPI PUSH2 0x2D00 PUSH2 0x2E3C JUMP JUMPDEST POP DIV SWAP1 JUMP JUMPDEST PUSH1 0x0 PUSH4 0xFFFFFFFF DUP1 DUP5 AND DUP1 PUSH2 0x2D1C JUMPI PUSH2 0x2D1C PUSH2 0x2E3C JUMP JUMPDEST SWAP3 AND SWAP2 SWAP1 SWAP2 DIV SWAP3 SWAP2 POP POP JUMP JUMPDEST PUSH1 0x0 DUP2 PUSH1 0x0 NOT DIV DUP4 GT DUP3 ISZERO ISZERO AND ISZERO PUSH2 0x2D42 JUMPI PUSH2 0x2D42 PUSH2 0x2E26 JUMP JUMPDEST POP MUL SWAP1 JUMP JUMPDEST PUSH1 0x0 PUSH4 0xFFFFFFFF DUP1 DUP4 AND DUP2 DUP6 AND DUP2 DUP4 DIV DUP2 GT DUP3 ISZERO ISZERO AND ISZERO PUSH2 0x2D6A JUMPI PUSH2 0x2D6A PUSH2 0x2E26 JUMP JUMPDEST MUL SWAP5 SWAP4 POP POP POP POP JUMP JUMPDEST PUSH1 0x0 PUSH4 0xFFFFFFFF DUP4 DUP2 AND SWAP1 DUP4 AND DUP2 DUP2 LT ISZERO PUSH2 0x2D90 JUMPI PUSH2 0x2D90 PUSH2 0x2E26 JUMP JUMPDEST SUB SWAP4 SWAP3 POP POP POP JUMP JUMPDEST PUSH1 0x2 DUP2 DIV PUSH1 0x1 DUP3 AND DUP1 PUSH2 0x2DAC JUMPI PUSH1 0x7F DUP3 AND SWAP2 POP JUMPDEST PUSH1 0x20 DUP3 LT DUP2 EQ ISZERO PUSH2 0x2DCD JUMPI PUSH4 0x4E487B71 PUSH1 0xE0 SHL PUSH1 0x0 MSTORE PUSH1 0x22 PUSH1 0x4 MSTORE PUSH1 0x24 PUSH1 0x0 REVERT JUMPDEST POP SWAP2 SWAP1 POP JUMP JUMPDEST PUSH1 0x0 PUSH1 0x0 NOT DUP3 EQ ISZERO PUSH2 0x2DE7 JUMPI PUSH2 0x2DE7 PUSH2 0x2E26 JUMP JUMPDEST POP PUSH1 0x1 ADD SWAP1 JUMP JUMPDEST PUSH1 0x0 PUSH4 0xFFFFFFFF DUP1 DUP4 AND DUP2 DUP2 EQ ISZERO PUSH2 0x2E08 JUMPI PUSH2 0x2E08 PUSH2 0x2E26 JUMP JUMPDEST PUSH1 0x1 ADD SWAP4 SWAP3 POP POP POP JUMP JUMPDEST PUSH1 0x0 DUP3 PUSH2 0x2E21 JUMPI PUSH2 0x2E21 PUSH2 0x2E3C JUMP JUMPDEST POP MOD SWAP1 JUMP JUMPDEST PUSH4 0x4E487B71 PUSH1 0xE0 SHL PUSH1 0x0 MSTORE PUSH1 0x11 PUSH1 0x4 MSTORE PUSH1 0x24 PUSH1 0x0 REVERT JUMPDEST PUSH4 0x4E487B71 PUSH1 0xE0 SHL PUSH1 0x0 MSTORE PUSH1 0x12 PUSH1 0x4 MSTORE PUSH1 0x24 PUSH1 0x0 REVERT JUMPDEST PUSH4 0x4E487B71 PUSH1 0xE0 SHL PUSH1 0x0 MSTORE PUSH1 0x41 PUSH1 0x4 MSTORE PUSH1 0x24 PUSH1 0x0 REVERT JUMPDEST DUP1 ISZERO ISZERO DUP2 EQ PUSH2 0x101E JUMPI PUSH1 0x0 DUP1 REVERT JUMPDEST PUSH4 0xFFFFFFFF DUP2 AND DUP2 EQ PUSH2 0x101E JUMPI PUSH1 0x0 DUP1 REVERT INVALID LOG2 PUSH5 0x6970667358 0x22 SLT KECCAK256 0xBA SSTORE MSTORE 0xF GAS MOD SWAP5 0xB7 0xF8 CALLER 0xB9 0xEE MLOAD GASLIMIT 0xB3 CHAINID PUSH9 0x65D070E18D303A1C1 0xAA 0x5E 0xE5 DUP4 0xE8 0xB0 PUSH5 0x736F6C6343 STOP ADDMOD STOP STOP CALLER "},"methodIdentifiers":{"CURE_TIME()":"d3322374","HOUR_END()":"98823b90","HOUR_START()":"9e6df0d8","MIN_SUBMIT()":"862a7982","adminStruct(address)":"c68ec645","bettingContract()":"21cb4831","depositTokens(uint32)":"47dee228","hourOfDay()":"7345b10b","initPost(string[32],uint32[32],uint32[32])":"bd64f10f","initProcess()":"e966f49f","matchSchedule(uint256)":"f1ed3b39","paramUpdate(uint32)":"50abb018","params(uint256)":"9d2f053c","propOddsStarts(uint256)":"91e04f7e","propOddsUpdate(uint256)":"e2a9fc3f","propResults(uint256)":"03ecacc7","proposer()":"a8e4fb90","settlePost(uint8[32])":"5d85579d","settleProcess()":"0a491d08","showSchedString()":"160919bf","token()":"fc0c546a","updatePost(uint32[32])":"9d73f0a6","updateProcess()":"4a1247ae","vote(bool)":"4b9f5c98","withdrawTokens(uint32)":"c37ac23b"}}}}}