{"src/contracts/solidity/Betting.sol":{"Betting":{"abi":[{"inputs":[{"internalType":"address","name":"_tokenAddress","type":"address"}],"stateMutability":"nonpayable","type":"constructor"},{"anonymous":false,"inputs":[{"indexed":true,"internalType":"address","name":"bettor","type":"address"},{"indexed":true,"internalType":"uint8","name":"epoch","type":"uint8"},{"indexed":false,"internalType":"uint8","name":"matchNum","type":"uint8"},{"indexed":false,"internalType":"uint8","name":"pick","type":"uint8"},{"indexed":false,"internalType":"uint32","name":"betAmount","type":"uint32"},{"indexed":false,"internalType":"uint32","name":"payoff","type":"uint32"},{"indexed":false,"internalType":"bytes32","name":"contractHash","type":"bytes32"}],"name":"BetRecord","type":"event"},{"anonymous":false,"inputs":[{"indexed":false,"internalType":"address","name":"bettor","type":"address"},{"indexed":false,"internalType":"uint256","name":"moveAmount","type":"uint256"},{"indexed":false,"internalType":"uint32","name":"epoch","type":"uint32"},{"indexed":false,"internalType":"uint32","name":"action","type":"uint32"}],"name":"Funding","type":"event"},{"anonymous":false,"inputs":[{"indexed":true,"internalType":"address","name":"bettor","type":"address"},{"indexed":true,"internalType":"uint8","name":"epoch","type":"uint8"},{"indexed":false,"internalType":"uint8","name":"matchNum","type":"uint8"},{"indexed":false,"internalType":"uint8","name":"pick","type":"uint8"},{"indexed":false,"internalType":"uint32","name":"betAmount","type":"uint32"},{"indexed":false,"internalType":"uint32","name":"payoff","type":"uint32"},{"indexed":false,"internalType":"bytes32","name":"contractHash","type":"bytes32"}],"name":"OfferRecord","type":"event"},{"inputs":[],"name":"FUTURE_START","outputs":[{"internalType":"uint32","name":"","type":"uint32"}],"stateMutability":"view","type":"function"},{"inputs":[],"name":"ORACLE_5PERC","outputs":[{"internalType":"uint256","name":"","type":"uint256"}],"stateMutability":"view","type":"function"},{"inputs":[],"name":"UNITS_TRANS14","outputs":[{"internalType":"uint256","name":"","type":"uint256"}],"stateMutability":"view","type":"function"},{"inputs":[{"internalType":"uint32","name":"_maxPos","type":"uint32"}],"name":"adjustParams","outputs":[],"stateMutability":"nonpayable","type":"function"},{"inputs":[{"internalType":"uint8","name":"_matchNumber","type":"uint8"},{"internalType":"uint8","name":"_team0or1","type":"uint8"},{"internalType":"uint32","name":"_betAmt","type":"uint32"}],"name":"bet","outputs":[],"stateMutability":"nonpayable","type":"function"},{"inputs":[{"internalType":"bytes32","name":"","type":"bytes32"}],"name":"betContracts","outputs":[{"internalType":"uint8","name":"epoch","type":"uint8"},{"internalType":"uint8","name":"matchNum","type":"uint8"},{"internalType":"uint8","name":"pick","type":"uint8"},{"internalType":"uint32","name":"betAmount","type":"uint32"},{"internalType":"uint32","name":"payoff","type":"uint32"},{"internalType":"address","name":"bettor","type":"address"}],"stateMutability":"view","type":"function"},{"inputs":[{"internalType":"uint256","name":"","type":"uint256"}],"name":"betData","outputs":[{"internalType":"uint256","name":"","type":"uint256"}],"stateMutability":"view","type":"function"},{"inputs":[{"internalType":"bytes32","name":"_subkid","type":"bytes32"}],"name":"cancelBigBet","outputs":[],"stateMutability":"nonpayable","type":"function"},{"inputs":[{"internalType":"bytes32","name":"_subkID","type":"bytes32"}],"name":"checkOffer","outputs":[{"internalType":"bool","name":"","type":"bool"}],"stateMutability":"view","type":"function"},{"inputs":[{"internalType":"bytes32","name":"_subkID","type":"bytes32"}],"name":"checkRedeem","outputs":[{"internalType":"bool","name":"","type":"bool"}],"stateMutability":"view","type":"function"},{"inputs":[],"name":"fundBettor","outputs":[],"stateMutability":"payable","type":"function"},{"inputs":[],"name":"fundBook","outputs":[],"stateMutability":"payable","type":"function"},{"inputs":[{"internalType":"address","name":"","type":"address"}],"name":"lpStruct","outputs":[{"internalType":"uint32","name":"shares","type":"uint32"},{"internalType":"uint32","name":"outEpoch","type":"uint32"}],"stateMutability":"view","type":"function"},{"inputs":[{"internalType":"uint256","name":"","type":"uint256"}],"name":"margin","outputs":[{"internalType":"uint32","name":"","type":"uint32"}],"stateMutability":"view","type":"function"},{"inputs":[{"internalType":"bytes32","name":"","type":"bytes32"}],"name":"offerContracts","outputs":[{"internalType":"uint8","name":"epoch","type":"uint8"},{"internalType":"uint8","name":"matchNum","type":"uint8"},{"internalType":"uint8","name":"pick","type":"uint8"},{"internalType":"uint32","name":"betAmount","type":"uint32"},{"internalType":"uint32","name":"payoff","type":"uint32"},{"internalType":"address","name":"bettor","type":"address"}],"stateMutability":"view","type":"function"},{"inputs":[],"name":"oracleAdmin","outputs":[{"internalType":"address payable","name":"","type":"address"}],"stateMutability":"view","type":"function"},{"inputs":[{"internalType":"uint32","name":"","type":"uint32"}],"name":"outcomeMap","outputs":[{"internalType":"uint8","name":"","type":"uint8"}],"stateMutability":"view","type":"function"},{"inputs":[{"internalType":"uint8","name":"_matchNum","type":"uint8"},{"internalType":"uint8","name":"_team0or1","type":"uint8"},{"internalType":"uint32","name":"_betAmount","type":"uint32"},{"internalType":"uint32","name":"_decOddsBB","type":"uint32"}],"name":"postBigBet","outputs":[],"stateMutability":"nonpayable","type":"function"},{"inputs":[{"internalType":"bytes32","name":"_subkId","type":"bytes32"}],"name":"redeem","outputs":[],"stateMutability":"nonpayable","type":"function"},{"inputs":[{"internalType":"address payable","name":"_oracleAddress","type":"address"}],"name":"setOracleAddress","outputs":[],"stateMutability":"nonpayable","type":"function"},{"inputs":[{"internalType":"uint8[32]","name":"_winner","type":"uint8[32]"}],"name":"settle","outputs":[{"internalType":"uint32","name":"","type":"uint32"},{"internalType":"uint32","name":"","type":"uint32"}],"stateMutability":"nonpayable","type":"function"},{"inputs":[],"name":"showBetData","outputs":[{"internalType":"uint256[32]","name":"","type":"uint256[32]"}],"stateMutability":"view","type":"function"},{"inputs":[{"internalType":"bytes32","name":"_subkid","type":"bytes32"}],"name":"takeBigBet","outputs":[],"stateMutability":"nonpayable","type":"function"},{"inputs":[],"name":"token","outputs":[{"internalType":"contract Token","name":"","type":"address"}],"stateMutability":"view","type":"function"},{"inputs":[{"internalType":"uint96[32]","name":"_oddsAndStart","type":"uint96[32]"}],"name":"transmitInit","outputs":[],"stateMutability":"nonpayable","type":"function"},{"inputs":[{"internalType":"uint64[32]","name":"_updateBetData","type":"uint64[32]"}],"name":"transmitUpdate","outputs":[],"stateMutability":"nonpayable","type":"function"},{"inputs":[{"internalType":"address","name":"","type":"address"}],"name":"userBalance","outputs":[{"internalType":"uint32","name":"","type":"uint32"}],"stateMutability":"view","type":"function"},{"inputs":[{"internalType":"uint32","name":"_amt","type":"uint32"}],"name":"withdrawBettor","outputs":[],"stateMutability":"nonpayable","type":"function"},{"inputs":[{"internalType":"uint32","name":"_sharesToSell","type":"uint32"}],"name":"withdrawBook","outputs":[],"stateMutability":"nonpayable","type":"function"},{"stateMutability":"payable","type":"receive"}],"evm":{"bytecode":{"linkReferences":{},"object":"60806040523480156200001157600080fd5b506040516200395d3803806200395d83398101604081905262000034916200008b565b600080546c0100000000000000000000000063ffffffff60a01b19909116600560a01b1763ffffffff60601b1916179055602780546001600160a01b0319166001600160a01b0392909216919091179055620000bb565b6000602082840312156200009d578081fd5b81516001600160a01b0381168114620000b4578182fd5b9392505050565b61389280620000cb6000396000f3fe6080604052600436106101c65760003560e01c80636b857267116100f7578063cae7af6111610095578063e176aabf11610064578063e176aabf14610504578063eaa2f6cf14610524578063eda1122c14610544578063fc0c546a14610564576101cd565b8063cae7af6114610475578063cf9ef50e14610495578063d8aff90e146104b5578063dea5e6e8146104e2576101cd565b80638f95a933116100d15780638f95a933146103f35780639e33670c14610413578063bca8e63e14610440578063be73205a14610455576101cd565b80636b857267146103815780636c597579146103b35780637d6f0100146103d3576101cd565b80633f68f1a1116101645780634c69c00f1161013e5780634c69c00f146103015780634e456676146103215780635ca3716114610341578063654e207f14610361576101cd565b80633f68f1a1146102ac57806345f29686146102c1578063493481bb146102e1576101cd565b80630c05cbb7116101a05780630c05cbb7146102345780630c26f9941461025457806313d116231461028257806326035fcf1461028a576101cd565b80630103c92b146101d257806303c2404e1461020857806303e95abf1461022a576101cd565b366101cd57005b600080fd5b3480156101de57600080fd5b506101f26101ed366004612cd1565b610579565b6040516101ff91906133eb565b60405180910390f35b34801561021457600080fd5b5061021d610591565b6040516101ff91906133e2565b61023261059b565b005b34801561024057600080fd5b5061023261024f366004612dd7565b6107c9565b34801561026057600080fd5b5061027461026f366004612d6e565b610849565b6040516101ff9291906133fc565b610232610c26565b34801561029657600080fd5b5061029f610cfe565b6040516101ff9190612fc3565b3480156102b857600080fd5b5061021d610d3a565b3480156102cd57600080fd5b506101f26102dc366004612e52565b610d44565b3480156102ed57600080fd5b506102326102fc366004612e52565b610d74565b34801561030d57600080fd5b5061023261031c366004612cd1565b6115b0565b34801561032d57600080fd5b5061021d61033c366004612e52565b611613565b34801561034d57600080fd5b5061023261035c366004612e52565b61162a565b34801561036d57600080fd5b5061023261037c366004612e6a565b61169d565b34801561038d57600080fd5b506103a161039c366004612e52565b6116be565b6040516101ff96959493929190613452565b3480156103bf57600080fd5b506102326103ce366004612ced565b611715565b3480156103df57600080fd5b506103a16103ee366004612e52565b6117e0565b3480156103ff57600080fd5b5061023261040e366004612ec6565b611837565b34801561041f57600080fd5b5061043361042e366004612e52565b611b46565b6040516101ff9190612ff9565b34801561044c57600080fd5b506101f2611b6a565b34801561046157600080fd5b50610433610470366004612e52565b611b72565b34801561048157600080fd5b50610274610490366004612cd1565b611bf5565b3480156104a157600080fd5b506102326104b0366004612e6a565b611c19565b3480156104c157600080fd5b506104d56104d0366004612e6a565b611d6e565b6040516101ff9190613413565b3480156104ee57600080fd5b506104f7611d83565b6040516101ff9190612f51565b34801561051057600080fd5b5061023261051f366004612e6a565b611d92565b34801561053057600080fd5b5061023261053f366004612e84565b6120ba565b34801561055057600080fd5b5061023261055f366004612e52565b612816565b34801561057057600080fd5b506104f7612a50565b60266020526000908152604090205463ffffffff1681565b65048c2739500081565b6000547c0100000000000000000000000000000000000000000000000000000000900463ffffffff1642106105eb5760405162461bcd60e51b81526004016105e29061314e565b60405180910390fd5b60006105fd655af3107a4000346135d2565b600080549192509063ffffffff1615610656576000805463ffffffff169061064590849060045b600891828204019190066004029054906101000a900463ffffffff16612a5f565b61064f91906135e6565b9050610659565b50805b60005461066c9063ffffffff1683612aa9565b6000805463ffffffff191663ffffffff928316179081905561069891600160601b909104166001613553565b336000908152602560205260408120805467ffffffff00000000191664010000000063ffffffff94851602179055805483926010916106ed918591700100000000000000000000000000000000900416613553565b82546101009290920a63ffffffff8181021990931691831602179091553360009081526025602052604081208054859450909261072c91859116613553565b92506101000a81548163ffffffff021916908363ffffffff1602179055507fee637ea1fc87312ddb03041e1bdf2955840bce4531e1242afe2f0aff24a6ecc63334600060036008811061078f57634e487b7160e01b600052603260045260246000fd5b600891828204019190066004029054906101000a900463ffffffff1660016040516107bd9493929190612f65565b60405180910390a15050565b6021546001600160a01b031633146107e057600080fd5b60005468010000000000000000900463ffffffff16156107ff57600080fd5b61080c6001826020612bc5565b50805160401c63ffffffff16600060075b600891828204019190066004026101000a81548163ffffffff021916908363ffffffff16021790555050565b60215460009081906001600160a01b0316331461086557600080fd5b60008060008060005b6020811015610a5b5787816020811061089757634e487b7160e01b600052603260045260246000fd5b602002015160ff16915060006108ce600183602081106108c757634e487b7160e01b600052603260045260246000fd5b0154612b35565b6000549091506108ed90600160601b900463ffffffff166103e86136dd565b63ffffffff166108fe83600a6136be565b610908919061353b565b9350806005602002015163ffffffff166103e714610a4857826002146109d15780836007811061094857634e487b7160e01b600052603260045260246000fd5b60200201516109579087613553565b95508061096584600261353b565b6007811061098357634e487b7160e01b600052603260045260246000fd5b60200201516109929086613553565b94506002602460006109a4868861353b565b63ffffffff1681526020810191909152604001600020805460ff191660ff92909216919091179055610a48565b602081015181516109e29190613553565b6109ec9087613553565b63ffffffff851660009081526024602081905260408220805460ff1916600190811790915592985090610a1f878461353b565b63ffffffff1681526020810191909152604001600020805460ff191660ff929092169190911790555b5080610a53816137ba565b91505061086e565b50600054610a9990610a819063ffffffff68010000000000000000820481169116613553565b610a8b8587613553565b610a94906137f9565b612aa9565b6000805463ffffffff191663ffffffff92831617808255600160601b900490911690600c610ac6836137d5565b91906101000a81548163ffffffff021916908363ffffffff1602179055505060008363ffffffff1665048c27395000610aff91906136be565b600080547fffffffffffffffffffffffffffffffffffffffff0000000000000000ffffffff168155909150610b3690600190612c13565b600080547bffffffffffffffffffffffffffffffffffffffffffffffffffffffff167f77359400000000000000000000000000000000000000000000000000000000001781556021546040516001600160a01b03909116908390610b9990612f19565b60006040518083038185875af1925050503d8060008114610bd6576040519150601f19603f3d011682016040523d82523d6000602084013e610bdb565b606091505b5050905080610bfc5760405162461bcd60e51b81526004016105e290613004565b600054600160601b900463ffffffff16610c178660056136dd565b97509750505050505050915091565b6000610c38655af3107a4000346135d2565b33600090815260266020526040812080549293508392909190610c6290849063ffffffff16613553565b92506101000a81548163ffffffff021916908363ffffffff1602179055507fee637ea1fc87312ddb03041e1bdf2955840bce4531e1242afe2f0aff24a6ecc633346000600360088110610cc557634e487b7160e01b600052603260045260246000fd5b600891828204019190066004029054906101000a900463ffffffff166000604051610cf39493929190612f65565b60405180910390a150565b610d06612c25565b604080516104008101918290529060019060209082845b815481526020019060010190808311610d1d575050505050905090565b655af3107a400081565b60008160088110610d5457600080fd5b60089182820401919006600402915054906101000a900463ffffffff1681565b6000818152602360209081526040808320815160c081018352905460ff8082168352610100820481168386018190526201000083049091169383019390935263ffffffff630100000082048116606084015267010000000000000082041660808301526001600160a01b03600160581b9091041660a08201529291610e129160019181106108c757634e487b7160e01b600052603260045260246000fd5b905042816004602002015163ffffffff1611610e405760405162461bcd60e51b81526004016105e2906132cf565b6000548251600160601b90910463ffffffff1660ff90911614610e755760405162461bcd60e51b81526004016105e290613374565b606082015160a08301516001600160a01b031660009081526026602052604090205463ffffffff918216911610801590610ecc575060808201513360009081526026602052604090205463ffffffff918216911610155b610ee85760405162461bcd60e51b81526004016105e2906131f3565b816060015181836040015160ff1660078110610f1457634e487b7160e01b600052603260045260246000fd5b60200201818151610f259190613553565b63ffffffff16905250608082015160408301518290610f45906002613572565b60ff1660078110610f6657634e487b7160e01b600052603260045260246000fd5b60200201818151610f779190613553565b63ffffffff16905250608082015160408301518290610f97906001613797565b60ff1660078110610fb857634e487b7160e01b600052603260045260246000fd5b60200201818151610fc99190613553565b63ffffffff16905250606082015160408301518290610fe9906003613797565b60ff166007811061100a57634e487b7160e01b600052603260045260246000fd5b6020020181815161101b9190613553565b63ffffffff908116909152606084015160a08501516001600160a01b03166000908152602660205260408120805492945092909161105b91859116613772565b825461010092830a63ffffffff818102199092169282160291909117909255600086815260226020908152604080832088518154938a0151928a015160608b015160808c015160a08d015160ff1990971660ff9485161761ff0019169584169098029490941762ff000019166201000092909116919091021766ffffffff0000001916630100000092871692909202919091176affffffff0000000000000019166701000000000000009490951693909302939093177fff0000000000000000000000000000000000000000ffffffffffffffffffffff16600160581b6001600160a01b039094169390930292909217905590506003600891828204019190066004029054906101000a900463ffffffff1660ff168260a001516001600160a01b03167f140adf89f9ece20de08856a1a87e5ddec46c74e2b3d59152c54eea9e2945b8788460200151856040015186606001518760800151896040516111c5959493929190613421565b60405180910390a3600080546040516111f091600160c01b900463ffffffff16904290602001612f1c565b604080517fffffffffffffffffffffffffffffffffffffffffffffffffffffffffffffffe081840301815291815281516020909201919091203360a086015260608501805160808701805163ffffffff908116909352911690529084015190915061125c906001613797565b60ff166040840152606083015160808401516112789190613553565b6000805460089061129c90849068010000000000000000900463ffffffff16613553565b82546101009290920a63ffffffff818102199093169183160217909155606085015133600090815260266020526040812080549294509290916112e191859116613772565b92506101000a81548163ffffffff021916908363ffffffff160217905550600060036008811061132157634e487b7160e01b600052603260045260246000fd5b600891828204019190066004029054906101000a900463ffffffff1660ff16336001600160a01b03167f140adf89f9ece20de08856a1a87e5ddec46c74e2b3d59152c54eea9e2945b878856020015186604001518760600151886080015187604051611391959493929190613421565b60405180910390a3600060e08382602002015163ffffffff16901b1760c0836001602002015163ffffffff16901b1760a0836002602002015163ffffffff16901b176080836003602002015163ffffffff16901b176040836004602002015163ffffffff16901b8117905060208360056007811061141f57634e487b7160e01b600052603260045260246000fd5b602002015163ffffffff16901b17826006602002015163ffffffff1681179050806001856020015160ff166020811061146857634e487b7160e01b600052603260045260246000fd5b0155600082815260226020908152604080832087518154938901519289015160608a015160808b015160a08c015160ff1990971660ff9485161761ff001916610100968516969096029590951762ff000019166201000093909216929092021766ffffffff0000001916630100000063ffffffff92831602176affffffff00000000000000191667010000000000000093821693909302929092177fff0000000000000000000000000000000000000000ffffffffffffffffffffff16600160581b6001600160a01b0390941693909302929092179091558154600160c01b900416906018611556836137d5565b825463ffffffff9182166101009390930a92830291909202199091161790555050506000928352505060236020526040902080547fff00000000000000000000000000000000000000000000000000000000000000169055565b6021546001600160a01b0316156115d95760405162461bcd60e51b81526004016105e290613261565b602180547fffffffffffffffffffffffff0000000000000000000000000000000000000000166001600160a01b0392909216919091179055565b6001816020811061162357600080fd5b0154905081565b600081815260236020526040902054600160581b90046001600160a01b031633146116675760405162461bcd60e51b81526004016105e29061322a565b600090815260226020526040902080547fff00000000000000000000000000000000000000000000000000000000000000169055565b6021546001600160a01b031633146116b457600080fd5b806000600561081d565b60236020526000908152604090205460ff808216916101008104821691620100008204169063ffffffff630100000082048116916701000000000000008104909116906001600160a01b03600160581b9091041686565b6021546001600160a01b0316331461172c57600080fd5b6000805b60208110156117db57600060406001836020811061175e57634e487b7160e01b600052603260045260246000fd5b0154901c9050604081901b8317925083826020811061178d57634e487b7160e01b600052603260045260246000fd5b602002015167ffffffffffffffff168317925082600183602081106117c257634e487b7160e01b600052603260045260246000fd5b01555060009150806117d3816137ba565b915050611730565b505050565b60226020526000908152604090205460ff808216916101008104821691620100008204169063ffffffff630100000082048116916701000000000000008104909116906001600160a01b03600160581b9091041686565b6000546118649063ffffffff740100000000000000000000000000000000000000008204811691166135e6565b63ffffffff168263ffffffff16101561188f5760405162461bcd60e51b81526004016105e290613185565b3360009081526026602052604090205463ffffffff90811690831611156118c85760405162461bcd60e51b81526004016105e2906131f3565b6103e88163ffffffff161180156118e6575061270f8163ffffffff16105b6119025760405162461bcd60e51b81526004016105e29061303b565b6000805460405161192591600160c01b900463ffffffff16904290602001612f1c565b604051602081830303815290604052805190602001209050611945612c44565b60ff85811660408301528681166020830152600054600160601b90041681523360a082015263ffffffff841660608201526103e8846119848286613772565b61198e91906136dd565b61199891906135e6565b63ffffffff9081166080830190815260008481526023602090815260408083208651815493880151928801516060890151965160a08a015160ff1990961660ff9384161761ff001916610100958416959095029490941762ff000019166201000092909116919091021766ffffffff0000001916630100000095871695909502949094176affffffff00000000000000191667010000000000000091861691909102177fff0000000000000000000000000000000000000000ffffffffffffffffffffff16600160581b6001600160a01b0390921691909102179091558054600160c01b9004909116906018611a8d836137d5565b91906101000a81548163ffffffff021916908363ffffffff160217905550506000600360088110611ace57634e487b7160e01b600052603260045260246000fd5b600891828204019190066004029054906101000a900463ffffffff1660ff16336001600160a01b03167f4e952280ad1b5e5b031cfce9aa00eb629d6ab4751f76792c07f4dbb4afe4461288888560600151866080015188604051611b36959493929190613421565b60405180910390a3505050505050565b6000818152602360205260409020546301000000900463ffffffff1615155b919050565b637735940081565b600081815260226020526040812054819060ff620100008204811691611ba09161010090910416600a613700565b60008581526022602052604090205460ff91821691611bc291166103e8613694565b611bcc9190613515565b611bd69190613515565b61ffff1660009081526024602052604090205460ff1615159392505050565b60256020526000908152604090205463ffffffff8082169164010000000090041682565b3360009081526026602052604090205463ffffffff9081169082161115611c3f57600080fd5b3360009081526026602052604081208054839290611c6490849063ffffffff16613772565b92506101000a81548163ffffffff021916908363ffffffff1602179055506000655af3107a40008263ffffffff16611c9c91906136be565b90506000336001600160a01b031682604051611cb790612f19565b60006040518083038185875af1925050503d8060008114611cf4576040519150601f19603f3d011682016040523d82523d6000602084013e611cf9565b606091505b5050905080611d1a5760405162461bcd60e51b81526004016105e290613004565b6000546040517fee637ea1fc87312ddb03041e1bdf2955840bce4531e1242afe2f0aff24a6ecc691611d619133918691600160601b90910463ffffffff1690600390612f65565b60405180910390a1505050565b60246020526000908152604090205460ff1681565b6021546001600160a01b031681565b6000547c0100000000000000000000000000000000000000000000000000000000900463ffffffff164210611dd95760405162461bcd60e51b81526004016105e29061314e565b3360009081526025602052604090205463ffffffff80831691161015611e115760405162461bcd60e51b81526004016105e2906131f3565b33600090815260256020526040812054905464010000000090910463ffffffff908116600160601b9092041611611e5a5760405162461bcd60e51b81526004016105e2906130e0565b60008054700100000000000000000000000000000000900463ffffffff16611e83838380610624565b611e8d91906135e6565b600054909150611ead9063ffffffff640100000000820481169116613772565b63ffffffff168163ffffffff161115611ed85760405162461bcd60e51b81526004016105e290613306565b60008054839190601090611f07908490700100000000000000000000000000000000900463ffffffff16613772565b82546101009290920a63ffffffff81810219909316918316021790915533600090815260256020526040812080548694509092611f4691859116613772565b92506101000a81548163ffffffff021916908363ffffffff1602179055508060008060088110611f8657634e487b7160e01b600052603260045260246000fd5b600891828204019190066004028282829054906101000a900463ffffffff16611faf9190613772565b92506101000a81548163ffffffff021916908363ffffffff1602179055506000655af3107a40008263ffffffff16611fe791906136be565b90506000336001600160a01b03168260405161200290612f19565b60006040518083038185875af1925050503d806000811461203f576040519150601f19603f3d011682016040523d82523d6000602084013e612044565b606091505b50509050806120655760405162461bcd60e51b81526004016105e290613004565b6000546040517fee637ea1fc87312ddb03041e1bdf2955840bce4531e1242afe2f0aff24a6ecc6916120ac9133918691600160601b90910463ffffffff1690600490612f65565b60405180910390a150505050565b3360009081526026602052604090205463ffffffff908116908216118015906120e95750600a8163ffffffff16115b6121055760405162461bcd60e51b81526004016105e290613117565b600061212e60018560ff16602081106108c757634e487b7160e01b600052603260045260246000fd5b905042816004602002015163ffffffff161161215c5760405162461bcd60e51b81526004016105e2906131bc565b60006103e88261216d866005613572565b60ff166007811061218e57634e487b7160e01b600052603260045260246000fd5b602002015161219d9085613609565b6121a79190613597565b90506000826121b7866001613797565b60ff16600781106121d857634e487b7160e01b600052603260045260246000fd5b6020020151836121e9876002613572565b60ff166007811061220a57634e487b7160e01b600052603260045260246000fd5b60200201516122199190613729565b6000549091506122499063ffffffff740100000000000000000000000000000000000000008204811691166135e6565b60030b61225682846134cd565b60030b126122765760405162461bcd60e51b81526004016105e2906130a9565b6000838660ff166007811061229b57634e487b7160e01b600052603260045260246000fd5b6020020151846122ac886003613797565b60ff16600781106122cd57634e487b7160e01b600052603260045260246000fd5b60200201516122dc9190613729565b905060006122ea8383612b95565b6123106122f785876134cd565b846123018a6137f9565b61230b91906134cd565b612b95565b61231a9190613729565b60005490915061233a9063ffffffff640100000000820481169116613772565b60030b8160030b1261235e5760405162461bcd60e51b81526004016105e290613072565b336000908152602660205260408120805488929061238390849063ffffffff16613772565b92506101000a81548163ffffffff021916908363ffffffff1602179055506000806006600881106123c457634e487b7160e01b600052603260045260246000fd5b600891828204019190066004029054906101000a900463ffffffff16426040516020016123f2929190612f1c565b604051602081830303815290604052805190602001209050612412612c44565b3360a082015263ffffffff80891660608301528616608082015260ff808a1660408301528a16602082015260006003600881049091015460ff600460079093169290920261010090810a909104821683526000848152602260209081526040808320865181549388015192880151606089015160808a015160a08b01516001600160a01b0316600160581b027fff0000000000000000000000000000000000000000ffffffffffffffffffffff63ffffffff928316670100000000000000026affffffff00000000000000199490931663010000000266ffffffff00000019958d16620100000262ff000019998e16909c0261ff001997909d1660ff19909a1699909917959095169a909a179590951697909717169390931794909416171692909217905588906002600891828204019190066004028282829054906101000a900463ffffffff166125649190613553565b92506101000a81548163ffffffff021916908363ffffffff1602179055506125c960006001600881106125a757634e487b7160e01b600052603260045260246000fd5b600891828204019190066004029054906101000a900463ffffffff1684612aa9565b6000805463ffffffff929092166401000000000267ffffffff0000000019909216919091179055878760ff8b166007811061261457634e487b7160e01b600052603260045260246000fd5b602002018181516126259190613553565b63ffffffff16905250858761263b8b6002613572565b60ff166007811061265c57634e487b7160e01b600052603260045260246000fd5b6020020181815161266d9190613553565b63ffffffff16905250600060e08882602002015163ffffffff16901b1760c0886001602002015163ffffffff16901b1760a0886002602002015163ffffffff16901b176080886003602002015163ffffffff16901b176040886004602002015163ffffffff16901b811790506020886005600781106126fc57634e487b7160e01b600052603260045260246000fd5b602002015163ffffffff16901b17876006602002015163ffffffff16811790508060018c60ff166020811061274157634e487b7160e01b600052603260045260246000fd5b015560008054600160c01b900463ffffffff16906018612760836137d5565b91906101000a81548163ffffffff021916908363ffffffff1602179055505060006003600881106127a157634e487b7160e01b600052603260045260246000fd5b600891828204019190066004029054906101000a900463ffffffff1660ff16336001600160a01b03167f140adf89f9ece20de08856a1a87e5ddec46c74e2b3d59152c54eea9e2945b8788d8d8d8c89604051612801959493929190613421565b60405180910390a35050505050505050505050565b600081815260226020526040902054600160581b90046001600160a01b031633146128535760405162461bcd60e51b81526004016105e29061322a565b60008181526022602052604081205460ff62010000820481169161287f9161010090910416600a613700565b60008481526022602052604090205460ff918216916128a191166103e8613694565b6128ab9190613515565b6128b59190613515565b61ffff1660008181526024602052604090205490915060ff166128ea5760405162461bcd60e51b81526004016105e29061333d565b60008281526022602090815260408083205463ffffffff858116855260249093529220546301000000909204169060ff16600214156129685760008381526022602052604090205460649061295190670100000000000000900463ffffffff16605f6136dd565b61295b91906135e6565b6129659082613553565b90505b600083815260226020908152604080832080547fff000000000000000000000000000000000000000000000000000000000000001690553383526026909152812080548392906129bf90849063ffffffff16613553565b92506101000a81548163ffffffff021916908363ffffffff1602179055507fee637ea1fc87312ddb03041e1bdf2955840bce4531e1242afe2f0aff24a6ecc633826000600360088110612a2257634e487b7160e01b600052603260045260246000fd5b600891828204019190066004029054906101000a900463ffffffff166002604051611d619493929190612f94565b6027546001600160a01b031681565b600080612a6c83856136dd565b905063ffffffff8316612a7f85836135e6565b63ffffffff1614612aa25760405162461bcd60e51b81526004016105e290613298565b9392505050565b60008060008360030b1215612afd57612ac1836137f9565b612acb9085613772565b90508363ffffffff168163ffffffff1610612af85760405162461bcd60e51b81526004016105e2906133ab565b612aa2565b612b078385613553565b90508363ffffffff168163ffffffff161015612aa25760405162461bcd60e51b81526004016105e2906133ab565b612b3d612c79565b60e082901c815263ffffffff60c083811c821660208085019190915260a085811c8416604080870191909152608087811c861660608801529087901c8516908601529085901c83169084015292169181019190915290565b6000808260030b8460030b1215612bac5782612bae565b835b905060008160030b13612aa2575060009392505050565b8260208101928215612c03579160200282015b82811115612c0357825182906bffffffffffffffffffffffff16905591602001919060010190612bd8565b50612c0f929150612c97565b5090565b50612c22906020810190612c97565b50565b6040518061040001604052806020906020820280368337509192915050565b6040805160c081018252600080825260208201819052918101829052606081018290526080810182905260a081019190915290565b6040518060e001604052806007906020820280368337509192915050565b5b80821115612c0f5760008155600101612c98565b803563ffffffff81168114611b6557600080fd5b803560ff81168114611b6557600080fd5b600060208284031215612ce2578081fd5b8135612aa281613847565b6000610400808385031215612d00578182fd5b83601f840112612d0e578182fd5b612d1781613495565b8084868487011115612d27578485fd5b8493505b6020808510612d3a5750612d64565b813567ffffffffffffffff81168114612d51578687fd5b8452600194909401939283019201612d2b565b5095945050505050565b6000610400808385031215612d81578182fd5b83601f840112612d8f578182fd5b612d9881613495565b8084868487011115612da8578485fd5b8493505b6020808510612dbb5750612d64565b612dc482612cc0565b8452600194909401939283019201612dac565b6000610400808385031215612dea578182fd5b83601f840112612df8578182fd5b612e0181613495565b8084868487011115612e11578485fd5b8493505b6020808510612e245750612d64565b81356bffffffffffffffffffffffff81168114612e3f578687fd5b8452600194909401939283019201612e15565b600060208284031215612e63578081fd5b5035919050565b600060208284031215612e7b578081fd5b612aa282612cac565b600080600060608486031215612e98578182fd5b612ea184612cc0565b9250612eaf60208501612cc0565b9150612ebd60408501612cac565b90509250925092565b60008060008060808587031215612edb578081fd5b612ee485612cc0565b9350612ef260208601612cc0565b9250612f0060408601612cac565b9150612f0e60608601612cac565b905092959194509250565b90565b60e09290921b7fffffffff00000000000000000000000000000000000000000000000000000000168252600482015260240190565b6001600160a01b0391909116815260200190565b6001600160a01b03949094168452602084019290925263ffffffff908116604084015216606082015260800190565b6001600160a01b0394909416845263ffffffff9283166020850152908216604084015216606082015260800190565b6104008101818360005b6020808210612fdc5750612ff0565b825184529283019290910190600101612fcd565b50505092915050565b901515815260200190565b6020808252600b908201527f43616c6c206661696c6564000000000000000000000000000000000000000000604082015260600190565b6020808252600c908201527f696e76616c6964206f6464730000000000000000000000000000000000000000604082015260600190565b6020808252601e908201527f62657473697a65206f76657220756e706c6564676564206361706974616c0000604082015260600190565b60208082526012908201527f62657473697a65206f766572206c696d69740000000000000000000000000000604082015260600190565b60208082526008908201527f746f6f20736f6f6e000000000000000000000000000000000000000000000000604082015260600190565b60208082526004908201527f4e53462000000000000000000000000000000000000000000000000000000000604082015260600190565b60208082526019908201527f6f6e6c79207072696f7220746f206669727374206576656e7400000000000000604082015260600190565b60208082526009908201527f636f6e634c696d69740000000000000000000000000000000000000000000000604082015260600190565b6020808252601b908201527f67616d652073746172746564206f72206e6f7420706c6179696e670000000000604082015260600190565b60208082526003908201527f4e53460000000000000000000000000000000000000000000000000000000000604082015260600190565b6020808252600d908201527f77726f6e67206163636f756e7400000000000000000000000000000000000000604082015260600190565b60208082526009908201527f4f6e6c79206f6e63650000000000000000000000000000000000000000000000604082015260600190565b6020808252600d908201527f6d756c74206f766572666c6f7700000000000000000000000000000000000000604082015260600190565b6020808252600c908201527f67616d6520737461727465640000000000000000000000000000000000000000604082015260600190565b60208082526019908201527f696e73756666696369656e742066726565206361706974616c00000000000000604082015260600190565b6020808252600f908201527f6e6565642077696e206f72207469650000000000000000000000000000000000604082015260600190565b6020808252600b908201527f6578706972656420626574000000000000000000000000000000000000000000604082015260600190565b60208082526008908201527f6f766572666c6f77000000000000000000000000000000000000000000000000604082015260600190565b90815260200190565b63ffffffff91909116815260200190565b63ffffffff92831681529116602082015260400190565b60ff91909116815260200190565b60ff958616815293909416602084015263ffffffff9182166040840152166060820152608081019190915260a00190565b60ff9687168152948616602086015292909416604084015263ffffffff908116606084015290921660808201526001600160a01b0390911660a082015260c00190565b60405181810167ffffffffffffffff811182821017156134c557634e487b7160e01b600052604160045260246000fd5b604052919050565b60008160030b8360030b82821282637fffffff038213811516156134f3576134f361381b565b82637fffffff1903821281161561350c5761350c61381b565b50019392505050565b600061ffff8083168185168083038211156135325761353261381b565b01949350505050565b6000821982111561354e5761354e61381b565b500190565b600063ffffffff8083168185168083038211156135325761353261381b565b600060ff821660ff84168060ff0382111561358f5761358f61381b565b019392505050565b60008160030b8360030b806135ae576135ae613831565b6000198114637fffffff19831416156135c9576135c961381b565b90059392505050565b6000826135e1576135e1613831565b500490565b600063ffffffff808416806135fd576135fd613831565b92169190910492915050565b60008160030b8360030b637fffffff838213848413838304851182821616156136345761363461381b565b637fffffff19868512868205861281841616156136535761365361381b565b87871292508582058712848416161561366e5761366e61381b565b858505871281841616156136845761368461381b565b5050509290910295945050505050565b600061ffff808316818516818304811182151516156136b5576136b561381b565b02949350505050565b60008160001904831182151516156136d8576136d861381b565b500290565b600063ffffffff808316818516818304811182151516156136b5576136b561381b565b600060ff821660ff84168160ff04811182151516156137215761372161381b565b029392505050565b60008160030b8360030b82811281637fffffff19018312811516156137505761375061381b565b81637fffffff0183138116156137685761376861381b565b5090039392505050565b600063ffffffff8381169083168181101561378f5761378f61381b565b039392505050565b600060ff821660ff8416808210156137b1576137b161381b565b90039392505050565b60006000198214156137ce576137ce61381b565b5060010190565b600063ffffffff808316818114156137ef576137ef61381b565b6001019392505050565b60008160030b637fffffff198114156138145761381461381b565b9003919050565b634e487b7160e01b600052601160045260246000fd5b634e487b7160e01b600052601260045260246000fd5b6001600160a01b0381168114612c2257600080fdfea2646970667358221220c52a1ede8943321c936cebd3efbe175753b9d0a7531aa57e3ac32a4ae34c364f64736f6c63430008000033","opcodes":"PUSH1 0x80 PUSH1 0x40 MSTORE CALLVALUE DUP1 ISZERO PUSH3 0x11 JUMPI PUSH1 0x0 DUP1 REVERT JUMPDEST POP PUSH1 0x40 MLOAD PUSH3 0x395D CODESIZE SUB DUP1 PUSH3 0x395D DUP4 CODECOPY DUP2 ADD PUSH1 0x40 DUP2 SWAP1 MSTORE PUSH3 0x34 SWAP2 PUSH3 0x8B JUMP JUMPDEST PUSH1 0x0 DUP1 SLOAD PUSH13 0x1000000000000000000000000 PUSH4 0xFFFFFFFF PUSH1 0xA0 SHL NOT SWAP1 SWAP2 AND PUSH1 0x5 PUSH1 0xA0 SHL OR PUSH4 0xFFFFFFFF PUSH1 0x60 SHL NOT AND OR SWAP1 SSTORE PUSH1 0x27 DUP1 SLOAD PUSH1 0x1 PUSH1 0x1 PUSH1 0xA0 SHL SUB NOT AND PUSH1 0x1 PUSH1 0x1 PUSH1 0xA0 SHL SUB SWAP3 SWAP1 SWAP3 AND SWAP2 SWAP1 SWAP2 OR SWAP1 SSTORE PUSH3 0xBB JUMP JUMPDEST PUSH1 0x0 PUSH1 0x20 DUP3 DUP5 SUB SLT ISZERO PUSH3 0x9D JUMPI DUP1 DUP2 REVERT JUMPDEST DUP2 MLOAD PUSH1 0x1 PUSH1 0x1 PUSH1 0xA0 SHL SUB DUP2 AND DUP2 EQ PUSH3 0xB4 JUMPI DUP2 DUP3 REVERT JUMPDEST SWAP4 SWAP3 POP POP POP JUMP JUMPDEST PUSH2 0x3892 DUP1 PUSH3 0xCB PUSH1 0x0 CODECOPY PUSH1 0x0 RETURN INVALID PUSH1 0x80 PUSH1 0x40 MSTORE PUSH1 0x4 CALLDATASIZE LT PUSH2 0x1C6 JUMPI PUSH1 0x0 CALLDATALOAD PUSH1 0xE0 SHR DUP1 PUSH4 0x6B857267 GT PUSH2 0xF7 JUMPI DUP1 PUSH4 0xCAE7AF61 GT PUSH2 0x95 JUMPI DUP1 PUSH4 0xE176AABF GT PUSH2 0x64 JUMPI DUP1 PUSH4 0xE176AABF EQ PUSH2 0x504 JUMPI DUP1 PUSH4 0xEAA2F6CF EQ PUSH2 0x524 JUMPI DUP1 PUSH4 0xEDA1122C EQ PUSH2 0x544 JUMPI DUP1 PUSH4 0xFC0C546A EQ PUSH2 0x564 JUMPI PUSH2 0x1CD JUMP JUMPDEST DUP1 PUSH4 0xCAE7AF61 EQ PUSH2 0x475 JUMPI DUP1 PUSH4 0xCF9EF50E EQ PUSH2 0x495 JUMPI DUP1 PUSH4 0xD8AFF90E EQ PUSH2 0x4B5 JUMPI DUP1 PUSH4 0xDEA5E6E8 EQ PUSH2 0x4E2 JUMPI PUSH2 0x1CD JUMP JUMPDEST DUP1 PUSH4 0x8F95A933 GT PUSH2 0xD1 JUMPI DUP1 PUSH4 0x8F95A933 EQ PUSH2 0x3F3 JUMPI DUP1 PUSH4 0x9E33670C EQ PUSH2 0x413 JUMPI DUP1 PUSH4 0xBCA8E63E EQ PUSH2 0x440 JUMPI DUP1 PUSH4 0xBE73205A EQ PUSH2 0x455 JUMPI PUSH2 0x1CD JUMP JUMPDEST DUP1 PUSH4 0x6B857267 EQ PUSH2 0x381 JUMPI DUP1 PUSH4 0x6C597579 EQ PUSH2 0x3B3 JUMPI DUP1 PUSH4 0x7D6F0100 EQ PUSH2 0x3D3 JUMPI PUSH2 0x1CD JUMP JUMPDEST DUP1 PUSH4 0x3F68F1A1 GT PUSH2 0x164 JUMPI DUP1 PUSH4 0x4C69C00F GT PUSH2 0x13E JUMPI DUP1 PUSH4 0x4C69C00F EQ PUSH2 0x301 JUMPI DUP1 PUSH4 0x4E456676 EQ PUSH2 0x321 JUMPI DUP1 PUSH4 0x5CA37161 EQ PUSH2 0x341 JUMPI DUP1 PUSH4 0x654E207F EQ PUSH2 0x361 JUMPI PUSH2 0x1CD JUMP JUMPDEST DUP1 PUSH4 0x3F68F1A1 EQ PUSH2 0x2AC JUMPI DUP1 PUSH4 0x45F29686 EQ PUSH2 0x2C1 JUMPI DUP1 PUSH4 0x493481BB EQ PUSH2 0x2E1 JUMPI PUSH2 0x1CD JUMP JUMPDEST DUP1 PUSH4 0xC05CBB7 GT PUSH2 0x1A0 JUMPI DUP1 PUSH4 0xC05CBB7 EQ PUSH2 0x234 JUMPI DUP1 PUSH4 0xC26F994 EQ PUSH2 0x254 JUMPI DUP1 PUSH4 0x13D11623 EQ PUSH2 0x282 JUMPI DUP1 PUSH4 0x26035FCF EQ PUSH2 0x28A JUMPI PUSH2 0x1CD JUMP JUMPDEST DUP1 PUSH4 0x103C92B EQ PUSH2 0x1D2 JUMPI DUP1 PUSH4 0x3C2404E EQ PUSH2 0x208 JUMPI DUP1 PUSH4 0x3E95ABF EQ PUSH2 0x22A JUMPI PUSH2 0x1CD JUMP JUMPDEST CALLDATASIZE PUSH2 0x1CD JUMPI STOP JUMPDEST PUSH1 0x0 DUP1 REVERT JUMPDEST CALLVALUE DUP1 ISZERO PUSH2 0x1DE JUMPI PUSH1 0x0 DUP1 REVERT JUMPDEST POP PUSH2 0x1F2 PUSH2 0x1ED CALLDATASIZE PUSH1 0x4 PUSH2 0x2CD1 JUMP JUMPDEST PUSH2 0x579 JUMP JUMPDEST PUSH1 0x40 MLOAD PUSH2 0x1FF SWAP2 SWAP1 PUSH2 0x33EB JUMP JUMPDEST PUSH1 0x40 MLOAD DUP1 SWAP2 SUB SWAP1 RETURN JUMPDEST CALLVALUE DUP1 ISZERO PUSH2 0x214 JUMPI PUSH1 0x0 DUP1 REVERT JUMPDEST POP PUSH2 0x21D PUSH2 0x591 JUMP JUMPDEST PUSH1 0x40 MLOAD PUSH2 0x1FF SWAP2 SWAP1 PUSH2 0x33E2 JUMP JUMPDEST PUSH2 0x232 PUSH2 0x59B JUMP JUMPDEST STOP JUMPDEST CALLVALUE DUP1 ISZERO PUSH2 0x240 JUMPI PUSH1 0x0 DUP1 REVERT JUMPDEST POP PUSH2 0x232 PUSH2 0x24F CALLDATASIZE PUSH1 0x4 PUSH2 0x2DD7 JUMP JUMPDEST PUSH2 0x7C9 JUMP JUMPDEST CALLVALUE DUP1 ISZERO PUSH2 0x260 JUMPI PUSH1 0x0 DUP1 REVERT JUMPDEST POP PUSH2 0x274 PUSH2 0x26F CALLDATASIZE PUSH1 0x4 PUSH2 0x2D6E JUMP JUMPDEST PUSH2 0x849 JUMP JUMPDEST PUSH1 0x40 MLOAD PUSH2 0x1FF SWAP3 SWAP2 SWAP1 PUSH2 0x33FC JUMP JUMPDEST PUSH2 0x232 PUSH2 0xC26 JUMP JUMPDEST CALLVALUE DUP1 ISZERO PUSH2 0x296 JUMPI PUSH1 0x0 DUP1 REVERT JUMPDEST POP PUSH2 0x29F PUSH2 0xCFE JUMP JUMPDEST PUSH1 0x40 MLOAD PUSH2 0x1FF SWAP2 SWAP1 PUSH2 0x2FC3 JUMP JUMPDEST CALLVALUE DUP1 ISZERO PUSH2 0x2B8 JUMPI PUSH1 0x0 DUP1 REVERT JUMPDEST POP PUSH2 0x21D PUSH2 0xD3A JUMP JUMPDEST CALLVALUE DUP1 ISZERO PUSH2 0x2CD JUMPI PUSH1 0x0 DUP1 REVERT JUMPDEST POP PUSH2 0x1F2 PUSH2 0x2DC CALLDATASIZE PUSH1 0x4 PUSH2 0x2E52 JUMP JUMPDEST PUSH2 0xD44 JUMP JUMPDEST CALLVALUE DUP1 ISZERO PUSH2 0x2ED JUMPI PUSH1 0x0 DUP1 REVERT JUMPDEST POP PUSH2 0x232 PUSH2 0x2FC CALLDATASIZE PUSH1 0x4 PUSH2 0x2E52 JUMP JUMPDEST PUSH2 0xD74 JUMP JUMPDEST CALLVALUE DUP1 ISZERO PUSH2 0x30D JUMPI PUSH1 0x0 DUP1 REVERT JUMPDEST POP PUSH2 0x232 PUSH2 0x31C CALLDATASIZE PUSH1 0x4 PUSH2 0x2CD1 JUMP JUMPDEST PUSH2 0x15B0 JUMP JUMPDEST CALLVALUE DUP1 ISZERO PUSH2 0x32D JUMPI PUSH1 0x0 DUP1 REVERT JUMPDEST POP PUSH2 0x21D PUSH2 0x33C CALLDATASIZE PUSH1 0x4 PUSH2 0x2E52 JUMP JUMPDEST PUSH2 0x1613 JUMP JUMPDEST CALLVALUE DUP1 ISZERO PUSH2 0x34D JUMPI PUSH1 0x0 DUP1 REVERT JUMPDEST POP PUSH2 0x232 PUSH2 0x35C CALLDATASIZE PUSH1 0x4 PUSH2 0x2E52 JUMP JUMPDEST PUSH2 0x162A JUMP JUMPDEST CALLVALUE DUP1 ISZERO PUSH2 0x36D JUMPI PUSH1 0x0 DUP1 REVERT JUMPDEST POP PUSH2 0x232 PUSH2 0x37C CALLDATASIZE PUSH1 0x4 PUSH2 0x2E6A JUMP JUMPDEST PUSH2 0x169D JUMP JUMPDEST CALLVALUE DUP1 ISZERO PUSH2 0x38D JUMPI PUSH1 0x0 DUP1 REVERT JUMPDEST POP PUSH2 0x3A1 PUSH2 0x39C CALLDATASIZE PUSH1 0x4 PUSH2 0x2E52 JUMP JUMPDEST PUSH2 0x16BE JUMP JUMPDEST PUSH1 0x40 MLOAD PUSH2 0x1FF SWAP7 SWAP6 SWAP5 SWAP4 SWAP3 SWAP2 SWAP1 PUSH2 0x3452 JUMP JUMPDEST CALLVALUE DUP1 ISZERO PUSH2 0x3BF JUMPI PUSH1 0x0 DUP1 REVERT JUMPDEST POP PUSH2 0x232 PUSH2 0x3CE CALLDATASIZE PUSH1 0x4 PUSH2 0x2CED JUMP JUMPDEST PUSH2 0x1715 JUMP JUMPDEST CALLVALUE DUP1 ISZERO PUSH2 0x3DF JUMPI PUSH1 0x0 DUP1 REVERT JUMPDEST POP PUSH2 0x3A1 PUSH2 0x3EE CALLDATASIZE PUSH1 0x4 PUSH2 0x2E52 JUMP JUMPDEST PUSH2 0x17E0 JUMP JUMPDEST CALLVALUE DUP1 ISZERO PUSH2 0x3FF JUMPI PUSH1 0x0 DUP1 REVERT JUMPDEST POP PUSH2 0x232 PUSH2 0x40E CALLDATASIZE PUSH1 0x4 PUSH2 0x2EC6 JUMP JUMPDEST PUSH2 0x1837 JUMP JUMPDEST CALLVALUE DUP1 ISZERO PUSH2 0x41F JUMPI PUSH1 0x0 DUP1 REVERT JUMPDEST POP PUSH2 0x433 PUSH2 0x42E CALLDATASIZE PUSH1 0x4 PUSH2 0x2E52 JUMP JUMPDEST PUSH2 0x1B46 JUMP JUMPDEST PUSH1 0x40 MLOAD PUSH2 0x1FF SWAP2 SWAP1 PUSH2 0x2FF9 JUMP JUMPDEST CALLVALUE DUP1 ISZERO PUSH2 0x44C JUMPI PUSH1 0x0 DUP1 REVERT JUMPDEST POP PUSH2 0x1F2 PUSH2 0x1B6A JUMP JUMPDEST CALLVALUE DUP1 ISZERO PUSH2 0x461 JUMPI PUSH1 0x0 DUP1 REVERT JUMPDEST POP PUSH2 0x433 PUSH2 0x470 CALLDATASIZE PUSH1 0x4 PUSH2 0x2E52 JUMP JUMPDEST PUSH2 0x1B72 JUMP JUMPDEST CALLVALUE DUP1 ISZERO PUSH2 0x481 JUMPI PUSH1 0x0 DUP1 REVERT JUMPDEST POP PUSH2 0x274 PUSH2 0x490 CALLDATASIZE PUSH1 0x4 PUSH2 0x2CD1 JUMP JUMPDEST PUSH2 0x1BF5 JUMP JUMPDEST CALLVALUE DUP1 ISZERO PUSH2 0x4A1 JUMPI PUSH1 0x0 DUP1 REVERT JUMPDEST POP PUSH2 0x232 PUSH2 0x4B0 CALLDATASIZE PUSH1 0x4 PUSH2 0x2E6A JUMP JUMPDEST PUSH2 0x1C19 JUMP JUMPDEST CALLVALUE DUP1 ISZERO PUSH2 0x4C1 JUMPI PUSH1 0x0 DUP1 REVERT JUMPDEST POP PUSH2 0x4D5 PUSH2 0x4D0 CALLDATASIZE PUSH1 0x4 PUSH2 0x2E6A JUMP JUMPDEST PUSH2 0x1D6E JUMP JUMPDEST PUSH1 0x40 MLOAD PUSH2 0x1FF SWAP2 SWAP1 PUSH2 0x3413 JUMP JUMPDEST CALLVALUE DUP1 ISZERO PUSH2 0x4EE JUMPI PUSH1 0x0 DUP1 REVERT JUMPDEST POP PUSH2 0x4F7 PUSH2 0x1D83 JUMP JUMPDEST PUSH1 0x40 MLOAD PUSH2 0x1FF SWAP2 SWAP1 PUSH2 0x2F51 JUMP JUMPDEST CALLVALUE DUP1 ISZERO PUSH2 0x510 JUMPI PUSH1 0x0 DUP1 REVERT JUMPDEST POP PUSH2 0x232 PUSH2 0x51F CALLDATASIZE PUSH1 0x4 PUSH2 0x2E6A JUMP JUMPDEST PUSH2 0x1D92 JUMP JUMPDEST CALLVALUE DUP1 ISZERO PUSH2 0x530 JUMPI PUSH1 0x0 DUP1 REVERT JUMPDEST POP PUSH2 0x232 PUSH2 0x53F CALLDATASIZE PUSH1 0x4 PUSH2 0x2E84 JUMP JUMPDEST PUSH2 0x20BA JUMP JUMPDEST CALLVALUE DUP1 ISZERO PUSH2 0x550 JUMPI PUSH1 0x0 DUP1 REVERT JUMPDEST POP PUSH2 0x232 PUSH2 0x55F CALLDATASIZE PUSH1 0x4 PUSH2 0x2E52 JUMP JUMPDEST PUSH2 0x2816 JUMP JUMPDEST CALLVALUE DUP1 ISZERO PUSH2 0x570 JUMPI PUSH1 0x0 DUP1 REVERT JUMPDEST POP PUSH2 0x4F7 PUSH2 0x2A50 JUMP JUMPDEST PUSH1 0x26 PUSH1 0x20 MSTORE PUSH1 0x0 SWAP1 DUP2 MSTORE PUSH1 0x40 SWAP1 KECCAK256 SLOAD PUSH4 0xFFFFFFFF AND DUP2 JUMP JUMPDEST PUSH6 0x48C27395000 DUP2 JUMP JUMPDEST PUSH1 0x0 SLOAD PUSH29 0x100000000000000000000000000000000000000000000000000000000 SWAP1 DIV PUSH4 0xFFFFFFFF AND TIMESTAMP LT PUSH2 0x5EB JUMPI PUSH1 0x40 MLOAD PUSH3 0x461BCD PUSH1 0xE5 SHL DUP2 MSTORE PUSH1 0x4 ADD PUSH2 0x5E2 SWAP1 PUSH2 0x314E JUMP JUMPDEST PUSH1 0x40 MLOAD DUP1 SWAP2 SUB SWAP1 REVERT JUMPDEST PUSH1 0x0 PUSH2 0x5FD PUSH6 0x5AF3107A4000 CALLVALUE PUSH2 0x35D2 JUMP JUMPDEST PUSH1 0x0 DUP1 SLOAD SWAP2 SWAP3 POP SWAP1 PUSH4 0xFFFFFFFF AND ISZERO PUSH2 0x656 JUMPI PUSH1 0x0 DUP1 SLOAD PUSH4 0xFFFFFFFF AND SWAP1 PUSH2 0x645 SWAP1 DUP5 SWAP1 PUSH1 0x4 JUMPDEST PUSH1 0x8 SWAP2 DUP3 DUP3 DIV ADD SWAP2 SWAP1 MOD PUSH1 0x4 MUL SWAP1 SLOAD SWAP1 PUSH2 0x100 EXP SWAP1 DIV PUSH4 0xFFFFFFFF AND PUSH2 0x2A5F JUMP JUMPDEST PUSH2 0x64F SWAP2 SWAP1 PUSH2 0x35E6 JUMP JUMPDEST SWAP1 POP PUSH2 0x659 JUMP JUMPDEST POP DUP1 JUMPDEST PUSH1 0x0 SLOAD PUSH2 0x66C SWAP1 PUSH4 0xFFFFFFFF AND DUP4 PUSH2 0x2AA9 JUMP JUMPDEST PUSH1 0x0 DUP1 SLOAD PUSH4 0xFFFFFFFF NOT AND PUSH4 0xFFFFFFFF SWAP3 DUP4 AND OR SWAP1 DUP2 SWAP1 SSTORE PUSH2 0x698 SWAP2 PUSH1 0x1 PUSH1 0x60 SHL SWAP1 SWAP2 DIV AND PUSH1 0x1 PUSH2 0x3553 JUMP JUMPDEST CALLER PUSH1 0x0 SWAP1 DUP2 MSTORE PUSH1 0x25 PUSH1 0x20 MSTORE PUSH1 0x40 DUP2 KECCAK256 DUP1 SLOAD PUSH8 0xFFFFFFFF00000000 NOT AND PUSH5 0x100000000 PUSH4 0xFFFFFFFF SWAP5 DUP6 AND MUL OR SWAP1 SSTORE DUP1 SLOAD DUP4 SWAP3 PUSH1 0x10 SWAP2 PUSH2 0x6ED SWAP2 DUP6 SWAP2 PUSH17 0x100000000000000000000000000000000 SWAP1 DIV AND PUSH2 0x3553 JUMP JUMPDEST DUP3 SLOAD PUSH2 0x100 SWAP3 SWAP1 SWAP3 EXP PUSH4 0xFFFFFFFF DUP2 DUP2 MUL NOT SWAP1 SWAP4 AND SWAP2 DUP4 AND MUL OR SWAP1 SWAP2 SSTORE CALLER PUSH1 0x0 SWAP1 DUP2 MSTORE PUSH1 0x25 PUSH1 0x20 MSTORE PUSH1 0x40 DUP2 KECCAK256 DUP1 SLOAD DUP6 SWAP5 POP SWAP1 SWAP3 PUSH2 0x72C SWAP2 DUP6 SWAP2 AND PUSH2 0x3553 JUMP JUMPDEST SWAP3 POP PUSH2 0x100 EXP DUP2 SLOAD DUP2 PUSH4 0xFFFFFFFF MUL NOT AND SWAP1 DUP4 PUSH4 0xFFFFFFFF AND MUL OR SWAP1 SSTORE POP PUSH32 0xEE637EA1FC87312DDB03041E1BDF2955840BCE4531E1242AFE2F0AFF24A6ECC6 CALLER CALLVALUE PUSH1 0x0 PUSH1 0x3 PUSH1 0x8 DUP2 LT PUSH2 0x78F JUMPI PUSH4 0x4E487B71 PUSH1 0xE0 SHL PUSH1 0x0 MSTORE PUSH1 0x32 PUSH1 0x4 MSTORE PUSH1 0x24 PUSH1 0x0 REVERT JUMPDEST PUSH1 0x8 SWAP2 DUP3 DUP3 DIV ADD SWAP2 SWAP1 MOD PUSH1 0x4 MUL SWAP1 SLOAD SWAP1 PUSH2 0x100 EXP SWAP1 DIV PUSH4 0xFFFFFFFF AND PUSH1 0x1 PUSH1 0x40 MLOAD PUSH2 0x7BD SWAP5 SWAP4 SWAP3 SWAP2 SWAP1 PUSH2 0x2F65 JUMP JUMPDEST PUSH1 0x40 MLOAD DUP1 SWAP2 SUB SWAP1 LOG1 POP POP JUMP JUMPDEST PUSH1 0x21 SLOAD PUSH1 0x1 PUSH1 0x1 PUSH1 0xA0 SHL SUB AND CALLER EQ PUSH2 0x7E0 JUMPI PUSH1 0x0 DUP1 REVERT JUMPDEST PUSH1 0x0 SLOAD PUSH9 0x10000000000000000 SWAP1 DIV PUSH4 0xFFFFFFFF AND ISZERO PUSH2 0x7FF JUMPI PUSH1 0x0 DUP1 REVERT JUMPDEST PUSH2 0x80C PUSH1 0x1 DUP3 PUSH1 0x20 PUSH2 0x2BC5 JUMP JUMPDEST POP DUP1 MLOAD PUSH1 0x40 SHR PUSH4 0xFFFFFFFF AND PUSH1 0x0 PUSH1 0x7 JUMPDEST PUSH1 0x8 SWAP2 DUP3 DUP3 DIV ADD SWAP2 SWAP1 MOD PUSH1 0x4 MUL PUSH2 0x100 EXP DUP2 SLOAD DUP2 PUSH4 0xFFFFFFFF MUL NOT AND SWAP1 DUP4 PUSH4 0xFFFFFFFF AND MUL OR SWAP1 SSTORE POP POP JUMP JUMPDEST PUSH1 0x21 SLOAD PUSH1 0x0 SWAP1 DUP2 SWAP1 PUSH1 0x1 PUSH1 0x1 PUSH1 0xA0 SHL SUB AND CALLER EQ PUSH2 0x865 JUMPI PUSH1 0x0 DUP1 REVERT JUMPDEST PUSH1 0x0 DUP1 PUSH1 0x0 DUP1 PUSH1 0x0 JUMPDEST PUSH1 0x20 DUP2 LT ISZERO PUSH2 0xA5B JUMPI DUP8 DUP2 PUSH1 0x20 DUP2 LT PUSH2 0x897 JUMPI PUSH4 0x4E487B71 PUSH1 0xE0 SHL PUSH1 0x0 MSTORE PUSH1 0x32 PUSH1 0x4 MSTORE PUSH1 0x24 PUSH1 0x0 REVERT JUMPDEST PUSH1 0x20 MUL ADD MLOAD PUSH1 0xFF AND SWAP2 POP PUSH1 0x0 PUSH2 0x8CE PUSH1 0x1 DUP4 PUSH1 0x20 DUP2 LT PUSH2 0x8C7 JUMPI PUSH4 0x4E487B71 PUSH1 0xE0 SHL PUSH1 0x0 MSTORE PUSH1 0x32 PUSH1 0x4 MSTORE PUSH1 0x24 PUSH1 0x0 REVERT JUMPDEST ADD SLOAD PUSH2 0x2B35 JUMP JUMPDEST PUSH1 0x0 SLOAD SWAP1 SWAP2 POP PUSH2 0x8ED SWAP1 PUSH1 0x1 PUSH1 0x60 SHL SWAP1 DIV PUSH4 0xFFFFFFFF AND PUSH2 0x3E8 PUSH2 0x36DD JUMP JUMPDEST PUSH4 0xFFFFFFFF AND PUSH2 0x8FE DUP4 PUSH1 0xA PUSH2 0x36BE JUMP JUMPDEST PUSH2 0x908 SWAP2 SWAP1 PUSH2 0x353B JUMP JUMPDEST SWAP4 POP DUP1 PUSH1 0x5 PUSH1 0x20 MUL ADD MLOAD PUSH4 0xFFFFFFFF AND PUSH2 0x3E7 EQ PUSH2 0xA48 JUMPI DUP3 PUSH1 0x2 EQ PUSH2 0x9D1 JUMPI DUP1 DUP4 PUSH1 0x7 DUP2 LT PUSH2 0x948 JUMPI PUSH4 0x4E487B71 PUSH1 0xE0 SHL PUSH1 0x0 MSTORE PUSH1 0x32 PUSH1 0x4 MSTORE PUSH1 0x24 PUSH1 0x0 REVERT JUMPDEST PUSH1 0x20 MUL ADD MLOAD PUSH2 0x957 SWAP1 DUP8 PUSH2 0x3553 JUMP JUMPDEST SWAP6 POP DUP1 PUSH2 0x965 DUP5 PUSH1 0x2 PUSH2 0x353B JUMP JUMPDEST PUSH1 0x7 DUP2 LT PUSH2 0x983 JUMPI PUSH4 0x4E487B71 PUSH1 0xE0 SHL PUSH1 0x0 MSTORE PUSH1 0x32 PUSH1 0x4 MSTORE PUSH1 0x24 PUSH1 0x0 REVERT JUMPDEST PUSH1 0x20 MUL ADD MLOAD PUSH2 0x992 SWAP1 DUP7 PUSH2 0x3553 JUMP JUMPDEST SWAP5 POP PUSH1 0x2 PUSH1 0x24 PUSH1 0x0 PUSH2 0x9A4 DUP7 DUP9 PUSH2 0x353B JUMP JUMPDEST PUSH4 0xFFFFFFFF AND DUP2 MSTORE PUSH1 0x20 DUP2 ADD SWAP2 SWAP1 SWAP2 MSTORE PUSH1 0x40 ADD PUSH1 0x0 KECCAK256 DUP1 SLOAD PUSH1 0xFF NOT AND PUSH1 0xFF SWAP3 SWAP1 SWAP3 AND SWAP2 SWAP1 SWAP2 OR SWAP1 SSTORE PUSH2 0xA48 JUMP JUMPDEST PUSH1 0x20 DUP2 ADD MLOAD DUP2 MLOAD PUSH2 0x9E2 SWAP2 SWAP1 PUSH2 0x3553 JUMP JUMPDEST PUSH2 0x9EC SWAP1 DUP8 PUSH2 0x3553 JUMP JUMPDEST PUSH4 0xFFFFFFFF DUP6 AND PUSH1 0x0 SWAP1 DUP2 MSTORE PUSH1 0x24 PUSH1 0x20 DUP2 SWAP1 MSTORE PUSH1 0x40 DUP3 KECCAK256 DUP1 SLOAD PUSH1 0xFF NOT AND PUSH1 0x1 SWAP1 DUP2 OR SWAP1 SWAP2 SSTORE SWAP3 SWAP9 POP SWAP1 PUSH2 0xA1F DUP8 DUP5 PUSH2 0x353B JUMP JUMPDEST PUSH4 0xFFFFFFFF AND DUP2 MSTORE PUSH1 0x20 DUP2 ADD SWAP2 SWAP1 SWAP2 MSTORE PUSH1 0x40 ADD PUSH1 0x0 KECCAK256 DUP1 SLOAD PUSH1 0xFF NOT AND PUSH1 0xFF SWAP3 SWAP1 SWAP3 AND SWAP2 SWAP1 SWAP2 OR SWAP1 SSTORE JUMPDEST POP DUP1 PUSH2 0xA53 DUP2 PUSH2 0x37BA JUMP JUMPDEST SWAP2 POP POP PUSH2 0x86E JUMP JUMPDEST POP PUSH1 0x0 SLOAD PUSH2 0xA99 SWAP1 PUSH2 0xA81 SWAP1 PUSH4 0xFFFFFFFF PUSH9 0x10000000000000000 DUP3 DIV DUP2 AND SWAP2 AND PUSH2 0x3553 JUMP JUMPDEST PUSH2 0xA8B DUP6 DUP8 PUSH2 0x3553 JUMP JUMPDEST PUSH2 0xA94 SWAP1 PUSH2 0x37F9 JUMP JUMPDEST PUSH2 0x2AA9 JUMP JUMPDEST PUSH1 0x0 DUP1 SLOAD PUSH4 0xFFFFFFFF NOT AND PUSH4 0xFFFFFFFF SWAP3 DUP4 AND OR DUP1 DUP3 SSTORE PUSH1 0x1 PUSH1 0x60 SHL SWAP1 DIV SWAP1 SWAP2 AND SWAP1 PUSH1 0xC PUSH2 0xAC6 DUP4 PUSH2 0x37D5 JUMP JUMPDEST SWAP2 SWAP1 PUSH2 0x100 EXP DUP2 SLOAD DUP2 PUSH4 0xFFFFFFFF MUL NOT AND SWAP1 DUP4 PUSH4 0xFFFFFFFF AND MUL OR SWAP1 SSTORE POP POP PUSH1 0x0 DUP4 PUSH4 0xFFFFFFFF AND PUSH6 0x48C27395000 PUSH2 0xAFF SWAP2 SWAP1 PUSH2 0x36BE JUMP JUMPDEST PUSH1 0x0 DUP1 SLOAD PUSH32 0xFFFFFFFFFFFFFFFFFFFFFFFFFFFFFFFFFFFFFFFF0000000000000000FFFFFFFF AND DUP2 SSTORE SWAP1 SWAP2 POP PUSH2 0xB36 SWAP1 PUSH1 0x1 SWAP1 PUSH2 0x2C13 JUMP JUMPDEST PUSH1 0x0 DUP1 SLOAD PUSH28 0xFFFFFFFFFFFFFFFFFFFFFFFFFFFFFFFFFFFFFFFFFFFFFFFFFFFFFFFF AND PUSH32 0x7735940000000000000000000000000000000000000000000000000000000000 OR DUP2 SSTORE PUSH1 0x21 SLOAD PUSH1 0x40 MLOAD PUSH1 0x1 PUSH1 0x1 PUSH1 0xA0 SHL SUB SWAP1 SWAP2 AND SWAP1 DUP4 SWAP1 PUSH2 0xB99 SWAP1 PUSH2 0x2F19 JUMP JUMPDEST PUSH1 0x0 PUSH1 0x40 MLOAD DUP1 DUP4 SUB DUP2 DUP6 DUP8 GAS CALL SWAP3 POP POP POP RETURNDATASIZE DUP1 PUSH1 0x0 DUP2 EQ PUSH2 0xBD6 JUMPI PUSH1 0x40 MLOAD SWAP2 POP PUSH1 0x1F NOT PUSH1 0x3F RETURNDATASIZE ADD AND DUP3 ADD PUSH1 0x40 MSTORE RETURNDATASIZE DUP3 MSTORE RETURNDATASIZE PUSH1 0x0 PUSH1 0x20 DUP5 ADD RETURNDATACOPY PUSH2 0xBDB JUMP JUMPDEST PUSH1 0x60 SWAP2 POP JUMPDEST POP POP SWAP1 POP DUP1 PUSH2 0xBFC JUMPI PUSH1 0x40 MLOAD PUSH3 0x461BCD PUSH1 0xE5 SHL DUP2 MSTORE PUSH1 0x4 ADD PUSH2 0x5E2 SWAP1 PUSH2 0x3004 JUMP JUMPDEST PUSH1 0x0 SLOAD PUSH1 0x1 PUSH1 0x60 SHL SWAP1 DIV PUSH4 0xFFFFFFFF AND PUSH2 0xC17 DUP7 PUSH1 0x5 PUSH2 0x36DD JUMP JUMPDEST SWAP8 POP SWAP8 POP POP POP POP POP POP POP SWAP2 POP SWAP2 JUMP JUMPDEST PUSH1 0x0 PUSH2 0xC38 PUSH6 0x5AF3107A4000 CALLVALUE PUSH2 0x35D2 JUMP JUMPDEST CALLER PUSH1 0x0 SWAP1 DUP2 MSTORE PUSH1 0x26 PUSH1 0x20 MSTORE PUSH1 0x40 DUP2 KECCAK256 DUP1 SLOAD SWAP3 SWAP4 POP DUP4 SWAP3 SWAP1 SWAP2 SWAP1 PUSH2 0xC62 SWAP1 DUP5 SWAP1 PUSH4 0xFFFFFFFF AND PUSH2 0x3553 JUMP JUMPDEST SWAP3 POP PUSH2 0x100 EXP DUP2 SLOAD DUP2 PUSH4 0xFFFFFFFF MUL NOT AND SWAP1 DUP4 PUSH4 0xFFFFFFFF AND MUL OR SWAP1 SSTORE POP PUSH32 0xEE637EA1FC87312DDB03041E1BDF2955840BCE4531E1242AFE2F0AFF24A6ECC6 CALLER CALLVALUE PUSH1 0x0 PUSH1 0x3 PUSH1 0x8 DUP2 LT PUSH2 0xCC5 JUMPI PUSH4 0x4E487B71 PUSH1 0xE0 SHL PUSH1 0x0 MSTORE PUSH1 0x32 PUSH1 0x4 MSTORE PUSH1 0x24 PUSH1 0x0 REVERT JUMPDEST PUSH1 0x8 SWAP2 DUP3 DUP3 DIV ADD SWAP2 SWAP1 MOD PUSH1 0x4 MUL SWAP1 SLOAD SWAP1 PUSH2 0x100 EXP SWAP1 DIV PUSH4 0xFFFFFFFF AND PUSH1 0x0 PUSH1 0x40 MLOAD PUSH2 0xCF3 SWAP5 SWAP4 SWAP3 SWAP2 SWAP1 PUSH2 0x2F65 JUMP JUMPDEST PUSH1 0x40 MLOAD DUP1 SWAP2 SUB SWAP1 LOG1 POP JUMP JUMPDEST PUSH2 0xD06 PUSH2 0x2C25 JUMP JUMPDEST PUSH1 0x40 DUP1 MLOAD PUSH2 0x400 DUP2 ADD SWAP2 DUP3 SWAP1 MSTORE SWAP1 PUSH1 0x1 SWAP1 PUSH1 0x20 SWAP1 DUP3 DUP5 JUMPDEST DUP2 SLOAD DUP2 MSTORE PUSH1 0x20 ADD SWAP1 PUSH1 0x1 ADD SWAP1 DUP1 DUP4 GT PUSH2 0xD1D JUMPI POP POP POP POP POP SWAP1 POP SWAP1 JUMP JUMPDEST PUSH6 0x5AF3107A4000 DUP2 JUMP JUMPDEST PUSH1 0x0 DUP2 PUSH1 0x8 DUP2 LT PUSH2 0xD54 JUMPI PUSH1 0x0 DUP1 REVERT JUMPDEST PUSH1 0x8 SWAP2 DUP3 DUP3 DIV ADD SWAP2 SWAP1 MOD PUSH1 0x4 MUL SWAP2 POP SLOAD SWAP1 PUSH2 0x100 EXP SWAP1 DIV PUSH4 0xFFFFFFFF AND DUP2 JUMP JUMPDEST PUSH1 0x0 DUP2 DUP2 MSTORE PUSH1 0x23 PUSH1 0x20 SWAP1 DUP2 MSTORE PUSH1 0x40 DUP1 DUP4 KECCAK256 DUP2 MLOAD PUSH1 0xC0 DUP2 ADD DUP4 MSTORE SWAP1 SLOAD PUSH1 0xFF DUP1 DUP3 AND DUP4 MSTORE PUSH2 0x100 DUP3 DIV DUP2 AND DUP4 DUP7 ADD DUP2 SWAP1 MSTORE PUSH3 0x10000 DUP4 DIV SWAP1 SWAP2 AND SWAP4 DUP4 ADD SWAP4 SWAP1 SWAP4 MSTORE PUSH4 0xFFFFFFFF PUSH4 0x1000000 DUP3 DIV DUP2 AND PUSH1 0x60 DUP5 ADD MSTORE PUSH8 0x100000000000000 DUP3 DIV AND PUSH1 0x80 DUP4 ADD MSTORE PUSH1 0x1 PUSH1 0x1 PUSH1 0xA0 SHL SUB PUSH1 0x1 PUSH1 0x58 SHL SWAP1 SWAP2 DIV AND PUSH1 0xA0 DUP3 ADD MSTORE SWAP3 SWAP2 PUSH2 0xE12 SWAP2 PUSH1 0x1 SWAP2 DUP2 LT PUSH2 0x8C7 JUMPI PUSH4 0x4E487B71 PUSH1 0xE0 SHL PUSH1 0x0 MSTORE PUSH1 0x32 PUSH1 0x4 MSTORE PUSH1 0x24 PUSH1 0x0 REVERT JUMPDEST SWAP1 POP TIMESTAMP DUP2 PUSH1 0x4 PUSH1 0x20 MUL ADD MLOAD PUSH4 0xFFFFFFFF AND GT PUSH2 0xE40 JUMPI PUSH1 0x40 MLOAD PUSH3 0x461BCD PUSH1 0xE5 SHL DUP2 MSTORE PUSH1 0x4 ADD PUSH2 0x5E2 SWAP1 PUSH2 0x32CF JUMP JUMPDEST PUSH1 0x0 SLOAD DUP3 MLOAD PUSH1 0x1 PUSH1 0x60 SHL SWAP1 SWAP2 DIV PUSH4 0xFFFFFFFF AND PUSH1 0xFF SWAP1 SWAP2 AND EQ PUSH2 0xE75 JUMPI PUSH1 0x40 MLOAD PUSH3 0x461BCD PUSH1 0xE5 SHL DUP2 MSTORE PUSH1 0x4 ADD PUSH2 0x5E2 SWAP1 PUSH2 0x3374 JUMP JUMPDEST PUSH1 0x60 DUP3 ADD MLOAD PUSH1 0xA0 DUP4 ADD MLOAD PUSH1 0x1 PUSH1 0x1 PUSH1 0xA0 SHL SUB AND PUSH1 0x0 SWAP1 DUP2 MSTORE PUSH1 0x26 PUSH1 0x20 MSTORE PUSH1 0x40 SWAP1 KECCAK256 SLOAD PUSH4 0xFFFFFFFF SWAP2 DUP3 AND SWAP2 AND LT DUP1 ISZERO SWAP1 PUSH2 0xECC JUMPI POP PUSH1 0x80 DUP3 ADD MLOAD CALLER PUSH1 0x0 SWAP1 DUP2 MSTORE PUSH1 0x26 PUSH1 0x20 MSTORE PUSH1 0x40 SWAP1 KECCAK256 SLOAD PUSH4 0xFFFFFFFF SWAP2 DUP3 AND SWAP2 AND LT ISZERO JUMPDEST PUSH2 0xEE8 JUMPI PUSH1 0x40 MLOAD PUSH3 0x461BCD PUSH1 0xE5 SHL DUP2 MSTORE PUSH1 0x4 ADD PUSH2 0x5E2 SWAP1 PUSH2 0x31F3 JUMP JUMPDEST DUP2 PUSH1 0x60 ADD MLOAD DUP2 DUP4 PUSH1 0x40 ADD MLOAD PUSH1 0xFF AND PUSH1 0x7 DUP2 LT PUSH2 0xF14 JUMPI PUSH4 0x4E487B71 PUSH1 0xE0 SHL PUSH1 0x0 MSTORE PUSH1 0x32 PUSH1 0x4 MSTORE PUSH1 0x24 PUSH1 0x0 REVERT JUMPDEST PUSH1 0x20 MUL ADD DUP2 DUP2 MLOAD PUSH2 0xF25 SWAP2 SWAP1 PUSH2 0x3553 JUMP JUMPDEST PUSH4 0xFFFFFFFF AND SWAP1 MSTORE POP PUSH1 0x80 DUP3 ADD MLOAD PUSH1 0x40 DUP4 ADD MLOAD DUP3 SWAP1 PUSH2 0xF45 SWAP1 PUSH1 0x2 PUSH2 0x3572 JUMP JUMPDEST PUSH1 0xFF AND PUSH1 0x7 DUP2 LT PUSH2 0xF66 JUMPI PUSH4 0x4E487B71 PUSH1 0xE0 SHL PUSH1 0x0 MSTORE PUSH1 0x32 PUSH1 0x4 MSTORE PUSH1 0x24 PUSH1 0x0 REVERT JUMPDEST PUSH1 0x20 MUL ADD DUP2 DUP2 MLOAD PUSH2 0xF77 SWAP2 SWAP1 PUSH2 0x3553 JUMP JUMPDEST PUSH4 0xFFFFFFFF AND SWAP1 MSTORE POP PUSH1 0x80 DUP3 ADD MLOAD PUSH1 0x40 DUP4 ADD MLOAD DUP3 SWAP1 PUSH2 0xF97 SWAP1 PUSH1 0x1 PUSH2 0x3797 JUMP JUMPDEST PUSH1 0xFF AND PUSH1 0x7 DUP2 LT PUSH2 0xFB8 JUMPI PUSH4 0x4E487B71 PUSH1 0xE0 SHL PUSH1 0x0 MSTORE PUSH1 0x32 PUSH1 0x4 MSTORE PUSH1 0x24 PUSH1 0x0 REVERT JUMPDEST PUSH1 0x20 MUL ADD DUP2 DUP2 MLOAD PUSH2 0xFC9 SWAP2 SWAP1 PUSH2 0x3553 JUMP JUMPDEST PUSH4 0xFFFFFFFF AND SWAP1 MSTORE POP PUSH1 0x60 DUP3 ADD MLOAD PUSH1 0x40 DUP4 ADD MLOAD DUP3 SWAP1 PUSH2 0xFE9 SWAP1 PUSH1 0x3 PUSH2 0x3797 JUMP JUMPDEST PUSH1 0xFF AND PUSH1 0x7 DUP2 LT PUSH2 0x100A JUMPI PUSH4 0x4E487B71 PUSH1 0xE0 SHL PUSH1 0x0 MSTORE PUSH1 0x32 PUSH1 0x4 MSTORE PUSH1 0x24 PUSH1 0x0 REVERT JUMPDEST PUSH1 0x20 MUL ADD DUP2 DUP2 MLOAD PUSH2 0x101B SWAP2 SWAP1 PUSH2 0x3553 JUMP JUMPDEST PUSH4 0xFFFFFFFF SWAP1 DUP2 AND SWAP1 SWAP2 MSTORE PUSH1 0x60 DUP5 ADD MLOAD PUSH1 0xA0 DUP6 ADD MLOAD PUSH1 0x1 PUSH1 0x1 PUSH1 0xA0 SHL SUB AND PUSH1 0x0 SWAP1 DUP2 MSTORE PUSH1 0x26 PUSH1 0x20 MSTORE PUSH1 0x40 DUP2 KECCAK256 DUP1 SLOAD SWAP3 SWAP5 POP SWAP3 SWAP1 SWAP2 PUSH2 0x105B SWAP2 DUP6 SWAP2 AND PUSH2 0x3772 JUMP JUMPDEST DUP3 SLOAD PUSH2 0x100 SWAP3 DUP4 EXP PUSH4 0xFFFFFFFF DUP2 DUP2 MUL NOT SWAP1 SWAP3 AND SWAP3 DUP3 AND MUL SWAP2 SWAP1 SWAP2 OR SWAP1 SWAP3 SSTORE PUSH1 0x0 DUP7 DUP2 MSTORE PUSH1 0x22 PUSH1 0x20 SWAP1 DUP2 MSTORE PUSH1 0x40 DUP1 DUP4 KECCAK256 DUP9 MLOAD DUP2 SLOAD SWAP4 DUP11 ADD MLOAD SWAP3 DUP11 ADD MLOAD PUSH1 0x60 DUP12 ADD MLOAD PUSH1 0x80 DUP13 ADD MLOAD PUSH1 0xA0 DUP14 ADD MLOAD PUSH1 0xFF NOT SWAP1 SWAP8 AND PUSH1 0xFF SWAP5 DUP6 AND OR PUSH2 0xFF00 NOT AND SWAP6 DUP5 AND SWAP1 SWAP9 MUL SWAP5 SWAP1 SWAP5 OR PUSH3 0xFF0000 NOT AND PUSH3 0x10000 SWAP3 SWAP1 SWAP2 AND SWAP2 SWAP1 SWAP2 MUL OR PUSH7 0xFFFFFFFF000000 NOT AND PUSH4 0x1000000 SWAP3 DUP8 AND SWAP3 SWAP1 SWAP3 MUL SWAP2 SWAP1 SWAP2 OR PUSH11 0xFFFFFFFF00000000000000 NOT AND PUSH8 0x100000000000000 SWAP5 SWAP1 SWAP6 AND SWAP4 SWAP1 SWAP4 MUL SWAP4 SWAP1 SWAP4 OR PUSH32 0xFF0000000000000000000000000000000000000000FFFFFFFFFFFFFFFFFFFFFF AND PUSH1 0x1 PUSH1 0x58 SHL PUSH1 0x1 PUSH1 0x1 PUSH1 0xA0 SHL SUB SWAP1 SWAP5 AND SWAP4 SWAP1 SWAP4 MUL SWAP3 SWAP1 SWAP3 OR SWAP1 SSTORE SWAP1 POP PUSH1 0x3 PUSH1 0x8 SWAP2 DUP3 DUP3 DIV ADD SWAP2 SWAP1 MOD PUSH1 0x4 MUL SWAP1 SLOAD SWAP1 PUSH2 0x100 EXP SWAP1 DIV PUSH4 0xFFFFFFFF AND PUSH1 0xFF AND DUP3 PUSH1 0xA0 ADD MLOAD PUSH1 0x1 PUSH1 0x1 PUSH1 0xA0 SHL SUB AND PUSH32 0x140ADF89F9ECE20DE08856A1A87E5DDEC46C74E2B3D59152C54EEA9E2945B878 DUP5 PUSH1 0x20 ADD MLOAD DUP6 PUSH1 0x40 ADD MLOAD DUP7 PUSH1 0x60 ADD MLOAD DUP8 PUSH1 0x80 ADD MLOAD DUP10 PUSH1 0x40 MLOAD PUSH2 0x11C5 SWAP6 SWAP5 SWAP4 SWAP3 SWAP2 SWAP1 PUSH2 0x3421 JUMP JUMPDEST PUSH1 0x40 MLOAD DUP1 SWAP2 SUB SWAP1 LOG3 PUSH1 0x0 DUP1 SLOAD PUSH1 0x40 MLOAD PUSH2 0x11F0 SWAP2 PUSH1 0x1 PUSH1 0xC0 SHL SWAP1 DIV PUSH4 0xFFFFFFFF AND SWAP1 TIMESTAMP SWAP1 PUSH1 0x20 ADD PUSH2 0x2F1C JUMP JUMPDEST PUSH1 0x40 DUP1 MLOAD PUSH32 0xFFFFFFFFFFFFFFFFFFFFFFFFFFFFFFFFFFFFFFFFFFFFFFFFFFFFFFFFFFFFFFE0 DUP2 DUP5 SUB ADD DUP2 MSTORE SWAP2 DUP2 MSTORE DUP2 MLOAD PUSH1 0x20 SWAP1 SWAP3 ADD SWAP2 SWAP1 SWAP2 KECCAK256 CALLER PUSH1 0xA0 DUP7 ADD MSTORE PUSH1 0x60 DUP6 ADD DUP1 MLOAD PUSH1 0x80 DUP8 ADD DUP1 MLOAD PUSH4 0xFFFFFFFF SWAP1 DUP2 AND SWAP1 SWAP4 MSTORE SWAP2 AND SWAP1 MSTORE SWAP1 DUP5 ADD MLOAD SWAP1 SWAP2 POP PUSH2 0x125C SWAP1 PUSH1 0x1 PUSH2 0x3797 JUMP JUMPDEST PUSH1 0xFF AND PUSH1 0x40 DUP5 ADD MSTORE PUSH1 0x60 DUP4 ADD MLOAD PUSH1 0x80 DUP5 ADD MLOAD PUSH2 0x1278 SWAP2 SWAP1 PUSH2 0x3553 JUMP JUMPDEST PUSH1 0x0 DUP1 SLOAD PUSH1 0x8 SWAP1 PUSH2 0x129C SWAP1 DUP5 SWAP1 PUSH9 0x10000000000000000 SWAP1 DIV PUSH4 0xFFFFFFFF AND PUSH2 0x3553 JUMP JUMPDEST DUP3 SLOAD PUSH2 0x100 SWAP3 SWAP1 SWAP3 EXP PUSH4 0xFFFFFFFF DUP2 DUP2 MUL NOT SWAP1 SWAP4 AND SWAP2 DUP4 AND MUL OR SWAP1 SWAP2 SSTORE PUSH1 0x60 DUP6 ADD MLOAD CALLER PUSH1 0x0 SWAP1 DUP2 MSTORE PUSH1 0x26 PUSH1 0x20 MSTORE PUSH1 0x40 DUP2 KECCAK256 DUP1 SLOAD SWAP3 SWAP5 POP SWAP3 SWAP1 SWAP2 PUSH2 0x12E1 SWAP2 DUP6 SWAP2 AND PUSH2 0x3772 JUMP JUMPDEST SWAP3 POP PUSH2 0x100 EXP DUP2 SLOAD DUP2 PUSH4 0xFFFFFFFF MUL NOT AND SWAP1 DUP4 PUSH4 0xFFFFFFFF AND MUL OR SWAP1 SSTORE POP PUSH1 0x0 PUSH1 0x3 PUSH1 0x8 DUP2 LT PUSH2 0x1321 JUMPI PUSH4 0x4E487B71 PUSH1 0xE0 SHL PUSH1 0x0 MSTORE PUSH1 0x32 PUSH1 0x4 MSTORE PUSH1 0x24 PUSH1 0x0 REVERT JUMPDEST PUSH1 0x8 SWAP2 DUP3 DUP3 DIV ADD SWAP2 SWAP1 MOD PUSH1 0x4 MUL SWAP1 SLOAD SWAP1 PUSH2 0x100 EXP SWAP1 DIV PUSH4 0xFFFFFFFF AND PUSH1 0xFF AND CALLER PUSH1 0x1 PUSH1 0x1 PUSH1 0xA0 SHL SUB AND PUSH32 0x140ADF89F9ECE20DE08856A1A87E5DDEC46C74E2B3D59152C54EEA9E2945B878 DUP6 PUSH1 0x20 ADD MLOAD DUP7 PUSH1 0x40 ADD MLOAD DUP8 PUSH1 0x60 ADD MLOAD DUP9 PUSH1 0x80 ADD MLOAD DUP8 PUSH1 0x40 MLOAD PUSH2 0x1391 SWAP6 SWAP5 SWAP4 SWAP3 SWAP2 SWAP1 PUSH2 0x3421 JUMP JUMPDEST PUSH1 0x40 MLOAD DUP1 SWAP2 SUB SWAP1 LOG3 PUSH1 0x0 PUSH1 0xE0 DUP4 DUP3 PUSH1 0x20 MUL ADD MLOAD PUSH4 0xFFFFFFFF AND SWAP1 SHL OR PUSH1 0xC0 DUP4 PUSH1 0x1 PUSH1 0x20 MUL ADD MLOAD PUSH4 0xFFFFFFFF AND SWAP1 SHL OR PUSH1 0xA0 DUP4 PUSH1 0x2 PUSH1 0x20 MUL ADD MLOAD PUSH4 0xFFFFFFFF AND SWAP1 SHL OR PUSH1 0x80 DUP4 PUSH1 0x3 PUSH1 0x20 MUL ADD MLOAD PUSH4 0xFFFFFFFF AND SWAP1 SHL OR PUSH1 0x40 DUP4 PUSH1 0x4 PUSH1 0x20 MUL ADD MLOAD PUSH4 0xFFFFFFFF AND SWAP1 SHL DUP2 OR SWAP1 POP PUSH1 0x20 DUP4 PUSH1 0x5 PUSH1 0x7 DUP2 LT PUSH2 0x141F JUMPI PUSH4 0x4E487B71 PUSH1 0xE0 SHL PUSH1 0x0 MSTORE PUSH1 0x32 PUSH1 0x4 MSTORE PUSH1 0x24 PUSH1 0x0 REVERT JUMPDEST PUSH1 0x20 MUL ADD MLOAD PUSH4 0xFFFFFFFF AND SWAP1 SHL OR DUP3 PUSH1 0x6 PUSH1 0x20 MUL ADD MLOAD PUSH4 0xFFFFFFFF AND DUP2 OR SWAP1 POP DUP1 PUSH1 0x1 DUP6 PUSH1 0x20 ADD MLOAD PUSH1 0xFF AND PUSH1 0x20 DUP2 LT PUSH2 0x1468 JUMPI PUSH4 0x4E487B71 PUSH1 0xE0 SHL PUSH1 0x0 MSTORE PUSH1 0x32 PUSH1 0x4 MSTORE PUSH1 0x24 PUSH1 0x0 REVERT JUMPDEST ADD SSTORE PUSH1 0x0 DUP3 DUP2 MSTORE PUSH1 0x22 PUSH1 0x20 SWAP1 DUP2 MSTORE PUSH1 0x40 DUP1 DUP4 KECCAK256 DUP8 MLOAD DUP2 SLOAD SWAP4 DUP10 ADD MLOAD SWAP3 DUP10 ADD MLOAD PUSH1 0x60 DUP11 ADD MLOAD PUSH1 0x80 DUP12 ADD MLOAD PUSH1 0xA0 DUP13 ADD MLOAD PUSH1 0xFF NOT SWAP1 SWAP8 AND PUSH1 0xFF SWAP5 DUP6 AND OR PUSH2 0xFF00 NOT AND PUSH2 0x100 SWAP7 DUP6 AND SWAP7 SWAP1 SWAP7 MUL SWAP6 SWAP1 SWAP6 OR PUSH3 0xFF0000 NOT AND PUSH3 0x10000 SWAP4 SWAP1 SWAP3 AND SWAP3 SWAP1 SWAP3 MUL OR PUSH7 0xFFFFFFFF000000 NOT AND PUSH4 0x1000000 PUSH4 0xFFFFFFFF SWAP3 DUP4 AND MUL OR PUSH11 0xFFFFFFFF00000000000000 NOT AND PUSH8 0x100000000000000 SWAP4 DUP3 AND SWAP4 SWAP1 SWAP4 MUL SWAP3 SWAP1 SWAP3 OR PUSH32 0xFF0000000000000000000000000000000000000000FFFFFFFFFFFFFFFFFFFFFF AND PUSH1 0x1 PUSH1 0x58 SHL PUSH1 0x1 PUSH1 0x1 PUSH1 0xA0 SHL SUB SWAP1 SWAP5 AND SWAP4 SWAP1 SWAP4 MUL SWAP3 SWAP1 SWAP3 OR SWAP1 SWAP2 SSTORE DUP2 SLOAD PUSH1 0x1 PUSH1 0xC0 SHL SWAP1 DIV AND SWAP1 PUSH1 0x18 PUSH2 0x1556 DUP4 PUSH2 0x37D5 JUMP JUMPDEST DUP3 SLOAD PUSH4 0xFFFFFFFF SWAP2 DUP3 AND PUSH2 0x100 SWAP4 SWAP1 SWAP4 EXP SWAP3 DUP4 MUL SWAP2 SWAP1 SWAP3 MUL NOT SWAP1 SWAP2 AND OR SWAP1 SSTORE POP POP POP PUSH1 0x0 SWAP3 DUP4 MSTORE POP POP PUSH1 0x23 PUSH1 0x20 MSTORE PUSH1 0x40 SWAP1 KECCAK256 DUP1 SLOAD PUSH32 0xFF00000000000000000000000000000000000000000000000000000000000000 AND SWAP1 SSTORE JUMP JUMPDEST PUSH1 0x21 SLOAD PUSH1 0x1 PUSH1 0x1 PUSH1 0xA0 SHL SUB AND ISZERO PUSH2 0x15D9 JUMPI PUSH1 0x40 MLOAD PUSH3 0x461BCD PUSH1 0xE5 SHL DUP2 MSTORE PUSH1 0x4 ADD PUSH2 0x5E2 SWAP1 PUSH2 0x3261 JUMP JUMPDEST PUSH1 0x21 DUP1 SLOAD PUSH32 0xFFFFFFFFFFFFFFFFFFFFFFFF0000000000000000000000000000000000000000 AND PUSH1 0x1 PUSH1 0x1 PUSH1 0xA0 SHL SUB SWAP3 SWAP1 SWAP3 AND SWAP2 SWAP1 SWAP2 OR SWAP1 SSTORE JUMP JUMPDEST PUSH1 0x1 DUP2 PUSH1 0x20 DUP2 LT PUSH2 0x1623 JUMPI PUSH1 0x0 DUP1 REVERT JUMPDEST ADD SLOAD SWAP1 POP DUP2 JUMP JUMPDEST PUSH1 0x0 DUP2 DUP2 MSTORE PUSH1 0x23 PUSH1 0x20 MSTORE PUSH1 0x40 SWAP1 KECCAK256 SLOAD PUSH1 0x1 PUSH1 0x58 SHL SWAP1 DIV PUSH1 0x1 PUSH1 0x1 PUSH1 0xA0 SHL SUB AND CALLER EQ PUSH2 0x1667 JUMPI PUSH1 0x40 MLOAD PUSH3 0x461BCD PUSH1 0xE5 SHL DUP2 MSTORE PUSH1 0x4 ADD PUSH2 0x5E2 SWAP1 PUSH2 0x322A JUMP JUMPDEST PUSH1 0x0 SWAP1 DUP2 MSTORE PUSH1 0x22 PUSH1 0x20 MSTORE PUSH1 0x40 SWAP1 KECCAK256 DUP1 SLOAD PUSH32 0xFF00000000000000000000000000000000000000000000000000000000000000 AND SWAP1 SSTORE JUMP JUMPDEST PUSH1 0x21 SLOAD PUSH1 0x1 PUSH1 0x1 PUSH1 0xA0 SHL SUB AND CALLER EQ PUSH2 0x16B4 JUMPI PUSH1 0x0 DUP1 REVERT JUMPDEST DUP1 PUSH1 0x0 PUSH1 0x5 PUSH2 0x81D JUMP JUMPDEST PUSH1 0x23 PUSH1 0x20 MSTORE PUSH1 0x0 SWAP1 DUP2 MSTORE PUSH1 0x40 SWAP1 KECCAK256 SLOAD PUSH1 0xFF DUP1 DUP3 AND SWAP2 PUSH2 0x100 DUP2 DIV DUP3 AND SWAP2 PUSH3 0x10000 DUP3 DIV AND SWAP1 PUSH4 0xFFFFFFFF PUSH4 0x1000000 DUP3 DIV DUP2 AND SWAP2 PUSH8 0x100000000000000 DUP2 DIV SWAP1 SWAP2 AND SWAP1 PUSH1 0x1 PUSH1 0x1 PUSH1 0xA0 SHL SUB PUSH1 0x1 PUSH1 0x58 SHL SWAP1 SWAP2 DIV AND DUP7 JUMP JUMPDEST PUSH1 0x21 SLOAD PUSH1 0x1 PUSH1 0x1 PUSH1 0xA0 SHL SUB AND CALLER EQ PUSH2 0x172C JUMPI PUSH1 0x0 DUP1 REVERT JUMPDEST PUSH1 0x0 DUP1 JUMPDEST PUSH1 0x20 DUP2 LT ISZERO PUSH2 0x17DB JUMPI PUSH1 0x0 PUSH1 0x40 PUSH1 0x1 DUP4 PUSH1 0x20 DUP2 LT PUSH2 0x175E JUMPI PUSH4 0x4E487B71 PUSH1 0xE0 SHL PUSH1 0x0 MSTORE PUSH1 0x32 PUSH1 0x4 MSTORE PUSH1 0x24 PUSH1 0x0 REVERT JUMPDEST ADD SLOAD SWAP1 SHR SWAP1 POP PUSH1 0x40 DUP2 SWAP1 SHL DUP4 OR SWAP3 POP DUP4 DUP3 PUSH1 0x20 DUP2 LT PUSH2 0x178D JUMPI PUSH4 0x4E487B71 PUSH1 0xE0 SHL PUSH1 0x0 MSTORE PUSH1 0x32 PUSH1 0x4 MSTORE PUSH1 0x24 PUSH1 0x0 REVERT JUMPDEST PUSH1 0x20 MUL ADD MLOAD PUSH8 0xFFFFFFFFFFFFFFFF AND DUP4 OR SWAP3 POP DUP3 PUSH1 0x1 DUP4 PUSH1 0x20 DUP2 LT PUSH2 0x17C2 JUMPI PUSH4 0x4E487B71 PUSH1 0xE0 SHL PUSH1 0x0 MSTORE PUSH1 0x32 PUSH1 0x4 MSTORE PUSH1 0x24 PUSH1 0x0 REVERT JUMPDEST ADD SSTORE POP PUSH1 0x0 SWAP2 POP DUP1 PUSH2 0x17D3 DUP2 PUSH2 0x37BA JUMP JUMPDEST SWAP2 POP POP PUSH2 0x1730 JUMP JUMPDEST POP POP POP JUMP JUMPDEST PUSH1 0x22 PUSH1 0x20 MSTORE PUSH1 0x0 SWAP1 DUP2 MSTORE PUSH1 0x40 SWAP1 KECCAK256 SLOAD PUSH1 0xFF DUP1 DUP3 AND SWAP2 PUSH2 0x100 DUP2 DIV DUP3 AND SWAP2 PUSH3 0x10000 DUP3 DIV AND SWAP1 PUSH4 0xFFFFFFFF PUSH4 0x1000000 DUP3 DIV DUP2 AND SWAP2 PUSH8 0x100000000000000 DUP2 DIV SWAP1 SWAP2 AND SWAP1 PUSH1 0x1 PUSH1 0x1 PUSH1 0xA0 SHL SUB PUSH1 0x1 PUSH1 0x58 SHL SWAP1 SWAP2 DIV AND DUP7 JUMP JUMPDEST PUSH1 0x0 SLOAD PUSH2 0x1864 SWAP1 PUSH4 0xFFFFFFFF PUSH21 0x10000000000000000000000000000000000000000 DUP3 DIV DUP2 AND SWAP2 AND PUSH2 0x35E6 JUMP JUMPDEST PUSH4 0xFFFFFFFF AND DUP3 PUSH4 0xFFFFFFFF AND LT ISZERO PUSH2 0x188F JUMPI PUSH1 0x40 MLOAD PUSH3 0x461BCD PUSH1 0xE5 SHL DUP2 MSTORE PUSH1 0x4 ADD PUSH2 0x5E2 SWAP1 PUSH2 0x3185 JUMP JUMPDEST CALLER PUSH1 0x0 SWAP1 DUP2 MSTORE PUSH1 0x26 PUSH1 0x20 MSTORE PUSH1 0x40 SWAP1 KECCAK256 SLOAD PUSH4 0xFFFFFFFF SWAP1 DUP2 AND SWAP1 DUP4 AND GT ISZERO PUSH2 0x18C8 JUMPI PUSH1 0x40 MLOAD PUSH3 0x461BCD PUSH1 0xE5 SHL DUP2 MSTORE PUSH1 0x4 ADD PUSH2 0x5E2 SWAP1 PUSH2 0x31F3 JUMP JUMPDEST PUSH2 0x3E8 DUP2 PUSH4 0xFFFFFFFF AND GT DUP1 ISZERO PUSH2 0x18E6 JUMPI POP PUSH2 0x270F DUP2 PUSH4 0xFFFFFFFF AND LT JUMPDEST PUSH2 0x1902 JUMPI PUSH1 0x40 MLOAD PUSH3 0x461BCD PUSH1 0xE5 SHL DUP2 MSTORE PUSH1 0x4 ADD PUSH2 0x5E2 SWAP1 PUSH2 0x303B JUMP JUMPDEST PUSH1 0x0 DUP1 SLOAD PUSH1 0x40 MLOAD PUSH2 0x1925 SWAP2 PUSH1 0x1 PUSH1 0xC0 SHL SWAP1 DIV PUSH4 0xFFFFFFFF AND SWAP1 TIMESTAMP SWAP1 PUSH1 0x20 ADD PUSH2 0x2F1C JUMP JUMPDEST PUSH1 0x40 MLOAD PUSH1 0x20 DUP2 DUP4 SUB SUB DUP2 MSTORE SWAP1 PUSH1 0x40 MSTORE DUP1 MLOAD SWAP1 PUSH1 0x20 ADD KECCAK256 SWAP1 POP PUSH2 0x1945 PUSH2 0x2C44 JUMP JUMPDEST PUSH1 0xFF DUP6 DUP2 AND PUSH1 0x40 DUP4 ADD MSTORE DUP7 DUP2 AND PUSH1 0x20 DUP4 ADD MSTORE PUSH1 0x0 SLOAD PUSH1 0x1 PUSH1 0x60 SHL SWAP1 DIV AND DUP2 MSTORE CALLER PUSH1 0xA0 DUP3 ADD MSTORE PUSH4 0xFFFFFFFF DUP5 AND PUSH1 0x60 DUP3 ADD MSTORE PUSH2 0x3E8 DUP5 PUSH2 0x1984 DUP3 DUP7 PUSH2 0x3772 JUMP JUMPDEST PUSH2 0x198E SWAP2 SWAP1 PUSH2 0x36DD JUMP JUMPDEST PUSH2 0x1998 SWAP2 SWAP1 PUSH2 0x35E6 JUMP JUMPDEST PUSH4 0xFFFFFFFF SWAP1 DUP2 AND PUSH1 0x80 DUP4 ADD SWAP1 DUP2 MSTORE PUSH1 0x0 DUP5 DUP2 MSTORE PUSH1 0x23 PUSH1 0x20 SWAP1 DUP2 MSTORE PUSH1 0x40 DUP1 DUP4 KECCAK256 DUP7 MLOAD DUP2 SLOAD SWAP4 DUP9 ADD MLOAD SWAP3 DUP9 ADD MLOAD PUSH1 0x60 DUP10 ADD MLOAD SWAP7 MLOAD PUSH1 0xA0 DUP11 ADD MLOAD PUSH1 0xFF NOT SWAP1 SWAP7 AND PUSH1 0xFF SWAP4 DUP5 AND OR PUSH2 0xFF00 NOT AND PUSH2 0x100 SWAP6 DUP5 AND SWAP6 SWAP1 SWAP6 MUL SWAP5 SWAP1 SWAP5 OR PUSH3 0xFF0000 NOT AND PUSH3 0x10000 SWAP3 SWAP1 SWAP2 AND SWAP2 SWAP1 SWAP2 MUL OR PUSH7 0xFFFFFFFF000000 NOT AND PUSH4 0x1000000 SWAP6 DUP8 AND SWAP6 SWAP1 SWAP6 MUL SWAP5 SWAP1 SWAP5 OR PUSH11 0xFFFFFFFF00000000000000 NOT AND PUSH8 0x100000000000000 SWAP2 DUP7 AND SWAP2 SWAP1 SWAP2 MUL OR PUSH32 0xFF0000000000000000000000000000000000000000FFFFFFFFFFFFFFFFFFFFFF AND PUSH1 0x1 PUSH1 0x58 SHL PUSH1 0x1 PUSH1 0x1 PUSH1 0xA0 SHL SUB SWAP1 SWAP3 AND SWAP2 SWAP1 SWAP2 MUL OR SWAP1 SWAP2 SSTORE DUP1 SLOAD PUSH1 0x1 PUSH1 0xC0 SHL SWAP1 DIV SWAP1 SWAP2 AND SWAP1 PUSH1 0x18 PUSH2 0x1A8D DUP4 PUSH2 0x37D5 JUMP JUMPDEST SWAP2 SWAP1 PUSH2 0x100 EXP DUP2 SLOAD DUP2 PUSH4 0xFFFFFFFF MUL NOT AND SWAP1 DUP4 PUSH4 0xFFFFFFFF AND MUL OR SWAP1 SSTORE POP POP PUSH1 0x0 PUSH1 0x3 PUSH1 0x8 DUP2 LT PUSH2 0x1ACE JUMPI PUSH4 0x4E487B71 PUSH1 0xE0 SHL PUSH1 0x0 MSTORE PUSH1 0x32 PUSH1 0x4 MSTORE PUSH1 0x24 PUSH1 0x0 REVERT JUMPDEST PUSH1 0x8 SWAP2 DUP3 DUP3 DIV ADD SWAP2 SWAP1 MOD PUSH1 0x4 MUL SWAP1 SLOAD SWAP1 PUSH2 0x100 EXP SWAP1 DIV PUSH4 0xFFFFFFFF AND PUSH1 0xFF AND CALLER PUSH1 0x1 PUSH1 0x1 PUSH1 0xA0 SHL SUB AND PUSH32 0x4E952280AD1B5E5B031CFCE9AA00EB629D6AB4751F76792C07F4DBB4AFE44612 DUP9 DUP9 DUP6 PUSH1 0x60 ADD MLOAD DUP7 PUSH1 0x80 ADD MLOAD DUP9 PUSH1 0x40 MLOAD PUSH2 0x1B36 SWAP6 SWAP5 SWAP4 SWAP3 SWAP2 SWAP1 PUSH2 0x3421 JUMP JUMPDEST PUSH1 0x40 MLOAD DUP1 SWAP2 SUB SWAP1 LOG3 POP POP POP POP POP POP JUMP JUMPDEST PUSH1 0x0 DUP2 DUP2 MSTORE PUSH1 0x23 PUSH1 0x20 MSTORE PUSH1 0x40 SWAP1 KECCAK256 SLOAD PUSH4 0x1000000 SWAP1 DIV PUSH4 0xFFFFFFFF AND ISZERO ISZERO JUMPDEST SWAP2 SWAP1 POP JUMP JUMPDEST PUSH4 0x77359400 DUP2 JUMP JUMPDEST PUSH1 0x0 DUP2 DUP2 MSTORE PUSH1 0x22 PUSH1 0x20 MSTORE PUSH1 0x40 DUP2 KECCAK256 SLOAD DUP2 SWAP1 PUSH1 0xFF PUSH3 0x10000 DUP3 DIV DUP2 AND SWAP2 PUSH2 0x1BA0 SWAP2 PUSH2 0x100 SWAP1 SWAP2 DIV AND PUSH1 0xA PUSH2 0x3700 JUMP JUMPDEST PUSH1 0x0 DUP6 DUP2 MSTORE PUSH1 0x22 PUSH1 0x20 MSTORE PUSH1 0x40 SWAP1 KECCAK256 SLOAD PUSH1 0xFF SWAP2 DUP3 AND SWAP2 PUSH2 0x1BC2 SWAP2 AND PUSH2 0x3E8 PUSH2 0x3694 JUMP JUMPDEST PUSH2 0x1BCC SWAP2 SWAP1 PUSH2 0x3515 JUMP JUMPDEST PUSH2 0x1BD6 SWAP2 SWAP1 PUSH2 0x3515 JUMP JUMPDEST PUSH2 0xFFFF AND PUSH1 0x0 SWAP1 DUP2 MSTORE PUSH1 0x24 PUSH1 0x20 MSTORE PUSH1 0x40 SWAP1 KECCAK256 SLOAD PUSH1 0xFF AND ISZERO ISZERO SWAP4 SWAP3 POP POP POP JUMP JUMPDEST PUSH1 0x25 PUSH1 0x20 MSTORE PUSH1 0x0 SWAP1 DUP2 MSTORE PUSH1 0x40 SWAP1 KECCAK256 SLOAD PUSH4 0xFFFFFFFF DUP1 DUP3 AND SWAP2 PUSH5 0x100000000 SWAP1 DIV AND DUP3 JUMP JUMPDEST CALLER PUSH1 0x0 SWAP1 DUP2 MSTORE PUSH1 0x26 PUSH1 0x20 MSTORE PUSH1 0x40 SWAP1 KECCAK256 SLOAD PUSH4 0xFFFFFFFF SWAP1 DUP2 AND SWAP1 DUP3 AND GT ISZERO PUSH2 0x1C3F JUMPI PUSH1 0x0 DUP1 REVERT JUMPDEST CALLER PUSH1 0x0 SWAP1 DUP2 MSTORE PUSH1 0x26 PUSH1 0x20 MSTORE PUSH1 0x40 DUP2 KECCAK256 DUP1 SLOAD DUP4 SWAP3 SWAP1 PUSH2 0x1C64 SWAP1 DUP5 SWAP1 PUSH4 0xFFFFFFFF AND PUSH2 0x3772 JUMP JUMPDEST SWAP3 POP PUSH2 0x100 EXP DUP2 SLOAD DUP2 PUSH4 0xFFFFFFFF MUL NOT AND SWAP1 DUP4 PUSH4 0xFFFFFFFF AND MUL OR SWAP1 SSTORE POP PUSH1 0x0 PUSH6 0x5AF3107A4000 DUP3 PUSH4 0xFFFFFFFF AND PUSH2 0x1C9C SWAP2 SWAP1 PUSH2 0x36BE JUMP JUMPDEST SWAP1 POP PUSH1 0x0 CALLER PUSH1 0x1 PUSH1 0x1 PUSH1 0xA0 SHL SUB AND DUP3 PUSH1 0x40 MLOAD PUSH2 0x1CB7 SWAP1 PUSH2 0x2F19 JUMP JUMPDEST PUSH1 0x0 PUSH1 0x40 MLOAD DUP1 DUP4 SUB DUP2 DUP6 DUP8 GAS CALL SWAP3 POP POP POP RETURNDATASIZE DUP1 PUSH1 0x0 DUP2 EQ PUSH2 0x1CF4 JUMPI PUSH1 0x40 MLOAD SWAP2 POP PUSH1 0x1F NOT PUSH1 0x3F RETURNDATASIZE ADD AND DUP3 ADD PUSH1 0x40 MSTORE RETURNDATASIZE DUP3 MSTORE RETURNDATASIZE PUSH1 0x0 PUSH1 0x20 DUP5 ADD RETURNDATACOPY PUSH2 0x1CF9 JUMP JUMPDEST PUSH1 0x60 SWAP2 POP JUMPDEST POP POP SWAP1 POP DUP1 PUSH2 0x1D1A JUMPI PUSH1 0x40 MLOAD PUSH3 0x461BCD PUSH1 0xE5 SHL DUP2 MSTORE PUSH1 0x4 ADD PUSH2 0x5E2 SWAP1 PUSH2 0x3004 JUMP JUMPDEST PUSH1 0x0 SLOAD PUSH1 0x40 MLOAD PUSH32 0xEE637EA1FC87312DDB03041E1BDF2955840BCE4531E1242AFE2F0AFF24A6ECC6 SWAP2 PUSH2 0x1D61 SWAP2 CALLER SWAP2 DUP7 SWAP2 PUSH1 0x1 PUSH1 0x60 SHL SWAP1 SWAP2 DIV PUSH4 0xFFFFFFFF AND SWAP1 PUSH1 0x3 SWAP1 PUSH2 0x2F65 JUMP JUMPDEST PUSH1 0x40 MLOAD DUP1 SWAP2 SUB SWAP1 LOG1 POP POP POP JUMP JUMPDEST PUSH1 0x24 PUSH1 0x20 MSTORE PUSH1 0x0 SWAP1 DUP2 MSTORE PUSH1 0x40 SWAP1 KECCAK256 SLOAD PUSH1 0xFF AND DUP2 JUMP JUMPDEST PUSH1 0x21 SLOAD PUSH1 0x1 PUSH1 0x1 PUSH1 0xA0 SHL SUB AND DUP2 JUMP JUMPDEST PUSH1 0x0 SLOAD PUSH29 0x100000000000000000000000000000000000000000000000000000000 SWAP1 DIV PUSH4 0xFFFFFFFF AND TIMESTAMP LT PUSH2 0x1DD9 JUMPI PUSH1 0x40 MLOAD PUSH3 0x461BCD PUSH1 0xE5 SHL DUP2 MSTORE PUSH1 0x4 ADD PUSH2 0x5E2 SWAP1 PUSH2 0x314E JUMP JUMPDEST CALLER PUSH1 0x0 SWAP1 DUP2 MSTORE PUSH1 0x25 PUSH1 0x20 MSTORE PUSH1 0x40 SWAP1 KECCAK256 SLOAD PUSH4 0xFFFFFFFF DUP1 DUP4 AND SWAP2 AND LT ISZERO PUSH2 0x1E11 JUMPI PUSH1 0x40 MLOAD PUSH3 0x461BCD PUSH1 0xE5 SHL DUP2 MSTORE PUSH1 0x4 ADD PUSH2 0x5E2 SWAP1 PUSH2 0x31F3 JUMP JUMPDEST CALLER PUSH1 0x0 SWAP1 DUP2 MSTORE PUSH1 0x25 PUSH1 0x20 MSTORE PUSH1 0x40 DUP2 KECCAK256 SLOAD SWAP1 SLOAD PUSH5 0x100000000 SWAP1 SWAP2 DIV PUSH4 0xFFFFFFFF SWAP1 DUP2 AND PUSH1 0x1 PUSH1 0x60 SHL SWAP1 SWAP3 DIV AND GT PUSH2 0x1E5A JUMPI PUSH1 0x40 MLOAD PUSH3 0x461BCD PUSH1 0xE5 SHL DUP2 MSTORE PUSH1 0x4 ADD PUSH2 0x5E2 SWAP1 PUSH2 0x30E0 JUMP JUMPDEST PUSH1 0x0 DUP1 SLOAD PUSH17 0x100000000000000000000000000000000 SWAP1 DIV PUSH4 0xFFFFFFFF AND PUSH2 0x1E83 DUP4 DUP4 DUP1 PUSH2 0x624 JUMP JUMPDEST PUSH2 0x1E8D SWAP2 SWAP1 PUSH2 0x35E6 JUMP JUMPDEST PUSH1 0x0 SLOAD SWAP1 SWAP2 POP PUSH2 0x1EAD SWAP1 PUSH4 0xFFFFFFFF PUSH5 0x100000000 DUP3 DIV DUP2 AND SWAP2 AND PUSH2 0x3772 JUMP JUMPDEST PUSH4 0xFFFFFFFF AND DUP2 PUSH4 0xFFFFFFFF AND GT ISZERO PUSH2 0x1ED8 JUMPI PUSH1 0x40 MLOAD PUSH3 0x461BCD PUSH1 0xE5 SHL DUP2 MSTORE PUSH1 0x4 ADD PUSH2 0x5E2 SWAP1 PUSH2 0x3306 JUMP JUMPDEST PUSH1 0x0 DUP1 SLOAD DUP4 SWAP2 SWAP1 PUSH1 0x10 SWAP1 PUSH2 0x1F07 SWAP1 DUP5 SWAP1 PUSH17 0x100000000000000000000000000000000 SWAP1 DIV PUSH4 0xFFFFFFFF AND PUSH2 0x3772 JUMP JUMPDEST DUP3 SLOAD PUSH2 0x100 SWAP3 SWAP1 SWAP3 EXP PUSH4 0xFFFFFFFF DUP2 DUP2 MUL NOT SWAP1 SWAP4 AND SWAP2 DUP4 AND MUL OR SWAP1 SWAP2 SSTORE CALLER PUSH1 0x0 SWAP1 DUP2 MSTORE PUSH1 0x25 PUSH1 0x20 MSTORE PUSH1 0x40 DUP2 KECCAK256 DUP1 SLOAD DUP7 SWAP5 POP SWAP1 SWAP3 PUSH2 0x1F46 SWAP2 DUP6 SWAP2 AND PUSH2 0x3772 JUMP JUMPDEST SWAP3 POP PUSH2 0x100 EXP DUP2 SLOAD DUP2 PUSH4 0xFFFFFFFF MUL NOT AND SWAP1 DUP4 PUSH4 0xFFFFFFFF AND MUL OR SWAP1 SSTORE POP DUP1 PUSH1 0x0 DUP1 PUSH1 0x8 DUP2 LT PUSH2 0x1F86 JUMPI PUSH4 0x4E487B71 PUSH1 0xE0 SHL PUSH1 0x0 MSTORE PUSH1 0x32 PUSH1 0x4 MSTORE PUSH1 0x24 PUSH1 0x0 REVERT JUMPDEST PUSH1 0x8 SWAP2 DUP3 DUP3 DIV ADD SWAP2 SWAP1 MOD PUSH1 0x4 MUL DUP3 DUP3 DUP3 SWAP1 SLOAD SWAP1 PUSH2 0x100 EXP SWAP1 DIV PUSH4 0xFFFFFFFF AND PUSH2 0x1FAF SWAP2 SWAP1 PUSH2 0x3772 JUMP JUMPDEST SWAP3 POP PUSH2 0x100 EXP DUP2 SLOAD DUP2 PUSH4 0xFFFFFFFF MUL NOT AND SWAP1 DUP4 PUSH4 0xFFFFFFFF AND MUL OR SWAP1 SSTORE POP PUSH1 0x0 PUSH6 0x5AF3107A4000 DUP3 PUSH4 0xFFFFFFFF AND PUSH2 0x1FE7 SWAP2 SWAP1 PUSH2 0x36BE JUMP JUMPDEST SWAP1 POP PUSH1 0x0 CALLER PUSH1 0x1 PUSH1 0x1 PUSH1 0xA0 SHL SUB AND DUP3 PUSH1 0x40 MLOAD PUSH2 0x2002 SWAP1 PUSH2 0x2F19 JUMP JUMPDEST PUSH1 0x0 PUSH1 0x40 MLOAD DUP1 DUP4 SUB DUP2 DUP6 DUP8 GAS CALL SWAP3 POP POP POP RETURNDATASIZE DUP1 PUSH1 0x0 DUP2 EQ PUSH2 0x203F JUMPI PUSH1 0x40 MLOAD SWAP2 POP PUSH1 0x1F NOT PUSH1 0x3F RETURNDATASIZE ADD AND DUP3 ADD PUSH1 0x40 MSTORE RETURNDATASIZE DUP3 MSTORE RETURNDATASIZE PUSH1 0x0 PUSH1 0x20 DUP5 ADD RETURNDATACOPY PUSH2 0x2044 JUMP JUMPDEST PUSH1 0x60 SWAP2 POP JUMPDEST POP POP SWAP1 POP DUP1 PUSH2 0x2065 JUMPI PUSH1 0x40 MLOAD PUSH3 0x461BCD PUSH1 0xE5 SHL DUP2 MSTORE PUSH1 0x4 ADD PUSH2 0x5E2 SWAP1 PUSH2 0x3004 JUMP JUMPDEST PUSH1 0x0 SLOAD PUSH1 0x40 MLOAD PUSH32 0xEE637EA1FC87312DDB03041E1BDF2955840BCE4531E1242AFE2F0AFF24A6ECC6 SWAP2 PUSH2 0x20AC SWAP2 CALLER SWAP2 DUP7 SWAP2 PUSH1 0x1 PUSH1 0x60 SHL SWAP1 SWAP2 DIV PUSH4 0xFFFFFFFF AND SWAP1 PUSH1 0x4 SWAP1 PUSH2 0x2F65 JUMP JUMPDEST PUSH1 0x40 MLOAD DUP1 SWAP2 SUB SWAP1 LOG1 POP POP POP POP JUMP JUMPDEST CALLER PUSH1 0x0 SWAP1 DUP2 MSTORE PUSH1 0x26 PUSH1 0x20 MSTORE PUSH1 0x40 SWAP1 KECCAK256 SLOAD PUSH4 0xFFFFFFFF SWAP1 DUP2 AND SWAP1 DUP3 AND GT DUP1 ISZERO SWAP1 PUSH2 0x20E9 JUMPI POP PUSH1 0xA DUP2 PUSH4 0xFFFFFFFF AND GT JUMPDEST PUSH2 0x2105 JUMPI PUSH1 0x40 MLOAD PUSH3 0x461BCD PUSH1 0xE5 SHL DUP2 MSTORE PUSH1 0x4 ADD PUSH2 0x5E2 SWAP1 PUSH2 0x3117 JUMP JUMPDEST PUSH1 0x0 PUSH2 0x212E PUSH1 0x1 DUP6 PUSH1 0xFF AND PUSH1 0x20 DUP2 LT PUSH2 0x8C7 JUMPI PUSH4 0x4E487B71 PUSH1 0xE0 SHL PUSH1 0x0 MSTORE PUSH1 0x32 PUSH1 0x4 MSTORE PUSH1 0x24 PUSH1 0x0 REVERT JUMPDEST SWAP1 POP TIMESTAMP DUP2 PUSH1 0x4 PUSH1 0x20 MUL ADD MLOAD PUSH4 0xFFFFFFFF AND GT PUSH2 0x215C JUMPI PUSH1 0x40 MLOAD PUSH3 0x461BCD PUSH1 0xE5 SHL DUP2 MSTORE PUSH1 0x4 ADD PUSH2 0x5E2 SWAP1 PUSH2 0x31BC JUMP JUMPDEST PUSH1 0x0 PUSH2 0x3E8 DUP3 PUSH2 0x216D DUP7 PUSH1 0x5 PUSH2 0x3572 JUMP JUMPDEST PUSH1 0xFF AND PUSH1 0x7 DUP2 LT PUSH2 0x218E JUMPI PUSH4 0x4E487B71 PUSH1 0xE0 SHL PUSH1 0x0 MSTORE PUSH1 0x32 PUSH1 0x4 MSTORE PUSH1 0x24 PUSH1 0x0 REVERT JUMPDEST PUSH1 0x20 MUL ADD MLOAD PUSH2 0x219D SWAP1 DUP6 PUSH2 0x3609 JUMP JUMPDEST PUSH2 0x21A7 SWAP2 SWAP1 PUSH2 0x3597 JUMP JUMPDEST SWAP1 POP PUSH1 0x0 DUP3 PUSH2 0x21B7 DUP7 PUSH1 0x1 PUSH2 0x3797 JUMP JUMPDEST PUSH1 0xFF AND PUSH1 0x7 DUP2 LT PUSH2 0x21D8 JUMPI PUSH4 0x4E487B71 PUSH1 0xE0 SHL PUSH1 0x0 MSTORE PUSH1 0x32 PUSH1 0x4 MSTORE PUSH1 0x24 PUSH1 0x0 REVERT JUMPDEST PUSH1 0x20 MUL ADD MLOAD DUP4 PUSH2 0x21E9 DUP8 PUSH1 0x2 PUSH2 0x3572 JUMP JUMPDEST PUSH1 0xFF AND PUSH1 0x7 DUP2 LT PUSH2 0x220A JUMPI PUSH4 0x4E487B71 PUSH1 0xE0 SHL PUSH1 0x0 MSTORE PUSH1 0x32 PUSH1 0x4 MSTORE PUSH1 0x24 PUSH1 0x0 REVERT JUMPDEST PUSH1 0x20 MUL ADD MLOAD PUSH2 0x2219 SWAP2 SWAP1 PUSH2 0x3729 JUMP JUMPDEST PUSH1 0x0 SLOAD SWAP1 SWAP2 POP PUSH2 0x2249 SWAP1 PUSH4 0xFFFFFFFF PUSH21 0x10000000000000000000000000000000000000000 DUP3 DIV DUP2 AND SWAP2 AND PUSH2 0x35E6 JUMP JUMPDEST PUSH1 0x3 SIGNEXTEND PUSH2 0x2256 DUP3 DUP5 PUSH2 0x34CD JUMP JUMPDEST PUSH1 0x3 SIGNEXTEND SLT PUSH2 0x2276 JUMPI PUSH1 0x40 MLOAD PUSH3 0x461BCD PUSH1 0xE5 SHL DUP2 MSTORE PUSH1 0x4 ADD PUSH2 0x5E2 SWAP1 PUSH2 0x30A9 JUMP JUMPDEST PUSH1 0x0 DUP4 DUP7 PUSH1 0xFF AND PUSH1 0x7 DUP2 LT PUSH2 0x229B JUMPI PUSH4 0x4E487B71 PUSH1 0xE0 SHL PUSH1 0x0 MSTORE PUSH1 0x32 PUSH1 0x4 MSTORE PUSH1 0x24 PUSH1 0x0 REVERT JUMPDEST PUSH1 0x20 MUL ADD MLOAD DUP5 PUSH2 0x22AC DUP9 PUSH1 0x3 PUSH2 0x3797 JUMP JUMPDEST PUSH1 0xFF AND PUSH1 0x7 DUP2 LT PUSH2 0x22CD JUMPI PUSH4 0x4E487B71 PUSH1 0xE0 SHL PUSH1 0x0 MSTORE PUSH1 0x32 PUSH1 0x4 MSTORE PUSH1 0x24 PUSH1 0x0 REVERT JUMPDEST PUSH1 0x20 MUL ADD MLOAD PUSH2 0x22DC SWAP2 SWAP1 PUSH2 0x3729 JUMP JUMPDEST SWAP1 POP PUSH1 0x0 PUSH2 0x22EA DUP4 DUP4 PUSH2 0x2B95 JUMP JUMPDEST PUSH2 0x2310 PUSH2 0x22F7 DUP6 DUP8 PUSH2 0x34CD JUMP JUMPDEST DUP5 PUSH2 0x2301 DUP11 PUSH2 0x37F9 JUMP JUMPDEST PUSH2 0x230B SWAP2 SWAP1 PUSH2 0x34CD JUMP JUMPDEST PUSH2 0x2B95 JUMP JUMPDEST PUSH2 0x231A SWAP2 SWAP1 PUSH2 0x3729 JUMP JUMPDEST PUSH1 0x0 SLOAD SWAP1 SWAP2 POP PUSH2 0x233A SWAP1 PUSH4 0xFFFFFFFF PUSH5 0x100000000 DUP3 DIV DUP2 AND SWAP2 AND PUSH2 0x3772 JUMP JUMPDEST PUSH1 0x3 SIGNEXTEND DUP2 PUSH1 0x3 SIGNEXTEND SLT PUSH2 0x235E JUMPI PUSH1 0x40 MLOAD PUSH3 0x461BCD PUSH1 0xE5 SHL DUP2 MSTORE PUSH1 0x4 ADD PUSH2 0x5E2 SWAP1 PUSH2 0x3072 JUMP JUMPDEST CALLER PUSH1 0x0 SWAP1 DUP2 MSTORE PUSH1 0x26 PUSH1 0x20 MSTORE PUSH1 0x40 DUP2 KECCAK256 DUP1 SLOAD DUP9 SWAP3 SWAP1 PUSH2 0x2383 SWAP1 DUP5 SWAP1 PUSH4 0xFFFFFFFF AND PUSH2 0x3772 JUMP JUMPDEST SWAP3 POP PUSH2 0x100 EXP DUP2 SLOAD DUP2 PUSH4 0xFFFFFFFF MUL NOT AND SWAP1 DUP4 PUSH4 0xFFFFFFFF AND MUL OR SWAP1 SSTORE POP PUSH1 0x0 DUP1 PUSH1 0x6 PUSH1 0x8 DUP2 LT PUSH2 0x23C4 JUMPI PUSH4 0x4E487B71 PUSH1 0xE0 SHL PUSH1 0x0 MSTORE PUSH1 0x32 PUSH1 0x4 MSTORE PUSH1 0x24 PUSH1 0x0 REVERT JUMPDEST PUSH1 0x8 SWAP2 DUP3 DUP3 DIV ADD SWAP2 SWAP1 MOD PUSH1 0x4 MUL SWAP1 SLOAD SWAP1 PUSH2 0x100 EXP SWAP1 DIV PUSH4 0xFFFFFFFF AND TIMESTAMP PUSH1 0x40 MLOAD PUSH1 0x20 ADD PUSH2 0x23F2 SWAP3 SWAP2 SWAP1 PUSH2 0x2F1C JUMP JUMPDEST PUSH1 0x40 MLOAD PUSH1 0x20 DUP2 DUP4 SUB SUB DUP2 MSTORE SWAP1 PUSH1 0x40 MSTORE DUP1 MLOAD SWAP1 PUSH1 0x20 ADD KECCAK256 SWAP1 POP PUSH2 0x2412 PUSH2 0x2C44 JUMP JUMPDEST CALLER PUSH1 0xA0 DUP3 ADD MSTORE PUSH4 0xFFFFFFFF DUP1 DUP10 AND PUSH1 0x60 DUP4 ADD MSTORE DUP7 AND PUSH1 0x80 DUP3 ADD MSTORE PUSH1 0xFF DUP1 DUP11 AND PUSH1 0x40 DUP4 ADD MSTORE DUP11 AND PUSH1 0x20 DUP3 ADD MSTORE PUSH1 0x0 PUSH1 0x3 PUSH1 0x8 DUP2 DIV SWAP1 SWAP2 ADD SLOAD PUSH1 0xFF PUSH1 0x4 PUSH1 0x7 SWAP1 SWAP4 AND SWAP3 SWAP1 SWAP3 MUL PUSH2 0x100 SWAP1 DUP2 EXP SWAP1 SWAP2 DIV DUP3 AND DUP4 MSTORE PUSH1 0x0 DUP5 DUP2 MSTORE PUSH1 0x22 PUSH1 0x20 SWAP1 DUP2 MSTORE PUSH1 0x40 DUP1 DUP4 KECCAK256 DUP7 MLOAD DUP2 SLOAD SWAP4 DUP9 ADD MLOAD SWAP3 DUP9 ADD MLOAD PUSH1 0x60 DUP10 ADD MLOAD PUSH1 0x80 DUP11 ADD MLOAD PUSH1 0xA0 DUP12 ADD MLOAD PUSH1 0x1 PUSH1 0x1 PUSH1 0xA0 SHL SUB AND PUSH1 0x1 PUSH1 0x58 SHL MUL PUSH32 0xFF0000000000000000000000000000000000000000FFFFFFFFFFFFFFFFFFFFFF PUSH4 0xFFFFFFFF SWAP3 DUP4 AND PUSH8 0x100000000000000 MUL PUSH11 0xFFFFFFFF00000000000000 NOT SWAP5 SWAP1 SWAP4 AND PUSH4 0x1000000 MUL PUSH7 0xFFFFFFFF000000 NOT SWAP6 DUP14 AND PUSH3 0x10000 MUL PUSH3 0xFF0000 NOT SWAP10 DUP15 AND SWAP1 SWAP13 MUL PUSH2 0xFF00 NOT SWAP8 SWAP1 SWAP14 AND PUSH1 0xFF NOT SWAP1 SWAP11 AND SWAP10 SWAP1 SWAP10 OR SWAP6 SWAP1 SWAP6 AND SWAP11 SWAP1 SWAP11 OR SWAP6 SWAP1 SWAP6 AND SWAP8 SWAP1 SWAP8 OR AND SWAP4 SWAP1 SWAP4 OR SWAP5 SWAP1 SWAP5 AND OR AND SWAP3 SWAP1 SWAP3 OR SWAP1 SSTORE DUP9 SWAP1 PUSH1 0x2 PUSH1 0x8 SWAP2 DUP3 DUP3 DIV ADD SWAP2 SWAP1 MOD PUSH1 0x4 MUL DUP3 DUP3 DUP3 SWAP1 SLOAD SWAP1 PUSH2 0x100 EXP SWAP1 DIV PUSH4 0xFFFFFFFF AND PUSH2 0x2564 SWAP2 SWAP1 PUSH2 0x3553 JUMP JUMPDEST SWAP3 POP PUSH2 0x100 EXP DUP2 SLOAD DUP2 PUSH4 0xFFFFFFFF MUL NOT AND SWAP1 DUP4 PUSH4 0xFFFFFFFF AND MUL OR SWAP1 SSTORE POP PUSH2 0x25C9 PUSH1 0x0 PUSH1 0x1 PUSH1 0x8 DUP2 LT PUSH2 0x25A7 JUMPI PUSH4 0x4E487B71 PUSH1 0xE0 SHL PUSH1 0x0 MSTORE PUSH1 0x32 PUSH1 0x4 MSTORE PUSH1 0x24 PUSH1 0x0 REVERT JUMPDEST PUSH1 0x8 SWAP2 DUP3 DUP3 DIV ADD SWAP2 SWAP1 MOD PUSH1 0x4 MUL SWAP1 SLOAD SWAP1 PUSH2 0x100 EXP SWAP1 DIV PUSH4 0xFFFFFFFF AND DUP5 PUSH2 0x2AA9 JUMP JUMPDEST PUSH1 0x0 DUP1 SLOAD PUSH4 0xFFFFFFFF SWAP3 SWAP1 SWAP3 AND PUSH5 0x100000000 MUL PUSH8 0xFFFFFFFF00000000 NOT SWAP1 SWAP3 AND SWAP2 SWAP1 SWAP2 OR SWAP1 SSTORE DUP8 DUP8 PUSH1 0xFF DUP12 AND PUSH1 0x7 DUP2 LT PUSH2 0x2614 JUMPI PUSH4 0x4E487B71 PUSH1 0xE0 SHL PUSH1 0x0 MSTORE PUSH1 0x32 PUSH1 0x4 MSTORE PUSH1 0x24 PUSH1 0x0 REVERT JUMPDEST PUSH1 0x20 MUL ADD DUP2 DUP2 MLOAD PUSH2 0x2625 SWAP2 SWAP1 PUSH2 0x3553 JUMP JUMPDEST PUSH4 0xFFFFFFFF AND SWAP1 MSTORE POP DUP6 DUP8 PUSH2 0x263B DUP12 PUSH1 0x2 PUSH2 0x3572 JUMP JUMPDEST PUSH1 0xFF AND PUSH1 0x7 DUP2 LT PUSH2 0x265C JUMPI PUSH4 0x4E487B71 PUSH1 0xE0 SHL PUSH1 0x0 MSTORE PUSH1 0x32 PUSH1 0x4 MSTORE PUSH1 0x24 PUSH1 0x0 REVERT JUMPDEST PUSH1 0x20 MUL ADD DUP2 DUP2 MLOAD PUSH2 0x266D SWAP2 SWAP1 PUSH2 0x3553 JUMP JUMPDEST PUSH4 0xFFFFFFFF AND SWAP1 MSTORE POP PUSH1 0x0 PUSH1 0xE0 DUP9 DUP3 PUSH1 0x20 MUL ADD MLOAD PUSH4 0xFFFFFFFF AND SWAP1 SHL OR PUSH1 0xC0 DUP9 PUSH1 0x1 PUSH1 0x20 MUL ADD MLOAD PUSH4 0xFFFFFFFF AND SWAP1 SHL OR PUSH1 0xA0 DUP9 PUSH1 0x2 PUSH1 0x20 MUL ADD MLOAD PUSH4 0xFFFFFFFF AND SWAP1 SHL OR PUSH1 0x80 DUP9 PUSH1 0x3 PUSH1 0x20 MUL ADD MLOAD PUSH4 0xFFFFFFFF AND SWAP1 SHL OR PUSH1 0x40 DUP9 PUSH1 0x4 PUSH1 0x20 MUL ADD MLOAD PUSH4 0xFFFFFFFF AND SWAP1 SHL DUP2 OR SWAP1 POP PUSH1 0x20 DUP9 PUSH1 0x5 PUSH1 0x7 DUP2 LT PUSH2 0x26FC JUMPI PUSH4 0x4E487B71 PUSH1 0xE0 SHL PUSH1 0x0 MSTORE PUSH1 0x32 PUSH1 0x4 MSTORE PUSH1 0x24 PUSH1 0x0 REVERT JUMPDEST PUSH1 0x20 MUL ADD MLOAD PUSH4 0xFFFFFFFF AND SWAP1 SHL OR DUP8 PUSH1 0x6 PUSH1 0x20 MUL ADD MLOAD PUSH4 0xFFFFFFFF AND DUP2 OR SWAP1 POP DUP1 PUSH1 0x1 DUP13 PUSH1 0xFF AND PUSH1 0x20 DUP2 LT PUSH2 0x2741 JUMPI PUSH4 0x4E487B71 PUSH1 0xE0 SHL PUSH1 0x0 MSTORE PUSH1 0x32 PUSH1 0x4 MSTORE PUSH1 0x24 PUSH1 0x0 REVERT JUMPDEST ADD SSTORE PUSH1 0x0 DUP1 SLOAD PUSH1 0x1 PUSH1 0xC0 SHL SWAP1 DIV PUSH4 0xFFFFFFFF AND SWAP1 PUSH1 0x18 PUSH2 0x2760 DUP4 PUSH2 0x37D5 JUMP JUMPDEST SWAP2 SWAP1 PUSH2 0x100 EXP DUP2 SLOAD DUP2 PUSH4 0xFFFFFFFF MUL NOT AND SWAP1 DUP4 PUSH4 0xFFFFFFFF AND MUL OR SWAP1 SSTORE POP POP PUSH1 0x0 PUSH1 0x3 PUSH1 0x8 DUP2 LT PUSH2 0x27A1 JUMPI PUSH4 0x4E487B71 PUSH1 0xE0 SHL PUSH1 0x0 MSTORE PUSH1 0x32 PUSH1 0x4 MSTORE PUSH1 0x24 PUSH1 0x0 REVERT JUMPDEST PUSH1 0x8 SWAP2 DUP3 DUP3 DIV ADD SWAP2 SWAP1 MOD PUSH1 0x4 MUL SWAP1 SLOAD SWAP1 PUSH2 0x100 EXP SWAP1 DIV PUSH4 0xFFFFFFFF AND PUSH1 0xFF AND CALLER PUSH1 0x1 PUSH1 0x1 PUSH1 0xA0 SHL SUB AND PUSH32 0x140ADF89F9ECE20DE08856A1A87E5DDEC46C74E2B3D59152C54EEA9E2945B878 DUP14 DUP14 DUP14 DUP13 DUP10 PUSH1 0x40 MLOAD PUSH2 0x2801 SWAP6 SWAP5 SWAP4 SWAP3 SWAP2 SWAP1 PUSH2 0x3421 JUMP JUMPDEST PUSH1 0x40 MLOAD DUP1 SWAP2 SUB SWAP1 LOG3 POP POP POP POP POP POP POP POP POP POP POP JUMP JUMPDEST PUSH1 0x0 DUP2 DUP2 MSTORE PUSH1 0x22 PUSH1 0x20 MSTORE PUSH1 0x40 SWAP1 KECCAK256 SLOAD PUSH1 0x1 PUSH1 0x58 SHL SWAP1 DIV PUSH1 0x1 PUSH1 0x1 PUSH1 0xA0 SHL SUB AND CALLER EQ PUSH2 0x2853 JUMPI PUSH1 0x40 MLOAD PUSH3 0x461BCD PUSH1 0xE5 SHL DUP2 MSTORE PUSH1 0x4 ADD PUSH2 0x5E2 SWAP1 PUSH2 0x322A JUMP JUMPDEST PUSH1 0x0 DUP2 DUP2 MSTORE PUSH1 0x22 PUSH1 0x20 MSTORE PUSH1 0x40 DUP2 KECCAK256 SLOAD PUSH1 0xFF PUSH3 0x10000 DUP3 DIV DUP2 AND SWAP2 PUSH2 0x287F SWAP2 PUSH2 0x100 SWAP1 SWAP2 DIV AND PUSH1 0xA PUSH2 0x3700 JUMP JUMPDEST PUSH1 0x0 DUP5 DUP2 MSTORE PUSH1 0x22 PUSH1 0x20 MSTORE PUSH1 0x40 SWAP1 KECCAK256 SLOAD PUSH1 0xFF SWAP2 DUP3 AND SWAP2 PUSH2 0x28A1 SWAP2 AND PUSH2 0x3E8 PUSH2 0x3694 JUMP JUMPDEST PUSH2 0x28AB SWAP2 SWAP1 PUSH2 0x3515 JUMP JUMPDEST PUSH2 0x28B5 SWAP2 SWAP1 PUSH2 0x3515 JUMP JUMPDEST PUSH2 0xFFFF AND PUSH1 0x0 DUP2 DUP2 MSTORE PUSH1 0x24 PUSH1 0x20 MSTORE PUSH1 0x40 SWAP1 KECCAK256 SLOAD SWAP1 SWAP2 POP PUSH1 0xFF AND PUSH2 0x28EA JUMPI PUSH1 0x40 MLOAD PUSH3 0x461BCD PUSH1 0xE5 SHL DUP2 MSTORE PUSH1 0x4 ADD PUSH2 0x5E2 SWAP1 PUSH2 0x333D JUMP JUMPDEST PUSH1 0x0 DUP3 DUP2 MSTORE PUSH1 0x22 PUSH1 0x20 SWAP1 DUP2 MSTORE PUSH1 0x40 DUP1 DUP4 KECCAK256 SLOAD PUSH4 0xFFFFFFFF DUP6 DUP2 AND DUP6 MSTORE PUSH1 0x24 SWAP1 SWAP4 MSTORE SWAP3 KECCAK256 SLOAD PUSH4 0x1000000 SWAP1 SWAP3 DIV AND SWAP1 PUSH1 0xFF AND PUSH1 0x2 EQ ISZERO PUSH2 0x2968 JUMPI PUSH1 0x0 DUP4 DUP2 MSTORE PUSH1 0x22 PUSH1 0x20 MSTORE PUSH1 0x40 SWAP1 KECCAK256 SLOAD PUSH1 0x64 SWAP1 PUSH2 0x2951 SWAP1 PUSH8 0x100000000000000 SWAP1 DIV PUSH4 0xFFFFFFFF AND PUSH1 0x5F PUSH2 0x36DD JUMP JUMPDEST PUSH2 0x295B SWAP2 SWAP1 PUSH2 0x35E6 JUMP JUMPDEST PUSH2 0x2965 SWAP1 DUP3 PUSH2 0x3553 JUMP JUMPDEST SWAP1 POP JUMPDEST PUSH1 0x0 DUP4 DUP2 MSTORE PUSH1 0x22 PUSH1 0x20 SWAP1 DUP2 MSTORE PUSH1 0x40 DUP1 DUP4 KECCAK256 DUP1 SLOAD PUSH32 0xFF00000000000000000000000000000000000000000000000000000000000000 AND SWAP1 SSTORE CALLER DUP4 MSTORE PUSH1 0x26 SWAP1 SWAP2 MSTORE DUP2 KECCAK256 DUP1 SLOAD DUP4 SWAP3 SWAP1 PUSH2 0x29BF SWAP1 DUP5 SWAP1 PUSH4 0xFFFFFFFF AND PUSH2 0x3553 JUMP JUMPDEST SWAP3 POP PUSH2 0x100 EXP DUP2 SLOAD DUP2 PUSH4 0xFFFFFFFF MUL NOT AND SWAP1 DUP4 PUSH4 0xFFFFFFFF AND MUL OR SWAP1 SSTORE POP PUSH32 0xEE637EA1FC87312DDB03041E1BDF2955840BCE4531E1242AFE2F0AFF24A6ECC6 CALLER DUP3 PUSH1 0x0 PUSH1 0x3 PUSH1 0x8 DUP2 LT PUSH2 0x2A22 JUMPI PUSH4 0x4E487B71 PUSH1 0xE0 SHL PUSH1 0x0 MSTORE PUSH1 0x32 PUSH1 0x4 MSTORE PUSH1 0x24 PUSH1 0x0 REVERT JUMPDEST PUSH1 0x8 SWAP2 DUP3 DUP3 DIV ADD SWAP2 SWAP1 MOD PUSH1 0x4 MUL SWAP1 SLOAD SWAP1 PUSH2 0x100 EXP SWAP1 DIV PUSH4 0xFFFFFFFF AND PUSH1 0x2 PUSH1 0x40 MLOAD PUSH2 0x1D61 SWAP5 SWAP4 SWAP3 SWAP2 SWAP1 PUSH2 0x2F94 JUMP JUMPDEST PUSH1 0x27 SLOAD PUSH1 0x1 PUSH1 0x1 PUSH1 0xA0 SHL SUB AND DUP2 JUMP JUMPDEST PUSH1 0x0 DUP1 PUSH2 0x2A6C DUP4 DUP6 PUSH2 0x36DD JUMP JUMPDEST SWAP1 POP PUSH4 0xFFFFFFFF DUP4 AND PUSH2 0x2A7F DUP6 DUP4 PUSH2 0x35E6 JUMP JUMPDEST PUSH4 0xFFFFFFFF AND EQ PUSH2 0x2AA2 JUMPI PUSH1 0x40 MLOAD PUSH3 0x461BCD PUSH1 0xE5 SHL DUP2 MSTORE PUSH1 0x4 ADD PUSH2 0x5E2 SWAP1 PUSH2 0x3298 JUMP JUMPDEST SWAP4 SWAP3 POP POP POP JUMP JUMPDEST PUSH1 0x0 DUP1 PUSH1 0x0 DUP4 PUSH1 0x3 SIGNEXTEND SLT ISZERO PUSH2 0x2AFD JUMPI PUSH2 0x2AC1 DUP4 PUSH2 0x37F9 JUMP JUMPDEST PUSH2 0x2ACB SWAP1 DUP6 PUSH2 0x3772 JUMP JUMPDEST SWAP1 POP DUP4 PUSH4 0xFFFFFFFF AND DUP2 PUSH4 0xFFFFFFFF AND LT PUSH2 0x2AF8 JUMPI PUSH1 0x40 MLOAD PUSH3 0x461BCD PUSH1 0xE5 SHL DUP2 MSTORE PUSH1 0x4 ADD PUSH2 0x5E2 SWAP1 PUSH2 0x33AB JUMP JUMPDEST PUSH2 0x2AA2 JUMP JUMPDEST PUSH2 0x2B07 DUP4 DUP6 PUSH2 0x3553 JUMP JUMPDEST SWAP1 POP DUP4 PUSH4 0xFFFFFFFF AND DUP2 PUSH4 0xFFFFFFFF AND LT ISZERO PUSH2 0x2AA2 JUMPI PUSH1 0x40 MLOAD PUSH3 0x461BCD PUSH1 0xE5 SHL DUP2 MSTORE PUSH1 0x4 ADD PUSH2 0x5E2 SWAP1 PUSH2 0x33AB JUMP JUMPDEST PUSH2 0x2B3D PUSH2 0x2C79 JUMP JUMPDEST PUSH1 0xE0 DUP3 SWAP1 SHR DUP2 MSTORE PUSH4 0xFFFFFFFF PUSH1 0xC0 DUP4 DUP2 SHR DUP3 AND PUSH1 0x20 DUP1 DUP6 ADD SWAP2 SWAP1 SWAP2 MSTORE PUSH1 0xA0 DUP6 DUP2 SHR DUP5 AND PUSH1 0x40 DUP1 DUP8 ADD SWAP2 SWAP1 SWAP2 MSTORE PUSH1 0x80 DUP8 DUP2 SHR DUP7 AND PUSH1 0x60 DUP9 ADD MSTORE SWAP1 DUP8 SWAP1 SHR DUP6 AND SWAP1 DUP7 ADD MSTORE SWAP1 DUP6 SWAP1 SHR DUP4 AND SWAP1 DUP5 ADD MSTORE SWAP3 AND SWAP2 DUP2 ADD SWAP2 SWAP1 SWAP2 MSTORE SWAP1 JUMP JUMPDEST PUSH1 0x0 DUP1 DUP3 PUSH1 0x3 SIGNEXTEND DUP5 PUSH1 0x3 SIGNEXTEND SLT ISZERO PUSH2 0x2BAC JUMPI DUP3 PUSH2 0x2BAE JUMP JUMPDEST DUP4 JUMPDEST SWAP1 POP PUSH1 0x0 DUP2 PUSH1 0x3 SIGNEXTEND SGT PUSH2 0x2AA2 JUMPI POP PUSH1 0x0 SWAP4 SWAP3 POP POP POP JUMP JUMPDEST DUP3 PUSH1 0x20 DUP2 ADD SWAP3 DUP3 ISZERO PUSH2 0x2C03 JUMPI SWAP2 PUSH1 0x20 MUL DUP3 ADD JUMPDEST DUP3 DUP2 GT ISZERO PUSH2 0x2C03 JUMPI DUP3 MLOAD DUP3 SWAP1 PUSH12 0xFFFFFFFFFFFFFFFFFFFFFFFF AND SWAP1 SSTORE SWAP2 PUSH1 0x20 ADD SWAP2 SWAP1 PUSH1 0x1 ADD SWAP1 PUSH2 0x2BD8 JUMP JUMPDEST POP PUSH2 0x2C0F SWAP3 SWAP2 POP PUSH2 0x2C97 JUMP JUMPDEST POP SWAP1 JUMP JUMPDEST POP PUSH2 0x2C22 SWAP1 PUSH1 0x20 DUP2 ADD SWAP1 PUSH2 0x2C97 JUMP JUMPDEST POP JUMP JUMPDEST PUSH1 0x40 MLOAD DUP1 PUSH2 0x400 ADD PUSH1 0x40 MSTORE DUP1 PUSH1 0x20 SWAP1 PUSH1 0x20 DUP3 MUL DUP1 CALLDATASIZE DUP4 CALLDATACOPY POP SWAP2 SWAP3 SWAP2 POP POP JUMP JUMPDEST PUSH1 0x40 DUP1 MLOAD PUSH1 0xC0 DUP2 ADD DUP3 MSTORE PUSH1 0x0 DUP1 DUP3 MSTORE PUSH1 0x20 DUP3 ADD DUP2 SWAP1 MSTORE SWAP2 DUP2 ADD DUP3 SWAP1 MSTORE PUSH1 0x60 DUP2 ADD DUP3 SWAP1 MSTORE PUSH1 0x80 DUP2 ADD DUP3 SWAP1 MSTORE PUSH1 0xA0 DUP2 ADD SWAP2 SWAP1 SWAP2 MSTORE SWAP1 JUMP JUMPDEST PUSH1 0x40 MLOAD DUP1 PUSH1 0xE0 ADD PUSH1 0x40 MSTORE DUP1 PUSH1 0x7 SWAP1 PUSH1 0x20 DUP3 MUL DUP1 CALLDATASIZE DUP4 CALLDATACOPY POP SWAP2 SWAP3 SWAP2 POP POP JUMP JUMPDEST JUMPDEST DUP1 DUP3 GT ISZERO PUSH2 0x2C0F JUMPI PUSH1 0x0 DUP2 SSTORE PUSH1 0x1 ADD PUSH2 0x2C98 JUMP JUMPDEST DUP1 CALLDATALOAD PUSH4 0xFFFFFFFF DUP2 AND DUP2 EQ PUSH2 0x1B65 JUMPI PUSH1 0x0 DUP1 REVERT JUMPDEST DUP1 CALLDATALOAD PUSH1 0xFF DUP2 AND DUP2 EQ PUSH2 0x1B65 JUMPI PUSH1 0x0 DUP1 REVERT JUMPDEST PUSH1 0x0 PUSH1 0x20 DUP3 DUP5 SUB SLT ISZERO PUSH2 0x2CE2 JUMPI DUP1 DUP2 REVERT JUMPDEST DUP2 CALLDATALOAD PUSH2 0x2AA2 DUP2 PUSH2 0x3847 JUMP JUMPDEST PUSH1 0x0 PUSH2 0x400 DUP1 DUP4 DUP6 SUB SLT ISZERO PUSH2 0x2D00 JUMPI DUP2 DUP3 REVERT JUMPDEST DUP4 PUSH1 0x1F DUP5 ADD SLT PUSH2 0x2D0E JUMPI DUP2 DUP3 REVERT JUMPDEST PUSH2 0x2D17 DUP2 PUSH2 0x3495 JUMP JUMPDEST DUP1 DUP5 DUP7 DUP5 DUP8 ADD GT ISZERO PUSH2 0x2D27 JUMPI DUP5 DUP6 REVERT JUMPDEST DUP5 SWAP4 POP JUMPDEST PUSH1 0x20 DUP1 DUP6 LT PUSH2 0x2D3A JUMPI POP PUSH2 0x2D64 JUMP JUMPDEST DUP2 CALLDATALOAD PUSH8 0xFFFFFFFFFFFFFFFF DUP2 AND DUP2 EQ PUSH2 0x2D51 JUMPI DUP7 DUP8 REVERT JUMPDEST DUP5 MSTORE PUSH1 0x1 SWAP5 SWAP1 SWAP5 ADD SWAP4 SWAP3 DUP4 ADD SWAP3 ADD PUSH2 0x2D2B JUMP JUMPDEST POP SWAP6 SWAP5 POP POP POP POP POP JUMP JUMPDEST PUSH1 0x0 PUSH2 0x400 DUP1 DUP4 DUP6 SUB SLT ISZERO PUSH2 0x2D81 JUMPI DUP2 DUP3 REVERT JUMPDEST DUP4 PUSH1 0x1F DUP5 ADD SLT PUSH2 0x2D8F JUMPI DUP2 DUP3 REVERT JUMPDEST PUSH2 0x2D98 DUP2 PUSH2 0x3495 JUMP JUMPDEST DUP1 DUP5 DUP7 DUP5 DUP8 ADD GT ISZERO PUSH2 0x2DA8 JUMPI DUP5 DUP6 REVERT JUMPDEST DUP5 SWAP4 POP JUMPDEST PUSH1 0x20 DUP1 DUP6 LT PUSH2 0x2DBB JUMPI POP PUSH2 0x2D64 JUMP JUMPDEST PUSH2 0x2DC4 DUP3 PUSH2 0x2CC0 JUMP JUMPDEST DUP5 MSTORE PUSH1 0x1 SWAP5 SWAP1 SWAP5 ADD SWAP4 SWAP3 DUP4 ADD SWAP3 ADD PUSH2 0x2DAC JUMP JUMPDEST PUSH1 0x0 PUSH2 0x400 DUP1 DUP4 DUP6 SUB SLT ISZERO PUSH2 0x2DEA JUMPI DUP2 DUP3 REVERT JUMPDEST DUP4 PUSH1 0x1F DUP5 ADD SLT PUSH2 0x2DF8 JUMPI DUP2 DUP3 REVERT JUMPDEST PUSH2 0x2E01 DUP2 PUSH2 0x3495 JUMP JUMPDEST DUP1 DUP5 DUP7 DUP5 DUP8 ADD GT ISZERO PUSH2 0x2E11 JUMPI DUP5 DUP6 REVERT JUMPDEST DUP5 SWAP4 POP JUMPDEST PUSH1 0x20 DUP1 DUP6 LT PUSH2 0x2E24 JUMPI POP PUSH2 0x2D64 JUMP JUMPDEST DUP2 CALLDATALOAD PUSH12 0xFFFFFFFFFFFFFFFFFFFFFFFF DUP2 AND DUP2 EQ PUSH2 0x2E3F JUMPI DUP7 DUP8 REVERT JUMPDEST DUP5 MSTORE PUSH1 0x1 SWAP5 SWAP1 SWAP5 ADD SWAP4 SWAP3 DUP4 ADD SWAP3 ADD PUSH2 0x2E15 JUMP JUMPDEST PUSH1 0x0 PUSH1 0x20 DUP3 DUP5 SUB SLT ISZERO PUSH2 0x2E63 JUMPI DUP1 DUP2 REVERT JUMPDEST POP CALLDATALOAD SWAP2 SWAP1 POP JUMP JUMPDEST PUSH1 0x0 PUSH1 0x20 DUP3 DUP5 SUB SLT ISZERO PUSH2 0x2E7B JUMPI DUP1 DUP2 REVERT JUMPDEST PUSH2 0x2AA2 DUP3 PUSH2 0x2CAC JUMP JUMPDEST PUSH1 0x0 DUP1 PUSH1 0x0 PUSH1 0x60 DUP5 DUP7 SUB SLT ISZERO PUSH2 0x2E98 JUMPI DUP2 DUP3 REVERT JUMPDEST PUSH2 0x2EA1 DUP5 PUSH2 0x2CC0 JUMP JUMPDEST SWAP3 POP PUSH2 0x2EAF PUSH1 0x20 DUP6 ADD PUSH2 0x2CC0 JUMP JUMPDEST SWAP2 POP PUSH2 0x2EBD PUSH1 0x40 DUP6 ADD PUSH2 0x2CAC JUMP JUMPDEST SWAP1 POP SWAP3 POP SWAP3 POP SWAP3 JUMP JUMPDEST PUSH1 0x0 DUP1 PUSH1 0x0 DUP1 PUSH1 0x80 DUP6 DUP8 SUB SLT ISZERO PUSH2 0x2EDB JUMPI DUP1 DUP2 REVERT JUMPDEST PUSH2 0x2EE4 DUP6 PUSH2 0x2CC0 JUMP JUMPDEST SWAP4 POP PUSH2 0x2EF2 PUSH1 0x20 DUP7 ADD PUSH2 0x2CC0 JUMP JUMPDEST SWAP3 POP PUSH2 0x2F00 PUSH1 0x40 DUP7 ADD PUSH2 0x2CAC JUMP JUMPDEST SWAP2 POP PUSH2 0x2F0E PUSH1 0x60 DUP7 ADD PUSH2 0x2CAC JUMP JUMPDEST SWAP1 POP SWAP3 SWAP6 SWAP2 SWAP5 POP SWAP3 POP JUMP JUMPDEST SWAP1 JUMP JUMPDEST PUSH1 0xE0 SWAP3 SWAP1 SWAP3 SHL PUSH32 0xFFFFFFFF00000000000000000000000000000000000000000000000000000000 AND DUP3 MSTORE PUSH1 0x4 DUP3 ADD MSTORE PUSH1 0x24 ADD SWAP1 JUMP JUMPDEST PUSH1 0x1 PUSH1 0x1 PUSH1 0xA0 SHL SUB SWAP2 SWAP1 SWAP2 AND DUP2 MSTORE PUSH1 0x20 ADD SWAP1 JUMP JUMPDEST PUSH1 0x1 PUSH1 0x1 PUSH1 0xA0 SHL SUB SWAP5 SWAP1 SWAP5 AND DUP5 MSTORE PUSH1 0x20 DUP5 ADD SWAP3 SWAP1 SWAP3 MSTORE PUSH4 0xFFFFFFFF SWAP1 DUP2 AND PUSH1 0x40 DUP5 ADD MSTORE AND PUSH1 0x60 DUP3 ADD MSTORE PUSH1 0x80 ADD SWAP1 JUMP JUMPDEST PUSH1 0x1 PUSH1 0x1 PUSH1 0xA0 SHL SUB SWAP5 SWAP1 SWAP5 AND DUP5 MSTORE PUSH4 0xFFFFFFFF SWAP3 DUP4 AND PUSH1 0x20 DUP6 ADD MSTORE SWAP1 DUP3 AND PUSH1 0x40 DUP5 ADD MSTORE AND PUSH1 0x60 DUP3 ADD MSTORE PUSH1 0x80 ADD SWAP1 JUMP JUMPDEST PUSH2 0x400 DUP2 ADD DUP2 DUP4 PUSH1 0x0 JUMPDEST PUSH1 0x20 DUP1 DUP3 LT PUSH2 0x2FDC JUMPI POP PUSH2 0x2FF0 JUMP JUMPDEST DUP3 MLOAD DUP5 MSTORE SWAP3 DUP4 ADD SWAP3 SWAP1 SWAP2 ADD SWAP1 PUSH1 0x1 ADD PUSH2 0x2FCD JUMP JUMPDEST POP POP POP SWAP3 SWAP2 POP POP JUMP JUMPDEST SWAP1 ISZERO ISZERO DUP2 MSTORE PUSH1 0x20 ADD SWAP1 JUMP JUMPDEST PUSH1 0x20 DUP1 DUP3 MSTORE PUSH1 0xB SWAP1 DUP3 ADD MSTORE PUSH32 0x43616C6C206661696C6564000000000000000000000000000000000000000000 PUSH1 0x40 DUP3 ADD MSTORE PUSH1 0x60 ADD SWAP1 JUMP JUMPDEST PUSH1 0x20 DUP1 DUP3 MSTORE PUSH1 0xC SWAP1 DUP3 ADD MSTORE PUSH32 0x696E76616C6964206F6464730000000000000000000000000000000000000000 PUSH1 0x40 DUP3 ADD MSTORE PUSH1 0x60 ADD SWAP1 JUMP JUMPDEST PUSH1 0x20 DUP1 DUP3 MSTORE PUSH1 0x1E SWAP1 DUP3 ADD MSTORE PUSH32 0x62657473697A65206F76657220756E706C6564676564206361706974616C0000 PUSH1 0x40 DUP3 ADD MSTORE PUSH1 0x60 ADD SWAP1 JUMP JUMPDEST PUSH1 0x20 DUP1 DUP3 MSTORE PUSH1 0x12 SWAP1 DUP3 ADD MSTORE PUSH32 0x62657473697A65206F766572206C696D69740000000000000000000000000000 PUSH1 0x40 DUP3 ADD MSTORE PUSH1 0x60 ADD SWAP1 JUMP JUMPDEST PUSH1 0x20 DUP1 DUP3 MSTORE PUSH1 0x8 SWAP1 DUP3 ADD MSTORE PUSH32 0x746F6F20736F6F6E000000000000000000000000000000000000000000000000 PUSH1 0x40 DUP3 ADD MSTORE PUSH1 0x60 ADD SWAP1 JUMP JUMPDEST PUSH1 0x20 DUP1 DUP3 MSTORE PUSH1 0x4 SWAP1 DUP3 ADD MSTORE PUSH32 0x4E53462000000000000000000000000000000000000000000000000000000000 PUSH1 0x40 DUP3 ADD MSTORE PUSH1 0x60 ADD SWAP1 JUMP JUMPDEST PUSH1 0x20 DUP1 DUP3 MSTORE PUSH1 0x19 SWAP1 DUP3 ADD MSTORE PUSH32 0x6F6E6C79207072696F7220746F206669727374206576656E7400000000000000 PUSH1 0x40 DUP3 ADD MSTORE PUSH1 0x60 ADD SWAP1 JUMP JUMPDEST PUSH1 0x20 DUP1 DUP3 MSTORE PUSH1 0x9 SWAP1 DUP3 ADD MSTORE PUSH32 0x636F6E634C696D69740000000000000000000000000000000000000000000000 PUSH1 0x40 DUP3 ADD MSTORE PUSH1 0x60 ADD SWAP1 JUMP JUMPDEST PUSH1 0x20 DUP1 DUP3 MSTORE PUSH1 0x1B SWAP1 DUP3 ADD MSTORE PUSH32 0x67616D652073746172746564206F72206E6F7420706C6179696E670000000000 PUSH1 0x40 DUP3 ADD MSTORE PUSH1 0x60 ADD SWAP1 JUMP JUMPDEST PUSH1 0x20 DUP1 DUP3 MSTORE PUSH1 0x3 SWAP1 DUP3 ADD MSTORE PUSH32 0x4E53460000000000000000000000000000000000000000000000000000000000 PUSH1 0x40 DUP3 ADD MSTORE PUSH1 0x60 ADD SWAP1 JUMP JUMPDEST PUSH1 0x20 DUP1 DUP3 MSTORE PUSH1 0xD SWAP1 DUP3 ADD MSTORE PUSH32 0x77726F6E67206163636F756E7400000000000000000000000000000000000000 PUSH1 0x40 DUP3 ADD MSTORE PUSH1 0x60 ADD SWAP1 JUMP JUMPDEST PUSH1 0x20 DUP1 DUP3 MSTORE PUSH1 0x9 SWAP1 DUP3 ADD MSTORE PUSH32 0x4F6E6C79206F6E63650000000000000000000000000000000000000000000000 PUSH1 0x40 DUP3 ADD MSTORE PUSH1 0x60 ADD SWAP1 JUMP JUMPDEST PUSH1 0x20 DUP1 DUP3 MSTORE PUSH1 0xD SWAP1 DUP3 ADD MSTORE PUSH32 0x6D756C74206F766572666C6F7700000000000000000000000000000000000000 PUSH1 0x40 DUP3 ADD MSTORE PUSH1 0x60 ADD SWAP1 JUMP JUMPDEST PUSH1 0x20 DUP1 DUP3 MSTORE PUSH1 0xC SWAP1 DUP3 ADD MSTORE PUSH32 0x67616D6520737461727465640000000000000000000000000000000000000000 PUSH1 0x40 DUP3 ADD MSTORE PUSH1 0x60 ADD SWAP1 JUMP JUMPDEST PUSH1 0x20 DUP1 DUP3 MSTORE PUSH1 0x19 SWAP1 DUP3 ADD MSTORE PUSH32 0x696E73756666696369656E742066726565206361706974616C00000000000000 PUSH1 0x40 DUP3 ADD MSTORE PUSH1 0x60 ADD SWAP1 JUMP JUMPDEST PUSH1 0x20 DUP1 DUP3 MSTORE PUSH1 0xF SWAP1 DUP3 ADD MSTORE PUSH32 0x6E6565642077696E206F72207469650000000000000000000000000000000000 PUSH1 0x40 DUP3 ADD MSTORE PUSH1 0x60 ADD SWAP1 JUMP JUMPDEST PUSH1 0x20 DUP1 DUP3 MSTORE PUSH1 0xB SWAP1 DUP3 ADD MSTORE PUSH32 0x6578706972656420626574000000000000000000000000000000000000000000 PUSH1 0x40 DUP3 ADD MSTORE PUSH1 0x60 ADD SWAP1 JUMP JUMPDEST PUSH1 0x20 DUP1 DUP3 MSTORE PUSH1 0x8 SWAP1 DUP3 ADD MSTORE PUSH32 0x6F766572666C6F77000000000000000000000000000000000000000000000000 PUSH1 0x40 DUP3 ADD MSTORE PUSH1 0x60 ADD SWAP1 JUMP JUMPDEST SWAP1 DUP2 MSTORE PUSH1 0x20 ADD SWAP1 JUMP JUMPDEST PUSH4 0xFFFFFFFF SWAP2 SWAP1 SWAP2 AND DUP2 MSTORE PUSH1 0x20 ADD SWAP1 JUMP JUMPDEST PUSH4 0xFFFFFFFF SWAP3 DUP4 AND DUP2 MSTORE SWAP2 AND PUSH1 0x20 DUP3 ADD MSTORE PUSH1 0x40 ADD SWAP1 JUMP JUMPDEST PUSH1 0xFF SWAP2 SWAP1 SWAP2 AND DUP2 MSTORE PUSH1 0x20 ADD SWAP1 JUMP JUMPDEST PUSH1 0xFF SWAP6 DUP7 AND DUP2 MSTORE SWAP4 SWAP1 SWAP5 AND PUSH1 0x20 DUP5 ADD MSTORE PUSH4 0xFFFFFFFF SWAP2 DUP3 AND PUSH1 0x40 DUP5 ADD MSTORE AND PUSH1 0x60 DUP3 ADD MSTORE PUSH1 0x80 DUP2 ADD SWAP2 SWAP1 SWAP2 MSTORE PUSH1 0xA0 ADD SWAP1 JUMP JUMPDEST PUSH1 0xFF SWAP7 DUP8 AND DUP2 MSTORE SWAP5 DUP7 AND PUSH1 0x20 DUP7 ADD MSTORE SWAP3 SWAP1 SWAP5 AND PUSH1 0x40 DUP5 ADD MSTORE PUSH4 0xFFFFFFFF SWAP1 DUP2 AND PUSH1 0x60 DUP5 ADD MSTORE SWAP1 SWAP3 AND PUSH1 0x80 DUP3 ADD MSTORE PUSH1 0x1 PUSH1 0x1 PUSH1 0xA0 SHL SUB SWAP1 SWAP2 AND PUSH1 0xA0 DUP3 ADD MSTORE PUSH1 0xC0 ADD SWAP1 JUMP JUMPDEST PUSH1 0x40 MLOAD DUP2 DUP2 ADD PUSH8 0xFFFFFFFFFFFFFFFF DUP2 GT DUP3 DUP3 LT OR ISZERO PUSH2 0x34C5 JUMPI PUSH4 0x4E487B71 PUSH1 0xE0 SHL PUSH1 0x0 MSTORE PUSH1 0x41 PUSH1 0x4 MSTORE PUSH1 0x24 PUSH1 0x0 REVERT JUMPDEST PUSH1 0x40 MSTORE SWAP2 SWAP1 POP JUMP JUMPDEST PUSH1 0x0 DUP2 PUSH1 0x3 SIGNEXTEND DUP4 PUSH1 0x3 SIGNEXTEND DUP3 DUP3 SLT DUP3 PUSH4 0x7FFFFFFF SUB DUP3 SGT DUP2 ISZERO AND ISZERO PUSH2 0x34F3 JUMPI PUSH2 0x34F3 PUSH2 0x381B JUMP JUMPDEST DUP3 PUSH4 0x7FFFFFFF NOT SUB DUP3 SLT DUP2 AND ISZERO PUSH2 0x350C JUMPI PUSH2 0x350C PUSH2 0x381B JUMP JUMPDEST POP ADD SWAP4 SWAP3 POP POP POP JUMP JUMPDEST PUSH1 0x0 PUSH2 0xFFFF DUP1 DUP4 AND DUP2 DUP6 AND DUP1 DUP4 SUB DUP3 GT ISZERO PUSH2 0x3532 JUMPI PUSH2 0x3532 PUSH2 0x381B JUMP JUMPDEST ADD SWAP5 SWAP4 POP POP POP POP JUMP JUMPDEST PUSH1 0x0 DUP3 NOT DUP3 GT ISZERO PUSH2 0x354E JUMPI PUSH2 0x354E PUSH2 0x381B JUMP JUMPDEST POP ADD SWAP1 JUMP JUMPDEST PUSH1 0x0 PUSH4 0xFFFFFFFF DUP1 DUP4 AND DUP2 DUP6 AND DUP1 DUP4 SUB DUP3 GT ISZERO PUSH2 0x3532 JUMPI PUSH2 0x3532 PUSH2 0x381B JUMP JUMPDEST PUSH1 0x0 PUSH1 0xFF DUP3 AND PUSH1 0xFF DUP5 AND DUP1 PUSH1 0xFF SUB DUP3 GT ISZERO PUSH2 0x358F JUMPI PUSH2 0x358F PUSH2 0x381B JUMP JUMPDEST ADD SWAP4 SWAP3 POP POP POP JUMP JUMPDEST PUSH1 0x0 DUP2 PUSH1 0x3 SIGNEXTEND DUP4 PUSH1 0x3 SIGNEXTEND DUP1 PUSH2 0x35AE JUMPI PUSH2 0x35AE PUSH2 0x3831 JUMP JUMPDEST PUSH1 0x0 NOT DUP2 EQ PUSH4 0x7FFFFFFF NOT DUP4 EQ AND ISZERO PUSH2 0x35C9 JUMPI PUSH2 0x35C9 PUSH2 0x381B JUMP JUMPDEST SWAP1 SDIV SWAP4 SWAP3 POP POP POP JUMP JUMPDEST PUSH1 0x0 DUP3 PUSH2 0x35E1 JUMPI PUSH2 0x35E1 PUSH2 0x3831 JUMP JUMPDEST POP DIV SWAP1 JUMP JUMPDEST PUSH1 0x0 PUSH4 0xFFFFFFFF DUP1 DUP5 AND DUP1 PUSH2 0x35FD JUMPI PUSH2 0x35FD PUSH2 0x3831 JUMP JUMPDEST SWAP3 AND SWAP2 SWAP1 SWAP2 DIV SWAP3 SWAP2 POP POP JUMP JUMPDEST PUSH1 0x0 DUP2 PUSH1 0x3 SIGNEXTEND DUP4 PUSH1 0x3 SIGNEXTEND PUSH4 0x7FFFFFFF DUP4 DUP3 SGT DUP5 DUP5 SGT DUP4 DUP4 DIV DUP6 GT DUP3 DUP3 AND AND ISZERO PUSH2 0x3634 JUMPI PUSH2 0x3634 PUSH2 0x381B JUMP JUMPDEST PUSH4 0x7FFFFFFF NOT DUP7 DUP6 SLT DUP7 DUP3 SDIV DUP7 SLT DUP2 DUP5 AND AND ISZERO PUSH2 0x3653 JUMPI PUSH2 0x3653 PUSH2 0x381B JUMP JUMPDEST DUP8 DUP8 SLT SWAP3 POP DUP6 DUP3 SDIV DUP8 SLT DUP5 DUP5 AND AND ISZERO PUSH2 0x366E JUMPI PUSH2 0x366E PUSH2 0x381B JUMP JUMPDEST DUP6 DUP6 SDIV DUP8 SLT DUP2 DUP5 AND AND ISZERO PUSH2 0x3684 JUMPI PUSH2 0x3684 PUSH2 0x381B JUMP JUMPDEST POP POP POP SWAP3 SWAP1 SWAP2 MUL SWAP6 SWAP5 POP POP POP POP POP JUMP JUMPDEST PUSH1 0x0 PUSH2 0xFFFF DUP1 DUP4 AND DUP2 DUP6 AND DUP2 DUP4 DIV DUP2 GT DUP3 ISZERO ISZERO AND ISZERO PUSH2 0x36B5 JUMPI PUSH2 0x36B5 PUSH2 0x381B JUMP JUMPDEST MUL SWAP5 SWAP4 POP POP POP POP JUMP JUMPDEST PUSH1 0x0 DUP2 PUSH1 0x0 NOT DIV DUP4 GT DUP3 ISZERO ISZERO AND ISZERO PUSH2 0x36D8 JUMPI PUSH2 0x36D8 PUSH2 0x381B JUMP JUMPDEST POP MUL SWAP1 JUMP JUMPDEST PUSH1 0x0 PUSH4 0xFFFFFFFF DUP1 DUP4 AND DUP2 DUP6 AND DUP2 DUP4 DIV DUP2 GT DUP3 ISZERO ISZERO AND ISZERO PUSH2 0x36B5 JUMPI PUSH2 0x36B5 PUSH2 0x381B JUMP JUMPDEST PUSH1 0x0 PUSH1 0xFF DUP3 AND PUSH1 0xFF DUP5 AND DUP2 PUSH1 0xFF DIV DUP2 GT DUP3 ISZERO ISZERO AND ISZERO PUSH2 0x3721 JUMPI PUSH2 0x3721 PUSH2 0x381B JUMP JUMPDEST MUL SWAP4 SWAP3 POP POP POP JUMP JUMPDEST PUSH1 0x0 DUP2 PUSH1 0x3 SIGNEXTEND DUP4 PUSH1 0x3 SIGNEXTEND DUP3 DUP2 SLT DUP2 PUSH4 0x7FFFFFFF NOT ADD DUP4 SLT DUP2 ISZERO AND ISZERO PUSH2 0x3750 JUMPI PUSH2 0x3750 PUSH2 0x381B JUMP JUMPDEST DUP2 PUSH4 0x7FFFFFFF ADD DUP4 SGT DUP2 AND ISZERO PUSH2 0x3768 JUMPI PUSH2 0x3768 PUSH2 0x381B JUMP JUMPDEST POP SWAP1 SUB SWAP4 SWAP3 POP POP POP JUMP JUMPDEST PUSH1 0x0 PUSH4 0xFFFFFFFF DUP4 DUP2 AND SWAP1 DUP4 AND DUP2 DUP2 LT ISZERO PUSH2 0x378F JUMPI PUSH2 0x378F PUSH2 0x381B JUMP JUMPDEST SUB SWAP4 SWAP3 POP POP POP JUMP JUMPDEST PUSH1 0x0 PUSH1 0xFF DUP3 AND PUSH1 0xFF DUP5 AND DUP1 DUP3 LT ISZERO PUSH2 0x37B1 JUMPI PUSH2 0x37B1 PUSH2 0x381B JUMP JUMPDEST SWAP1 SUB SWAP4 SWAP3 POP POP POP JUMP JUMPDEST PUSH1 0x0 PUSH1 0x0 NOT DUP3 EQ ISZERO PUSH2 0x37CE JUMPI PUSH2 0x37CE PUSH2 0x381B JUMP JUMPDEST POP PUSH1 0x1 ADD SWAP1 JUMP JUMPDEST PUSH1 0x0 PUSH4 0xFFFFFFFF DUP1 DUP4 AND DUP2 DUP2 EQ ISZERO PUSH2 0x37EF JUMPI PUSH2 0x37EF PUSH2 0x381B JUMP JUMPDEST PUSH1 0x1 ADD SWAP4 SWAP3 POP POP POP JUMP JUMPDEST PUSH1 0x0 DUP2 PUSH1 0x3 SIGNEXTEND PUSH4 0x7FFFFFFF NOT DUP2 EQ ISZERO PUSH2 0x3814 JUMPI PUSH2 0x3814 PUSH2 0x381B JUMP JUMPDEST SWAP1 SUB SWAP2 SWAP1 POP JUMP JUMPDEST PUSH4 0x4E487B71 PUSH1 0xE0 SHL PUSH1 0x0 MSTORE PUSH1 0x11 PUSH1 0x4 MSTORE PUSH1 0x24 PUSH1 0x0 REVERT JUMPDEST PUSH4 0x4E487B71 PUSH1 0xE0 SHL PUSH1 0x0 MSTORE PUSH1 0x12 PUSH1 0x4 MSTORE PUSH1 0x24 PUSH1 0x0 REVERT JUMPDEST PUSH1 0x1 PUSH1 0x1 PUSH1 0xA0 SHL SUB DUP2 AND DUP2 EQ PUSH2 0x2C22 JUMPI PUSH1 0x0 DUP1 REVERT INVALID LOG2 PUSH5 0x6970667358 0x22 SLT KECCAK256 0xC5 0x2A 0x1E 0xDE DUP10 NUMBER ORIGIN SHR SWAP4 PUSH13 0xEBD3EFBE175753B9D0A7531AA5 PUSH31 0x3AC32A4AE34C364F64736F6C63430008000033000000000000000000000000 "},"methodIdentifiers":{"FUTURE_START()":"bca8e63e","ORACLE_5PERC()":"03c2404e","UNITS_TRANS14()":"3f68f1a1","adjustParams(uint32)":"654e207f","bet(uint8,uint8,uint32)":"eaa2f6cf","betContracts(bytes32)":"7d6f0100","betData(uint256)":"4e456676","cancelBigBet(bytes32)":"5ca37161","checkOffer(bytes32)":"9e33670c","checkRedeem(bytes32)":"be73205a","fundBettor()":"13d11623","fundBook()":"03e95abf","lpStruct(address)":"cae7af61","margin(uint256)":"45f29686","offerContracts(bytes32)":"6b857267","oracleAdmin()":"dea5e6e8","outcomeMap(uint32)":"d8aff90e","postBigBet(uint8,uint8,uint32,uint32)":"8f95a933","redeem(bytes32)":"eda1122c","setOracleAddress(address)":"4c69c00f","settle(uint8[32])":"0c26f994","showBetData()":"26035fcf","takeBigBet(bytes32)":"493481bb","token()":"fc0c546a","transmitInit(uint96[32])":"0c05cbb7","transmitUpdate(uint64[32])":"6c597579","userBalance(address)":"0103c92b","withdrawBettor(uint32)":"cf9ef50e","withdrawBook(uint32)":"e176aabf"}}}}}