{"src/contracts/solidity/Bbb.sol":{"Bbb":{"abi":[{"inputs":[],"stateMutability":"nonpayable","type":"constructor"},{"inputs":[],"name":"paramsb","outputs":[{"internalType":"uint256","name":"","type":"uint256"}],"stateMutability":"view","type":"function"},{"inputs":[{"internalType":"uint256","name":"_params","type":"uint256"}],"name":"pullGet","outputs":[{"internalType":"uint256","name":"a","type":"uint256"},{"internalType":"uint32","name":"b","type":"uint32"}],"stateMutability":"nonpayable","type":"function"},{"inputs":[{"internalType":"uint256","name":"_params","type":"uint256"}],"name":"pullOnly","outputs":[],"stateMutability":"nonpayable","type":"function"},{"inputs":[{"internalType":"uint256","name":"_params","type":"uint256"}],"name":"pullPay","outputs":[],"stateMutability":"nonpayable","type":"function"},{"inputs":[],"name":"seeBalance","outputs":[{"internalType":"uint256","name":"ethHere","type":"uint256"}],"stateMutability":"view","type":"function"},{"inputs":[],"name":"sendEth","outputs":[],"stateMutability":"payable","type":"function"},{"stateMutability":"payable","type":"receive"}],"evm":{"bytecode":{"linkReferences":{},"object":"608060405234801561001057600080fd5b5061026c806100206000396000f3fe6080604052600436106100695760003560e01c806336b80cc51161004357806336b80cc5146100d8578063429a1bb0146100f8578063564d3ffb1461010d57610070565b806306e99fef146100755780631360c2691461007f57806325fe6ba0146100aa57610070565b3661007057005b600080fd5b61007d61012d565b005b34801561008b57600080fd5b5061009461012f565b6040516100a191906101dc565b60405180910390f35b3480156100b657600080fd5b506100ca6100c53660046101c1565b610135565b6040516100a19291906101e5565b3480156100e457600080fd5b5061007d6100f33660046101c1565b61014e565b34801561010457600080fd5b50610094610153565b34801561011957600080fd5b5061007d6101283660046101c1565b610157565b565b60005481565b600081815581906101478260036101f9565b9050915091565b600055565b4790565b6000818155604051339060639061016d906101d9565b60006040518083038185875af1925050503d80600081146101aa576040519150601f19603f3d011682016040523d82523d6000602084013e6101af565b606091505b50509050806101bd57600080fd5b5050565b6000602082840312156101d2578081fd5b5035919050565b90565b90815260200190565b91825263ffffffff16602082015260400190565b60008219821115610231577f4e487b710000000000000000000000000000000000000000000000000000000081526011600452602481fd5b50019056fea26469706673582212206be14105169a350cd38587fa172e0cef0282d046aa38a236838650b9965bf7c764736f6c63430008000033","opcodes":"PUSH1 0x80 PUSH1 0x40 MSTORE CALLVALUE DUP1 ISZERO PUSH2 0x10 JUMPI PUSH1 0x0 DUP1 REVERT JUMPDEST POP PUSH2 0x26C DUP1 PUSH2 0x20 PUSH1 0x0 CODECOPY PUSH1 0x0 RETURN INVALID PUSH1 0x80 PUSH1 0x40 MSTORE PUSH1 0x4 CALLDATASIZE LT PUSH2 0x69 JUMPI PUSH1 0x0 CALLDATALOAD PUSH1 0xE0 SHR DUP1 PUSH4 0x36B80CC5 GT PUSH2 0x43 JUMPI DUP1 PUSH4 0x36B80CC5 EQ PUSH2 0xD8 JUMPI DUP1 PUSH4 0x429A1BB0 EQ PUSH2 0xF8 JUMPI DUP1 PUSH4 0x564D3FFB EQ PUSH2 0x10D JUMPI PUSH2 0x70 JUMP JUMPDEST DUP1 PUSH4 0x6E99FEF EQ PUSH2 0x75 JUMPI DUP1 PUSH4 0x1360C269 EQ PUSH2 0x7F JUMPI DUP1 PUSH4 0x25FE6BA0 EQ PUSH2 0xAA JUMPI PUSH2 0x70 JUMP JUMPDEST CALLDATASIZE PUSH2 0x70 JUMPI STOP JUMPDEST PUSH1 0x0 DUP1 REVERT JUMPDEST PUSH2 0x7D PUSH2 0x12D JUMP JUMPDEST STOP JUMPDEST CALLVALUE DUP1 ISZERO PUSH2 0x8B JUMPI PUSH1 0x0 DUP1 REVERT JUMPDEST POP PUSH2 0x94 PUSH2 0x12F JUMP JUMPDEST PUSH1 0x40 MLOAD PUSH2 0xA1 SWAP2 SWAP1 PUSH2 0x1DC JUMP JUMPDEST PUSH1 0x40 MLOAD DUP1 SWAP2 SUB SWAP1 RETURN JUMPDEST CALLVALUE DUP1 ISZERO PUSH2 0xB6 JUMPI PUSH1 0x0 DUP1 REVERT JUMPDEST POP PUSH2 0xCA PUSH2 0xC5 CALLDATASIZE PUSH1 0x4 PUSH2 0x1C1 JUMP JUMPDEST PUSH2 0x135 JUMP JUMPDEST PUSH1 0x40 MLOAD PUSH2 0xA1 SWAP3 SWAP2 SWAP1 PUSH2 0x1E5 JUMP JUMPDEST CALLVALUE DUP1 ISZERO PUSH2 0xE4 JUMPI PUSH1 0x0 DUP1 REVERT JUMPDEST POP PUSH2 0x7D PUSH2 0xF3 CALLDATASIZE PUSH1 0x4 PUSH2 0x1C1 JUMP JUMPDEST PUSH2 0x14E JUMP JUMPDEST CALLVALUE DUP1 ISZERO PUSH2 0x104 JUMPI PUSH1 0x0 DUP1 REVERT JUMPDEST POP PUSH2 0x94 PUSH2 0x153 JUMP JUMPDEST CALLVALUE DUP1 ISZERO PUSH2 0x119 JUMPI PUSH1 0x0 DUP1 REVERT JUMPDEST POP PUSH2 0x7D PUSH2 0x128 CALLDATASIZE PUSH1 0x4 PUSH2 0x1C1 JUMP JUMPDEST PUSH2 0x157 JUMP JUMPDEST JUMP JUMPDEST PUSH1 0x0 SLOAD DUP2 JUMP JUMPDEST PUSH1 0x0 DUP2 DUP2 SSTORE DUP2 SWAP1 PUSH2 0x147 DUP3 PUSH1 0x3 PUSH2 0x1F9 JUMP JUMPDEST SWAP1 POP SWAP2 POP SWAP2 JUMP JUMPDEST PUSH1 0x0 SSTORE JUMP JUMPDEST SELFBALANCE SWAP1 JUMP JUMPDEST PUSH1 0x0 DUP2 DUP2 SSTORE PUSH1 0x40 MLOAD CALLER SWAP1 PUSH1 0x63 SWAP1 PUSH2 0x16D SWAP1 PUSH2 0x1D9 JUMP JUMPDEST PUSH1 0x0 PUSH1 0x40 MLOAD DUP1 DUP4 SUB DUP2 DUP6 DUP8 GAS CALL SWAP3 POP POP POP RETURNDATASIZE DUP1 PUSH1 0x0 DUP2 EQ PUSH2 0x1AA JUMPI PUSH1 0x40 MLOAD SWAP2 POP PUSH1 0x1F NOT PUSH1 0x3F RETURNDATASIZE ADD AND DUP3 ADD PUSH1 0x40 MSTORE RETURNDATASIZE DUP3 MSTORE RETURNDATASIZE PUSH1 0x0 PUSH1 0x20 DUP5 ADD RETURNDATACOPY PUSH2 0x1AF JUMP JUMPDEST PUSH1 0x60 SWAP2 POP JUMPDEST POP POP SWAP1 POP DUP1 PUSH2 0x1BD JUMPI PUSH1 0x0 DUP1 REVERT JUMPDEST POP POP JUMP JUMPDEST PUSH1 0x0 PUSH1 0x20 DUP3 DUP5 SUB SLT ISZERO PUSH2 0x1D2 JUMPI DUP1 DUP2 REVERT JUMPDEST POP CALLDATALOAD SWAP2 SWAP1 POP JUMP JUMPDEST SWAP1 JUMP JUMPDEST SWAP1 DUP2 MSTORE PUSH1 0x20 ADD SWAP1 JUMP JUMPDEST SWAP2 DUP3 MSTORE PUSH4 0xFFFFFFFF AND PUSH1 0x20 DUP3 ADD MSTORE PUSH1 0x40 ADD SWAP1 JUMP JUMPDEST PUSH1 0x0 DUP3 NOT DUP3 GT ISZERO PUSH2 0x231 JUMPI PUSH32 0x4E487B7100000000000000000000000000000000000000000000000000000000 DUP2 MSTORE PUSH1 0x11 PUSH1 0x4 MSTORE PUSH1 0x24 DUP2 REVERT JUMPDEST POP ADD SWAP1 JUMP INVALID LOG2 PUSH5 0x6970667358 0x22 SLT KECCAK256 PUSH12 0xE14105169A350CD38587FA17 0x2E 0xC 0xEF MUL DUP3 0xD0 CHAINID 0xAA CODESIZE LOG2 CALLDATASIZE DUP4 DUP7 POP 0xB9 SWAP7 JUMPDEST 0xF7 0xC7 PUSH5 0x736F6C6343 STOP ADDMOD STOP STOP CALLER "},"methodIdentifiers":{"paramsb()":"1360c269","pullGet(uint256)":"25fe6ba0","pullOnly(uint256)":"36b80cc5","pullPay(uint256)":"564d3ffb","seeBalance()":"429a1bb0","sendEth()":"06e99fef"}}}}}