{"src/contracts/solidity/Oracle.sol":{"Oracle":{"abi":[{"inputs":[{"internalType":"address payable","name":"bettingk","type":"address"},{"internalType":"address","name":"_token","type":"address"}],"stateMutability":"nonpayable","type":"constructor"},{"anonymous":false,"inputs":[{"indexed":false,"internalType":"uint32","name":"epoch","type":"uint32"},{"indexed":false,"internalType":"uint32","name":"propnum","type":"uint32"},{"indexed":false,"internalType":"uint32[32]","name":"oddsStart","type":"uint32[32]"}],"name":"BetDataPosted","type":"event"},{"anonymous":false,"inputs":[{"indexed":false,"internalType":"uint32","name":"epoch","type":"uint32"},{"indexed":false,"internalType":"uint32","name":"propnum","type":"uint32"},{"indexed":false,"internalType":"uint32[32]","name":"decOdds","type":"uint32[32]"}],"name":"DecOddsPosted","type":"event"},{"anonymous":false,"inputs":[{"indexed":false,"internalType":"uint32","name":"tokensChange","type":"uint32"},{"indexed":false,"internalType":"uint256","name":"etherChange","type":"uint256"},{"indexed":false,"internalType":"address","name":"transactor","type":"address"}],"name":"Funding","type":"event"},{"anonymous":false,"inputs":[{"indexed":false,"internalType":"uint32","name":"concLimit","type":"uint32"}],"name":"ParamsPosted","type":"event"},{"anonymous":false,"inputs":[{"indexed":false,"internalType":"uint32","name":"epoch","type":"uint32"},{"indexed":false,"internalType":"uint32","name":"propnum","type":"uint32"},{"indexed":false,"internalType":"uint8[32]","name":"winner","type":"uint8[32]"}],"name":"ResultsPosted","type":"event"},{"anonymous":false,"inputs":[{"indexed":false,"internalType":"uint32","name":"epoch","type":"uint32"},{"indexed":false,"internalType":"uint32","name":"propnum","type":"uint32"},{"indexed":false,"internalType":"string[32]","name":"sched","type":"string[32]"}],"name":"SchedulePosted","type":"event"},{"anonymous":false,"inputs":[{"indexed":false,"internalType":"uint32","name":"propnum","type":"uint32"},{"indexed":false,"internalType":"uint32","name":"epoch","type":"uint32"},{"indexed":false,"internalType":"uint32[32]","name":"starttimes","type":"uint32[32]"}],"name":"StartTimesPosted","type":"event"},{"anonymous":false,"inputs":[{"indexed":false,"internalType":"bool","name":"voteResult","type":"bool"},{"indexed":false,"internalType":"uint32","name":"propnum","type":"uint32"},{"indexed":false,"internalType":"uint32","name":"epoch","type":"uint32"}],"name":"VoteOutcome","type":"event"},{"inputs":[],"name":"CURE_TIME","outputs":[{"internalType":"uint32","name":"","type":"uint32"}],"stateMutability":"view","type":"function"},{"inputs":[],"name":"HOUR_END","outputs":[{"internalType":"uint32","name":"","type":"uint32"}],"stateMutability":"view","type":"function"},{"inputs":[],"name":"HOUR_START","outputs":[{"internalType":"uint32","name":"","type":"uint32"}],"stateMutability":"view","type":"function"},{"inputs":[],"name":"MIN_SUBMIT","outputs":[{"internalType":"uint32","name":"","type":"uint32"}],"stateMutability":"view","type":"function"},{"inputs":[{"internalType":"address","name":"","type":"address"}],"name":"adminStruct","outputs":[{"internalType":"uint32","name":"tokens","type":"uint32"},{"internalType":"uint32","name":"voteTracker","type":"uint32"},{"internalType":"uint32","name":"initFeePool","type":"uint32"}],"stateMutability":"view","type":"function"},{"inputs":[],"name":"bettingContract","outputs":[{"internalType":"contract Betting","name":"","type":"address"}],"stateMutability":"view","type":"function"},{"inputs":[{"internalType":"uint32","name":"_amt","type":"uint32"}],"name":"depositTokens","outputs":[],"stateMutability":"nonpayable","type":"function"},{"inputs":[],"name":"hourOfDay","outputs":[{"internalType":"uint256","name":"hour","type":"uint256"}],"stateMutability":"view","type":"function"},{"inputs":[{"internalType":"string[32]","name":"_teamsched","type":"string[32]"},{"internalType":"uint32[32]","name":"_starts","type":"uint32[32]"},{"internalType":"uint32[32]","name":"_decimalOdds","type":"uint32[32]"}],"name":"initPost","outputs":[],"stateMutability":"nonpayable","type":"function"},{"inputs":[],"name":"initProcess","outputs":[],"stateMutability":"nonpayable","type":"function"},{"inputs":[{"internalType":"uint256","name":"","type":"uint256"}],"name":"matchSchedule","outputs":[{"internalType":"string","name":"","type":"string"}],"stateMutability":"view","type":"function"},{"inputs":[{"internalType":"uint32","name":"_concentrationLim","type":"uint32"}],"name":"paramUpdate","outputs":[],"stateMutability":"nonpayable","type":"function"},{"inputs":[{"internalType":"uint256","name":"","type":"uint256"}],"name":"params","outputs":[{"internalType":"uint32","name":"","type":"uint32"}],"stateMutability":"view","type":"function"},{"inputs":[{"internalType":"uint256","name":"","type":"uint256"}],"name":"propOddsStarts","outputs":[{"internalType":"uint96","name":"","type":"uint96"}],"stateMutability":"view","type":"function"},{"inputs":[{"internalType":"uint256","name":"","type":"uint256"}],"name":"propOddsUpdate","outputs":[{"internalType":"uint64","name":"","type":"uint64"}],"stateMutability":"view","type":"function"},{"inputs":[{"internalType":"uint256","name":"","type":"uint256"}],"name":"propResults","outputs":[{"internalType":"uint8","name":"","type":"uint8"}],"stateMutability":"view","type":"function"},{"inputs":[],"name":"proposer","outputs":[{"internalType":"address","name":"","type":"address"}],"stateMutability":"view","type":"function"},{"inputs":[{"internalType":"uint8[32]","name":"_resultVector","type":"uint8[32]"}],"name":"settlePost","outputs":[],"stateMutability":"nonpayable","type":"function"},{"inputs":[],"name":"settleProcess","outputs":[],"stateMutability":"nonpayable","type":"function"},{"inputs":[],"name":"showSchedString","outputs":[{"internalType":"string[32]","name":"","type":"string[32]"}],"stateMutability":"view","type":"function"},{"inputs":[],"name":"token","outputs":[{"internalType":"contract Token","name":"","type":"address"}],"stateMutability":"view","type":"function"},{"inputs":[{"internalType":"uint32[32]","name":"_decimalOdds","type":"uint32[32]"}],"name":"updatePost","outputs":[],"stateMutability":"nonpayable","type":"function"},{"inputs":[],"name":"updateProcess","outputs":[],"stateMutability":"nonpayable","type":"function"},{"inputs":[{"internalType":"bool","name":"_sendData","type":"bool"}],"name":"vote","outputs":[],"stateMutability":"nonpayable","type":"function"},{"inputs":[{"internalType":"uint32","name":"_amtTokens","type":"uint32"}],"name":"withdrawTokens","outputs":[],"stateMutability":"nonpayable","type":"function"},{"stateMutability":"payable","type":"receive"}],"evm":{"bytecode":{"linkReferences":{},"object":"60806040523480156200001157600080fd5b5060405162002e5638038062002e568339810160408190526200003491620000a8565b603d80546001600160a01b039384166001600160a01b031991821617909155603c80549290931691161790556000805467ffffffff00000001600160801b0319166f77359400000000010000000000000001179055620000e7565b6001600160a01b0381168114620000a557600080fd5b50565b60008060408385031215620000bc57600080fd5b8251620000c9816200008f565b6020840151909250620000dc816200008f565b809150509250929050565b612d5f80620000f76000396000f3fe60806040526004361061019a5760003560e01c806398823b90116100e1578063c37ac23b1161008a578063e2a9fc3f11610064578063e2a9fc3f146104be578063e966f49f146104f7578063f1ed3b391461050c578063fc0c546a1461053957600080fd5b8063c37ac23b14610417578063c68ec64514610437578063d3322374146104a857600080fd5b80639e6df0d8116100bb5780639e6df0d8146103c2578063a8e4fb90146103d7578063bd64f10f146103f757600080fd5b806398823b901461036d5780639d2f053c146103825780639d73f0a6146103a257600080fd5b80634b9f5c98116101435780637345b10b1161011d5780637345b10b146102e3578063862a79821461030657806391e04f7e1461033057600080fd5b80634b9f5c981461028357806350abb018146102a35780635d85579d146102c357600080fd5b806321cb48311161017457806321cb48311461021657806347dee2281461024e5780634a1247ae1461026e57600080fd5b806303ecacc7146101a65780630a491d08146101dd578063160919bf146101f457600080fd5b366101a157005b600080fd5b3480156101b257600080fd5b506101c66101c1366004612260565b610559565b60405160ff90911681526020015b60405180910390f35b3480156101e957600080fd5b506101f2610583565b005b34801561020057600080fd5b50610209610941565b6040516101d49190612308565b34801561022257600080fd5b50603d54610236906001600160a01b031681565b6040516001600160a01b0390911681526020016101d4565b34801561025a57600080fd5b506101f2610269366004612334565b610a09565b34801561027a57600080fd5b506101f2610c68565b34801561028f57600080fd5b506101f261029e36600461235f565b610f74565b3480156102af57600080fd5b506101f26102be366004612334565b6110ad565b3480156102cf57600080fd5b506101f26102de3660046123ed565b61118f565b3480156102ef57600080fd5b506102f8611260565b6040519081526020016101d4565b34801561031257600080fd5b5061031b603281565b60405163ffffffff90911681526020016101d4565b34801561033c57600080fd5b5061035061034b366004612260565b611281565b6040516bffffffffffffffffffffffff90911681526020016101d4565b34801561037957600080fd5b5061031b601881565b34801561038e57600080fd5b5061031b61039d366004612260565b6112b9565b3480156103ae57600080fd5b506101f26103bd3660046124ad565b6112e9565b3480156103ce57600080fd5b5061031b600081565b3480156103e357600080fd5b50603a54610236906001600160a01b031681565b34801561040357600080fd5b506101f26104123660046124ca565b6113c4565b34801561042357600080fd5b506101f2610432366004612334565b611555565b34801561044357600080fd5b506104816104523660046125e1565b603b6020526000908152604090205463ffffffff808216916401000000008104821691600160401b9091041683565b6040805163ffffffff948516815292841660208401529216918101919091526060016101d4565b3480156104b457600080fd5b5061031b61a8c081565b3480156104ca57600080fd5b506104de6104d9366004612260565b61185b565b60405167ffffffffffffffff90911681526020016101d4565b34801561050357600080fd5b506101f261188f565b34801561051857600080fd5b5061052c610527366004612260565b6119ac565b6040516101d4919061260a565b34801561054557600080fd5b50603c54610236906001600160a01b031681565b6019816020811061056957600080fd5b60209182820401919006915054906101000a900460ff1681565b600054640100000000900463ffffffff166003146105e85760405162461bcd60e51b815260206004820152600a60248201527f77726f6e6720646174610000000000000000000000000000000000000000000060448201526064015b60405180910390fd5b6000546c01000000000000000000000000900463ffffffff16421161063a5760405162461bcd60e51b81526020600482015260086024820152673a37b79039b7b7b760c11b60448201526064016105df565b60008054819063ffffffff600160c01b82048116600160a01b90920416111561080457603d546040517f0c26f9940000000000000000000000000000000000000000000000000000000081526001600160a01b0390911690630c26f994906106a790601990600401612633565b60408051808303816000875af11580156106c5573d6000803e3d6000fd5b505050506040513d601f19601f820116820180604052508101906106e991906128ca565b600080547fffffffffffffffffffffffffffffffffffffffffffffffffffffffff000000001663ffffffff84811691909117918290559194509192506107449170010000000000000000000000000000000090041683612930565b60008054601c90610763908490600160e01b900463ffffffff16612953565b92506101000a81548163ffffffff021916908363ffffffff1602179055507f20dd2d358fe34919211e50a7415bbe4e0837dd45b50b2f611e3997dc7562520f6001600080600881106107b7576107b761261d565b60088104919091015460005460408051941515855260079093166004026101000a90910463ffffffff9081166020850152600160401b9091041682820152519081900360600190a1610935565b61081060026032612930565b6000805460109061083c908490700100000000000000000000000000000000900463ffffffff16612977565b92506101000a81548163ffffffff021916908363ffffffff160217905550600260326108689190612930565b603a546001600160a01b03166000908152603b60205260408120805490919061089890849063ffffffff16612977565b92506101000a81548163ffffffff021916908363ffffffff1602179055507f20dd2d358fe34919211e50a7415bbe4e0837dd45b50b2f611e3997dc7562520f6000806000600881106108ec576108ec61261d565b60088104919091015460005460408051941515855260079093166004026101000a90910463ffffffff9081166020850152600160401b9091041682820152519081900360600190a15b61093d611a4c565b5050565b610949611f9d565b604080516104008101909152601a60206000835b82821015610a0057838201805461097390612994565b80601f016020809104026020016040519081016040528092919081815260200182805461099f90612994565b80156109ec5780601f106109c1576101008083540402835291602001916109ec565b820191906000526020600020905b8154815290600101906020018083116109cf57829003601f168201915b50505050508152602001906001019061095d565b50505050905090565b336000908152603b602052604081205463ffffffff1615610abe57336000908152603b60205260408120549054610a579163ffffffff600160401b909104811691600160e01b900416612977565b336000908152603b6020526040902054610a77919063ffffffff166129ce565b610a8c9063ffffffff1664e8d4a510006129f6565b604051909150339082156108fc029083906000818181858888f19350505050158015610abc573d6000803e3d6000fd5b505b603c546040517f84269ed900000000000000000000000000000000000000000000000000000000815233600482015230602482015263ffffffff841660448201526001600160a01b03909116906384269ed9906064016020604051808303816000875af1158015610b33573d6000803e3d6000fd5b505050506040513d601f19601f82011682018060405250810190610b579190612a13565b5060008054338252603b602052604082208054600160401b63ffffffff600160e01b9094048416026bffffffff00000000000000001982168117835586949293610ba79286928216911617612953565b92506101000a81548163ffffffff021916908363ffffffff160217905550816000600460088110610bda57610bda61261d565b600891828204019190066004028282829054906101000a900463ffffffff16610c039190612953565b82546101009290920a63ffffffff8181021990931691831602179091556040805191851682526020820184905233908201527fcd8a5ece39d0b175e7e2ae6d276a5296bcd7da645b615b3d857b7fa2769db58391506060015b60405180910390a15050565b600054640100000000900463ffffffff16600214610cc85760405162461bcd60e51b815260206004820152600a60248201527f77726f6e6720646174610000000000000000000000000000000000000000000060448201526064016105df565b6000546c01000000000000000000000000900463ffffffff164211610d1a5760405162461bcd60e51b81526020600482015260086024820152673a37b79039b7b7b760c11b60448201526064016105df565b60005463ffffffff600160c01b82048116600160a01b909204161115610e3957603d546040517f6c5975790000000000000000000000000000000000000000000000000000000081526001600160a01b0390911690636c59757990610d8490601190600401612a30565b600060405180830381600087803b158015610d9e57600080fd5b505af1158015610db2573d6000803e3d6000fd5b505050507f20dd2d358fe34919211e50a7415bbe4e0837dd45b50b2f611e3997dc7562520f600160008060088110610dec57610dec61261d565b60088104919091015460005460408051941515855260079093166004026101000a90910463ffffffff9081166020850152600160401b9091041682820152519081900360600190a1610f6a565b610e4560026032612930565b60008054601090610e71908490700100000000000000000000000000000000900463ffffffff16612977565b92506101000a81548163ffffffff021916908363ffffffff16021790555060026032610e9d9190612930565b603a546001600160a01b03166000908152603b602052604081208054909190610ecd90849063ffffffff16612977565b92506101000a81548163ffffffff021916908363ffffffff1602179055507f20dd2d358fe34919211e50a7415bbe4e0837dd45b50b2f611e3997dc7562520f600080600060088110610f2157610f2161261d565b60088104919091015460005460408051941515855260079093166004026101000a90910463ffffffff9081166020850152600160401b9091041682820152519081900360600190a15b610f72611a4c565b565b336000908152603b602052604090205463ffffffff16610f9357600080fd5b60008054640100000000900463ffffffff169003610fb057600080fd5b60008054338252603b602052604090912054600160401b90910463ffffffff9081166401000000009092041603610fe657600080fd5b60008054338252603b6020526040909120805467ffffffff000000001916600160401b90920463ffffffff1664010000000002919091179055801561107857336000908152603b6020526040812054815463ffffffff9182169291601491611057918591600160a01b900416612953565b92506101000a81548163ffffffff021916908363ffffffff16021790555050565b336000908152603b6020526040812054815463ffffffff9182169291601891611057918591600160c01b900416612953565b50565b336000908152603b6020526040902054631dcd650063ffffffff90911610156110d557600080fd5b603d546040517f654e207f00000000000000000000000000000000000000000000000000000000815263ffffffff831660048201526001600160a01b039091169063654e207f90602401600060405180830381600087803b15801561113957600080fd5b505af115801561114d573d6000803e3d6000fd5b505060405163ffffffff841681527f0814d5d412c9e5c68d4adafd64c8d3d494e6ce7124cae6745a99b5af1c58ca79925060200190505b60405180910390a150565b600054640100000000900463ffffffff16156111ed5760405162461bcd60e51b815260206004820152601460248201527f416c726561647920756e6465722052657669657700000000000000000000000060448201526064016105df565b6000805467ffffffff00000000191664030000000017905561120d611b52565b61121a6019826020611fc5565b506000546040517fc3112836f9ee0a75d7eb745ceb3d24f881bd142a63d78420be0ed828947d69dc916111849163ffffffff80831692600160401b900416908590612a93565b6000610e106112726201518042612ae2565b61127c9190612af6565b905090565b6001816020811061129157600080fd5b60029182820401919006600c02915054906101000a90046bffffffffffffffffffffffff1681565b600081600881106112c957600080fd5b60089182820401919006600402915054906101000a900463ffffffff1681565b600054640100000000900463ffffffff16156113475760405162461bcd60e51b815260206004820152601460248201527f416c726561647920756e6465722052657669657700000000000000000000000060448201526064016105df565b6000805467ffffffff000000001916640200000000179055611367611b52565b61137081611d17565b61137e906011906020612058565b506000546040517f49b4bc9c053b4c36615642b3229d4b569c3357e92266aed739428f05c2b15407916111849163ffffffff80831692600160401b900416908590612b0a565b600054640100000000900463ffffffff16156114225760405162461bcd60e51b815260206004820152601460248201527f416c726561647920756e6465722052657669657700000000000000000000000060448201526064016105df565b61142c8282611e3c565b61143a9060019060206120ee565b506000805467ffffffff00000000191664010000000017905561145b611b52565b611468601a846020612190565b506000546040517f6530cb2e3260e20d52f3ae9c7966099ad3ddb5e2bedfd0fe4c0459c7245fae42916114ae9163ffffffff80831692600160401b900416908790612b59565b60405180910390a16000546040517f155123c2dd70f9f15fa563c0d47f5ba62d9dd1602a73d7ab36b33ca4cb2940c6916114fb9163ffffffff80831692600160401b900416908690612b0a565b60405180910390a16000546040517f49b4bc9c053b4c36615642b3229d4b569c3357e92266aed739428f05c2b15407916115489163ffffffff80831692600160401b900416908590612b0a565b60405180910390a1505050565b336000908152603b602052604090205463ffffffff90811690821611156115be5760405162461bcd60e51b815260206004820152600b60248201527f6e65656420746f6b656e7300000000000000000000000000000000000000000060448201526064016105df565b600054640100000000900463ffffffff161561161c5760405162461bcd60e51b815260206004820152601160248201527f6e6f20776420647572696e6720766f746500000000000000000000000000000060448201526064016105df565b336000908152603b6020526040812054815461164f9163ffffffff600160401b909104811691600160e01b900416612977565b336000908152603b602052604090205461166f919063ffffffff166129ce565b6116849063ffffffff1664e8d4a510006129f6565b60008054338252603b602052604082208054600160401b63ffffffff600160e01b9094048416026bffffffff000000000000000019909116179055815492935084926010916116ea91859170010000000000000000000000000000000090910416612977565b82546101009290920a63ffffffff818102199093169183160217909155336000908152603b602052604081208054869450909261172991859116612977565b92506101000a81548163ffffffff021916908363ffffffff160217905550336001600160a01b03166108fc829081150290604051600060405180830381858888f19350505050158015611780573d6000803e3d6000fd5b50603c546040517f8009748400000000000000000000000000000000000000000000000000000000815233600482015263ffffffff841660248201526001600160a01b03909116906380097484906044016020604051808303816000875af11580156117f0573d6000803e3d6000fd5b505050506040513d601f19601f820116820180604052508101906118149190612a13565b506040805163ffffffff841681526020810183905233918101919091527fcd8a5ece39d0b175e7e2ae6d276a5296bcd7da645b615b3d857b7fa2769db58390606001610c5c565b6011816020811061186b57600080fd5b60049182820401919006600802915054906101000a900467ffffffffffffffff1681565b60005463ffffffff640100000000909104166001146118f05760405162461bcd60e51b815260206004820152600a60248201527f77726f6e6720646174610000000000000000000000000000000000000000000060448201526064016105df565b6000546c01000000000000000000000000900463ffffffff1642116119425760405162461bcd60e51b81526020600482015260086024820152673a37b79039b7b7b760c11b60448201526064016105df565b60005463ffffffff600160c01b82048116600160a01b909204161115610e3957603d546040517f0c05cbb70000000000000000000000000000000000000000000000000000000081526001600160a01b0390911690630c05cbb790610d8490600190600401612b8b565b601a81602081106119bc57600080fd5b0180549091506119cb90612994565b80601f01602080910402602001604051908101604052809291908181526020018280546119f790612994565b8015611a445780601f10611a1957610100808354040283529160200191611a44565b820191906000526020600020905b815481529060010190602001808311611a2757829003601f168201915b505050505081565b6000805467ffffffff000000001916808255600160401b900463ffffffff16906008611a7783612bdd565b91906101000a81548163ffffffff021916908363ffffffff16021790555050600080600360088110611aab57611aab61261d565b600891828204019190066004026101000a81548163ffffffff021916908363ffffffff160217905550600080600560088110611ae957611ae961261d565b600891828204019190066004026101000a81548163ffffffff021916908363ffffffff160217905550600080600660088110611b2757611b2761261d565b600891828204019190066004026101000a81548163ffffffff021916908363ffffffff160217905550565b611b5a611260565b50336000908152603b6020526040902054603263ffffffff9091161015611bc35760405162461bcd60e51b815260206004820152600b60248201527f4c6f772042616c616e636500000000000000000000000000000000000000000060448201526064016105df565b611bcf61a8c042612953565b600080547fffffffffffffffffffffffffffffffff00000000ffffffffffffffffffffffff81166c0100000000000000000000000063ffffffff94851602908117835533808452603b6020526040842080548616600160a01b027fffffffffffffffff00000000ffffffff00000000ffffffffffffffffffffffff9094167fffffffffffffffff00000000ffffffffffffffffffffffffffffffffffffffff9093169290921792909217909255603a80547fffffffffffffffffffffffff0000000000000000000000000000000000000000169091179055546101f491161115611cdc57600080547fffffffffffffffffffffffffffffffff00000000ffffffffffffffffffffffff1690555b60008054338252603b6020526040909120805467ffffffff000000001916600160401b90920463ffffffff1664010000000002919091179055565b611d1f6121d5565b60008060005b6020811015611e3457607d858260208110611d4257611d4261261d565b602002015163ffffffff16118015611d775750611f40858260208110611d6a57611d6a61261d565b602002015163ffffffff16105b611d8057600080fd5b6029858260208110611d9457611d9461261d565b6020020151611da4906029612953565b611db190620f4240612930565b611dbb9190612977565b92506020858260208110611dd157611dd161261d565b602002015163ffffffff1667ffffffffffffffff16901b821791508263ffffffff168217915081848260208110611e0a57611e0a61261d565b67ffffffffffffffff90921660209290920201526000915080611e2c81612c00565b915050611d25565b505050919050565b611e446121d5565b60008060005b6020811015611f9457607d858260208110611e6757611e6761261d565b602002015163ffffffff16118015611e9c5750611f40858260208110611e8f57611e8f61261d565b602002015163ffffffff16105b611ea557600080fd5b6029858260208110611eb957611eb961261d565b6020020151611ec9906029612953565b611ed690620f4240612930565b611ee09190612977565b92506040868260208110611ef657611ef661261d565b602002015163ffffffff166bffffffffffffffffffffffff16901b821791506020858260208110611f2957611f2961261d565b602002015163ffffffff166bffffffffffffffffffffffff16901b821791508263ffffffff168217915081848260208110611f6657611f6661261d565b6bffffffffffffffffffffffff90921660209290920201526000915080611f8c81612c00565b915050611e4a565b50505092915050565b6040518061040001604052806020905b6060815260200190600190039081611fad5790505090565b6001830191839082156120485791602002820160005b8382111561201957835183826101000a81548160ff021916908360ff1602179055509260200192600101602081600001049283019260010302611fdb565b80156120465782816101000a81549060ff0219169055600101602081600001049283019260010302612019565b505b506120549291506121f4565b5090565b6008830191839082156120485791602002820160005b838211156120ba57835183826101000a81548167ffffffffffffffff021916908367ffffffffffffffff160217905550926020019260080160208160070104928301926001030261206e565b80156120465782816101000a81549067ffffffffffffffff02191690556008016020816007010492830192600103026120ba565b6010830191839082156120485791602002820160005b8382111561215857835183826101000a8154816bffffffffffffffffffffffff02191690836bffffffffffffffffffffffff1602179055509260200192600c01602081600b01049283019260010302612104565b80156120465782816101000a8154906bffffffffffffffffffffffff0219169055600c01602081600b01049283019260010302612158565b82602081019282156121c9579160200282015b828111156121c957825182906121b99082612c69565b50916020019190600101906121a3565b50612054929150612209565b6040518061040001604052806020906020820280368337509192915050565b5b8082111561205457600081556001016121f5565b8082111561205457600061221d8282612226565b50600101612209565b50805461223290612994565b6000825580601f10612242575050565b601f0160209004906000526020600020908101906110aa91906121f4565b60006020828403121561227257600080fd5b5035919050565b6000815180845260005b8181101561229f57602081850181015186830182015201612283565b506000602082860101526020601f19601f83011685010191505092915050565b60008261040081018360005b60208082106122da57506122fd565b84840388526122ea848451612279565b97810197935091909101906001016122cb565b509095945050505050565b60208152600061231b60208301846122bf565b9392505050565b63ffffffff811681146110aa57600080fd5b60006020828403121561234657600080fd5b813561231b81612322565b80151581146110aa57600080fd5b60006020828403121561237157600080fd5b813561231b81612351565b634e487b7160e01b600052604160045260246000fd5b604051610400810167ffffffffffffffff811182821017156123b6576123b661237c565b60405290565b604051601f8201601f1916810167ffffffffffffffff811182821017156123e5576123e561237c565b604052919050565b600061040080838503121561240157600080fd5b83601f84011261241057600080fd5b612418612392565b90830190808583111561242a57600080fd5b845b8381101561245457803560ff811681146124465760008081fd5b83526020928301920161242c565b5095945050505050565b600082601f83011261246f57600080fd5b612477612392565b8061040084018581111561248a57600080fd5b845b818110156122fd57803561249f81612322565b84526020938401930161248c565b600061040082840312156124c057600080fd5b61231b838361245e565b600080600061082084860312156124e057600080fd5b833567ffffffffffffffff808211156124f857600080fd5b8186019150601f878184011261250d57600080fd5b612515612392565b8061040085018a81111561252857600080fd5b855b818110156125b1578035868111156125425760008081fd5b87018581018d136125535760008081fd5b80356020888211156125675761256761237c565b61257881601f198a850116016123bc565b8281528f8284860101111561258d5760008081fd5b8282850183830137600092810182019290925290865294909401935060200161252a565b505080975050505050506125c8856020860161245e565b91506125d885610420860161245e565b90509250925092565b6000602082840312156125f357600080fd5b81356001600160a01b038116811461231b57600080fd5b60208152600061231b6020830184612279565b634e487b7160e01b600052603260045260246000fd5b61040081810190828460005b602080601f83011061265157506128c0565b825460ff8082168652600882901c811683870152604061267a818801838560101c1660ff169052565b606061268f818901848660181c1660ff169052565b60806126a3818a018587891c1660ff169052565b60a095506126ba868a01858760281c1660ff169052565b60c06126cf818b01868860301c1660ff169052565b60e06126e4818c01878960381c1660ff169052565b60ff87861c8716166101008c01526127076101208c01878960481c1660ff169052565b61271c6101408c01878960501c1660ff169052565b6127316101608c01878960581c1660ff169052565b60ff87851c8716166101808c01526127546101a08c01878960681c1660ff169052565b6127696101c08c01878960701c1660ff169052565b61277e6101e08c01878960781c1660ff169052565b60ff87841c8716166102008c01526127a16102208c01878960881c1660ff169052565b6127b66102408c01878960901c1660ff169052565b6127cb6102608c01878960981c1660ff169052565b60ff87891c8716166102808c01526127ee6102a08c01878960a81c1660ff169052565b6128036102c08c01878960b01c1660ff169052565b6128186102e08c01878960b81c1660ff169052565b60ff87831c8716166103008c015261283b6103208c01878960c81c1660ff169052565b6128506103408c01878960d01c1660ff169052565b6128656103608c01878960d81c1660ff169052565b60ff87821c8716166103808c0152505050505061288d6103a08701828460e81c1660ff169052565b6128a26103c08701828460f01c1660ff169052565b5060f81c6103e085015250918301916001919091019060200161263f565b5050505092915050565b600080604083850312156128dd57600080fd5b82516128e881612322565b60208401519092506128f981612322565b809150509250929050565b634e487b7160e01b600052601260045260246000fd5b634e487b7160e01b600052601160045260246000fd5b600063ffffffff8084168061294757612947612904565b92169190910492915050565b63ffffffff8181168382160190808211156129705761297061291a565b5092915050565b63ffffffff8281168282160390808211156129705761297061291a565b600181811c908216806129a857607f821691505b6020821081036129c857634e487b7160e01b600052602260045260246000fd5b50919050565b63ffffffff8181168382160280821691908281146129ee576129ee61291a565b505092915050565b8082028115828204841417612a0d57612a0d61291a565b92915050565b600060208284031215612a2557600080fd5b815161231b81612351565b6104008101818360005b6020806003830110612a4c5750611f94565b825467ffffffffffffffff8082168652604082811c821693870193909352608082811c9091169286019290925260c01c606085015290920191600190910190600401612a3a565b63ffffffff8481168252831660208083019190915261044082019060408301908460005b82811015612ad657815160ff1684529282019290820190600101612ab7565b50505050949350505050565b600082612af157612af1612904565b500690565b600082612b0557612b05612904565b500490565b60006104408201905063ffffffff8086168352602081861681850152604084018560005b83811015612b4c578151851683529183019190830190600101612b2e565b5050505050949350505050565b600063ffffffff808616835280851660208401525060606040830152612b8260608301846122bf565b95945050505050565b6104008101818360005b602060018181840110612ba9575050611f94565b83546bffffffffffffffffffffffff808216875260609190911c169185019190915260409093019290910190600201612b95565b600063ffffffff808316818103612bf657612bf661291a565b6001019392505050565b60006000198203612c1357612c1361291a565b5060010190565b601f821115612c6457600081815260208120601f850160051c81016020861015612c415750805b601f850160051c820191505b81811015612c6057828155600101612c4d565b5050505b505050565b815167ffffffffffffffff811115612c8357612c8361237c565b612c9781612c918454612994565b84612c1a565b602080601f831160018114612ccc5760008415612cb45750858301515b600019600386901b1c1916600185901b178555612c60565b600085815260208120601f198616915b82811015612cfb57888601518255948401946001909101908401612cdc565b5085821015612d195787850151600019600388901b60f8161c191681555b5050505050600190811b0190555056fea2646970667358221220dcfaebe69a7f1d5468182284ba0ad9d7ed4bd7b4cce84edd630830f002beb10c64736f6c63430008110033","opcodes":"PUSH1 0x80 PUSH1 0x40 MSTORE CALLVALUE DUP1 ISZERO PUSH3 0x11 JUMPI PUSH1 0x0 DUP1 REVERT JUMPDEST POP PUSH1 0x40 MLOAD PUSH3 0x2E56 CODESIZE SUB DUP1 PUSH3 0x2E56 DUP4 CODECOPY DUP2 ADD PUSH1 0x40 DUP2 SWAP1 MSTORE PUSH3 0x34 SWAP2 PUSH3 0xA8 JUMP JUMPDEST PUSH1 0x3D DUP1 SLOAD PUSH1 0x1 PUSH1 0x1 PUSH1 0xA0 SHL SUB SWAP4 DUP5 AND PUSH1 0x1 PUSH1 0x1 PUSH1 0xA0 SHL SUB NOT SWAP2 DUP3 AND OR SWAP1 SWAP2 SSTORE PUSH1 0x3C DUP1 SLOAD SWAP3 SWAP1 SWAP4 AND SWAP2 AND OR SWAP1 SSTORE PUSH1 0x0 DUP1 SLOAD PUSH8 0xFFFFFFFF00000001 PUSH1 0x1 PUSH1 0x80 SHL SUB NOT AND PUSH16 0x77359400000000010000000000000001 OR SWAP1 SSTORE PUSH3 0xE7 JUMP JUMPDEST PUSH1 0x1 PUSH1 0x1 PUSH1 0xA0 SHL SUB DUP2 AND DUP2 EQ PUSH3 0xA5 JUMPI PUSH1 0x0 DUP1 REVERT JUMPDEST POP JUMP JUMPDEST PUSH1 0x0 DUP1 PUSH1 0x40 DUP4 DUP6 SUB SLT ISZERO PUSH3 0xBC JUMPI PUSH1 0x0 DUP1 REVERT JUMPDEST DUP3 MLOAD PUSH3 0xC9 DUP2 PUSH3 0x8F JUMP JUMPDEST PUSH1 0x20 DUP5 ADD MLOAD SWAP1 SWAP3 POP PUSH3 0xDC DUP2 PUSH3 0x8F JUMP JUMPDEST DUP1 SWAP2 POP POP SWAP3 POP SWAP3 SWAP1 POP JUMP JUMPDEST PUSH2 0x2D5F DUP1 PUSH3 0xF7 PUSH1 0x0 CODECOPY PUSH1 0x0 RETURN INVALID PUSH1 0x80 PUSH1 0x40 MSTORE PUSH1 0x4 CALLDATASIZE LT PUSH2 0x19A JUMPI PUSH1 0x0 CALLDATALOAD PUSH1 0xE0 SHR DUP1 PUSH4 0x98823B90 GT PUSH2 0xE1 JUMPI DUP1 PUSH4 0xC37AC23B GT PUSH2 0x8A JUMPI DUP1 PUSH4 0xE2A9FC3F GT PUSH2 0x64 JUMPI DUP1 PUSH4 0xE2A9FC3F EQ PUSH2 0x4BE JUMPI DUP1 PUSH4 0xE966F49F EQ PUSH2 0x4F7 JUMPI DUP1 PUSH4 0xF1ED3B39 EQ PUSH2 0x50C JUMPI DUP1 PUSH4 0xFC0C546A EQ PUSH2 0x539 JUMPI PUSH1 0x0 DUP1 REVERT JUMPDEST DUP1 PUSH4 0xC37AC23B EQ PUSH2 0x417 JUMPI DUP1 PUSH4 0xC68EC645 EQ PUSH2 0x437 JUMPI DUP1 PUSH4 0xD3322374 EQ PUSH2 0x4A8 JUMPI PUSH1 0x0 DUP1 REVERT JUMPDEST DUP1 PUSH4 0x9E6DF0D8 GT PUSH2 0xBB JUMPI DUP1 PUSH4 0x9E6DF0D8 EQ PUSH2 0x3C2 JUMPI DUP1 PUSH4 0xA8E4FB90 EQ PUSH2 0x3D7 JUMPI DUP1 PUSH4 0xBD64F10F EQ PUSH2 0x3F7 JUMPI PUSH1 0x0 DUP1 REVERT JUMPDEST DUP1 PUSH4 0x98823B90 EQ PUSH2 0x36D JUMPI DUP1 PUSH4 0x9D2F053C EQ PUSH2 0x382 JUMPI DUP1 PUSH4 0x9D73F0A6 EQ PUSH2 0x3A2 JUMPI PUSH1 0x0 DUP1 REVERT JUMPDEST DUP1 PUSH4 0x4B9F5C98 GT PUSH2 0x143 JUMPI DUP1 PUSH4 0x7345B10B GT PUSH2 0x11D JUMPI DUP1 PUSH4 0x7345B10B EQ PUSH2 0x2E3 JUMPI DUP1 PUSH4 0x862A7982 EQ PUSH2 0x306 JUMPI DUP1 PUSH4 0x91E04F7E EQ PUSH2 0x330 JUMPI PUSH1 0x0 DUP1 REVERT JUMPDEST DUP1 PUSH4 0x4B9F5C98 EQ PUSH2 0x283 JUMPI DUP1 PUSH4 0x50ABB018 EQ PUSH2 0x2A3 JUMPI DUP1 PUSH4 0x5D85579D EQ PUSH2 0x2C3 JUMPI PUSH1 0x0 DUP1 REVERT JUMPDEST DUP1 PUSH4 0x21CB4831 GT PUSH2 0x174 JUMPI DUP1 PUSH4 0x21CB4831 EQ PUSH2 0x216 JUMPI DUP1 PUSH4 0x47DEE228 EQ PUSH2 0x24E JUMPI DUP1 PUSH4 0x4A1247AE EQ PUSH2 0x26E JUMPI PUSH1 0x0 DUP1 REVERT JUMPDEST DUP1 PUSH4 0x3ECACC7 EQ PUSH2 0x1A6 JUMPI DUP1 PUSH4 0xA491D08 EQ PUSH2 0x1DD JUMPI DUP1 PUSH4 0x160919BF EQ PUSH2 0x1F4 JUMPI PUSH1 0x0 DUP1 REVERT JUMPDEST CALLDATASIZE PUSH2 0x1A1 JUMPI STOP JUMPDEST PUSH1 0x0 DUP1 REVERT JUMPDEST CALLVALUE DUP1 ISZERO PUSH2 0x1B2 JUMPI PUSH1 0x0 DUP1 REVERT JUMPDEST POP PUSH2 0x1C6 PUSH2 0x1C1 CALLDATASIZE PUSH1 0x4 PUSH2 0x2260 JUMP JUMPDEST PUSH2 0x559 JUMP JUMPDEST PUSH1 0x40 MLOAD PUSH1 0xFF SWAP1 SWAP2 AND DUP2 MSTORE PUSH1 0x20 ADD JUMPDEST PUSH1 0x40 MLOAD DUP1 SWAP2 SUB SWAP1 RETURN JUMPDEST CALLVALUE DUP1 ISZERO PUSH2 0x1E9 JUMPI PUSH1 0x0 DUP1 REVERT JUMPDEST POP PUSH2 0x1F2 PUSH2 0x583 JUMP JUMPDEST STOP JUMPDEST CALLVALUE DUP1 ISZERO PUSH2 0x200 JUMPI PUSH1 0x0 DUP1 REVERT JUMPDEST POP PUSH2 0x209 PUSH2 0x941 JUMP JUMPDEST PUSH1 0x40 MLOAD PUSH2 0x1D4 SWAP2 SWAP1 PUSH2 0x2308 JUMP JUMPDEST CALLVALUE DUP1 ISZERO PUSH2 0x222 JUMPI PUSH1 0x0 DUP1 REVERT JUMPDEST POP PUSH1 0x3D SLOAD PUSH2 0x236 SWAP1 PUSH1 0x1 PUSH1 0x1 PUSH1 0xA0 SHL SUB AND DUP2 JUMP JUMPDEST PUSH1 0x40 MLOAD PUSH1 0x1 PUSH1 0x1 PUSH1 0xA0 SHL SUB SWAP1 SWAP2 AND DUP2 MSTORE PUSH1 0x20 ADD PUSH2 0x1D4 JUMP JUMPDEST CALLVALUE DUP1 ISZERO PUSH2 0x25A JUMPI PUSH1 0x0 DUP1 REVERT JUMPDEST POP PUSH2 0x1F2 PUSH2 0x269 CALLDATASIZE PUSH1 0x4 PUSH2 0x2334 JUMP JUMPDEST PUSH2 0xA09 JUMP JUMPDEST CALLVALUE DUP1 ISZERO PUSH2 0x27A JUMPI PUSH1 0x0 DUP1 REVERT JUMPDEST POP PUSH2 0x1F2 PUSH2 0xC68 JUMP JUMPDEST CALLVALUE DUP1 ISZERO PUSH2 0x28F JUMPI PUSH1 0x0 DUP1 REVERT JUMPDEST POP PUSH2 0x1F2 PUSH2 0x29E CALLDATASIZE PUSH1 0x4 PUSH2 0x235F JUMP JUMPDEST PUSH2 0xF74 JUMP JUMPDEST CALLVALUE DUP1 ISZERO PUSH2 0x2AF JUMPI PUSH1 0x0 DUP1 REVERT JUMPDEST POP PUSH2 0x1F2 PUSH2 0x2BE CALLDATASIZE PUSH1 0x4 PUSH2 0x2334 JUMP JUMPDEST PUSH2 0x10AD JUMP JUMPDEST CALLVALUE DUP1 ISZERO PUSH2 0x2CF JUMPI PUSH1 0x0 DUP1 REVERT JUMPDEST POP PUSH2 0x1F2 PUSH2 0x2DE CALLDATASIZE PUSH1 0x4 PUSH2 0x23ED JUMP JUMPDEST PUSH2 0x118F JUMP JUMPDEST CALLVALUE DUP1 ISZERO PUSH2 0x2EF JUMPI PUSH1 0x0 DUP1 REVERT JUMPDEST POP PUSH2 0x2F8 PUSH2 0x1260 JUMP JUMPDEST PUSH1 0x40 MLOAD SWAP1 DUP2 MSTORE PUSH1 0x20 ADD PUSH2 0x1D4 JUMP JUMPDEST CALLVALUE DUP1 ISZERO PUSH2 0x312 JUMPI PUSH1 0x0 DUP1 REVERT JUMPDEST POP PUSH2 0x31B PUSH1 0x32 DUP2 JUMP JUMPDEST PUSH1 0x40 MLOAD PUSH4 0xFFFFFFFF SWAP1 SWAP2 AND DUP2 MSTORE PUSH1 0x20 ADD PUSH2 0x1D4 JUMP JUMPDEST CALLVALUE DUP1 ISZERO PUSH2 0x33C JUMPI PUSH1 0x0 DUP1 REVERT JUMPDEST POP PUSH2 0x350 PUSH2 0x34B CALLDATASIZE PUSH1 0x4 PUSH2 0x2260 JUMP JUMPDEST PUSH2 0x1281 JUMP JUMPDEST PUSH1 0x40 MLOAD PUSH12 0xFFFFFFFFFFFFFFFFFFFFFFFF SWAP1 SWAP2 AND DUP2 MSTORE PUSH1 0x20 ADD PUSH2 0x1D4 JUMP JUMPDEST CALLVALUE DUP1 ISZERO PUSH2 0x379 JUMPI PUSH1 0x0 DUP1 REVERT JUMPDEST POP PUSH2 0x31B PUSH1 0x18 DUP2 JUMP JUMPDEST CALLVALUE DUP1 ISZERO PUSH2 0x38E JUMPI PUSH1 0x0 DUP1 REVERT JUMPDEST POP PUSH2 0x31B PUSH2 0x39D CALLDATASIZE PUSH1 0x4 PUSH2 0x2260 JUMP JUMPDEST PUSH2 0x12B9 JUMP JUMPDEST CALLVALUE DUP1 ISZERO PUSH2 0x3AE JUMPI PUSH1 0x0 DUP1 REVERT JUMPDEST POP PUSH2 0x1F2 PUSH2 0x3BD CALLDATASIZE PUSH1 0x4 PUSH2 0x24AD JUMP JUMPDEST PUSH2 0x12E9 JUMP JUMPDEST CALLVALUE DUP1 ISZERO PUSH2 0x3CE JUMPI PUSH1 0x0 DUP1 REVERT JUMPDEST POP PUSH2 0x31B PUSH1 0x0 DUP2 JUMP JUMPDEST CALLVALUE DUP1 ISZERO PUSH2 0x3E3 JUMPI PUSH1 0x0 DUP1 REVERT JUMPDEST POP PUSH1 0x3A SLOAD PUSH2 0x236 SWAP1 PUSH1 0x1 PUSH1 0x1 PUSH1 0xA0 SHL SUB AND DUP2 JUMP JUMPDEST CALLVALUE DUP1 ISZERO PUSH2 0x403 JUMPI PUSH1 0x0 DUP1 REVERT JUMPDEST POP PUSH2 0x1F2 PUSH2 0x412 CALLDATASIZE PUSH1 0x4 PUSH2 0x24CA JUMP JUMPDEST PUSH2 0x13C4 JUMP JUMPDEST CALLVALUE DUP1 ISZERO PUSH2 0x423 JUMPI PUSH1 0x0 DUP1 REVERT JUMPDEST POP PUSH2 0x1F2 PUSH2 0x432 CALLDATASIZE PUSH1 0x4 PUSH2 0x2334 JUMP JUMPDEST PUSH2 0x1555 JUMP JUMPDEST CALLVALUE DUP1 ISZERO PUSH2 0x443 JUMPI PUSH1 0x0 DUP1 REVERT JUMPDEST POP PUSH2 0x481 PUSH2 0x452 CALLDATASIZE PUSH1 0x4 PUSH2 0x25E1 JUMP JUMPDEST PUSH1 0x3B PUSH1 0x20 MSTORE PUSH1 0x0 SWAP1 DUP2 MSTORE PUSH1 0x40 SWAP1 KECCAK256 SLOAD PUSH4 0xFFFFFFFF DUP1 DUP3 AND SWAP2 PUSH5 0x100000000 DUP2 DIV DUP3 AND SWAP2 PUSH1 0x1 PUSH1 0x40 SHL SWAP1 SWAP2 DIV AND DUP4 JUMP JUMPDEST PUSH1 0x40 DUP1 MLOAD PUSH4 0xFFFFFFFF SWAP5 DUP6 AND DUP2 MSTORE SWAP3 DUP5 AND PUSH1 0x20 DUP5 ADD MSTORE SWAP3 AND SWAP2 DUP2 ADD SWAP2 SWAP1 SWAP2 MSTORE PUSH1 0x60 ADD PUSH2 0x1D4 JUMP JUMPDEST CALLVALUE DUP1 ISZERO PUSH2 0x4B4 JUMPI PUSH1 0x0 DUP1 REVERT JUMPDEST POP PUSH2 0x31B PUSH2 0xA8C0 DUP2 JUMP JUMPDEST CALLVALUE DUP1 ISZERO PUSH2 0x4CA JUMPI PUSH1 0x0 DUP1 REVERT JUMPDEST POP PUSH2 0x4DE PUSH2 0x4D9 CALLDATASIZE PUSH1 0x4 PUSH2 0x2260 JUMP JUMPDEST PUSH2 0x185B JUMP JUMPDEST PUSH1 0x40 MLOAD PUSH8 0xFFFFFFFFFFFFFFFF SWAP1 SWAP2 AND DUP2 MSTORE PUSH1 0x20 ADD PUSH2 0x1D4 JUMP JUMPDEST CALLVALUE DUP1 ISZERO PUSH2 0x503 JUMPI PUSH1 0x0 DUP1 REVERT JUMPDEST POP PUSH2 0x1F2 PUSH2 0x188F JUMP JUMPDEST CALLVALUE DUP1 ISZERO PUSH2 0x518 JUMPI PUSH1 0x0 DUP1 REVERT JUMPDEST POP PUSH2 0x52C PUSH2 0x527 CALLDATASIZE PUSH1 0x4 PUSH2 0x2260 JUMP JUMPDEST PUSH2 0x19AC JUMP JUMPDEST PUSH1 0x40 MLOAD PUSH2 0x1D4 SWAP2 SWAP1 PUSH2 0x260A JUMP JUMPDEST CALLVALUE DUP1 ISZERO PUSH2 0x545 JUMPI PUSH1 0x0 DUP1 REVERT JUMPDEST POP PUSH1 0x3C SLOAD PUSH2 0x236 SWAP1 PUSH1 0x1 PUSH1 0x1 PUSH1 0xA0 SHL SUB AND DUP2 JUMP JUMPDEST PUSH1 0x19 DUP2 PUSH1 0x20 DUP2 LT PUSH2 0x569 JUMPI PUSH1 0x0 DUP1 REVERT JUMPDEST PUSH1 0x20 SWAP2 DUP3 DUP3 DIV ADD SWAP2 SWAP1 MOD SWAP2 POP SLOAD SWAP1 PUSH2 0x100 EXP SWAP1 DIV PUSH1 0xFF AND DUP2 JUMP JUMPDEST PUSH1 0x0 SLOAD PUSH5 0x100000000 SWAP1 DIV PUSH4 0xFFFFFFFF AND PUSH1 0x3 EQ PUSH2 0x5E8 JUMPI PUSH1 0x40 MLOAD PUSH3 0x461BCD PUSH1 0xE5 SHL DUP2 MSTORE PUSH1 0x20 PUSH1 0x4 DUP3 ADD MSTORE PUSH1 0xA PUSH1 0x24 DUP3 ADD MSTORE PUSH32 0x77726F6E67206461746100000000000000000000000000000000000000000000 PUSH1 0x44 DUP3 ADD MSTORE PUSH1 0x64 ADD JUMPDEST PUSH1 0x40 MLOAD DUP1 SWAP2 SUB SWAP1 REVERT JUMPDEST PUSH1 0x0 SLOAD PUSH13 0x1000000000000000000000000 SWAP1 DIV PUSH4 0xFFFFFFFF AND TIMESTAMP GT PUSH2 0x63A JUMPI PUSH1 0x40 MLOAD PUSH3 0x461BCD PUSH1 0xE5 SHL DUP2 MSTORE PUSH1 0x20 PUSH1 0x4 DUP3 ADD MSTORE PUSH1 0x8 PUSH1 0x24 DUP3 ADD MSTORE PUSH8 0x3A37B79039B7B7B7 PUSH1 0xC1 SHL PUSH1 0x44 DUP3 ADD MSTORE PUSH1 0x64 ADD PUSH2 0x5DF JUMP JUMPDEST PUSH1 0x0 DUP1 SLOAD DUP2 SWAP1 PUSH4 0xFFFFFFFF PUSH1 0x1 PUSH1 0xC0 SHL DUP3 DIV DUP2 AND PUSH1 0x1 PUSH1 0xA0 SHL SWAP1 SWAP3 DIV AND GT ISZERO PUSH2 0x804 JUMPI PUSH1 0x3D SLOAD PUSH1 0x40 MLOAD PUSH32 0xC26F99400000000000000000000000000000000000000000000000000000000 DUP2 MSTORE PUSH1 0x1 PUSH1 0x1 PUSH1 0xA0 SHL SUB SWAP1 SWAP2 AND SWAP1 PUSH4 0xC26F994 SWAP1 PUSH2 0x6A7 SWAP1 PUSH1 0x19 SWAP1 PUSH1 0x4 ADD PUSH2 0x2633 JUMP JUMPDEST PUSH1 0x40 DUP1 MLOAD DUP1 DUP4 SUB DUP2 PUSH1 0x0 DUP8 GAS CALL ISZERO DUP1 ISZERO PUSH2 0x6C5 JUMPI RETURNDATASIZE PUSH1 0x0 DUP1 RETURNDATACOPY RETURNDATASIZE PUSH1 0x0 REVERT JUMPDEST POP POP POP POP PUSH1 0x40 MLOAD RETURNDATASIZE PUSH1 0x1F NOT PUSH1 0x1F DUP3 ADD AND DUP3 ADD DUP1 PUSH1 0x40 MSTORE POP DUP2 ADD SWAP1 PUSH2 0x6E9 SWAP2 SWAP1 PUSH2 0x28CA JUMP JUMPDEST PUSH1 0x0 DUP1 SLOAD PUSH32 0xFFFFFFFFFFFFFFFFFFFFFFFFFFFFFFFFFFFFFFFFFFFFFFFFFFFFFFFF00000000 AND PUSH4 0xFFFFFFFF DUP5 DUP2 AND SWAP2 SWAP1 SWAP2 OR SWAP2 DUP3 SWAP1 SSTORE SWAP2 SWAP5 POP SWAP2 SWAP3 POP PUSH2 0x744 SWAP2 PUSH17 0x100000000000000000000000000000000 SWAP1 DIV AND DUP4 PUSH2 0x2930 JUMP JUMPDEST PUSH1 0x0 DUP1 SLOAD PUSH1 0x1C SWAP1 PUSH2 0x763 SWAP1 DUP5 SWAP1 PUSH1 0x1 PUSH1 0xE0 SHL SWAP1 DIV PUSH4 0xFFFFFFFF AND PUSH2 0x2953 JUMP JUMPDEST SWAP3 POP PUSH2 0x100 EXP DUP2 SLOAD DUP2 PUSH4 0xFFFFFFFF MUL NOT AND SWAP1 DUP4 PUSH4 0xFFFFFFFF AND MUL OR SWAP1 SSTORE POP PUSH32 0x20DD2D358FE34919211E50A7415BBE4E0837DD45B50B2F611E3997DC7562520F PUSH1 0x1 PUSH1 0x0 DUP1 PUSH1 0x8 DUP2 LT PUSH2 0x7B7 JUMPI PUSH2 0x7B7 PUSH2 0x261D JUMP JUMPDEST PUSH1 0x8 DUP2 DIV SWAP2 SWAP1 SWAP2 ADD SLOAD PUSH1 0x0 SLOAD PUSH1 0x40 DUP1 MLOAD SWAP5 ISZERO ISZERO DUP6 MSTORE PUSH1 0x7 SWAP1 SWAP4 AND PUSH1 0x4 MUL PUSH2 0x100 EXP SWAP1 SWAP2 DIV PUSH4 0xFFFFFFFF SWAP1 DUP2 AND PUSH1 0x20 DUP6 ADD MSTORE PUSH1 0x1 PUSH1 0x40 SHL SWAP1 SWAP2 DIV AND DUP3 DUP3 ADD MSTORE MLOAD SWAP1 DUP2 SWAP1 SUB PUSH1 0x60 ADD SWAP1 LOG1 PUSH2 0x935 JUMP JUMPDEST PUSH2 0x810 PUSH1 0x2 PUSH1 0x32 PUSH2 0x2930 JUMP JUMPDEST PUSH1 0x0 DUP1 SLOAD PUSH1 0x10 SWAP1 PUSH2 0x83C SWAP1 DUP5 SWAP1 PUSH17 0x100000000000000000000000000000000 SWAP1 DIV PUSH4 0xFFFFFFFF AND PUSH2 0x2977 JUMP JUMPDEST SWAP3 POP PUSH2 0x100 EXP DUP2 SLOAD DUP2 PUSH4 0xFFFFFFFF MUL NOT AND SWAP1 DUP4 PUSH4 0xFFFFFFFF AND MUL OR SWAP1 SSTORE POP PUSH1 0x2 PUSH1 0x32 PUSH2 0x868 SWAP2 SWAP1 PUSH2 0x2930 JUMP JUMPDEST PUSH1 0x3A SLOAD PUSH1 0x1 PUSH1 0x1 PUSH1 0xA0 SHL SUB AND PUSH1 0x0 SWAP1 DUP2 MSTORE PUSH1 0x3B PUSH1 0x20 MSTORE PUSH1 0x40 DUP2 KECCAK256 DUP1 SLOAD SWAP1 SWAP2 SWAP1 PUSH2 0x898 SWAP1 DUP5 SWAP1 PUSH4 0xFFFFFFFF AND PUSH2 0x2977 JUMP JUMPDEST SWAP3 POP PUSH2 0x100 EXP DUP2 SLOAD DUP2 PUSH4 0xFFFFFFFF MUL NOT AND SWAP1 DUP4 PUSH4 0xFFFFFFFF AND MUL OR SWAP1 SSTORE POP PUSH32 0x20DD2D358FE34919211E50A7415BBE4E0837DD45B50B2F611E3997DC7562520F PUSH1 0x0 DUP1 PUSH1 0x0 PUSH1 0x8 DUP2 LT PUSH2 0x8EC JUMPI PUSH2 0x8EC PUSH2 0x261D JUMP JUMPDEST PUSH1 0x8 DUP2 DIV SWAP2 SWAP1 SWAP2 ADD SLOAD PUSH1 0x0 SLOAD PUSH1 0x40 DUP1 MLOAD SWAP5 ISZERO ISZERO DUP6 MSTORE PUSH1 0x7 SWAP1 SWAP4 AND PUSH1 0x4 MUL PUSH2 0x100 EXP SWAP1 SWAP2 DIV PUSH4 0xFFFFFFFF SWAP1 DUP2 AND PUSH1 0x20 DUP6 ADD MSTORE PUSH1 0x1 PUSH1 0x40 SHL SWAP1 SWAP2 DIV AND DUP3 DUP3 ADD MSTORE MLOAD SWAP1 DUP2 SWAP1 SUB PUSH1 0x60 ADD SWAP1 LOG1 JUMPDEST PUSH2 0x93D PUSH2 0x1A4C JUMP JUMPDEST POP POP JUMP JUMPDEST PUSH2 0x949 PUSH2 0x1F9D JUMP JUMPDEST PUSH1 0x40 DUP1 MLOAD PUSH2 0x400 DUP2 ADD SWAP1 SWAP2 MSTORE PUSH1 0x1A PUSH1 0x20 PUSH1 0x0 DUP4 JUMPDEST DUP3 DUP3 LT ISZERO PUSH2 0xA00 JUMPI DUP4 DUP3 ADD DUP1 SLOAD PUSH2 0x973 SWAP1 PUSH2 0x2994 JUMP JUMPDEST DUP1 PUSH1 0x1F ADD PUSH1 0x20 DUP1 SWAP2 DIV MUL PUSH1 0x20 ADD PUSH1 0x40 MLOAD SWAP1 DUP2 ADD PUSH1 0x40 MSTORE DUP1 SWAP3 SWAP2 SWAP1 DUP2 DUP2 MSTORE PUSH1 0x20 ADD DUP3 DUP1 SLOAD PUSH2 0x99F SWAP1 PUSH2 0x2994 JUMP JUMPDEST DUP1 ISZERO PUSH2 0x9EC JUMPI DUP1 PUSH1 0x1F LT PUSH2 0x9C1 JUMPI PUSH2 0x100 DUP1 DUP4 SLOAD DIV MUL DUP4 MSTORE SWAP2 PUSH1 0x20 ADD SWAP2 PUSH2 0x9EC JUMP JUMPDEST DUP3 ADD SWAP2 SWAP1 PUSH1 0x0 MSTORE PUSH1 0x20 PUSH1 0x0 KECCAK256 SWAP1 JUMPDEST DUP2 SLOAD DUP2 MSTORE SWAP1 PUSH1 0x1 ADD SWAP1 PUSH1 0x20 ADD DUP1 DUP4 GT PUSH2 0x9CF JUMPI DUP3 SWAP1 SUB PUSH1 0x1F AND DUP3 ADD SWAP2 JUMPDEST POP POP POP POP POP DUP2 MSTORE PUSH1 0x20 ADD SWAP1 PUSH1 0x1 ADD SWAP1 PUSH2 0x95D JUMP JUMPDEST POP POP POP POP SWAP1 POP SWAP1 JUMP JUMPDEST CALLER PUSH1 0x0 SWAP1 DUP2 MSTORE PUSH1 0x3B PUSH1 0x20 MSTORE PUSH1 0x40 DUP2 KECCAK256 SLOAD PUSH4 0xFFFFFFFF AND ISZERO PUSH2 0xABE JUMPI CALLER PUSH1 0x0 SWAP1 DUP2 MSTORE PUSH1 0x3B PUSH1 0x20 MSTORE PUSH1 0x40 DUP2 KECCAK256 SLOAD SWAP1 SLOAD PUSH2 0xA57 SWAP2 PUSH4 0xFFFFFFFF PUSH1 0x1 PUSH1 0x40 SHL SWAP1 SWAP2 DIV DUP2 AND SWAP2 PUSH1 0x1 PUSH1 0xE0 SHL SWAP1 DIV AND PUSH2 0x2977 JUMP JUMPDEST CALLER PUSH1 0x0 SWAP1 DUP2 MSTORE PUSH1 0x3B PUSH1 0x20 MSTORE PUSH1 0x40 SWAP1 KECCAK256 SLOAD PUSH2 0xA77 SWAP2 SWAP1 PUSH4 0xFFFFFFFF AND PUSH2 0x29CE JUMP JUMPDEST PUSH2 0xA8C SWAP1 PUSH4 0xFFFFFFFF AND PUSH5 0xE8D4A51000 PUSH2 0x29F6 JUMP JUMPDEST PUSH1 0x40 MLOAD SWAP1 SWAP2 POP CALLER SWAP1 DUP3 ISZERO PUSH2 0x8FC MUL SWAP1 DUP4 SWAP1 PUSH1 0x0 DUP2 DUP2 DUP2 DUP6 DUP9 DUP9 CALL SWAP4 POP POP POP POP ISZERO DUP1 ISZERO PUSH2 0xABC JUMPI RETURNDATASIZE PUSH1 0x0 DUP1 RETURNDATACOPY RETURNDATASIZE PUSH1 0x0 REVERT JUMPDEST POP JUMPDEST PUSH1 0x3C SLOAD PUSH1 0x40 MLOAD PUSH32 0x84269ED900000000000000000000000000000000000000000000000000000000 DUP2 MSTORE CALLER PUSH1 0x4 DUP3 ADD MSTORE ADDRESS PUSH1 0x24 DUP3 ADD MSTORE PUSH4 0xFFFFFFFF DUP5 AND PUSH1 0x44 DUP3 ADD MSTORE PUSH1 0x1 PUSH1 0x1 PUSH1 0xA0 SHL SUB SWAP1 SWAP2 AND SWAP1 PUSH4 0x84269ED9 SWAP1 PUSH1 0x64 ADD PUSH1 0x20 PUSH1 0x40 MLOAD DUP1 DUP4 SUB DUP2 PUSH1 0x0 DUP8 GAS CALL ISZERO DUP1 ISZERO PUSH2 0xB33 JUMPI RETURNDATASIZE PUSH1 0x0 DUP1 RETURNDATACOPY RETURNDATASIZE PUSH1 0x0 REVERT JUMPDEST POP POP POP POP PUSH1 0x40 MLOAD RETURNDATASIZE PUSH1 0x1F NOT PUSH1 0x1F DUP3 ADD AND DUP3 ADD DUP1 PUSH1 0x40 MSTORE POP DUP2 ADD SWAP1 PUSH2 0xB57 SWAP2 SWAP1 PUSH2 0x2A13 JUMP JUMPDEST POP PUSH1 0x0 DUP1 SLOAD CALLER DUP3 MSTORE PUSH1 0x3B PUSH1 0x20 MSTORE PUSH1 0x40 DUP3 KECCAK256 DUP1 SLOAD PUSH1 0x1 PUSH1 0x40 SHL PUSH4 0xFFFFFFFF PUSH1 0x1 PUSH1 0xE0 SHL SWAP1 SWAP5 DIV DUP5 AND MUL PUSH12 0xFFFFFFFF0000000000000000 NOT DUP3 AND DUP2 OR DUP4 SSTORE DUP7 SWAP5 SWAP3 SWAP4 PUSH2 0xBA7 SWAP3 DUP7 SWAP3 DUP3 AND SWAP2 AND OR PUSH2 0x2953 JUMP JUMPDEST SWAP3 POP PUSH2 0x100 EXP DUP2 SLOAD DUP2 PUSH4 0xFFFFFFFF MUL NOT AND SWAP1 DUP4 PUSH4 0xFFFFFFFF AND MUL OR SWAP1 SSTORE POP DUP2 PUSH1 0x0 PUSH1 0x4 PUSH1 0x8 DUP2 LT PUSH2 0xBDA JUMPI PUSH2 0xBDA PUSH2 0x261D JUMP JUMPDEST PUSH1 0x8 SWAP2 DUP3 DUP3 DIV ADD SWAP2 SWAP1 MOD PUSH1 0x4 MUL DUP3 DUP3 DUP3 SWAP1 SLOAD SWAP1 PUSH2 0x100 EXP SWAP1 DIV PUSH4 0xFFFFFFFF AND PUSH2 0xC03 SWAP2 SWAP1 PUSH2 0x2953 JUMP JUMPDEST DUP3 SLOAD PUSH2 0x100 SWAP3 SWAP1 SWAP3 EXP PUSH4 0xFFFFFFFF DUP2 DUP2 MUL NOT SWAP1 SWAP4 AND SWAP2 DUP4 AND MUL OR SWAP1 SWAP2 SSTORE PUSH1 0x40 DUP1 MLOAD SWAP2 DUP6 AND DUP3 MSTORE PUSH1 0x20 DUP3 ADD DUP5 SWAP1 MSTORE CALLER SWAP1 DUP3 ADD MSTORE PUSH32 0xCD8A5ECE39D0B175E7E2AE6D276A5296BCD7DA645B615B3D857B7FA2769DB583 SWAP2 POP PUSH1 0x60 ADD JUMPDEST PUSH1 0x40 MLOAD DUP1 SWAP2 SUB SWAP1 LOG1 POP POP JUMP JUMPDEST PUSH1 0x0 SLOAD PUSH5 0x100000000 SWAP1 DIV PUSH4 0xFFFFFFFF AND PUSH1 0x2 EQ PUSH2 0xCC8 JUMPI PUSH1 0x40 MLOAD PUSH3 0x461BCD PUSH1 0xE5 SHL DUP2 MSTORE PUSH1 0x20 PUSH1 0x4 DUP3 ADD MSTORE PUSH1 0xA PUSH1 0x24 DUP3 ADD MSTORE PUSH32 0x77726F6E67206461746100000000000000000000000000000000000000000000 PUSH1 0x44 DUP3 ADD MSTORE PUSH1 0x64 ADD PUSH2 0x5DF JUMP JUMPDEST PUSH1 0x0 SLOAD PUSH13 0x1000000000000000000000000 SWAP1 DIV PUSH4 0xFFFFFFFF AND TIMESTAMP GT PUSH2 0xD1A JUMPI PUSH1 0x40 MLOAD PUSH3 0x461BCD PUSH1 0xE5 SHL DUP2 MSTORE PUSH1 0x20 PUSH1 0x4 DUP3 ADD MSTORE PUSH1 0x8 PUSH1 0x24 DUP3 ADD MSTORE PUSH8 0x3A37B79039B7B7B7 PUSH1 0xC1 SHL PUSH1 0x44 DUP3 ADD MSTORE PUSH1 0x64 ADD PUSH2 0x5DF JUMP JUMPDEST PUSH1 0x0 SLOAD PUSH4 0xFFFFFFFF PUSH1 0x1 PUSH1 0xC0 SHL DUP3 DIV DUP2 AND PUSH1 0x1 PUSH1 0xA0 SHL SWAP1 SWAP3 DIV AND GT ISZERO PUSH2 0xE39 JUMPI PUSH1 0x3D SLOAD PUSH1 0x40 MLOAD PUSH32 0x6C59757900000000000000000000000000000000000000000000000000000000 DUP2 MSTORE PUSH1 0x1 PUSH1 0x1 PUSH1 0xA0 SHL SUB SWAP1 SWAP2 AND SWAP1 PUSH4 0x6C597579 SWAP1 PUSH2 0xD84 SWAP1 PUSH1 0x11 SWAP1 PUSH1 0x4 ADD PUSH2 0x2A30 JUMP JUMPDEST PUSH1 0x0 PUSH1 0x40 MLOAD DUP1 DUP4 SUB DUP2 PUSH1 0x0 DUP8 DUP1 EXTCODESIZE ISZERO DUP1 ISZERO PUSH2 0xD9E JUMPI PUSH1 0x0 DUP1 REVERT JUMPDEST POP GAS CALL ISZERO DUP1 ISZERO PUSH2 0xDB2 JUMPI RETURNDATASIZE PUSH1 0x0 DUP1 RETURNDATACOPY RETURNDATASIZE PUSH1 0x0 REVERT JUMPDEST POP POP POP POP PUSH32 0x20DD2D358FE34919211E50A7415BBE4E0837DD45B50B2F611E3997DC7562520F PUSH1 0x1 PUSH1 0x0 DUP1 PUSH1 0x8 DUP2 LT PUSH2 0xDEC JUMPI PUSH2 0xDEC PUSH2 0x261D JUMP JUMPDEST PUSH1 0x8 DUP2 DIV SWAP2 SWAP1 SWAP2 ADD SLOAD PUSH1 0x0 SLOAD PUSH1 0x40 DUP1 MLOAD SWAP5 ISZERO ISZERO DUP6 MSTORE PUSH1 0x7 SWAP1 SWAP4 AND PUSH1 0x4 MUL PUSH2 0x100 EXP SWAP1 SWAP2 DIV PUSH4 0xFFFFFFFF SWAP1 DUP2 AND PUSH1 0x20 DUP6 ADD MSTORE PUSH1 0x1 PUSH1 0x40 SHL SWAP1 SWAP2 DIV AND DUP3 DUP3 ADD MSTORE MLOAD SWAP1 DUP2 SWAP1 SUB PUSH1 0x60 ADD SWAP1 LOG1 PUSH2 0xF6A JUMP JUMPDEST PUSH2 0xE45 PUSH1 0x2 PUSH1 0x32 PUSH2 0x2930 JUMP JUMPDEST PUSH1 0x0 DUP1 SLOAD PUSH1 0x10 SWAP1 PUSH2 0xE71 SWAP1 DUP5 SWAP1 PUSH17 0x100000000000000000000000000000000 SWAP1 DIV PUSH4 0xFFFFFFFF AND PUSH2 0x2977 JUMP JUMPDEST SWAP3 POP PUSH2 0x100 EXP DUP2 SLOAD DUP2 PUSH4 0xFFFFFFFF MUL NOT AND SWAP1 DUP4 PUSH4 0xFFFFFFFF AND MUL OR SWAP1 SSTORE POP PUSH1 0x2 PUSH1 0x32 PUSH2 0xE9D SWAP2 SWAP1 PUSH2 0x2930 JUMP JUMPDEST PUSH1 0x3A SLOAD PUSH1 0x1 PUSH1 0x1 PUSH1 0xA0 SHL SUB AND PUSH1 0x0 SWAP1 DUP2 MSTORE PUSH1 0x3B PUSH1 0x20 MSTORE PUSH1 0x40 DUP2 KECCAK256 DUP1 SLOAD SWAP1 SWAP2 SWAP1 PUSH2 0xECD SWAP1 DUP5 SWAP1 PUSH4 0xFFFFFFFF AND PUSH2 0x2977 JUMP JUMPDEST SWAP3 POP PUSH2 0x100 EXP DUP2 SLOAD DUP2 PUSH4 0xFFFFFFFF MUL NOT AND SWAP1 DUP4 PUSH4 0xFFFFFFFF AND MUL OR SWAP1 SSTORE POP PUSH32 0x20DD2D358FE34919211E50A7415BBE4E0837DD45B50B2F611E3997DC7562520F PUSH1 0x0 DUP1 PUSH1 0x0 PUSH1 0x8 DUP2 LT PUSH2 0xF21 JUMPI PUSH2 0xF21 PUSH2 0x261D JUMP JUMPDEST PUSH1 0x8 DUP2 DIV SWAP2 SWAP1 SWAP2 ADD SLOAD PUSH1 0x0 SLOAD PUSH1 0x40 DUP1 MLOAD SWAP5 ISZERO ISZERO DUP6 MSTORE PUSH1 0x7 SWAP1 SWAP4 AND PUSH1 0x4 MUL PUSH2 0x100 EXP SWAP1 SWAP2 DIV PUSH4 0xFFFFFFFF SWAP1 DUP2 AND PUSH1 0x20 DUP6 ADD MSTORE PUSH1 0x1 PUSH1 0x40 SHL SWAP1 SWAP2 DIV AND DUP3 DUP3 ADD MSTORE MLOAD SWAP1 DUP2 SWAP1 SUB PUSH1 0x60 ADD SWAP1 LOG1 JUMPDEST PUSH2 0xF72 PUSH2 0x1A4C JUMP JUMPDEST JUMP JUMPDEST CALLER PUSH1 0x0 SWAP1 DUP2 MSTORE PUSH1 0x3B PUSH1 0x20 MSTORE PUSH1 0x40 SWAP1 KECCAK256 SLOAD PUSH4 0xFFFFFFFF AND PUSH2 0xF93 JUMPI PUSH1 0x0 DUP1 REVERT JUMPDEST PUSH1 0x0 DUP1 SLOAD PUSH5 0x100000000 SWAP1 DIV PUSH4 0xFFFFFFFF AND SWAP1 SUB PUSH2 0xFB0 JUMPI PUSH1 0x0 DUP1 REVERT JUMPDEST PUSH1 0x0 DUP1 SLOAD CALLER DUP3 MSTORE PUSH1 0x3B PUSH1 0x20 MSTORE PUSH1 0x40 SWAP1 SWAP2 KECCAK256 SLOAD PUSH1 0x1 PUSH1 0x40 SHL SWAP1 SWAP2 DIV PUSH4 0xFFFFFFFF SWAP1 DUP2 AND PUSH5 0x100000000 SWAP1 SWAP3 DIV AND SUB PUSH2 0xFE6 JUMPI PUSH1 0x0 DUP1 REVERT JUMPDEST PUSH1 0x0 DUP1 SLOAD CALLER DUP3 MSTORE PUSH1 0x3B PUSH1 0x20 MSTORE PUSH1 0x40 SWAP1 SWAP2 KECCAK256 DUP1 SLOAD PUSH8 0xFFFFFFFF00000000 NOT AND PUSH1 0x1 PUSH1 0x40 SHL SWAP1 SWAP3 DIV PUSH4 0xFFFFFFFF AND PUSH5 0x100000000 MUL SWAP2 SWAP1 SWAP2 OR SWAP1 SSTORE DUP1 ISZERO PUSH2 0x1078 JUMPI CALLER PUSH1 0x0 SWAP1 DUP2 MSTORE PUSH1 0x3B PUSH1 0x20 MSTORE PUSH1 0x40 DUP2 KECCAK256 SLOAD DUP2 SLOAD PUSH4 0xFFFFFFFF SWAP2 DUP3 AND SWAP3 SWAP2 PUSH1 0x14 SWAP2 PUSH2 0x1057 SWAP2 DUP6 SWAP2 PUSH1 0x1 PUSH1 0xA0 SHL SWAP1 DIV AND PUSH2 0x2953 JUMP JUMPDEST SWAP3 POP PUSH2 0x100 EXP DUP2 SLOAD DUP2 PUSH4 0xFFFFFFFF MUL NOT AND SWAP1 DUP4 PUSH4 0xFFFFFFFF AND MUL OR SWAP1 SSTORE POP POP JUMP JUMPDEST CALLER PUSH1 0x0 SWAP1 DUP2 MSTORE PUSH1 0x3B PUSH1 0x20 MSTORE PUSH1 0x40 DUP2 KECCAK256 SLOAD DUP2 SLOAD PUSH4 0xFFFFFFFF SWAP2 DUP3 AND SWAP3 SWAP2 PUSH1 0x18 SWAP2 PUSH2 0x1057 SWAP2 DUP6 SWAP2 PUSH1 0x1 PUSH1 0xC0 SHL SWAP1 DIV AND PUSH2 0x2953 JUMP JUMPDEST POP JUMP JUMPDEST CALLER PUSH1 0x0 SWAP1 DUP2 MSTORE PUSH1 0x3B PUSH1 0x20 MSTORE PUSH1 0x40 SWAP1 KECCAK256 SLOAD PUSH4 0x1DCD6500 PUSH4 0xFFFFFFFF SWAP1 SWAP2 AND LT ISZERO PUSH2 0x10D5 JUMPI PUSH1 0x0 DUP1 REVERT JUMPDEST PUSH1 0x3D SLOAD PUSH1 0x40 MLOAD PUSH32 0x654E207F00000000000000000000000000000000000000000000000000000000 DUP2 MSTORE PUSH4 0xFFFFFFFF DUP4 AND PUSH1 0x4 DUP3 ADD MSTORE PUSH1 0x1 PUSH1 0x1 PUSH1 0xA0 SHL SUB SWAP1 SWAP2 AND SWAP1 PUSH4 0x654E207F SWAP1 PUSH1 0x24 ADD PUSH1 0x0 PUSH1 0x40 MLOAD DUP1 DUP4 SUB DUP2 PUSH1 0x0 DUP8 DUP1 EXTCODESIZE ISZERO DUP1 ISZERO PUSH2 0x1139 JUMPI PUSH1 0x0 DUP1 REVERT JUMPDEST POP GAS CALL ISZERO DUP1 ISZERO PUSH2 0x114D JUMPI RETURNDATASIZE PUSH1 0x0 DUP1 RETURNDATACOPY RETURNDATASIZE PUSH1 0x0 REVERT JUMPDEST POP POP PUSH1 0x40 MLOAD PUSH4 0xFFFFFFFF DUP5 AND DUP2 MSTORE PUSH32 0x814D5D412C9E5C68D4ADAFD64C8D3D494E6CE7124CAE6745A99B5AF1C58CA79 SWAP3 POP PUSH1 0x20 ADD SWAP1 POP JUMPDEST PUSH1 0x40 MLOAD DUP1 SWAP2 SUB SWAP1 LOG1 POP JUMP JUMPDEST PUSH1 0x0 SLOAD PUSH5 0x100000000 SWAP1 DIV PUSH4 0xFFFFFFFF AND ISZERO PUSH2 0x11ED JUMPI PUSH1 0x40 MLOAD PUSH3 0x461BCD PUSH1 0xE5 SHL DUP2 MSTORE PUSH1 0x20 PUSH1 0x4 DUP3 ADD MSTORE PUSH1 0x14 PUSH1 0x24 DUP3 ADD MSTORE PUSH32 0x416C726561647920756E64657220526576696577000000000000000000000000 PUSH1 0x44 DUP3 ADD MSTORE PUSH1 0x64 ADD PUSH2 0x5DF JUMP JUMPDEST PUSH1 0x0 DUP1 SLOAD PUSH8 0xFFFFFFFF00000000 NOT AND PUSH5 0x300000000 OR SWAP1 SSTORE PUSH2 0x120D PUSH2 0x1B52 JUMP JUMPDEST PUSH2 0x121A PUSH1 0x19 DUP3 PUSH1 0x20 PUSH2 0x1FC5 JUMP JUMPDEST POP PUSH1 0x0 SLOAD PUSH1 0x40 MLOAD PUSH32 0xC3112836F9EE0A75D7EB745CEB3D24F881BD142A63D78420BE0ED828947D69DC SWAP2 PUSH2 0x1184 SWAP2 PUSH4 0xFFFFFFFF DUP1 DUP4 AND SWAP3 PUSH1 0x1 PUSH1 0x40 SHL SWAP1 DIV AND SWAP1 DUP6 SWAP1 PUSH2 0x2A93 JUMP JUMPDEST PUSH1 0x0 PUSH2 0xE10 PUSH2 0x1272 PUSH3 0x15180 TIMESTAMP PUSH2 0x2AE2 JUMP JUMPDEST PUSH2 0x127C SWAP2 SWAP1 PUSH2 0x2AF6 JUMP JUMPDEST SWAP1 POP SWAP1 JUMP JUMPDEST PUSH1 0x1 DUP2 PUSH1 0x20 DUP2 LT PUSH2 0x1291 JUMPI PUSH1 0x0 DUP1 REVERT JUMPDEST PUSH1 0x2 SWAP2 DUP3 DUP3 DIV ADD SWAP2 SWAP1 MOD PUSH1 0xC MUL SWAP2 POP SLOAD SWAP1 PUSH2 0x100 EXP SWAP1 DIV PUSH12 0xFFFFFFFFFFFFFFFFFFFFFFFF AND DUP2 JUMP JUMPDEST PUSH1 0x0 DUP2 PUSH1 0x8 DUP2 LT PUSH2 0x12C9 JUMPI PUSH1 0x0 DUP1 REVERT JUMPDEST PUSH1 0x8 SWAP2 DUP3 DUP3 DIV ADD SWAP2 SWAP1 MOD PUSH1 0x4 MUL SWAP2 POP SLOAD SWAP1 PUSH2 0x100 EXP SWAP1 DIV PUSH4 0xFFFFFFFF AND DUP2 JUMP JUMPDEST PUSH1 0x0 SLOAD PUSH5 0x100000000 SWAP1 DIV PUSH4 0xFFFFFFFF AND ISZERO PUSH2 0x1347 JUMPI PUSH1 0x40 MLOAD PUSH3 0x461BCD PUSH1 0xE5 SHL DUP2 MSTORE PUSH1 0x20 PUSH1 0x4 DUP3 ADD MSTORE PUSH1 0x14 PUSH1 0x24 DUP3 ADD MSTORE PUSH32 0x416C726561647920756E64657220526576696577000000000000000000000000 PUSH1 0x44 DUP3 ADD MSTORE PUSH1 0x64 ADD PUSH2 0x5DF JUMP JUMPDEST PUSH1 0x0 DUP1 SLOAD PUSH8 0xFFFFFFFF00000000 NOT AND PUSH5 0x200000000 OR SWAP1 SSTORE PUSH2 0x1367 PUSH2 0x1B52 JUMP JUMPDEST PUSH2 0x1370 DUP2 PUSH2 0x1D17 JUMP JUMPDEST PUSH2 0x137E SWAP1 PUSH1 0x11 SWAP1 PUSH1 0x20 PUSH2 0x2058 JUMP JUMPDEST POP PUSH1 0x0 SLOAD PUSH1 0x40 MLOAD PUSH32 0x49B4BC9C053B4C36615642B3229D4B569C3357E92266AED739428F05C2B15407 SWAP2 PUSH2 0x1184 SWAP2 PUSH4 0xFFFFFFFF DUP1 DUP4 AND SWAP3 PUSH1 0x1 PUSH1 0x40 SHL SWAP1 DIV AND SWAP1 DUP6 SWAP1 PUSH2 0x2B0A JUMP JUMPDEST PUSH1 0x0 SLOAD PUSH5 0x100000000 SWAP1 DIV PUSH4 0xFFFFFFFF AND ISZERO PUSH2 0x1422 JUMPI PUSH1 0x40 MLOAD PUSH3 0x461BCD PUSH1 0xE5 SHL DUP2 MSTORE PUSH1 0x20 PUSH1 0x4 DUP3 ADD MSTORE PUSH1 0x14 PUSH1 0x24 DUP3 ADD MSTORE PUSH32 0x416C726561647920756E64657220526576696577000000000000000000000000 PUSH1 0x44 DUP3 ADD MSTORE PUSH1 0x64 ADD PUSH2 0x5DF JUMP JUMPDEST PUSH2 0x142C DUP3 DUP3 PUSH2 0x1E3C JUMP JUMPDEST PUSH2 0x143A SWAP1 PUSH1 0x1 SWAP1 PUSH1 0x20 PUSH2 0x20EE JUMP JUMPDEST POP PUSH1 0x0 DUP1 SLOAD PUSH8 0xFFFFFFFF00000000 NOT AND PUSH5 0x100000000 OR SWAP1 SSTORE PUSH2 0x145B PUSH2 0x1B52 JUMP JUMPDEST PUSH2 0x1468 PUSH1 0x1A DUP5 PUSH1 0x20 PUSH2 0x2190 JUMP JUMPDEST POP PUSH1 0x0 SLOAD PUSH1 0x40 MLOAD PUSH32 0x6530CB2E3260E20D52F3AE9C7966099AD3DDB5E2BEDFD0FE4C0459C7245FAE42 SWAP2 PUSH2 0x14AE SWAP2 PUSH4 0xFFFFFFFF DUP1 DUP4 AND SWAP3 PUSH1 0x1 PUSH1 0x40 SHL SWAP1 DIV AND SWAP1 DUP8 SWAP1 PUSH2 0x2B59 JUMP JUMPDEST PUSH1 0x40 MLOAD DUP1 SWAP2 SUB SWAP1 LOG1 PUSH1 0x0 SLOAD PUSH1 0x40 MLOAD PUSH32 0x155123C2DD70F9F15FA563C0D47F5BA62D9DD1602A73D7AB36B33CA4CB2940C6 SWAP2 PUSH2 0x14FB SWAP2 PUSH4 0xFFFFFFFF DUP1 DUP4 AND SWAP3 PUSH1 0x1 PUSH1 0x40 SHL SWAP1 DIV AND SWAP1 DUP7 SWAP1 PUSH2 0x2B0A JUMP JUMPDEST PUSH1 0x40 MLOAD DUP1 SWAP2 SUB SWAP1 LOG1 PUSH1 0x0 SLOAD PUSH1 0x40 MLOAD PUSH32 0x49B4BC9C053B4C36615642B3229D4B569C3357E92266AED739428F05C2B15407 SWAP2 PUSH2 0x1548 SWAP2 PUSH4 0xFFFFFFFF DUP1 DUP4 AND SWAP3 PUSH1 0x1 PUSH1 0x40 SHL SWAP1 DIV AND SWAP1 DUP6 SWAP1 PUSH2 0x2B0A JUMP JUMPDEST PUSH1 0x40 MLOAD DUP1 SWAP2 SUB SWAP1 LOG1 POP POP POP JUMP JUMPDEST CALLER PUSH1 0x0 SWAP1 DUP2 MSTORE PUSH1 0x3B PUSH1 0x20 MSTORE PUSH1 0x40 SWAP1 KECCAK256 SLOAD PUSH4 0xFFFFFFFF SWAP1 DUP2 AND SWAP1 DUP3 AND GT ISZERO PUSH2 0x15BE JUMPI PUSH1 0x40 MLOAD PUSH3 0x461BCD PUSH1 0xE5 SHL DUP2 MSTORE PUSH1 0x20 PUSH1 0x4 DUP3 ADD MSTORE PUSH1 0xB PUSH1 0x24 DUP3 ADD MSTORE PUSH32 0x6E65656420746F6B656E73000000000000000000000000000000000000000000 PUSH1 0x44 DUP3 ADD MSTORE PUSH1 0x64 ADD PUSH2 0x5DF JUMP JUMPDEST PUSH1 0x0 SLOAD PUSH5 0x100000000 SWAP1 DIV PUSH4 0xFFFFFFFF AND ISZERO PUSH2 0x161C JUMPI PUSH1 0x40 MLOAD PUSH3 0x461BCD PUSH1 0xE5 SHL DUP2 MSTORE PUSH1 0x20 PUSH1 0x4 DUP3 ADD MSTORE PUSH1 0x11 PUSH1 0x24 DUP3 ADD MSTORE PUSH32 0x6E6F20776420647572696E6720766F7465000000000000000000000000000000 PUSH1 0x44 DUP3 ADD MSTORE PUSH1 0x64 ADD PUSH2 0x5DF JUMP JUMPDEST CALLER PUSH1 0x0 SWAP1 DUP2 MSTORE PUSH1 0x3B PUSH1 0x20 MSTORE PUSH1 0x40 DUP2 KECCAK256 SLOAD DUP2 SLOAD PUSH2 0x164F SWAP2 PUSH4 0xFFFFFFFF PUSH1 0x1 PUSH1 0x40 SHL SWAP1 SWAP2 DIV DUP2 AND SWAP2 PUSH1 0x1 PUSH1 0xE0 SHL SWAP1 DIV AND PUSH2 0x2977 JUMP JUMPDEST CALLER PUSH1 0x0 SWAP1 DUP2 MSTORE PUSH1 0x3B PUSH1 0x20 MSTORE PUSH1 0x40 SWAP1 KECCAK256 SLOAD PUSH2 0x166F SWAP2 SWAP1 PUSH4 0xFFFFFFFF AND PUSH2 0x29CE JUMP JUMPDEST PUSH2 0x1684 SWAP1 PUSH4 0xFFFFFFFF AND PUSH5 0xE8D4A51000 PUSH2 0x29F6 JUMP JUMPDEST PUSH1 0x0 DUP1 SLOAD CALLER DUP3 MSTORE PUSH1 0x3B PUSH1 0x20 MSTORE PUSH1 0x40 DUP3 KECCAK256 DUP1 SLOAD PUSH1 0x1 PUSH1 0x40 SHL PUSH4 0xFFFFFFFF PUSH1 0x1 PUSH1 0xE0 SHL SWAP1 SWAP5 DIV DUP5 AND MUL PUSH12 0xFFFFFFFF0000000000000000 NOT SWAP1 SWAP2 AND OR SWAP1 SSTORE DUP2 SLOAD SWAP3 SWAP4 POP DUP5 SWAP3 PUSH1 0x10 SWAP2 PUSH2 0x16EA SWAP2 DUP6 SWAP2 PUSH17 0x100000000000000000000000000000000 SWAP1 SWAP2 DIV AND PUSH2 0x2977 JUMP JUMPDEST DUP3 SLOAD PUSH2 0x100 SWAP3 SWAP1 SWAP3 EXP PUSH4 0xFFFFFFFF DUP2 DUP2 MUL NOT SWAP1 SWAP4 AND SWAP2 DUP4 AND MUL OR SWAP1 SWAP2 SSTORE CALLER PUSH1 0x0 SWAP1 DUP2 MSTORE PUSH1 0x3B PUSH1 0x20 MSTORE PUSH1 0x40 DUP2 KECCAK256 DUP1 SLOAD DUP7 SWAP5 POP SWAP1 SWAP3 PUSH2 0x1729 SWAP2 DUP6 SWAP2 AND PUSH2 0x2977 JUMP JUMPDEST SWAP3 POP PUSH2 0x100 EXP DUP2 SLOAD DUP2 PUSH4 0xFFFFFFFF MUL NOT AND SWAP1 DUP4 PUSH4 0xFFFFFFFF AND MUL OR SWAP1 SSTORE POP CALLER PUSH1 0x1 PUSH1 0x1 PUSH1 0xA0 SHL SUB AND PUSH2 0x8FC DUP3 SWAP1 DUP2 ISZERO MUL SWAP1 PUSH1 0x40 MLOAD PUSH1 0x0 PUSH1 0x40 MLOAD DUP1 DUP4 SUB DUP2 DUP6 DUP9 DUP9 CALL SWAP4 POP POP POP POP ISZERO DUP1 ISZERO PUSH2 0x1780 JUMPI RETURNDATASIZE PUSH1 0x0 DUP1 RETURNDATACOPY RETURNDATASIZE PUSH1 0x0 REVERT JUMPDEST POP PUSH1 0x3C SLOAD PUSH1 0x40 MLOAD PUSH32 0x8009748400000000000000000000000000000000000000000000000000000000 DUP2 MSTORE CALLER PUSH1 0x4 DUP3 ADD MSTORE PUSH4 0xFFFFFFFF DUP5 AND PUSH1 0x24 DUP3 ADD MSTORE PUSH1 0x1 PUSH1 0x1 PUSH1 0xA0 SHL SUB SWAP1 SWAP2 AND SWAP1 PUSH4 0x80097484 SWAP1 PUSH1 0x44 ADD PUSH1 0x20 PUSH1 0x40 MLOAD DUP1 DUP4 SUB DUP2 PUSH1 0x0 DUP8 GAS CALL ISZERO DUP1 ISZERO PUSH2 0x17F0 JUMPI RETURNDATASIZE PUSH1 0x0 DUP1 RETURNDATACOPY RETURNDATASIZE PUSH1 0x0 REVERT JUMPDEST POP POP POP POP PUSH1 0x40 MLOAD RETURNDATASIZE PUSH1 0x1F NOT PUSH1 0x1F DUP3 ADD AND DUP3 ADD DUP1 PUSH1 0x40 MSTORE POP DUP2 ADD SWAP1 PUSH2 0x1814 SWAP2 SWAP1 PUSH2 0x2A13 JUMP JUMPDEST POP PUSH1 0x40 DUP1 MLOAD PUSH4 0xFFFFFFFF DUP5 AND DUP2 MSTORE PUSH1 0x20 DUP2 ADD DUP4 SWAP1 MSTORE CALLER SWAP2 DUP2 ADD SWAP2 SWAP1 SWAP2 MSTORE PUSH32 0xCD8A5ECE39D0B175E7E2AE6D276A5296BCD7DA645B615B3D857B7FA2769DB583 SWAP1 PUSH1 0x60 ADD PUSH2 0xC5C JUMP JUMPDEST PUSH1 0x11 DUP2 PUSH1 0x20 DUP2 LT PUSH2 0x186B JUMPI PUSH1 0x0 DUP1 REVERT JUMPDEST PUSH1 0x4 SWAP2 DUP3 DUP3 DIV ADD SWAP2 SWAP1 MOD PUSH1 0x8 MUL SWAP2 POP SLOAD SWAP1 PUSH2 0x100 EXP SWAP1 DIV PUSH8 0xFFFFFFFFFFFFFFFF AND DUP2 JUMP JUMPDEST PUSH1 0x0 SLOAD PUSH4 0xFFFFFFFF PUSH5 0x100000000 SWAP1 SWAP2 DIV AND PUSH1 0x1 EQ PUSH2 0x18F0 JUMPI PUSH1 0x40 MLOAD PUSH3 0x461BCD PUSH1 0xE5 SHL DUP2 MSTORE PUSH1 0x20 PUSH1 0x4 DUP3 ADD MSTORE PUSH1 0xA PUSH1 0x24 DUP3 ADD MSTORE PUSH32 0x77726F6E67206461746100000000000000000000000000000000000000000000 PUSH1 0x44 DUP3 ADD MSTORE PUSH1 0x64 ADD PUSH2 0x5DF JUMP JUMPDEST PUSH1 0x0 SLOAD PUSH13 0x1000000000000000000000000 SWAP1 DIV PUSH4 0xFFFFFFFF AND TIMESTAMP GT PUSH2 0x1942 JUMPI PUSH1 0x40 MLOAD PUSH3 0x461BCD PUSH1 0xE5 SHL DUP2 MSTORE PUSH1 0x20 PUSH1 0x4 DUP3 ADD MSTORE PUSH1 0x8 PUSH1 0x24 DUP3 ADD MSTORE PUSH8 0x3A37B79039B7B7B7 PUSH1 0xC1 SHL PUSH1 0x44 DUP3 ADD MSTORE PUSH1 0x64 ADD PUSH2 0x5DF JUMP JUMPDEST PUSH1 0x0 SLOAD PUSH4 0xFFFFFFFF PUSH1 0x1 PUSH1 0xC0 SHL DUP3 DIV DUP2 AND PUSH1 0x1 PUSH1 0xA0 SHL SWAP1 SWAP3 DIV AND GT ISZERO PUSH2 0xE39 JUMPI PUSH1 0x3D SLOAD PUSH1 0x40 MLOAD PUSH32 0xC05CBB700000000000000000000000000000000000000000000000000000000 DUP2 MSTORE PUSH1 0x1 PUSH1 0x1 PUSH1 0xA0 SHL SUB SWAP1 SWAP2 AND SWAP1 PUSH4 0xC05CBB7 SWAP1 PUSH2 0xD84 SWAP1 PUSH1 0x1 SWAP1 PUSH1 0x4 ADD PUSH2 0x2B8B JUMP JUMPDEST PUSH1 0x1A DUP2 PUSH1 0x20 DUP2 LT PUSH2 0x19BC JUMPI PUSH1 0x0 DUP1 REVERT JUMPDEST ADD DUP1 SLOAD SWAP1 SWAP2 POP PUSH2 0x19CB SWAP1 PUSH2 0x2994 JUMP JUMPDEST DUP1 PUSH1 0x1F ADD PUSH1 0x20 DUP1 SWAP2 DIV MUL PUSH1 0x20 ADD PUSH1 0x40 MLOAD SWAP1 DUP2 ADD PUSH1 0x40 MSTORE DUP1 SWAP3 SWAP2 SWAP1 DUP2 DUP2 MSTORE PUSH1 0x20 ADD DUP3 DUP1 SLOAD PUSH2 0x19F7 SWAP1 PUSH2 0x2994 JUMP JUMPDEST DUP1 ISZERO PUSH2 0x1A44 JUMPI DUP1 PUSH1 0x1F LT PUSH2 0x1A19 JUMPI PUSH2 0x100 DUP1 DUP4 SLOAD DIV MUL DUP4 MSTORE SWAP2 PUSH1 0x20 ADD SWAP2 PUSH2 0x1A44 JUMP JUMPDEST DUP3 ADD SWAP2 SWAP1 PUSH1 0x0 MSTORE PUSH1 0x20 PUSH1 0x0 KECCAK256 SWAP1 JUMPDEST DUP2 SLOAD DUP2 MSTORE SWAP1 PUSH1 0x1 ADD SWAP1 PUSH1 0x20 ADD DUP1 DUP4 GT PUSH2 0x1A27 JUMPI DUP3 SWAP1 SUB PUSH1 0x1F AND DUP3 ADD SWAP2 JUMPDEST POP POP POP POP POP DUP2 JUMP JUMPDEST PUSH1 0x0 DUP1 SLOAD PUSH8 0xFFFFFFFF00000000 NOT AND DUP1 DUP3 SSTORE PUSH1 0x1 PUSH1 0x40 SHL SWAP1 DIV PUSH4 0xFFFFFFFF AND SWAP1 PUSH1 0x8 PUSH2 0x1A77 DUP4 PUSH2 0x2BDD JUMP JUMPDEST SWAP2 SWAP1 PUSH2 0x100 EXP DUP2 SLOAD DUP2 PUSH4 0xFFFFFFFF MUL NOT AND SWAP1 DUP4 PUSH4 0xFFFFFFFF AND MUL OR SWAP1 SSTORE POP POP PUSH1 0x0 DUP1 PUSH1 0x3 PUSH1 0x8 DUP2 LT PUSH2 0x1AAB JUMPI PUSH2 0x1AAB PUSH2 0x261D JUMP JUMPDEST PUSH1 0x8 SWAP2 DUP3 DUP3 DIV ADD SWAP2 SWAP1 MOD PUSH1 0x4 MUL PUSH2 0x100 EXP DUP2 SLOAD DUP2 PUSH4 0xFFFFFFFF MUL NOT AND SWAP1 DUP4 PUSH4 0xFFFFFFFF AND MUL OR SWAP1 SSTORE POP PUSH1 0x0 DUP1 PUSH1 0x5 PUSH1 0x8 DUP2 LT PUSH2 0x1AE9 JUMPI PUSH2 0x1AE9 PUSH2 0x261D JUMP JUMPDEST PUSH1 0x8 SWAP2 DUP3 DUP3 DIV ADD SWAP2 SWAP1 MOD PUSH1 0x4 MUL PUSH2 0x100 EXP DUP2 SLOAD DUP2 PUSH4 0xFFFFFFFF MUL NOT AND SWAP1 DUP4 PUSH4 0xFFFFFFFF AND MUL OR SWAP1 SSTORE POP PUSH1 0x0 DUP1 PUSH1 0x6 PUSH1 0x8 DUP2 LT PUSH2 0x1B27 JUMPI PUSH2 0x1B27 PUSH2 0x261D JUMP JUMPDEST PUSH1 0x8 SWAP2 DUP3 DUP3 DIV ADD SWAP2 SWAP1 MOD PUSH1 0x4 MUL PUSH2 0x100 EXP DUP2 SLOAD DUP2 PUSH4 0xFFFFFFFF MUL NOT AND SWAP1 DUP4 PUSH4 0xFFFFFFFF AND MUL OR SWAP1 SSTORE POP JUMP JUMPDEST PUSH2 0x1B5A PUSH2 0x1260 JUMP JUMPDEST POP CALLER PUSH1 0x0 SWAP1 DUP2 MSTORE PUSH1 0x3B PUSH1 0x20 MSTORE PUSH1 0x40 SWAP1 KECCAK256 SLOAD PUSH1 0x32 PUSH4 0xFFFFFFFF SWAP1 SWAP2 AND LT ISZERO PUSH2 0x1BC3 JUMPI PUSH1 0x40 MLOAD PUSH3 0x461BCD PUSH1 0xE5 SHL DUP2 MSTORE PUSH1 0x20 PUSH1 0x4 DUP3 ADD MSTORE PUSH1 0xB PUSH1 0x24 DUP3 ADD MSTORE PUSH32 0x4C6F772042616C616E6365000000000000000000000000000000000000000000 PUSH1 0x44 DUP3 ADD MSTORE PUSH1 0x64 ADD PUSH2 0x5DF JUMP JUMPDEST PUSH2 0x1BCF PUSH2 0xA8C0 TIMESTAMP PUSH2 0x2953 JUMP JUMPDEST PUSH1 0x0 DUP1 SLOAD PUSH32 0xFFFFFFFFFFFFFFFFFFFFFFFFFFFFFFFF00000000FFFFFFFFFFFFFFFFFFFFFFFF DUP2 AND PUSH13 0x1000000000000000000000000 PUSH4 0xFFFFFFFF SWAP5 DUP6 AND MUL SWAP1 DUP2 OR DUP4 SSTORE CALLER DUP1 DUP5 MSTORE PUSH1 0x3B PUSH1 0x20 MSTORE PUSH1 0x40 DUP5 KECCAK256 DUP1 SLOAD DUP7 AND PUSH1 0x1 PUSH1 0xA0 SHL MUL PUSH32 0xFFFFFFFFFFFFFFFF00000000FFFFFFFF00000000FFFFFFFFFFFFFFFFFFFFFFFF SWAP1 SWAP5 AND PUSH32 0xFFFFFFFFFFFFFFFF00000000FFFFFFFFFFFFFFFFFFFFFFFFFFFFFFFFFFFFFFFF SWAP1 SWAP4 AND SWAP3 SWAP1 SWAP3 OR SWAP3 SWAP1 SWAP3 OR SWAP1 SWAP3 SSTORE PUSH1 0x3A DUP1 SLOAD PUSH32 0xFFFFFFFFFFFFFFFFFFFFFFFF0000000000000000000000000000000000000000 AND SWAP1 SWAP2 OR SWAP1 SSTORE SLOAD PUSH2 0x1F4 SWAP2 AND GT ISZERO PUSH2 0x1CDC JUMPI PUSH1 0x0 DUP1 SLOAD PUSH32 0xFFFFFFFFFFFFFFFFFFFFFFFFFFFFFFFF00000000FFFFFFFFFFFFFFFFFFFFFFFF AND SWAP1 SSTORE JUMPDEST PUSH1 0x0 DUP1 SLOAD CALLER DUP3 MSTORE PUSH1 0x3B PUSH1 0x20 MSTORE PUSH1 0x40 SWAP1 SWAP2 KECCAK256 DUP1 SLOAD PUSH8 0xFFFFFFFF00000000 NOT AND PUSH1 0x1 PUSH1 0x40 SHL SWAP1 SWAP3 DIV PUSH4 0xFFFFFFFF AND PUSH5 0x100000000 MUL SWAP2 SWAP1 SWAP2 OR SWAP1 SSTORE JUMP JUMPDEST PUSH2 0x1D1F PUSH2 0x21D5 JUMP JUMPDEST PUSH1 0x0 DUP1 PUSH1 0x0 JUMPDEST PUSH1 0x20 DUP2 LT ISZERO PUSH2 0x1E34 JUMPI PUSH1 0x7D DUP6 DUP3 PUSH1 0x20 DUP2 LT PUSH2 0x1D42 JUMPI PUSH2 0x1D42 PUSH2 0x261D JUMP JUMPDEST PUSH1 0x20 MUL ADD MLOAD PUSH4 0xFFFFFFFF AND GT DUP1 ISZERO PUSH2 0x1D77 JUMPI POP PUSH2 0x1F40 DUP6 DUP3 PUSH1 0x20 DUP2 LT PUSH2 0x1D6A JUMPI PUSH2 0x1D6A PUSH2 0x261D JUMP JUMPDEST PUSH1 0x20 MUL ADD MLOAD PUSH4 0xFFFFFFFF AND LT JUMPDEST PUSH2 0x1D80 JUMPI PUSH1 0x0 DUP1 REVERT JUMPDEST PUSH1 0x29 DUP6 DUP3 PUSH1 0x20 DUP2 LT PUSH2 0x1D94 JUMPI PUSH2 0x1D94 PUSH2 0x261D JUMP JUMPDEST PUSH1 0x20 MUL ADD MLOAD PUSH2 0x1DA4 SWAP1 PUSH1 0x29 PUSH2 0x2953 JUMP JUMPDEST PUSH2 0x1DB1 SWAP1 PUSH3 0xF4240 PUSH2 0x2930 JUMP JUMPDEST PUSH2 0x1DBB SWAP2 SWAP1 PUSH2 0x2977 JUMP JUMPDEST SWAP3 POP PUSH1 0x20 DUP6 DUP3 PUSH1 0x20 DUP2 LT PUSH2 0x1DD1 JUMPI PUSH2 0x1DD1 PUSH2 0x261D JUMP JUMPDEST PUSH1 0x20 MUL ADD MLOAD PUSH4 0xFFFFFFFF AND PUSH8 0xFFFFFFFFFFFFFFFF AND SWAP1 SHL DUP3 OR SWAP2 POP DUP3 PUSH4 0xFFFFFFFF AND DUP3 OR SWAP2 POP DUP2 DUP5 DUP3 PUSH1 0x20 DUP2 LT PUSH2 0x1E0A JUMPI PUSH2 0x1E0A PUSH2 0x261D JUMP JUMPDEST PUSH8 0xFFFFFFFFFFFFFFFF SWAP1 SWAP3 AND PUSH1 0x20 SWAP3 SWAP1 SWAP3 MUL ADD MSTORE PUSH1 0x0 SWAP2 POP DUP1 PUSH2 0x1E2C DUP2 PUSH2 0x2C00 JUMP JUMPDEST SWAP2 POP POP PUSH2 0x1D25 JUMP JUMPDEST POP POP POP SWAP2 SWAP1 POP JUMP JUMPDEST PUSH2 0x1E44 PUSH2 0x21D5 JUMP JUMPDEST PUSH1 0x0 DUP1 PUSH1 0x0 JUMPDEST PUSH1 0x20 DUP2 LT ISZERO PUSH2 0x1F94 JUMPI PUSH1 0x7D DUP6 DUP3 PUSH1 0x20 DUP2 LT PUSH2 0x1E67 JUMPI PUSH2 0x1E67 PUSH2 0x261D JUMP JUMPDEST PUSH1 0x20 MUL ADD MLOAD PUSH4 0xFFFFFFFF AND GT DUP1 ISZERO PUSH2 0x1E9C JUMPI POP PUSH2 0x1F40 DUP6 DUP3 PUSH1 0x20 DUP2 LT PUSH2 0x1E8F JUMPI PUSH2 0x1E8F PUSH2 0x261D JUMP JUMPDEST PUSH1 0x20 MUL ADD MLOAD PUSH4 0xFFFFFFFF AND LT JUMPDEST PUSH2 0x1EA5 JUMPI PUSH1 0x0 DUP1 REVERT JUMPDEST PUSH1 0x29 DUP6 DUP3 PUSH1 0x20 DUP2 LT PUSH2 0x1EB9 JUMPI PUSH2 0x1EB9 PUSH2 0x261D JUMP JUMPDEST PUSH1 0x20 MUL ADD MLOAD PUSH2 0x1EC9 SWAP1 PUSH1 0x29 PUSH2 0x2953 JUMP JUMPDEST PUSH2 0x1ED6 SWAP1 PUSH3 0xF4240 PUSH2 0x2930 JUMP JUMPDEST PUSH2 0x1EE0 SWAP2 SWAP1 PUSH2 0x2977 JUMP JUMPDEST SWAP3 POP PUSH1 0x40 DUP7 DUP3 PUSH1 0x20 DUP2 LT PUSH2 0x1EF6 JUMPI PUSH2 0x1EF6 PUSH2 0x261D JUMP JUMPDEST PUSH1 0x20 MUL ADD MLOAD PUSH4 0xFFFFFFFF AND PUSH12 0xFFFFFFFFFFFFFFFFFFFFFFFF AND SWAP1 SHL DUP3 OR SWAP2 POP PUSH1 0x20 DUP6 DUP3 PUSH1 0x20 DUP2 LT PUSH2 0x1F29 JUMPI PUSH2 0x1F29 PUSH2 0x261D JUMP JUMPDEST PUSH1 0x20 MUL ADD MLOAD PUSH4 0xFFFFFFFF AND PUSH12 0xFFFFFFFFFFFFFFFFFFFFFFFF AND SWAP1 SHL DUP3 OR SWAP2 POP DUP3 PUSH4 0xFFFFFFFF AND DUP3 OR SWAP2 POP DUP2 DUP5 DUP3 PUSH1 0x20 DUP2 LT PUSH2 0x1F66 JUMPI PUSH2 0x1F66 PUSH2 0x261D JUMP JUMPDEST PUSH12 0xFFFFFFFFFFFFFFFFFFFFFFFF SWAP1 SWAP3 AND PUSH1 0x20 SWAP3 SWAP1 SWAP3 MUL ADD MSTORE PUSH1 0x0 SWAP2 POP DUP1 PUSH2 0x1F8C DUP2 PUSH2 0x2C00 JUMP JUMPDEST SWAP2 POP POP PUSH2 0x1E4A JUMP JUMPDEST POP POP POP SWAP3 SWAP2 POP POP JUMP JUMPDEST PUSH1 0x40 MLOAD DUP1 PUSH2 0x400 ADD PUSH1 0x40 MSTORE DUP1 PUSH1 0x20 SWAP1 JUMPDEST PUSH1 0x60 DUP2 MSTORE PUSH1 0x20 ADD SWAP1 PUSH1 0x1 SWAP1 SUB SWAP1 DUP2 PUSH2 0x1FAD JUMPI SWAP1 POP POP SWAP1 JUMP JUMPDEST PUSH1 0x1 DUP4 ADD SWAP2 DUP4 SWAP1 DUP3 ISZERO PUSH2 0x2048 JUMPI SWAP2 PUSH1 0x20 MUL DUP3 ADD PUSH1 0x0 JUMPDEST DUP4 DUP3 GT ISZERO PUSH2 0x2019 JUMPI DUP4 MLOAD DUP4 DUP3 PUSH2 0x100 EXP DUP2 SLOAD DUP2 PUSH1 0xFF MUL NOT AND SWAP1 DUP4 PUSH1 0xFF AND MUL OR SWAP1 SSTORE POP SWAP3 PUSH1 0x20 ADD SWAP3 PUSH1 0x1 ADD PUSH1 0x20 DUP2 PUSH1 0x0 ADD DIV SWAP3 DUP4 ADD SWAP3 PUSH1 0x1 SUB MUL PUSH2 0x1FDB JUMP JUMPDEST DUP1 ISZERO PUSH2 0x2046 JUMPI DUP3 DUP2 PUSH2 0x100 EXP DUP2 SLOAD SWAP1 PUSH1 0xFF MUL NOT AND SWAP1 SSTORE PUSH1 0x1 ADD PUSH1 0x20 DUP2 PUSH1 0x0 ADD DIV SWAP3 DUP4 ADD SWAP3 PUSH1 0x1 SUB MUL PUSH2 0x2019 JUMP JUMPDEST POP JUMPDEST POP PUSH2 0x2054 SWAP3 SWAP2 POP PUSH2 0x21F4 JUMP JUMPDEST POP SWAP1 JUMP JUMPDEST PUSH1 0x8 DUP4 ADD SWAP2 DUP4 SWAP1 DUP3 ISZERO PUSH2 0x2048 JUMPI SWAP2 PUSH1 0x20 MUL DUP3 ADD PUSH1 0x0 JUMPDEST DUP4 DUP3 GT ISZERO PUSH2 0x20BA JUMPI DUP4 MLOAD DUP4 DUP3 PUSH2 0x100 EXP DUP2 SLOAD DUP2 PUSH8 0xFFFFFFFFFFFFFFFF MUL NOT AND SWAP1 DUP4 PUSH8 0xFFFFFFFFFFFFFFFF AND MUL OR SWAP1 SSTORE POP SWAP3 PUSH1 0x20 ADD SWAP3 PUSH1 0x8 ADD PUSH1 0x20 DUP2 PUSH1 0x7 ADD DIV SWAP3 DUP4 ADD SWAP3 PUSH1 0x1 SUB MUL PUSH2 0x206E JUMP JUMPDEST DUP1 ISZERO PUSH2 0x2046 JUMPI DUP3 DUP2 PUSH2 0x100 EXP DUP2 SLOAD SWAP1 PUSH8 0xFFFFFFFFFFFFFFFF MUL NOT AND SWAP1 SSTORE PUSH1 0x8 ADD PUSH1 0x20 DUP2 PUSH1 0x7 ADD DIV SWAP3 DUP4 ADD SWAP3 PUSH1 0x1 SUB MUL PUSH2 0x20BA JUMP JUMPDEST PUSH1 0x10 DUP4 ADD SWAP2 DUP4 SWAP1 DUP3 ISZERO PUSH2 0x2048 JUMPI SWAP2 PUSH1 0x20 MUL DUP3 ADD PUSH1 0x0 JUMPDEST DUP4 DUP3 GT ISZERO PUSH2 0x2158 JUMPI DUP4 MLOAD DUP4 DUP3 PUSH2 0x100 EXP DUP2 SLOAD DUP2 PUSH12 0xFFFFFFFFFFFFFFFFFFFFFFFF MUL NOT AND SWAP1 DUP4 PUSH12 0xFFFFFFFFFFFFFFFFFFFFFFFF AND MUL OR SWAP1 SSTORE POP SWAP3 PUSH1 0x20 ADD SWAP3 PUSH1 0xC ADD PUSH1 0x20 DUP2 PUSH1 0xB ADD DIV SWAP3 DUP4 ADD SWAP3 PUSH1 0x1 SUB MUL PUSH2 0x2104 JUMP JUMPDEST DUP1 ISZERO PUSH2 0x2046 JUMPI DUP3 DUP2 PUSH2 0x100 EXP DUP2 SLOAD SWAP1 PUSH12 0xFFFFFFFFFFFFFFFFFFFFFFFF MUL NOT AND SWAP1 SSTORE PUSH1 0xC ADD PUSH1 0x20 DUP2 PUSH1 0xB ADD DIV SWAP3 DUP4 ADD SWAP3 PUSH1 0x1 SUB MUL PUSH2 0x2158 JUMP JUMPDEST DUP3 PUSH1 0x20 DUP2 ADD SWAP3 DUP3 ISZERO PUSH2 0x21C9 JUMPI SWAP2 PUSH1 0x20 MUL DUP3 ADD JUMPDEST DUP3 DUP2 GT ISZERO PUSH2 0x21C9 JUMPI DUP3 MLOAD DUP3 SWAP1 PUSH2 0x21B9 SWAP1 DUP3 PUSH2 0x2C69 JUMP JUMPDEST POP SWAP2 PUSH1 0x20 ADD SWAP2 SWAP1 PUSH1 0x1 ADD SWAP1 PUSH2 0x21A3 JUMP JUMPDEST POP PUSH2 0x2054 SWAP3 SWAP2 POP PUSH2 0x2209 JUMP JUMPDEST PUSH1 0x40 MLOAD DUP1 PUSH2 0x400 ADD PUSH1 0x40 MSTORE DUP1 PUSH1 0x20 SWAP1 PUSH1 0x20 DUP3 MUL DUP1 CALLDATASIZE DUP4 CALLDATACOPY POP SWAP2 SWAP3 SWAP2 POP POP JUMP JUMPDEST JUMPDEST DUP1 DUP3 GT ISZERO PUSH2 0x2054 JUMPI PUSH1 0x0 DUP2 SSTORE PUSH1 0x1 ADD PUSH2 0x21F5 JUMP JUMPDEST DUP1 DUP3 GT ISZERO PUSH2 0x2054 JUMPI PUSH1 0x0 PUSH2 0x221D DUP3 DUP3 PUSH2 0x2226 JUMP JUMPDEST POP PUSH1 0x1 ADD PUSH2 0x2209 JUMP JUMPDEST POP DUP1 SLOAD PUSH2 0x2232 SWAP1 PUSH2 0x2994 JUMP JUMPDEST PUSH1 0x0 DUP3 SSTORE DUP1 PUSH1 0x1F LT PUSH2 0x2242 JUMPI POP POP JUMP JUMPDEST PUSH1 0x1F ADD PUSH1 0x20 SWAP1 DIV SWAP1 PUSH1 0x0 MSTORE PUSH1 0x20 PUSH1 0x0 KECCAK256 SWAP1 DUP2 ADD SWAP1 PUSH2 0x10AA SWAP2 SWAP1 PUSH2 0x21F4 JUMP JUMPDEST PUSH1 0x0 PUSH1 0x20 DUP3 DUP5 SUB SLT ISZERO PUSH2 0x2272 JUMPI PUSH1 0x0 DUP1 REVERT JUMPDEST POP CALLDATALOAD SWAP2 SWAP1 POP JUMP JUMPDEST PUSH1 0x0 DUP2 MLOAD DUP1 DUP5 MSTORE PUSH1 0x0 JUMPDEST DUP2 DUP2 LT ISZERO PUSH2 0x229F JUMPI PUSH1 0x20 DUP2 DUP6 ADD DUP2 ADD MLOAD DUP7 DUP4 ADD DUP3 ADD MSTORE ADD PUSH2 0x2283 JUMP JUMPDEST POP PUSH1 0x0 PUSH1 0x20 DUP3 DUP7 ADD ADD MSTORE PUSH1 0x20 PUSH1 0x1F NOT PUSH1 0x1F DUP4 ADD AND DUP6 ADD ADD SWAP2 POP POP SWAP3 SWAP2 POP POP JUMP JUMPDEST PUSH1 0x0 DUP3 PUSH2 0x400 DUP2 ADD DUP4 PUSH1 0x0 JUMPDEST PUSH1 0x20 DUP1 DUP3 LT PUSH2 0x22DA JUMPI POP PUSH2 0x22FD JUMP JUMPDEST DUP5 DUP5 SUB DUP9 MSTORE PUSH2 0x22EA DUP5 DUP5 MLOAD PUSH2 0x2279 JUMP JUMPDEST SWAP8 DUP2 ADD SWAP8 SWAP4 POP SWAP2 SWAP1 SWAP2 ADD SWAP1 PUSH1 0x1 ADD PUSH2 0x22CB JUMP JUMPDEST POP SWAP1 SWAP6 SWAP5 POP POP POP POP POP JUMP JUMPDEST PUSH1 0x20 DUP2 MSTORE PUSH1 0x0 PUSH2 0x231B PUSH1 0x20 DUP4 ADD DUP5 PUSH2 0x22BF JUMP JUMPDEST SWAP4 SWAP3 POP POP POP JUMP JUMPDEST PUSH4 0xFFFFFFFF DUP2 AND DUP2 EQ PUSH2 0x10AA JUMPI PUSH1 0x0 DUP1 REVERT JUMPDEST PUSH1 0x0 PUSH1 0x20 DUP3 DUP5 SUB SLT ISZERO PUSH2 0x2346 JUMPI PUSH1 0x0 DUP1 REVERT JUMPDEST DUP2 CALLDATALOAD PUSH2 0x231B DUP2 PUSH2 0x2322 JUMP JUMPDEST DUP1 ISZERO ISZERO DUP2 EQ PUSH2 0x10AA JUMPI PUSH1 0x0 DUP1 REVERT JUMPDEST PUSH1 0x0 PUSH1 0x20 DUP3 DUP5 SUB SLT ISZERO PUSH2 0x2371 JUMPI PUSH1 0x0 DUP1 REVERT JUMPDEST DUP2 CALLDATALOAD PUSH2 0x231B DUP2 PUSH2 0x2351 JUMP JUMPDEST PUSH4 0x4E487B71 PUSH1 0xE0 SHL PUSH1 0x0 MSTORE PUSH1 0x41 PUSH1 0x4 MSTORE PUSH1 0x24 PUSH1 0x0 REVERT JUMPDEST PUSH1 0x40 MLOAD PUSH2 0x400 DUP2 ADD PUSH8 0xFFFFFFFFFFFFFFFF DUP2 GT DUP3 DUP3 LT OR ISZERO PUSH2 0x23B6 JUMPI PUSH2 0x23B6 PUSH2 0x237C JUMP JUMPDEST PUSH1 0x40 MSTORE SWAP1 JUMP JUMPDEST PUSH1 0x40 MLOAD PUSH1 0x1F DUP3 ADD PUSH1 0x1F NOT AND DUP2 ADD PUSH8 0xFFFFFFFFFFFFFFFF DUP2 GT DUP3 DUP3 LT OR ISZERO PUSH2 0x23E5 JUMPI PUSH2 0x23E5 PUSH2 0x237C JUMP JUMPDEST PUSH1 0x40 MSTORE SWAP2 SWAP1 POP JUMP JUMPDEST PUSH1 0x0 PUSH2 0x400 DUP1 DUP4 DUP6 SUB SLT ISZERO PUSH2 0x2401 JUMPI PUSH1 0x0 DUP1 REVERT JUMPDEST DUP4 PUSH1 0x1F DUP5 ADD SLT PUSH2 0x2410 JUMPI PUSH1 0x0 DUP1 REVERT JUMPDEST PUSH2 0x2418 PUSH2 0x2392 JUMP JUMPDEST SWAP1 DUP4 ADD SWAP1 DUP1 DUP6 DUP4 GT ISZERO PUSH2 0x242A JUMPI PUSH1 0x0 DUP1 REVERT JUMPDEST DUP5 JUMPDEST DUP4 DUP2 LT ISZERO PUSH2 0x2454 JUMPI DUP1 CALLDATALOAD PUSH1 0xFF DUP2 AND DUP2 EQ PUSH2 0x2446 JUMPI PUSH1 0x0 DUP1 DUP2 REVERT JUMPDEST DUP4 MSTORE PUSH1 0x20 SWAP3 DUP4 ADD SWAP3 ADD PUSH2 0x242C JUMP JUMPDEST POP SWAP6 SWAP5 POP POP POP POP POP JUMP JUMPDEST PUSH1 0x0 DUP3 PUSH1 0x1F DUP4 ADD SLT PUSH2 0x246F JUMPI PUSH1 0x0 DUP1 REVERT JUMPDEST PUSH2 0x2477 PUSH2 0x2392 JUMP JUMPDEST DUP1 PUSH2 0x400 DUP5 ADD DUP6 DUP2 GT ISZERO PUSH2 0x248A JUMPI PUSH1 0x0 DUP1 REVERT JUMPDEST DUP5 JUMPDEST DUP2 DUP2 LT ISZERO PUSH2 0x22FD JUMPI DUP1 CALLDATALOAD PUSH2 0x249F DUP2 PUSH2 0x2322 JUMP JUMPDEST DUP5 MSTORE PUSH1 0x20 SWAP4 DUP5 ADD SWAP4 ADD PUSH2 0x248C JUMP JUMPDEST PUSH1 0x0 PUSH2 0x400 DUP3 DUP5 SUB SLT ISZERO PUSH2 0x24C0 JUMPI PUSH1 0x0 DUP1 REVERT JUMPDEST PUSH2 0x231B DUP4 DUP4 PUSH2 0x245E JUMP JUMPDEST PUSH1 0x0 DUP1 PUSH1 0x0 PUSH2 0x820 DUP5 DUP7 SUB SLT ISZERO PUSH2 0x24E0 JUMPI PUSH1 0x0 DUP1 REVERT JUMPDEST DUP4 CALLDATALOAD PUSH8 0xFFFFFFFFFFFFFFFF DUP1 DUP3 GT ISZERO PUSH2 0x24F8 JUMPI PUSH1 0x0 DUP1 REVERT JUMPDEST DUP2 DUP7 ADD SWAP2 POP PUSH1 0x1F DUP8 DUP2 DUP5 ADD SLT PUSH2 0x250D JUMPI PUSH1 0x0 DUP1 REVERT JUMPDEST PUSH2 0x2515 PUSH2 0x2392 JUMP JUMPDEST DUP1 PUSH2 0x400 DUP6 ADD DUP11 DUP2 GT ISZERO PUSH2 0x2528 JUMPI PUSH1 0x0 DUP1 REVERT JUMPDEST DUP6 JUMPDEST DUP2 DUP2 LT ISZERO PUSH2 0x25B1 JUMPI DUP1 CALLDATALOAD DUP7 DUP2 GT ISZERO PUSH2 0x2542 JUMPI PUSH1 0x0 DUP1 DUP2 REVERT JUMPDEST DUP8 ADD DUP6 DUP2 ADD DUP14 SGT PUSH2 0x2553 JUMPI PUSH1 0x0 DUP1 DUP2 REVERT JUMPDEST DUP1 CALLDATALOAD PUSH1 0x20 DUP9 DUP3 GT ISZERO PUSH2 0x2567 JUMPI PUSH2 0x2567 PUSH2 0x237C JUMP JUMPDEST PUSH2 0x2578 DUP2 PUSH1 0x1F NOT DUP11 DUP6 ADD AND ADD PUSH2 0x23BC JUMP JUMPDEST DUP3 DUP2 MSTORE DUP16 DUP3 DUP5 DUP7 ADD ADD GT ISZERO PUSH2 0x258D JUMPI PUSH1 0x0 DUP1 DUP2 REVERT JUMPDEST DUP3 DUP3 DUP6 ADD DUP4 DUP4 ADD CALLDATACOPY PUSH1 0x0 SWAP3 DUP2 ADD DUP3 ADD SWAP3 SWAP1 SWAP3 MSTORE SWAP1 DUP7 MSTORE SWAP5 SWAP1 SWAP5 ADD SWAP4 POP PUSH1 0x20 ADD PUSH2 0x252A JUMP JUMPDEST POP POP DUP1 SWAP8 POP POP POP POP POP POP PUSH2 0x25C8 DUP6 PUSH1 0x20 DUP7 ADD PUSH2 0x245E JUMP JUMPDEST SWAP2 POP PUSH2 0x25D8 DUP6 PUSH2 0x420 DUP7 ADD PUSH2 0x245E JUMP JUMPDEST SWAP1 POP SWAP3 POP SWAP3 POP SWAP3 JUMP JUMPDEST PUSH1 0x0 PUSH1 0x20 DUP3 DUP5 SUB SLT ISZERO PUSH2 0x25F3 JUMPI PUSH1 0x0 DUP1 REVERT JUMPDEST DUP2 CALLDATALOAD PUSH1 0x1 PUSH1 0x1 PUSH1 0xA0 SHL SUB DUP2 AND DUP2 EQ PUSH2 0x231B JUMPI PUSH1 0x0 DUP1 REVERT JUMPDEST PUSH1 0x20 DUP2 MSTORE PUSH1 0x0 PUSH2 0x231B PUSH1 0x20 DUP4 ADD DUP5 PUSH2 0x2279 JUMP JUMPDEST PUSH4 0x4E487B71 PUSH1 0xE0 SHL PUSH1 0x0 MSTORE PUSH1 0x32 PUSH1 0x4 MSTORE PUSH1 0x24 PUSH1 0x0 REVERT JUMPDEST PUSH2 0x400 DUP2 DUP2 ADD SWAP1 DUP3 DUP5 PUSH1 0x0 JUMPDEST PUSH1 0x20 DUP1 PUSH1 0x1F DUP4 ADD LT PUSH2 0x2651 JUMPI POP PUSH2 0x28C0 JUMP JUMPDEST DUP3 SLOAD PUSH1 0xFF DUP1 DUP3 AND DUP7 MSTORE PUSH1 0x8 DUP3 SWAP1 SHR DUP2 AND DUP4 DUP8 ADD MSTORE PUSH1 0x40 PUSH2 0x267A DUP2 DUP9 ADD DUP4 DUP6 PUSH1 0x10 SHR AND PUSH1 0xFF AND SWAP1 MSTORE JUMP JUMPDEST PUSH1 0x60 PUSH2 0x268F DUP2 DUP10 ADD DUP5 DUP7 PUSH1 0x18 SHR AND PUSH1 0xFF AND SWAP1 MSTORE JUMP JUMPDEST PUSH1 0x80 PUSH2 0x26A3 DUP2 DUP11 ADD DUP6 DUP8 DUP10 SHR AND PUSH1 0xFF AND SWAP1 MSTORE JUMP JUMPDEST PUSH1 0xA0 SWAP6 POP PUSH2 0x26BA DUP7 DUP11 ADD DUP6 DUP8 PUSH1 0x28 SHR AND PUSH1 0xFF AND SWAP1 MSTORE JUMP JUMPDEST PUSH1 0xC0 PUSH2 0x26CF DUP2 DUP12 ADD DUP7 DUP9 PUSH1 0x30 SHR AND PUSH1 0xFF AND SWAP1 MSTORE JUMP JUMPDEST PUSH1 0xE0 PUSH2 0x26E4 DUP2 DUP13 ADD DUP8 DUP10 PUSH1 0x38 SHR AND PUSH1 0xFF AND SWAP1 MSTORE JUMP JUMPDEST PUSH1 0xFF DUP8 DUP7 SHR DUP8 AND AND PUSH2 0x100 DUP13 ADD MSTORE PUSH2 0x2707 PUSH2 0x120 DUP13 ADD DUP8 DUP10 PUSH1 0x48 SHR AND PUSH1 0xFF AND SWAP1 MSTORE JUMP JUMPDEST PUSH2 0x271C PUSH2 0x140 DUP13 ADD DUP8 DUP10 PUSH1 0x50 SHR AND PUSH1 0xFF AND SWAP1 MSTORE JUMP JUMPDEST PUSH2 0x2731 PUSH2 0x160 DUP13 ADD DUP8 DUP10 PUSH1 0x58 SHR AND PUSH1 0xFF AND SWAP1 MSTORE JUMP JUMPDEST PUSH1 0xFF DUP8 DUP6 SHR DUP8 AND AND PUSH2 0x180 DUP13 ADD MSTORE PUSH2 0x2754 PUSH2 0x1A0 DUP13 ADD DUP8 DUP10 PUSH1 0x68 SHR AND PUSH1 0xFF AND SWAP1 MSTORE JUMP JUMPDEST PUSH2 0x2769 PUSH2 0x1C0 DUP13 ADD DUP8 DUP10 PUSH1 0x70 SHR AND PUSH1 0xFF AND SWAP1 MSTORE JUMP JUMPDEST PUSH2 0x277E PUSH2 0x1E0 DUP13 ADD DUP8 DUP10 PUSH1 0x78 SHR AND PUSH1 0xFF AND SWAP1 MSTORE JUMP JUMPDEST PUSH1 0xFF DUP8 DUP5 SHR DUP8 AND AND PUSH2 0x200 DUP13 ADD MSTORE PUSH2 0x27A1 PUSH2 0x220 DUP13 ADD DUP8 DUP10 PUSH1 0x88 SHR AND PUSH1 0xFF AND SWAP1 MSTORE JUMP JUMPDEST PUSH2 0x27B6 PUSH2 0x240 DUP13 ADD DUP8 DUP10 PUSH1 0x90 SHR AND PUSH1 0xFF AND SWAP1 MSTORE JUMP JUMPDEST PUSH2 0x27CB PUSH2 0x260 DUP13 ADD DUP8 DUP10 PUSH1 0x98 SHR AND PUSH1 0xFF AND SWAP1 MSTORE JUMP JUMPDEST PUSH1 0xFF DUP8 DUP10 SHR DUP8 AND AND PUSH2 0x280 DUP13 ADD MSTORE PUSH2 0x27EE PUSH2 0x2A0 DUP13 ADD DUP8 DUP10 PUSH1 0xA8 SHR AND PUSH1 0xFF AND SWAP1 MSTORE JUMP JUMPDEST PUSH2 0x2803 PUSH2 0x2C0 DUP13 ADD DUP8 DUP10 PUSH1 0xB0 SHR AND PUSH1 0xFF AND SWAP1 MSTORE JUMP JUMPDEST PUSH2 0x2818 PUSH2 0x2E0 DUP13 ADD DUP8 DUP10 PUSH1 0xB8 SHR AND PUSH1 0xFF AND SWAP1 MSTORE JUMP JUMPDEST PUSH1 0xFF DUP8 DUP4 SHR DUP8 AND AND PUSH2 0x300 DUP13 ADD MSTORE PUSH2 0x283B PUSH2 0x320 DUP13 ADD DUP8 DUP10 PUSH1 0xC8 SHR AND PUSH1 0xFF AND SWAP1 MSTORE JUMP JUMPDEST PUSH2 0x2850 PUSH2 0x340 DUP13 ADD DUP8 DUP10 PUSH1 0xD0 SHR AND PUSH1 0xFF AND SWAP1 MSTORE JUMP JUMPDEST PUSH2 0x2865 PUSH2 0x360 DUP13 ADD DUP8 DUP10 PUSH1 0xD8 SHR AND PUSH1 0xFF AND SWAP1 MSTORE JUMP JUMPDEST PUSH1 0xFF DUP8 DUP3 SHR DUP8 AND AND PUSH2 0x380 DUP13 ADD MSTORE POP POP POP POP POP PUSH2 0x288D PUSH2 0x3A0 DUP8 ADD DUP3 DUP5 PUSH1 0xE8 SHR AND PUSH1 0xFF AND SWAP1 MSTORE JUMP JUMPDEST PUSH2 0x28A2 PUSH2 0x3C0 DUP8 ADD DUP3 DUP5 PUSH1 0xF0 SHR AND PUSH1 0xFF AND SWAP1 MSTORE JUMP JUMPDEST POP PUSH1 0xF8 SHR PUSH2 0x3E0 DUP6 ADD MSTORE POP SWAP2 DUP4 ADD SWAP2 PUSH1 0x1 SWAP2 SWAP1 SWAP2 ADD SWAP1 PUSH1 0x20 ADD PUSH2 0x263F JUMP JUMPDEST POP POP POP POP SWAP3 SWAP2 POP POP JUMP JUMPDEST PUSH1 0x0 DUP1 PUSH1 0x40 DUP4 DUP6 SUB SLT ISZERO PUSH2 0x28DD JUMPI PUSH1 0x0 DUP1 REVERT JUMPDEST DUP3 MLOAD PUSH2 0x28E8 DUP2 PUSH2 0x2322 JUMP JUMPDEST PUSH1 0x20 DUP5 ADD MLOAD SWAP1 SWAP3 POP PUSH2 0x28F9 DUP2 PUSH2 0x2322 JUMP JUMPDEST DUP1 SWAP2 POP POP SWAP3 POP SWAP3 SWAP1 POP JUMP JUMPDEST PUSH4 0x4E487B71 PUSH1 0xE0 SHL PUSH1 0x0 MSTORE PUSH1 0x12 PUSH1 0x4 MSTORE PUSH1 0x24 PUSH1 0x0 REVERT JUMPDEST PUSH4 0x4E487B71 PUSH1 0xE0 SHL PUSH1 0x0 MSTORE PUSH1 0x11 PUSH1 0x4 MSTORE PUSH1 0x24 PUSH1 0x0 REVERT JUMPDEST PUSH1 0x0 PUSH4 0xFFFFFFFF DUP1 DUP5 AND DUP1 PUSH2 0x2947 JUMPI PUSH2 0x2947 PUSH2 0x2904 JUMP JUMPDEST SWAP3 AND SWAP2 SWAP1 SWAP2 DIV SWAP3 SWAP2 POP POP JUMP JUMPDEST PUSH4 0xFFFFFFFF DUP2 DUP2 AND DUP4 DUP3 AND ADD SWAP1 DUP1 DUP3 GT ISZERO PUSH2 0x2970 JUMPI PUSH2 0x2970 PUSH2 0x291A JUMP JUMPDEST POP SWAP3 SWAP2 POP POP JUMP JUMPDEST PUSH4 0xFFFFFFFF DUP3 DUP2 AND DUP3 DUP3 AND SUB SWAP1 DUP1 DUP3 GT ISZERO PUSH2 0x2970 JUMPI PUSH2 0x2970 PUSH2 0x291A JUMP JUMPDEST PUSH1 0x1 DUP2 DUP2 SHR SWAP1 DUP3 AND DUP1 PUSH2 0x29A8 JUMPI PUSH1 0x7F DUP3 AND SWAP2 POP JUMPDEST PUSH1 0x20 DUP3 LT DUP2 SUB PUSH2 0x29C8 JUMPI PUSH4 0x4E487B71 PUSH1 0xE0 SHL PUSH1 0x0 MSTORE PUSH1 0x22 PUSH1 0x4 MSTORE PUSH1 0x24 PUSH1 0x0 REVERT JUMPDEST POP SWAP2 SWAP1 POP JUMP JUMPDEST PUSH4 0xFFFFFFFF DUP2 DUP2 AND DUP4 DUP3 AND MUL DUP1 DUP3 AND SWAP2 SWAP1 DUP3 DUP2 EQ PUSH2 0x29EE JUMPI PUSH2 0x29EE PUSH2 0x291A JUMP JUMPDEST POP POP SWAP3 SWAP2 POP POP JUMP JUMPDEST DUP1 DUP3 MUL DUP2 ISZERO DUP3 DUP3 DIV DUP5 EQ OR PUSH2 0x2A0D JUMPI PUSH2 0x2A0D PUSH2 0x291A JUMP JUMPDEST SWAP3 SWAP2 POP POP JUMP JUMPDEST PUSH1 0x0 PUSH1 0x20 DUP3 DUP5 SUB SLT ISZERO PUSH2 0x2A25 JUMPI PUSH1 0x0 DUP1 REVERT JUMPDEST DUP2 MLOAD PUSH2 0x231B DUP2 PUSH2 0x2351 JUMP JUMPDEST PUSH2 0x400 DUP2 ADD DUP2 DUP4 PUSH1 0x0 JUMPDEST PUSH1 0x20 DUP1 PUSH1 0x3 DUP4 ADD LT PUSH2 0x2A4C JUMPI POP PUSH2 0x1F94 JUMP JUMPDEST DUP3 SLOAD PUSH8 0xFFFFFFFFFFFFFFFF DUP1 DUP3 AND DUP7 MSTORE PUSH1 0x40 DUP3 DUP2 SHR DUP3 AND SWAP4 DUP8 ADD SWAP4 SWAP1 SWAP4 MSTORE PUSH1 0x80 DUP3 DUP2 SHR SWAP1 SWAP2 AND SWAP3 DUP7 ADD SWAP3 SWAP1 SWAP3 MSTORE PUSH1 0xC0 SHR PUSH1 0x60 DUP6 ADD MSTORE SWAP1 SWAP3 ADD SWAP2 PUSH1 0x1 SWAP1 SWAP2 ADD SWAP1 PUSH1 0x4 ADD PUSH2 0x2A3A JUMP JUMPDEST PUSH4 0xFFFFFFFF DUP5 DUP2 AND DUP3 MSTORE DUP4 AND PUSH1 0x20 DUP1 DUP4 ADD SWAP2 SWAP1 SWAP2 MSTORE PUSH2 0x440 DUP3 ADD SWAP1 PUSH1 0x40 DUP4 ADD SWAP1 DUP5 PUSH1 0x0 JUMPDEST DUP3 DUP2 LT ISZERO PUSH2 0x2AD6 JUMPI DUP2 MLOAD PUSH1 0xFF AND DUP5 MSTORE SWAP3 DUP3 ADD SWAP3 SWAP1 DUP3 ADD SWAP1 PUSH1 0x1 ADD PUSH2 0x2AB7 JUMP JUMPDEST POP POP POP POP SWAP5 SWAP4 POP POP POP POP JUMP JUMPDEST PUSH1 0x0 DUP3 PUSH2 0x2AF1 JUMPI PUSH2 0x2AF1 PUSH2 0x2904 JUMP JUMPDEST POP MOD SWAP1 JUMP JUMPDEST PUSH1 0x0 DUP3 PUSH2 0x2B05 JUMPI PUSH2 0x2B05 PUSH2 0x2904 JUMP JUMPDEST POP DIV SWAP1 JUMP JUMPDEST PUSH1 0x0 PUSH2 0x440 DUP3 ADD SWAP1 POP PUSH4 0xFFFFFFFF DUP1 DUP7 AND DUP4 MSTORE PUSH1 0x20 DUP2 DUP7 AND DUP2 DUP6 ADD MSTORE PUSH1 0x40 DUP5 ADD DUP6 PUSH1 0x0 JUMPDEST DUP4 DUP2 LT ISZERO PUSH2 0x2B4C JUMPI DUP2 MLOAD DUP6 AND DUP4 MSTORE SWAP2 DUP4 ADD SWAP2 SWAP1 DUP4 ADD SWAP1 PUSH1 0x1 ADD PUSH2 0x2B2E JUMP JUMPDEST POP POP POP POP POP SWAP5 SWAP4 POP POP POP POP JUMP JUMPDEST PUSH1 0x0 PUSH4 0xFFFFFFFF DUP1 DUP7 AND DUP4 MSTORE DUP1 DUP6 AND PUSH1 0x20 DUP5 ADD MSTORE POP PUSH1 0x60 PUSH1 0x40 DUP4 ADD MSTORE PUSH2 0x2B82 PUSH1 0x60 DUP4 ADD DUP5 PUSH2 0x22BF JUMP JUMPDEST SWAP6 SWAP5 POP POP POP POP POP JUMP JUMPDEST PUSH2 0x400 DUP2 ADD DUP2 DUP4 PUSH1 0x0 JUMPDEST PUSH1 0x20 PUSH1 0x1 DUP2 DUP2 DUP5 ADD LT PUSH2 0x2BA9 JUMPI POP POP PUSH2 0x1F94 JUMP JUMPDEST DUP4 SLOAD PUSH12 0xFFFFFFFFFFFFFFFFFFFFFFFF DUP1 DUP3 AND DUP8 MSTORE PUSH1 0x60 SWAP2 SWAP1 SWAP2 SHR AND SWAP2 DUP6 ADD SWAP2 SWAP1 SWAP2 MSTORE PUSH1 0x40 SWAP1 SWAP4 ADD SWAP3 SWAP1 SWAP2 ADD SWAP1 PUSH1 0x2 ADD PUSH2 0x2B95 JUMP JUMPDEST PUSH1 0x0 PUSH4 0xFFFFFFFF DUP1 DUP4 AND DUP2 DUP2 SUB PUSH2 0x2BF6 JUMPI PUSH2 0x2BF6 PUSH2 0x291A JUMP JUMPDEST PUSH1 0x1 ADD SWAP4 SWAP3 POP POP POP JUMP JUMPDEST PUSH1 0x0 PUSH1 0x0 NOT DUP3 SUB PUSH2 0x2C13 JUMPI PUSH2 0x2C13 PUSH2 0x291A JUMP JUMPDEST POP PUSH1 0x1 ADD SWAP1 JUMP JUMPDEST PUSH1 0x1F DUP3 GT ISZERO PUSH2 0x2C64 JUMPI PUSH1 0x0 DUP2 DUP2 MSTORE PUSH1 0x20 DUP2 KECCAK256 PUSH1 0x1F DUP6 ADD PUSH1 0x5 SHR DUP2 ADD PUSH1 0x20 DUP7 LT ISZERO PUSH2 0x2C41 JUMPI POP DUP1 JUMPDEST PUSH1 0x1F DUP6 ADD PUSH1 0x5 SHR DUP3 ADD SWAP2 POP JUMPDEST DUP2 DUP2 LT ISZERO PUSH2 0x2C60 JUMPI DUP3 DUP2 SSTORE PUSH1 0x1 ADD PUSH2 0x2C4D JUMP JUMPDEST POP POP POP JUMPDEST POP POP POP JUMP JUMPDEST DUP2 MLOAD PUSH8 0xFFFFFFFFFFFFFFFF DUP2 GT ISZERO PUSH2 0x2C83 JUMPI PUSH2 0x2C83 PUSH2 0x237C JUMP JUMPDEST PUSH2 0x2C97 DUP2 PUSH2 0x2C91 DUP5 SLOAD PUSH2 0x2994 JUMP JUMPDEST DUP5 PUSH2 0x2C1A JUMP JUMPDEST PUSH1 0x20 DUP1 PUSH1 0x1F DUP4 GT PUSH1 0x1 DUP2 EQ PUSH2 0x2CCC JUMPI PUSH1 0x0 DUP5 ISZERO PUSH2 0x2CB4 JUMPI POP DUP6 DUP4 ADD MLOAD JUMPDEST PUSH1 0x0 NOT PUSH1 0x3 DUP7 SWAP1 SHL SHR NOT AND PUSH1 0x1 DUP6 SWAP1 SHL OR DUP6 SSTORE PUSH2 0x2C60 JUMP JUMPDEST PUSH1 0x0 DUP6 DUP2 MSTORE PUSH1 0x20 DUP2 KECCAK256 PUSH1 0x1F NOT DUP7 AND SWAP2 JUMPDEST DUP3 DUP2 LT ISZERO PUSH2 0x2CFB JUMPI DUP9 DUP7 ADD MLOAD DUP3 SSTORE SWAP5 DUP5 ADD SWAP5 PUSH1 0x1 SWAP1 SWAP2 ADD SWAP1 DUP5 ADD PUSH2 0x2CDC JUMP JUMPDEST POP DUP6 DUP3 LT ISZERO PUSH2 0x2D19 JUMPI DUP8 DUP6 ADD MLOAD PUSH1 0x0 NOT PUSH1 0x3 DUP9 SWAP1 SHL PUSH1 0xF8 AND SHR NOT AND DUP2 SSTORE JUMPDEST POP POP POP POP POP PUSH1 0x1 SWAP1 DUP2 SHL ADD SWAP1 SSTORE POP JUMP INVALID LOG2 PUSH5 0x6970667358 0x22 SLT KECCAK256 0xDC STATICCALL 0xEB 0xE6 SWAP11 PUSH32 0x1D5468182284BA0AD9D7ED4BD7B4CCE84EDD630830F002BEB10C64736F6C6343 STOP ADDMOD GT STOP CALLER "},"methodIdentifiers":{"CURE_TIME()":"d3322374","HOUR_END()":"98823b90","HOUR_START()":"9e6df0d8","MIN_SUBMIT()":"862a7982","adminStruct(address)":"c68ec645","bettingContract()":"21cb4831","depositTokens(uint32)":"47dee228","hourOfDay()":"7345b10b","initPost(string[32],uint32[32],uint32[32])":"bd64f10f","initProcess()":"e966f49f","matchSchedule(uint256)":"f1ed3b39","paramUpdate(uint32)":"50abb018","params(uint256)":"9d2f053c","propOddsStarts(uint256)":"91e04f7e","propOddsUpdate(uint256)":"e2a9fc3f","propResults(uint256)":"03ecacc7","proposer()":"a8e4fb90","settlePost(uint8[32])":"5d85579d","settleProcess()":"0a491d08","showSchedString()":"160919bf","token()":"fc0c546a","updatePost(uint32[32])":"9d73f0a6","updateProcess()":"4a1247ae","vote(bool)":"4b9f5c98","withdrawTokens(uint32)":"c37ac23b"}}}}}