{"src/contracts/solidity/Token.sol":{"Token":{"abi":[{"inputs":[],"stateMutability":"nonpayable","type":"constructor"},{"anonymous":false,"inputs":[{"indexed":false,"internalType":"address","name":"_owner","type":"address"},{"indexed":false,"internalType":"address","name":"_spender","type":"address"},{"indexed":false,"internalType":"uint32","name":"_value","type":"uint32"}],"name":"Approval","type":"event"},{"anonymous":false,"inputs":[{"indexed":false,"internalType":"address","name":"_from","type":"address"},{"indexed":false,"internalType":"address","name":"_to","type":"address"},{"indexed":false,"internalType":"uint32","name":"_value","type":"uint32"}],"name":"Transfer","type":"event"},{"inputs":[],"name":"MINT_AMT","outputs":[{"internalType":"uint32","name":"","type":"uint32"}],"stateMutability":"view","type":"function"},{"inputs":[{"internalType":"address","name":"","type":"address"},{"internalType":"address","name":"","type":"address"}],"name":"allowance","outputs":[{"internalType":"uint32","name":"","type":"uint32"}],"stateMutability":"view","type":"function"},{"inputs":[{"internalType":"address","name":"_spender","type":"address"},{"internalType":"uint32","name":"_value","type":"uint32"}],"name":"approve","outputs":[{"internalType":"bool","name":"success","type":"bool"}],"stateMutability":"nonpayable","type":"function"},{"inputs":[{"internalType":"address","name":"","type":"address"}],"name":"balanceOf","outputs":[{"internalType":"uint32","name":"","type":"uint32"}],"stateMutability":"view","type":"function"},{"inputs":[],"name":"decimals","outputs":[{"internalType":"uint32","name":"","type":"uint32"}],"stateMutability":"view","type":"function"},{"inputs":[],"name":"name","outputs":[{"internalType":"string","name":"","type":"string"}],"stateMutability":"view","type":"function"},{"inputs":[],"name":"symbol","outputs":[{"internalType":"string","name":"","type":"string"}],"stateMutability":"view","type":"function"},{"inputs":[],"name":"totalSupply","outputs":[{"internalType":"uint32","name":"","type":"uint32"}],"stateMutability":"view","type":"function"},{"inputs":[{"internalType":"address","name":"_recipient","type":"address"},{"internalType":"uint32","name":"_value","type":"uint32"}],"name":"transfer","outputs":[{"internalType":"bool","name":"success","type":"bool"}],"stateMutability":"nonpayable","type":"function"},{"inputs":[{"internalType":"address","name":"_from","type":"address"},{"internalType":"address","name":"_recipient","type":"address"},{"internalType":"uint32","name":"_value","type":"uint32"}],"name":"transferFrom","outputs":[{"internalType":"bool","name":"","type":"bool"}],"stateMutability":"nonpayable","type":"function"}],"evm":{"bytecode":{"linkReferences":{},"object":"608060405234801561001057600080fd5b50336000908152600160209081526040808320805463ffffffff1916633b9aca001790558254673b9aca000000000063ffffffff60201b19909116179092558151808301909252600e8083526d29b837b93a22ba34102a37b5b2b760911b92909101918252610081916003916100c2565b506000805463ffffffff191660061790556040805180820190915260038082526214d15560ea1b60209092019182526100bc916004916100c2565b50610196565b8280546100ce9061015b565b90600052602060002090601f0160209004810192826100f05760008555610136565b82601f1061010957805160ff1916838001178555610136565b82800160010185558215610136579182015b8281111561013657825182559160200191906001019061011b565b50610142929150610146565b5090565b5b808211156101425760008155600101610147565b60028104600182168061016f57607f821691505b6020821081141561019057634e487b7160e01b600052602260045260246000fd5b50919050565b610753806101a56000396000f3fe608060405234801561001057600080fd5b50600436106100be5760003560e01c806384269ed911610076578063a5c798c21161005b578063a5c798c21461014c578063a7e9454214610154578063dd62ed3e14610167576100be565b806384269ed91461013157806395d89b4114610144576100be565b8063313ce567116100a7578063313ce567146100f657806370a08231146100fe5780638009748414610111576100be565b806306fdde03146100c357806318160ddd146100e1575b600080fd5b6100cb61017a565b6040516100d89190610647565b60405180910390f35b6100e9610208565b6040516100d891906106b8565b6100e961021c565b6100e961010c366004610548565b610228565b61012461011f3660046105dd565b610240565b6040516100d8919061063c565b61012461013f36600461059b565b610301565b6100cb61044b565b6100e9610458565b6101246101623660046105dd565b610460565b6100e9610175366004610569565b6104e8565b60038054610187906106c9565b80601f01602080910402602001604051908101604052809291908181526020018280546101b3906106c9565b80156102005780601f106101d557610100808354040283529160200191610200565b820191906000526020600020905b8154815290600101906020018083116101e357829003601f168201915b505050505081565b600054640100000000900463ffffffff1681565b60005463ffffffff1681565b60016020526000908152604090205463ffffffff1681565b3360009081526001602052604081205463ffffffff90811690831681101561026757600080fd5b33600081815260016020526040808220805463ffffffff888703811663ffffffff199283161790925573ffffffffffffffffffffffffffffffffffffffff8916845292829020805480831689019092169190931617909155517f0daf680c3f528a8760b5142fe1f6f80d5f4ea18bb76f347a7a44a2d565c2b7dc916102ef9187908790610606565b60405180910390a15060019392505050565b73ffffffffffffffffffffffffffffffffffffffff831660009081526001602052604081205463ffffffff908116908316811080159061037a575073ffffffffffffffffffffffffffffffffffffffff8516600090815260026020908152604080832033845290915290205463ffffffff808516911610155b61038357600080fd5b73ffffffffffffffffffffffffffffffffffffffff8086166000818152600160209081526040808320805463ffffffff8a8903811663ffffffff1992831617909255958a16845281842080548083168b018316908816179055938352600282528083203384529091529081902080548084168890039093169290931691909117909155517f0daf680c3f528a8760b5142fe1f6f80d5f4ea18bb76f347a7a44a2d565c2b7dc9061043890879087908790610606565b60405180910390a1506001949350505050565b60048054610187906106c9565b633b9aca0081565b33600081815260026020908152604080832073ffffffffffffffffffffffffffffffffffffffff87168452909152808220805463ffffffff191663ffffffff86161790555190917fe26b9b29b95cb706aaebdd86a3524de879b8590b0ba7e61b104f54196bab2031916104d7919086908690610606565b60405180910390a150600192915050565b600260209081526000928352604080842090915290825290205463ffffffff1681565b803573ffffffffffffffffffffffffffffffffffffffff8116811461052f57600080fd5b919050565b803563ffffffff8116811461052f57600080fd5b600060208284031215610559578081fd5b6105628261050b565b9392505050565b6000806040838503121561057b578081fd5b6105848361050b565b91506105926020840161050b565b90509250929050565b6000806000606084860312156105af578081fd5b6105b88461050b565b92506105c66020850161050b565b91506105d460408501610534565b90509250925092565b600080604083850312156105ef578182fd5b6105f88361050b565b915061059260208401610534565b73ffffffffffffffffffffffffffffffffffffffff938416815291909216602082015263ffffffff909116604082015260600190565b901515815260200190565b6000602080835283518082850152825b8181101561067357858101830151858201604001528201610657565b818111156106845783604083870101525b50601f017fffffffffffffffffffffffffffffffffffffffffffffffffffffffffffffffe016929092016040019392505050565b63ffffffff91909116815260200190565b6002810460018216806106dd57607f821691505b60208210811415610717577f4e487b7100000000000000000000000000000000000000000000000000000000600052602260045260246000fd5b5091905056fea26469706673582212208944eae845a376f03ee44f5aec987ba81226c0b1323c461db40cd3bba3f209dd64736f6c63430008000033","opcodes":"PUSH1 0x80 PUSH1 0x40 MSTORE CALLVALUE DUP1 ISZERO PUSH2 0x10 JUMPI PUSH1 0x0 DUP1 REVERT JUMPDEST POP CALLER PUSH1 0x0 SWAP1 DUP2 MSTORE PUSH1 0x1 PUSH1 0x20 SWAP1 DUP2 MSTORE PUSH1 0x40 DUP1 DUP4 KECCAK256 DUP1 SLOAD PUSH4 0xFFFFFFFF NOT AND PUSH4 0x3B9ACA00 OR SWAP1 SSTORE DUP3 SLOAD PUSH8 0x3B9ACA0000000000 PUSH4 0xFFFFFFFF PUSH1 0x20 SHL NOT SWAP1 SWAP2 AND OR SWAP1 SWAP3 SSTORE DUP2 MLOAD DUP1 DUP4 ADD SWAP1 SWAP3 MSTORE PUSH1 0xE DUP1 DUP4 MSTORE PUSH14 0x29B837B93A22BA34102A37B5B2B7 PUSH1 0x91 SHL SWAP3 SWAP1 SWAP2 ADD SWAP2 DUP3 MSTORE PUSH2 0x81 SWAP2 PUSH1 0x3 SWAP2 PUSH2 0xC2 JUMP JUMPDEST POP PUSH1 0x0 DUP1 SLOAD PUSH4 0xFFFFFFFF NOT AND PUSH1 0x6 OR SWAP1 SSTORE PUSH1 0x40 DUP1 MLOAD DUP1 DUP3 ADD SWAP1 SWAP2 MSTORE PUSH1 0x3 DUP1 DUP3 MSTORE PUSH3 0x14D155 PUSH1 0xEA SHL PUSH1 0x20 SWAP1 SWAP3 ADD SWAP2 DUP3 MSTORE PUSH2 0xBC SWAP2 PUSH1 0x4 SWAP2 PUSH2 0xC2 JUMP JUMPDEST POP PUSH2 0x196 JUMP JUMPDEST DUP3 DUP1 SLOAD PUSH2 0xCE SWAP1 PUSH2 0x15B JUMP JUMPDEST SWAP1 PUSH1 0x0 MSTORE PUSH1 0x20 PUSH1 0x0 KECCAK256 SWAP1 PUSH1 0x1F ADD PUSH1 0x20 SWAP1 DIV DUP2 ADD SWAP3 DUP3 PUSH2 0xF0 JUMPI PUSH1 0x0 DUP6 SSTORE PUSH2 0x136 JUMP JUMPDEST DUP3 PUSH1 0x1F LT PUSH2 0x109 JUMPI DUP1 MLOAD PUSH1 0xFF NOT AND DUP4 DUP1 ADD OR DUP6 SSTORE PUSH2 0x136 JUMP JUMPDEST DUP3 DUP1 ADD PUSH1 0x1 ADD DUP6 SSTORE DUP3 ISZERO PUSH2 0x136 JUMPI SWAP2 DUP3 ADD JUMPDEST DUP3 DUP2 GT ISZERO PUSH2 0x136 JUMPI DUP3 MLOAD DUP3 SSTORE SWAP2 PUSH1 0x20 ADD SWAP2 SWAP1 PUSH1 0x1 ADD SWAP1 PUSH2 0x11B JUMP JUMPDEST POP PUSH2 0x142 SWAP3 SWAP2 POP PUSH2 0x146 JUMP JUMPDEST POP SWAP1 JUMP JUMPDEST JUMPDEST DUP1 DUP3 GT ISZERO PUSH2 0x142 JUMPI PUSH1 0x0 DUP2 SSTORE PUSH1 0x1 ADD PUSH2 0x147 JUMP JUMPDEST PUSH1 0x2 DUP2 DIV PUSH1 0x1 DUP3 AND DUP1 PUSH2 0x16F JUMPI PUSH1 0x7F DUP3 AND SWAP2 POP JUMPDEST PUSH1 0x20 DUP3 LT DUP2 EQ ISZERO PUSH2 0x190 JUMPI PUSH4 0x4E487B71 PUSH1 0xE0 SHL PUSH1 0x0 MSTORE PUSH1 0x22 PUSH1 0x4 MSTORE PUSH1 0x24 PUSH1 0x0 REVERT JUMPDEST POP SWAP2 SWAP1 POP JUMP JUMPDEST PUSH2 0x753 DUP1 PUSH2 0x1A5 PUSH1 0x0 CODECOPY PUSH1 0x0 RETURN INVALID PUSH1 0x80 PUSH1 0x40 MSTORE CALLVALUE DUP1 ISZERO PUSH2 0x10 JUMPI PUSH1 0x0 DUP1 REVERT JUMPDEST POP PUSH1 0x4 CALLDATASIZE LT PUSH2 0xBE JUMPI PUSH1 0x0 CALLDATALOAD PUSH1 0xE0 SHR DUP1 PUSH4 0x84269ED9 GT PUSH2 0x76 JUMPI DUP1 PUSH4 0xA5C798C2 GT PUSH2 0x5B JUMPI DUP1 PUSH4 0xA5C798C2 EQ PUSH2 0x14C JUMPI DUP1 PUSH4 0xA7E94542 EQ PUSH2 0x154 JUMPI DUP1 PUSH4 0xDD62ED3E EQ PUSH2 0x167 JUMPI PUSH2 0xBE JUMP JUMPDEST DUP1 PUSH4 0x84269ED9 EQ PUSH2 0x131 JUMPI DUP1 PUSH4 0x95D89B41 EQ PUSH2 0x144 JUMPI PUSH2 0xBE JUMP JUMPDEST DUP1 PUSH4 0x313CE567 GT PUSH2 0xA7 JUMPI DUP1 PUSH4 0x313CE567 EQ PUSH2 0xF6 JUMPI DUP1 PUSH4 0x70A08231 EQ PUSH2 0xFE JUMPI DUP1 PUSH4 0x80097484 EQ PUSH2 0x111 JUMPI PUSH2 0xBE JUMP JUMPDEST DUP1 PUSH4 0x6FDDE03 EQ PUSH2 0xC3 JUMPI DUP1 PUSH4 0x18160DDD EQ PUSH2 0xE1 JUMPI JUMPDEST PUSH1 0x0 DUP1 REVERT JUMPDEST PUSH2 0xCB PUSH2 0x17A JUMP JUMPDEST PUSH1 0x40 MLOAD PUSH2 0xD8 SWAP2 SWAP1 PUSH2 0x647 JUMP JUMPDEST PUSH1 0x40 MLOAD DUP1 SWAP2 SUB SWAP1 RETURN JUMPDEST PUSH2 0xE9 PUSH2 0x208 JUMP JUMPDEST PUSH1 0x40 MLOAD PUSH2 0xD8 SWAP2 SWAP1 PUSH2 0x6B8 JUMP JUMPDEST PUSH2 0xE9 PUSH2 0x21C JUMP JUMPDEST PUSH2 0xE9 PUSH2 0x10C CALLDATASIZE PUSH1 0x4 PUSH2 0x548 JUMP JUMPDEST PUSH2 0x228 JUMP JUMPDEST PUSH2 0x124 PUSH2 0x11F CALLDATASIZE PUSH1 0x4 PUSH2 0x5DD JUMP JUMPDEST PUSH2 0x240 JUMP JUMPDEST PUSH1 0x40 MLOAD PUSH2 0xD8 SWAP2 SWAP1 PUSH2 0x63C JUMP JUMPDEST PUSH2 0x124 PUSH2 0x13F CALLDATASIZE PUSH1 0x4 PUSH2 0x59B JUMP JUMPDEST PUSH2 0x301 JUMP JUMPDEST PUSH2 0xCB PUSH2 0x44B JUMP JUMPDEST PUSH2 0xE9 PUSH2 0x458 JUMP JUMPDEST PUSH2 0x124 PUSH2 0x162 CALLDATASIZE PUSH1 0x4 PUSH2 0x5DD JUMP JUMPDEST PUSH2 0x460 JUMP JUMPDEST PUSH2 0xE9 PUSH2 0x175 CALLDATASIZE PUSH1 0x4 PUSH2 0x569 JUMP JUMPDEST PUSH2 0x4E8 JUMP JUMPDEST PUSH1 0x3 DUP1 SLOAD PUSH2 0x187 SWAP1 PUSH2 0x6C9 JUMP JUMPDEST DUP1 PUSH1 0x1F ADD PUSH1 0x20 DUP1 SWAP2 DIV MUL PUSH1 0x20 ADD PUSH1 0x40 MLOAD SWAP1 DUP2 ADD PUSH1 0x40 MSTORE DUP1 SWAP3 SWAP2 SWAP1 DUP2 DUP2 MSTORE PUSH1 0x20 ADD DUP3 DUP1 SLOAD PUSH2 0x1B3 SWAP1 PUSH2 0x6C9 JUMP JUMPDEST DUP1 ISZERO PUSH2 0x200 JUMPI DUP1 PUSH1 0x1F LT PUSH2 0x1D5 JUMPI PUSH2 0x100 DUP1 DUP4 SLOAD DIV MUL DUP4 MSTORE SWAP2 PUSH1 0x20 ADD SWAP2 PUSH2 0x200 JUMP JUMPDEST DUP3 ADD SWAP2 SWAP1 PUSH1 0x0 MSTORE PUSH1 0x20 PUSH1 0x0 KECCAK256 SWAP1 JUMPDEST DUP2 SLOAD DUP2 MSTORE SWAP1 PUSH1 0x1 ADD SWAP1 PUSH1 0x20 ADD DUP1 DUP4 GT PUSH2 0x1E3 JUMPI DUP3 SWAP1 SUB PUSH1 0x1F AND DUP3 ADD SWAP2 JUMPDEST POP POP POP POP POP DUP2 JUMP JUMPDEST PUSH1 0x0 SLOAD PUSH5 0x100000000 SWAP1 DIV PUSH4 0xFFFFFFFF AND DUP2 JUMP JUMPDEST PUSH1 0x0 SLOAD PUSH4 0xFFFFFFFF AND DUP2 JUMP JUMPDEST PUSH1 0x1 PUSH1 0x20 MSTORE PUSH1 0x0 SWAP1 DUP2 MSTORE PUSH1 0x40 SWAP1 KECCAK256 SLOAD PUSH4 0xFFFFFFFF AND DUP2 JUMP JUMPDEST CALLER PUSH1 0x0 SWAP1 DUP2 MSTORE PUSH1 0x1 PUSH1 0x20 MSTORE PUSH1 0x40 DUP2 KECCAK256 SLOAD PUSH4 0xFFFFFFFF SWAP1 DUP2 AND SWAP1 DUP4 AND DUP2 LT ISZERO PUSH2 0x267 JUMPI PUSH1 0x0 DUP1 REVERT JUMPDEST CALLER PUSH1 0x0 DUP2 DUP2 MSTORE PUSH1 0x1 PUSH1 0x20 MSTORE PUSH1 0x40 DUP1 DUP3 KECCAK256 DUP1 SLOAD PUSH4 0xFFFFFFFF DUP9 DUP8 SUB DUP2 AND PUSH4 0xFFFFFFFF NOT SWAP3 DUP4 AND OR SWAP1 SWAP3 SSTORE PUSH20 0xFFFFFFFFFFFFFFFFFFFFFFFFFFFFFFFFFFFFFFFF DUP10 AND DUP5 MSTORE SWAP3 DUP3 SWAP1 KECCAK256 DUP1 SLOAD DUP1 DUP4 AND DUP10 ADD SWAP1 SWAP3 AND SWAP2 SWAP1 SWAP4 AND OR SWAP1 SWAP2 SSTORE MLOAD PUSH32 0xDAF680C3F528A8760B5142FE1F6F80D5F4EA18BB76F347A7A44A2D565C2B7DC SWAP2 PUSH2 0x2EF SWAP2 DUP8 SWAP1 DUP8 SWAP1 PUSH2 0x606 JUMP JUMPDEST PUSH1 0x40 MLOAD DUP1 SWAP2 SUB SWAP1 LOG1 POP PUSH1 0x1 SWAP4 SWAP3 POP POP POP JUMP JUMPDEST PUSH20 0xFFFFFFFFFFFFFFFFFFFFFFFFFFFFFFFFFFFFFFFF DUP4 AND PUSH1 0x0 SWAP1 DUP2 MSTORE PUSH1 0x1 PUSH1 0x20 MSTORE PUSH1 0x40 DUP2 KECCAK256 SLOAD PUSH4 0xFFFFFFFF SWAP1 DUP2 AND SWAP1 DUP4 AND DUP2 LT DUP1 ISZERO SWAP1 PUSH2 0x37A JUMPI POP PUSH20 0xFFFFFFFFFFFFFFFFFFFFFFFFFFFFFFFFFFFFFFFF DUP6 AND PUSH1 0x0 SWAP1 DUP2 MSTORE PUSH1 0x2 PUSH1 0x20 SWAP1 DUP2 MSTORE PUSH1 0x40 DUP1 DUP4 KECCAK256 CALLER DUP5 MSTORE SWAP1 SWAP2 MSTORE SWAP1 KECCAK256 SLOAD PUSH4 0xFFFFFFFF DUP1 DUP6 AND SWAP2 AND LT ISZERO JUMPDEST PUSH2 0x383 JUMPI PUSH1 0x0 DUP1 REVERT JUMPDEST PUSH20 0xFFFFFFFFFFFFFFFFFFFFFFFFFFFFFFFFFFFFFFFF DUP1 DUP7 AND PUSH1 0x0 DUP2 DUP2 MSTORE PUSH1 0x1 PUSH1 0x20 SWAP1 DUP2 MSTORE PUSH1 0x40 DUP1 DUP4 KECCAK256 DUP1 SLOAD PUSH4 0xFFFFFFFF DUP11 DUP10 SUB DUP2 AND PUSH4 0xFFFFFFFF NOT SWAP3 DUP4 AND OR SWAP1 SWAP3 SSTORE SWAP6 DUP11 AND DUP5 MSTORE DUP2 DUP5 KECCAK256 DUP1 SLOAD DUP1 DUP4 AND DUP12 ADD DUP4 AND SWAP1 DUP9 AND OR SWAP1 SSTORE SWAP4 DUP4 MSTORE PUSH1 0x2 DUP3 MSTORE DUP1 DUP4 KECCAK256 CALLER DUP5 MSTORE SWAP1 SWAP2 MSTORE SWAP1 DUP2 SWAP1 KECCAK256 DUP1 SLOAD DUP1 DUP5 AND DUP9 SWAP1 SUB SWAP1 SWAP4 AND SWAP3 SWAP1 SWAP4 AND SWAP2 SWAP1 SWAP2 OR SWAP1 SWAP2 SSTORE MLOAD PUSH32 0xDAF680C3F528A8760B5142FE1F6F80D5F4EA18BB76F347A7A44A2D565C2B7DC SWAP1 PUSH2 0x438 SWAP1 DUP8 SWAP1 DUP8 SWAP1 DUP8 SWAP1 PUSH2 0x606 JUMP JUMPDEST PUSH1 0x40 MLOAD DUP1 SWAP2 SUB SWAP1 LOG1 POP PUSH1 0x1 SWAP5 SWAP4 POP POP POP POP JUMP JUMPDEST PUSH1 0x4 DUP1 SLOAD PUSH2 0x187 SWAP1 PUSH2 0x6C9 JUMP JUMPDEST PUSH4 0x3B9ACA00 DUP2 JUMP JUMPDEST CALLER PUSH1 0x0 DUP2 DUP2 MSTORE PUSH1 0x2 PUSH1 0x20 SWAP1 DUP2 MSTORE PUSH1 0x40 DUP1 DUP4 KECCAK256 PUSH20 0xFFFFFFFFFFFFFFFFFFFFFFFFFFFFFFFFFFFFFFFF DUP8 AND DUP5 MSTORE SWAP1 SWAP2 MSTORE DUP1 DUP3 KECCAK256 DUP1 SLOAD PUSH4 0xFFFFFFFF NOT AND PUSH4 0xFFFFFFFF DUP7 AND OR SWAP1 SSTORE MLOAD SWAP1 SWAP2 PUSH32 0xE26B9B29B95CB706AAEBDD86A3524DE879B8590B0BA7E61B104F54196BAB2031 SWAP2 PUSH2 0x4D7 SWAP2 SWAP1 DUP7 SWAP1 DUP7 SWAP1 PUSH2 0x606 JUMP JUMPDEST PUSH1 0x40 MLOAD DUP1 SWAP2 SUB SWAP1 LOG1 POP PUSH1 0x1 SWAP3 SWAP2 POP POP JUMP JUMPDEST PUSH1 0x2 PUSH1 0x20 SWAP1 DUP2 MSTORE PUSH1 0x0 SWAP3 DUP4 MSTORE PUSH1 0x40 DUP1 DUP5 KECCAK256 SWAP1 SWAP2 MSTORE SWAP1 DUP3 MSTORE SWAP1 KECCAK256 SLOAD PUSH4 0xFFFFFFFF AND DUP2 JUMP JUMPDEST DUP1 CALLDATALOAD PUSH20 0xFFFFFFFFFFFFFFFFFFFFFFFFFFFFFFFFFFFFFFFF DUP2 AND DUP2 EQ PUSH2 0x52F JUMPI PUSH1 0x0 DUP1 REVERT JUMPDEST SWAP2 SWAP1 POP JUMP JUMPDEST DUP1 CALLDATALOAD PUSH4 0xFFFFFFFF DUP2 AND DUP2 EQ PUSH2 0x52F JUMPI PUSH1 0x0 DUP1 REVERT JUMPDEST PUSH1 0x0 PUSH1 0x20 DUP3 DUP5 SUB SLT ISZERO PUSH2 0x559 JUMPI DUP1 DUP2 REVERT JUMPDEST PUSH2 0x562 DUP3 PUSH2 0x50B JUMP JUMPDEST SWAP4 SWAP3 POP POP POP JUMP JUMPDEST PUSH1 0x0 DUP1 PUSH1 0x40 DUP4 DUP6 SUB SLT ISZERO PUSH2 0x57B JUMPI DUP1 DUP2 REVERT JUMPDEST PUSH2 0x584 DUP4 PUSH2 0x50B JUMP JUMPDEST SWAP2 POP PUSH2 0x592 PUSH1 0x20 DUP5 ADD PUSH2 0x50B JUMP JUMPDEST SWAP1 POP SWAP3 POP SWAP3 SWAP1 POP JUMP JUMPDEST PUSH1 0x0 DUP1 PUSH1 0x0 PUSH1 0x60 DUP5 DUP7 SUB SLT ISZERO PUSH2 0x5AF JUMPI DUP1 DUP2 REVERT JUMPDEST PUSH2 0x5B8 DUP5 PUSH2 0x50B JUMP JUMPDEST SWAP3 POP PUSH2 0x5C6 PUSH1 0x20 DUP6 ADD PUSH2 0x50B JUMP JUMPDEST SWAP2 POP PUSH2 0x5D4 PUSH1 0x40 DUP6 ADD PUSH2 0x534 JUMP JUMPDEST SWAP1 POP SWAP3 POP SWAP3 POP SWAP3 JUMP JUMPDEST PUSH1 0x0 DUP1 PUSH1 0x40 DUP4 DUP6 SUB SLT ISZERO PUSH2 0x5EF JUMPI DUP2 DUP3 REVERT JUMPDEST PUSH2 0x5F8 DUP4 PUSH2 0x50B JUMP JUMPDEST SWAP2 POP PUSH2 0x592 PUSH1 0x20 DUP5 ADD PUSH2 0x534 JUMP JUMPDEST PUSH20 0xFFFFFFFFFFFFFFFFFFFFFFFFFFFFFFFFFFFFFFFF SWAP4 DUP5 AND DUP2 MSTORE SWAP2 SWAP1 SWAP3 AND PUSH1 0x20 DUP3 ADD MSTORE PUSH4 0xFFFFFFFF SWAP1 SWAP2 AND PUSH1 0x40 DUP3 ADD MSTORE PUSH1 0x60 ADD SWAP1 JUMP JUMPDEST SWAP1 ISZERO ISZERO DUP2 MSTORE PUSH1 0x20 ADD SWAP1 JUMP JUMPDEST PUSH1 0x0 PUSH1 0x20 DUP1 DUP4 MSTORE DUP4 MLOAD DUP1 DUP3 DUP6 ADD MSTORE DUP3 JUMPDEST DUP2 DUP2 LT ISZERO PUSH2 0x673 JUMPI DUP6 DUP2 ADD DUP4 ADD MLOAD DUP6 DUP3 ADD PUSH1 0x40 ADD MSTORE DUP3 ADD PUSH2 0x657 JUMP JUMPDEST DUP2 DUP2 GT ISZERO PUSH2 0x684 JUMPI DUP4 PUSH1 0x40 DUP4 DUP8 ADD ADD MSTORE JUMPDEST POP PUSH1 0x1F ADD PUSH32 0xFFFFFFFFFFFFFFFFFFFFFFFFFFFFFFFFFFFFFFFFFFFFFFFFFFFFFFFFFFFFFFE0 AND SWAP3 SWAP1 SWAP3 ADD PUSH1 0x40 ADD SWAP4 SWAP3 POP POP POP JUMP JUMPDEST PUSH4 0xFFFFFFFF SWAP2 SWAP1 SWAP2 AND DUP2 MSTORE PUSH1 0x20 ADD SWAP1 JUMP JUMPDEST PUSH1 0x2 DUP2 DIV PUSH1 0x1 DUP3 AND DUP1 PUSH2 0x6DD JUMPI PUSH1 0x7F DUP3 AND SWAP2 POP JUMPDEST PUSH1 0x20 DUP3 LT DUP2 EQ ISZERO PUSH2 0x717 JUMPI PUSH32 0x4E487B7100000000000000000000000000000000000000000000000000000000 PUSH1 0x0 MSTORE PUSH1 0x22 PUSH1 0x4 MSTORE PUSH1 0x24 PUSH1 0x0 REVERT JUMPDEST POP SWAP2 SWAP1 POP JUMP INVALID LOG2 PUSH5 0x6970667358 0x22 SLT KECCAK256 DUP10 DIFFICULTY 0xEA 0xE8 GASLIMIT LOG3 PUSH23 0xF03EE44F5AEC987BA81226C0B1323C461DB40CD3BBA3F2 MULMOD 0xDD PUSH5 0x736F6C6343 STOP ADDMOD STOP STOP CALLER "},"methodIdentifiers":{"MINT_AMT()":"a5c798c2","allowance(address,address)":"dd62ed3e","approve(address,uint32)":"a7e94542","balanceOf(address)":"70a08231","decimals()":"313ce567","name()":"06fdde03","symbol()":"95d89b41","totalSupply()":"18160ddd","transfer(address,uint32)":"80097484","transferFrom(address,address,uint32)":"84269ed9"}}}}}