{"src/contracts/solidity/Bbbv.sol":{"Bbbv":{"abi":[{"inputs":[],"stateMutability":"nonpayable","type":"constructor"},{"inputs":[{"internalType":"uint256","name":"","type":"uint256"}],"name":"paramsb","outputs":[{"internalType":"uint256","name":"","type":"uint256"}],"stateMutability":"view","type":"function"},{"inputs":[{"internalType":"uint256[8]","name":"_params","type":"uint256[8]"}],"name":"pullGet","outputs":[{"internalType":"uint256","name":"a","type":"uint256"},{"internalType":"uint32","name":"b","type":"uint32"}],"stateMutability":"nonpayable","type":"function"},{"inputs":[{"internalType":"uint256[8]","name":"_params","type":"uint256[8]"}],"name":"pullOnly","outputs":[],"stateMutability":"nonpayable","type":"function"},{"inputs":[{"internalType":"uint256[8]","name":"_params","type":"uint256[8]"}],"name":"pullPay","outputs":[],"stateMutability":"nonpayable","type":"function"},{"inputs":[],"name":"seeBalance","outputs":[{"internalType":"uint256","name":"ethHere","type":"uint256"}],"stateMutability":"view","type":"function"},{"inputs":[],"name":"sendEth","outputs":[],"stateMutability":"payable","type":"function"},{"stateMutability":"payable","type":"receive"}],"evm":{"bytecode":{"linkReferences":{},"object":"608060405234801561001057600080fd5b506103c4806100206000396000f3fe6080604052600436106100695760003560e01c8063d2f7a5c411610043578063d2f7a5c4146100ca578063d55995ba146100ea578063ecfbfa161461010a57610070565b806306e99fef14610075578063429a1bb01461007f57806393fd4fe8146100aa57610070565b3661007057005b600080fd5b61007d610138565b005b34801561008b57600080fd5b5061009461013a565b6040516100a19190610305565b60405180910390f35b3480156100b657600080fd5b506100946100c53660046102ea565b61013e565b3480156100d657600080fd5b5061007d6100e5366004610265565b610155565b3480156100f657600080fd5b5061007d610105366004610265565b610166565b34801561011657600080fd5b5061012a610125366004610265565b6101eb565b6040516100a192919061030e565b565b4790565b6000816008811061014e57600080fd5b0154905081565b6101626000826008610212565b5050565b6101736000826008610212565b5060003373ffffffffffffffffffffffffffffffffffffffff16606360405161019b90610302565b60006040518083038185875af1925050503d80600081146101d8576040519150601f19603f3d011682016040523d82523d6000602084013e6101dd565b606091505b505090508061016257600080fd5b6000806101fa81846008610212565b50600054915061020b826003610322565b9050915091565b8260088101928215610240579160200282015b82811115610240578251825591602001919060010190610225565b5061024c929150610250565b5090565b5b8082111561024c5760008155600101610251565b6000610100808385031215610278578182fd5b83601f840112610286578182fd5b60405181810181811067ffffffffffffffff821117156102a8576102a861035f565b60405280848381018710156102bb578485fd5b8493505b60088410156102df578035825260019390930192602091820191016102bf565b509095945050505050565b6000602082840312156102fb578081fd5b5035919050565b90565b90815260200190565b91825263ffffffff16602082015260400190565b6000821982111561035a577f4e487b710000000000000000000000000000000000000000000000000000000081526011600452602481fd5b500190565b7f4e487b7100000000000000000000000000000000000000000000000000000000600052604160045260246000fdfea2646970667358221220a1e3fa704f86530f3d8921d8582a9e909d9519235dfec47df42dc27d722b749f64736f6c63430008000033","opcodes":"PUSH1 0x80 PUSH1 0x40 MSTORE CALLVALUE DUP1 ISZERO PUSH2 0x10 JUMPI PUSH1 0x0 DUP1 REVERT JUMPDEST POP PUSH2 0x3C4 DUP1 PUSH2 0x20 PUSH1 0x0 CODECOPY PUSH1 0x0 RETURN INVALID PUSH1 0x80 PUSH1 0x40 MSTORE PUSH1 0x4 CALLDATASIZE LT PUSH2 0x69 JUMPI PUSH1 0x0 CALLDATALOAD PUSH1 0xE0 SHR DUP1 PUSH4 0xD2F7A5C4 GT PUSH2 0x43 JUMPI DUP1 PUSH4 0xD2F7A5C4 EQ PUSH2 0xCA JUMPI DUP1 PUSH4 0xD55995BA EQ PUSH2 0xEA JUMPI DUP1 PUSH4 0xECFBFA16 EQ PUSH2 0x10A JUMPI PUSH2 0x70 JUMP JUMPDEST DUP1 PUSH4 0x6E99FEF EQ PUSH2 0x75 JUMPI DUP1 PUSH4 0x429A1BB0 EQ PUSH2 0x7F JUMPI DUP1 PUSH4 0x93FD4FE8 EQ PUSH2 0xAA JUMPI PUSH2 0x70 JUMP JUMPDEST CALLDATASIZE PUSH2 0x70 JUMPI STOP JUMPDEST PUSH1 0x0 DUP1 REVERT JUMPDEST PUSH2 0x7D PUSH2 0x138 JUMP JUMPDEST STOP JUMPDEST CALLVALUE DUP1 ISZERO PUSH2 0x8B JUMPI PUSH1 0x0 DUP1 REVERT JUMPDEST POP PUSH2 0x94 PUSH2 0x13A JUMP JUMPDEST PUSH1 0x40 MLOAD PUSH2 0xA1 SWAP2 SWAP1 PUSH2 0x305 JUMP JUMPDEST PUSH1 0x40 MLOAD DUP1 SWAP2 SUB SWAP1 RETURN JUMPDEST CALLVALUE DUP1 ISZERO PUSH2 0xB6 JUMPI PUSH1 0x0 DUP1 REVERT JUMPDEST POP PUSH2 0x94 PUSH2 0xC5 CALLDATASIZE PUSH1 0x4 PUSH2 0x2EA JUMP JUMPDEST PUSH2 0x13E JUMP JUMPDEST CALLVALUE DUP1 ISZERO PUSH2 0xD6 JUMPI PUSH1 0x0 DUP1 REVERT JUMPDEST POP PUSH2 0x7D PUSH2 0xE5 CALLDATASIZE PUSH1 0x4 PUSH2 0x265 JUMP JUMPDEST PUSH2 0x155 JUMP JUMPDEST CALLVALUE DUP1 ISZERO PUSH2 0xF6 JUMPI PUSH1 0x0 DUP1 REVERT JUMPDEST POP PUSH2 0x7D PUSH2 0x105 CALLDATASIZE PUSH1 0x4 PUSH2 0x265 JUMP JUMPDEST PUSH2 0x166 JUMP JUMPDEST CALLVALUE DUP1 ISZERO PUSH2 0x116 JUMPI PUSH1 0x0 DUP1 REVERT JUMPDEST POP PUSH2 0x12A PUSH2 0x125 CALLDATASIZE PUSH1 0x4 PUSH2 0x265 JUMP JUMPDEST PUSH2 0x1EB JUMP JUMPDEST PUSH1 0x40 MLOAD PUSH2 0xA1 SWAP3 SWAP2 SWAP1 PUSH2 0x30E JUMP JUMPDEST JUMP JUMPDEST SELFBALANCE SWAP1 JUMP JUMPDEST PUSH1 0x0 DUP2 PUSH1 0x8 DUP2 LT PUSH2 0x14E JUMPI PUSH1 0x0 DUP1 REVERT JUMPDEST ADD SLOAD SWAP1 POP DUP2 JUMP JUMPDEST PUSH2 0x162 PUSH1 0x0 DUP3 PUSH1 0x8 PUSH2 0x212 JUMP JUMPDEST POP POP JUMP JUMPDEST PUSH2 0x173 PUSH1 0x0 DUP3 PUSH1 0x8 PUSH2 0x212 JUMP JUMPDEST POP PUSH1 0x0 CALLER PUSH20 0xFFFFFFFFFFFFFFFFFFFFFFFFFFFFFFFFFFFFFFFF AND PUSH1 0x63 PUSH1 0x40 MLOAD PUSH2 0x19B SWAP1 PUSH2 0x302 JUMP JUMPDEST PUSH1 0x0 PUSH1 0x40 MLOAD DUP1 DUP4 SUB DUP2 DUP6 DUP8 GAS CALL SWAP3 POP POP POP RETURNDATASIZE DUP1 PUSH1 0x0 DUP2 EQ PUSH2 0x1D8 JUMPI PUSH1 0x40 MLOAD SWAP2 POP PUSH1 0x1F NOT PUSH1 0x3F RETURNDATASIZE ADD AND DUP3 ADD PUSH1 0x40 MSTORE RETURNDATASIZE DUP3 MSTORE RETURNDATASIZE PUSH1 0x0 PUSH1 0x20 DUP5 ADD RETURNDATACOPY PUSH2 0x1DD JUMP JUMPDEST PUSH1 0x60 SWAP2 POP JUMPDEST POP POP SWAP1 POP DUP1 PUSH2 0x162 JUMPI PUSH1 0x0 DUP1 REVERT JUMPDEST PUSH1 0x0 DUP1 PUSH2 0x1FA DUP2 DUP5 PUSH1 0x8 PUSH2 0x212 JUMP JUMPDEST POP PUSH1 0x0 SLOAD SWAP2 POP PUSH2 0x20B DUP3 PUSH1 0x3 PUSH2 0x322 JUMP JUMPDEST SWAP1 POP SWAP2 POP SWAP2 JUMP JUMPDEST DUP3 PUSH1 0x8 DUP2 ADD SWAP3 DUP3 ISZERO PUSH2 0x240 JUMPI SWAP2 PUSH1 0x20 MUL DUP3 ADD JUMPDEST DUP3 DUP2 GT ISZERO PUSH2 0x240 JUMPI DUP3 MLOAD DUP3 SSTORE SWAP2 PUSH1 0x20 ADD SWAP2 SWAP1 PUSH1 0x1 ADD SWAP1 PUSH2 0x225 JUMP JUMPDEST POP PUSH2 0x24C SWAP3 SWAP2 POP PUSH2 0x250 JUMP JUMPDEST POP SWAP1 JUMP JUMPDEST JUMPDEST DUP1 DUP3 GT ISZERO PUSH2 0x24C JUMPI PUSH1 0x0 DUP2 SSTORE PUSH1 0x1 ADD PUSH2 0x251 JUMP JUMPDEST PUSH1 0x0 PUSH2 0x100 DUP1 DUP4 DUP6 SUB SLT ISZERO PUSH2 0x278 JUMPI DUP2 DUP3 REVERT JUMPDEST DUP4 PUSH1 0x1F DUP5 ADD SLT PUSH2 0x286 JUMPI DUP2 DUP3 REVERT JUMPDEST PUSH1 0x40 MLOAD DUP2 DUP2 ADD DUP2 DUP2 LT PUSH8 0xFFFFFFFFFFFFFFFF DUP3 GT OR ISZERO PUSH2 0x2A8 JUMPI PUSH2 0x2A8 PUSH2 0x35F JUMP JUMPDEST PUSH1 0x40 MSTORE DUP1 DUP5 DUP4 DUP2 ADD DUP8 LT ISZERO PUSH2 0x2BB JUMPI DUP5 DUP6 REVERT JUMPDEST DUP5 SWAP4 POP JUMPDEST PUSH1 0x8 DUP5 LT ISZERO PUSH2 0x2DF JUMPI DUP1 CALLDATALOAD DUP3 MSTORE PUSH1 0x1 SWAP4 SWAP1 SWAP4 ADD SWAP3 PUSH1 0x20 SWAP2 DUP3 ADD SWAP2 ADD PUSH2 0x2BF JUMP JUMPDEST POP SWAP1 SWAP6 SWAP5 POP POP POP POP POP JUMP JUMPDEST PUSH1 0x0 PUSH1 0x20 DUP3 DUP5 SUB SLT ISZERO PUSH2 0x2FB JUMPI DUP1 DUP2 REVERT JUMPDEST POP CALLDATALOAD SWAP2 SWAP1 POP JUMP JUMPDEST SWAP1 JUMP JUMPDEST SWAP1 DUP2 MSTORE PUSH1 0x20 ADD SWAP1 JUMP JUMPDEST SWAP2 DUP3 MSTORE PUSH4 0xFFFFFFFF AND PUSH1 0x20 DUP3 ADD MSTORE PUSH1 0x40 ADD SWAP1 JUMP JUMPDEST PUSH1 0x0 DUP3 NOT DUP3 GT ISZERO PUSH2 0x35A JUMPI PUSH32 0x4E487B7100000000000000000000000000000000000000000000000000000000 DUP2 MSTORE PUSH1 0x11 PUSH1 0x4 MSTORE PUSH1 0x24 DUP2 REVERT JUMPDEST POP ADD SWAP1 JUMP JUMPDEST PUSH32 0x4E487B7100000000000000000000000000000000000000000000000000000000 PUSH1 0x0 MSTORE PUSH1 0x41 PUSH1 0x4 MSTORE PUSH1 0x24 PUSH1 0x0 REVERT INVALID LOG2 PUSH5 0x6970667358 0x22 SLT KECCAK256 LOG1 0xE3 STATICCALL PUSH17 0x4F86530F3D8921D8582A9E909D9519235D INVALID 0xC4 PUSH30 0xF42DC27D722B749F64736F6C634300080000330000000000000000000000 "},"methodIdentifiers":{"paramsb(uint256)":"93fd4fe8","pullGet(uint256[8])":"ecfbfa16","pullOnly(uint256[8])":"d2f7a5c4","pullPay(uint256[8])":"d55995ba","seeBalance()":"429a1bb0","sendEth()":"06e99fef"}}}}}