{
  "_format": "hh-sol-artifact-1",
  "contractName": "Token",
  "sourceName": "src/contracts/solidity/Token.sol",
  "abi": [
    {
      "inputs": [],
      "stateMutability": "nonpayable",
      "type": "constructor"
    },
    {
      "anonymous": false,
      "inputs": [
        {
          "indexed": false,
          "internalType": "address",
          "name": "_owner",
          "type": "address"
        },
        {
          "indexed": false,
          "internalType": "address",
          "name": "_spender",
          "type": "address"
        },
        {
          "indexed": false,
          "internalType": "uint32",
          "name": "_value",
          "type": "uint32"
        }
      ],
      "name": "Approval",
      "type": "event"
    },
    {
      "anonymous": false,
      "inputs": [
        {
          "indexed": false,
          "internalType": "address",
          "name": "_from",
          "type": "address"
        },
        {
          "indexed": false,
          "internalType": "address",
          "name": "_to",
          "type": "address"
        },
        {
          "indexed": false,
          "internalType": "uint32",
          "name": "_value",
          "type": "uint32"
        }
      ],
      "name": "Transfer",
      "type": "event"
    },
    {
      "inputs": [],
      "name": "MINT_AMT",
      "outputs": [
        {
          "internalType": "uint32",
          "name": "",
          "type": "uint32"
        }
      ],
      "stateMutability": "view",
      "type": "function"
    },
    {
      "inputs": [
        {
          "internalType": "address",
          "name": "",
          "type": "address"
        },
        {
          "internalType": "address",
          "name": "",
          "type": "address"
        }
      ],
      "name": "allowance",
      "outputs": [
        {
          "internalType": "uint32",
          "name": "",
          "type": "uint32"
        }
      ],
      "stateMutability": "view",
      "type": "function"
    },
    {
      "inputs": [
        {
          "internalType": "address",
          "name": "_spender",
          "type": "address"
        },
        {
          "internalType": "uint32",
          "name": "_value",
          "type": "uint32"
        }
      ],
      "name": "approve",
      "outputs": [
        {
          "internalType": "bool",
          "name": "success",
          "type": "bool"
        }
      ],
      "stateMutability": "nonpayable",
      "type": "function"
    },
    {
      "inputs": [
        {
          "internalType": "address",
          "name": "",
          "type": "address"
        }
      ],
      "name": "balanceOf",
      "outputs": [
        {
          "internalType": "uint32",
          "name": "",
          "type": "uint32"
        }
      ],
      "stateMutability": "view",
      "type": "function"
    },
    {
      "inputs": [],
      "name": "decimals",
      "outputs": [
        {
          "internalType": "uint32",
          "name": "",
          "type": "uint32"
        }
      ],
      "stateMutability": "view",
      "type": "function"
    },
    {
      "inputs": [],
      "name": "name",
      "outputs": [
        {
          "internalType": "string",
          "name": "",
          "type": "string"
        }
      ],
      "stateMutability": "view",
      "type": "function"
    },
    {
      "inputs": [],
      "name": "symbol",
      "outputs": [
        {
          "internalType": "string",
          "name": "",
          "type": "string"
        }
      ],
      "stateMutability": "view",
      "type": "function"
    },
    {
      "inputs": [],
      "name": "totalSupply",
      "outputs": [
        {
          "internalType": "uint32",
          "name": "",
          "type": "uint32"
        }
      ],
      "stateMutability": "view",
      "type": "function"
    },
    {
      "inputs": [
        {
          "internalType": "address",
          "name": "_recipient",
          "type": "address"
        },
        {
          "internalType": "uint32",
          "name": "_value",
          "type": "uint32"
        }
      ],
      "name": "transfer",
      "outputs": [
        {
          "internalType": "bool",
          "name": "success",
          "type": "bool"
        }
      ],
      "stateMutability": "nonpayable",
      "type": "function"
    },
    {
      "inputs": [
        {
          "internalType": "address",
          "name": "_from",
          "type": "address"
        },
        {
          "internalType": "address",
          "name": "_recipient",
          "type": "address"
        },
        {
          "internalType": "uint32",
          "name": "_value",
          "type": "uint32"
        }
      ],
      "name": "transferFrom",
      "outputs": [
        {
          "internalType": "bool",
          "name": "success",
          "type": "bool"
        }
      ],
      "stateMutability": "nonpayable",
      "type": "function"
    }
  ],
  "bytecode": "0x608060405234801561001057600080fd5b50336000908152600160209081526040808320805463ffffffff1916633b9aca001790558254673b9aca000000000063ffffffff60201b19909116179092558151808301909252600e8083526d29b837b93a22ba34102a37b5b2b760911b92909101918252610081916003916100c2565b506000805463ffffffff191660061790556040805180820190915260038082526214d15560ea1b60209092019182526100bc916004916100c2565b50610196565b8280546100ce9061015b565b90600052602060002090601f0160209004810192826100f05760008555610136565b82601f1061010957805160ff1916838001178555610136565b82800160010185558215610136579182015b8281111561013657825182559160200191906001019061011b565b50610142929150610146565b5090565b5b808211156101425760008155600101610147565b60028104600182168061016f57607f821691505b6020821081141561019057634e487b7160e01b600052602260045260246000fd5b50919050565b610753806101a56000396000f3fe608060405234801561001057600080fd5b50600436106100be5760003560e01c806384269ed911610076578063a5c798c21161005b578063a5c798c21461014c578063a7e9454214610154578063dd62ed3e14610167576100be565b806384269ed91461013157806395d89b4114610144576100be565b8063313ce567116100a7578063313ce567146100f657806370a08231146100fe5780638009748414610111576100be565b806306fdde03146100c357806318160ddd146100e1575b600080fd5b6100cb61017a565b6040516100d89190610647565b60405180910390f35b6100e9610208565b6040516100d891906106b8565b6100e961021c565b6100e961010c366004610548565b610228565b61012461011f3660046105dd565b610240565b6040516100d8919061063c565b61012461013f36600461059b565b610301565b6100cb61044b565b6100e9610458565b6101246101623660046105dd565b610460565b6100e9610175366004610569565b6104e8565b60038054610187906106c9565b80601f01602080910402602001604051908101604052809291908181526020018280546101b3906106c9565b80156102005780601f106101d557610100808354040283529160200191610200565b820191906000526020600020905b8154815290600101906020018083116101e357829003601f168201915b505050505081565b600054640100000000900463ffffffff1681565b60005463ffffffff1681565b60016020526000908152604090205463ffffffff1681565b3360009081526001602052604081205463ffffffff90811690831681101561026757600080fd5b33600081815260016020526040808220805463ffffffff888703811663ffffffff199283161790925573ffffffffffffffffffffffffffffffffffffffff8916845292829020805480831689019092169190931617909155517f0daf680c3f528a8760b5142fe1f6f80d5f4ea18bb76f347a7a44a2d565c2b7dc916102ef9187908790610606565b60405180910390a15060019392505050565b73ffffffffffffffffffffffffffffffffffffffff831660009081526001602052604081205463ffffffff908116908316811080159061037a575073ffffffffffffffffffffffffffffffffffffffff8516600090815260026020908152604080832033845290915290205463ffffffff808516911610155b61038357600080fd5b73ffffffffffffffffffffffffffffffffffffffff8086166000818152600160209081526040808320805463ffffffff8a8903811663ffffffff1992831617909255958a16845281842080548083168b018316908816179055938352600282528083203384529091529081902080548084168890039093169290931691909117909155517f0daf680c3f528a8760b5142fe1f6f80d5f4ea18bb76f347a7a44a2d565c2b7dc9061043890879087908790610606565b60405180910390a1506001949350505050565b60048054610187906106c9565b633b9aca0081565b33600081815260026020908152604080832073ffffffffffffffffffffffffffffffffffffffff87168452909152808220805463ffffffff191663ffffffff86161790555190917fe26b9b29b95cb706aaebdd86a3524de879b8590b0ba7e61b104f54196bab2031916104d7919086908690610606565b60405180910390a150600192915050565b600260209081526000928352604080842090915290825290205463ffffffff1681565b803573ffffffffffffffffffffffffffffffffffffffff8116811461052f57600080fd5b919050565b803563ffffffff8116811461052f57600080fd5b600060208284031215610559578081fd5b6105628261050b565b9392505050565b6000806040838503121561057b578081fd5b6105848361050b565b91506105926020840161050b565b90509250929050565b6000806000606084860312156105af578081fd5b6105b88461050b565b92506105c66020850161050b565b91506105d460408501610534565b90509250925092565b600080604083850312156105ef578182fd5b6105f88361050b565b915061059260208401610534565b73ffffffffffffffffffffffffffffffffffffffff938416815291909216602082015263ffffffff909116604082015260600190565b901515815260200190565b6000602080835283518082850152825b8181101561067357858101830151858201604001528201610657565b818111156106845783604083870101525b50601f017fffffffffffffffffffffffffffffffffffffffffffffffffffffffffffffffe016929092016040019392505050565b63ffffffff91909116815260200190565b6002810460018216806106dd57607f821691505b60208210811415610717577f4e487b7100000000000000000000000000000000000000000000000000000000600052602260045260246000fd5b5091905056fea26469706673582212209949a766197ddd05d5f82a95e9c554e45f99a976a0d53d4562bacfd10b56104364736f6c63430008000033",
  "linkReferences": {},
  "deployedLinkReferences": {}
}