{
  "_format": "hh-sol-artifact-1",
  "contractName": "Token",
  "sourceName": "src/contracts/solidity/Token.sol",
  "abi": [
    {
      "inputs": [],
      "stateMutability": "nonpayable",
      "type": "constructor"
    },
    {
      "anonymous": false,
      "inputs": [
        {
          "indexed": false,
          "internalType": "address",
          "name": "_owner",
          "type": "address"
        },
        {
          "indexed": false,
          "internalType": "address",
          "name": "_spender",
          "type": "address"
        },
        {
          "indexed": false,
          "internalType": "uint32",
          "name": "_value",
          "type": "uint32"
        }
      ],
      "name": "Approval",
      "type": "event"
    },
    {
      "anonymous": false,
      "inputs": [
        {
          "indexed": false,
          "internalType": "address",
          "name": "_from",
          "type": "address"
        },
        {
          "indexed": false,
          "internalType": "address",
          "name": "_to",
          "type": "address"
        },
        {
          "indexed": false,
          "internalType": "uint32",
          "name": "_value",
          "type": "uint32"
        }
      ],
      "name": "Transfer",
      "type": "event"
    },
    {
      "inputs": [],
      "name": "MINT_AMT",
      "outputs": [
        {
          "internalType": "uint32",
          "name": "",
          "type": "uint32"
        }
      ],
      "stateMutability": "view",
      "type": "function"
    },
    {
      "inputs": [
        {
          "internalType": "address",
          "name": "",
          "type": "address"
        },
        {
          "internalType": "address",
          "name": "",
          "type": "address"
        }
      ],
      "name": "allowance",
      "outputs": [
        {
          "internalType": "uint32",
          "name": "",
          "type": "uint32"
        }
      ],
      "stateMutability": "view",
      "type": "function"
    },
    {
      "inputs": [
        {
          "internalType": "address",
          "name": "_spender",
          "type": "address"
        },
        {
          "internalType": "uint32",
          "name": "_value",
          "type": "uint32"
        }
      ],
      "name": "approve",
      "outputs": [
        {
          "internalType": "bool",
          "name": "success",
          "type": "bool"
        }
      ],
      "stateMutability": "nonpayable",
      "type": "function"
    },
    {
      "inputs": [
        {
          "internalType": "address",
          "name": "",
          "type": "address"
        }
      ],
      "name": "balanceOf",
      "outputs": [
        {
          "internalType": "uint32",
          "name": "",
          "type": "uint32"
        }
      ],
      "stateMutability": "view",
      "type": "function"
    },
    {
      "inputs": [],
      "name": "decimals",
      "outputs": [
        {
          "internalType": "uint8",
          "name": "",
          "type": "uint8"
        }
      ],
      "stateMutability": "view",
      "type": "function"
    },
    {
      "inputs": [],
      "name": "name",
      "outputs": [
        {
          "internalType": "string",
          "name": "",
          "type": "string"
        }
      ],
      "stateMutability": "view",
      "type": "function"
    },
    {
      "inputs": [],
      "name": "symbol",
      "outputs": [
        {
          "internalType": "string",
          "name": "",
          "type": "string"
        }
      ],
      "stateMutability": "view",
      "type": "function"
    },
    {
      "inputs": [],
      "name": "totalSupply",
      "outputs": [
        {
          "internalType": "uint32",
          "name": "",
          "type": "uint32"
        }
      ],
      "stateMutability": "view",
      "type": "function"
    },
    {
      "inputs": [
        {
          "internalType": "address",
          "name": "_recipient",
          "type": "address"
        },
        {
          "internalType": "uint32",
          "name": "_value",
          "type": "uint32"
        }
      ],
      "name": "transfer",
      "outputs": [
        {
          "internalType": "bool",
          "name": "success",
          "type": "bool"
        }
      ],
      "stateMutability": "nonpayable",
      "type": "function"
    },
    {
      "inputs": [
        {
          "internalType": "address",
          "name": "_from",
          "type": "address"
        },
        {
          "internalType": "address",
          "name": "_recipient",
          "type": "address"
        },
        {
          "internalType": "uint32",
          "name": "_value",
          "type": "uint32"
        }
      ],
      "name": "transferFrom",
      "outputs": [
        {
          "internalType": "bool",
          "name": "success",
          "type": "bool"
        }
      ],
      "stateMutability": "nonpayable",
      "type": "function"
    }
  ],
  "bytecode": "0x608060405234801561001057600080fd5b50336000908152600160209081526040808320805463ffffffff19166103e817905582546203e80064ffffffff0019909116179092558151808301909252600e8083526d29b837b93a22ba34102a37b5b2b760911b92909101918252610078916003916100b3565b506000805460ff191690556040805180820190915260038082526214d15560ea1b60209092019182526100ad916004916100b3565b50610187565b8280546100bf9061014c565b90600052602060002090601f0160209004810192826100e15760008555610127565b82601f106100fa57805160ff1916838001178555610127565b82800160010185558215610127579182015b8281111561012757825182559160200191906001019061010c565b50610133929150610137565b5090565b5b808211156101335760008155600101610138565b60028104600182168061016057607f821691505b6020821081141561018157634e487b7160e01b600052602260045260246000fd5b50919050565b61078b806101966000396000f3fe608060405234801561001057600080fd5b506004361061009e5760003560e01c806384269ed91161006657806384269ed91461011e57806395d89b4114610131578063a5c798c214610139578063a7e9454214610141578063dd62ed3e146101545761009e565b806306fdde03146100a357806318160ddd146100c1578063313ce567146100d657806370a08231146100eb57806380097484146100fe575b600080fd5b6100ab610167565b6040516100b89190610645565b60405180910390f35b6100c96101f5565b6040516100b89190610698565b6100de610206565b6040516100b891906106a9565b6100c96100f9366004610553565b61020f565b61011161010c3660046105e8565b610227565b6040516100b8919061063a565b61011161012c3660046105a6565b610300565b6100ab610472565b6100c961047f565b61011161014f3660046105e8565b610485565b6100c9610162366004610574565b610500565b6003805461017490610704565b80601f01602080910402602001604051908101604052809291908181526020018280546101a090610704565b80156101ed5780601f106101c2576101008083540402835291602001916101ed565b820191906000526020600020905b8154815290600101906020018083116101d057829003601f168201915b505050505081565b600054610100900463ffffffff1681565b60005460ff1681565b60016020526000908152604090205463ffffffff1681565b3360009081526001602052604081205463ffffffff90811690831681101561024e57600080fd5b61025883826106df565b33600090815260016020526040808220805463ffffffff191663ffffffff9485161790556001600160a01b038716825281208054869391929161029d918591166106b7565b92506101000a81548163ffffffff021916908363ffffffff1602179055507f0daf680c3f528a8760b5142fe1f6f80d5f4ea18bb76f347a7a44a2d565c2b7dc3385856040516102ee93929190610611565b60405180910390a15060019392505050565b6001600160a01b03831660009081526001602052604081205463ffffffff908116908316811080159061035f57506001600160a01b038516600090815260026020908152604080832033845290915290205463ffffffff808516911610155b61036857600080fd5b61037283826106df565b6001600160a01b03868116600090815260016020526040808220805463ffffffff191663ffffffff9586161790559187168152908120805486939192916103bb918591166106b7565b82546101009290920a63ffffffff8181021990931691831602179091556001600160a01b038716600090815260026020908152604080832033845290915281208054879450909261040e918591166106df565b92506101000a81548163ffffffff021916908363ffffffff1602179055507f0daf680c3f528a8760b5142fe1f6f80d5f4ea18bb76f347a7a44a2d565c2b7dc85858560405161045f93929190610611565b60405180910390a1506001949350505050565b6004805461017490610704565b6103e881565b3360008181526002602090815260408083206001600160a01b0387168452909152808220805463ffffffff191663ffffffff86161790555190917fe26b9b29b95cb706aaebdd86a3524de879b8590b0ba7e61b104f54196bab2031916104ef919086908690610611565b60405180910390a150600192915050565b600260209081526000928352604080842090915290825290205463ffffffff1681565b80356001600160a01b038116811461053a57600080fd5b919050565b803563ffffffff8116811461053a57600080fd5b600060208284031215610564578081fd5b61056d82610523565b9392505050565b60008060408385031215610586578081fd5b61058f83610523565b915061059d60208401610523565b90509250929050565b6000806000606084860312156105ba578081fd5b6105c384610523565b92506105d160208501610523565b91506105df6040850161053f565b90509250925092565b600080604083850312156105fa578182fd5b61060383610523565b915061059d6020840161053f565b6001600160a01b03938416815291909216602082015263ffffffff909116604082015260600190565b901515815260200190565b6000602080835283518082850152825b8181101561067157858101830151858201604001528201610655565b818111156106825783604083870101525b50601f01601f1916929092016040019392505050565b63ffffffff91909116815260200190565b60ff91909116815260200190565b600063ffffffff8083168185168083038211156106d6576106d661073f565b01949350505050565b600063ffffffff838116908316818110156106fc576106fc61073f565b039392505050565b60028104600182168061071857607f821691505b6020821081141561073957634e487b7160e01b600052602260045260246000fd5b50919050565b634e487b7160e01b600052601160045260246000fdfea26469706673582212200b314014c396ebc5cbfa7c98ee69445e48c26a85a3a00f7c617544d9ccd1699c64736f6c63430008000033",
  "linkReferences": {},
  "deployedLinkReferences": {}
}