{
  "_format": "hh-sol-artifact-1",
  "contractName": "Bbb",
  "sourceName": "src/contracts/solidity/Bbb.sol",
  "abi": [
    {
      "inputs": [],
      "name": "aaa",
      "outputs": [
        {
          "internalType": "address payable",
          "name": "",
          "type": "address"
        }
      ],
      "stateMutability": "view",
      "type": "function"
    },
    {
      "inputs": [
        {
          "internalType": "uint256",
          "name": "",
          "type": "uint256"
        }
      ],
      "name": "paramsb",
      "outputs": [
        {
          "internalType": "uint256",
          "name": "",
          "type": "uint256"
        }
      ],
      "stateMutability": "view",
      "type": "function"
    },
    {
      "inputs": [
        {
          "internalType": "uint256[8]",
          "name": "_params",
          "type": "uint256[8]"
        }
      ],
      "name": "pullOnly",
      "outputs": [],
      "stateMutability": "nonpayable",
      "type": "function"
    },
    {
      "inputs": [
        {
          "internalType": "uint256[8]",
          "name": "_params",
          "type": "uint256[8]"
        }
      ],
      "name": "pullPay",
      "outputs": [],
      "stateMutability": "nonpayable",
      "type": "function"
    },
    {
      "inputs": [
        {
          "internalType": "uint256[8]",
          "name": "_params",
          "type": "uint256[8]"
        }
      ],
      "name": "pullPush",
      "outputs": [
        {
          "internalType": "uint256",
          "name": "",
          "type": "uint256"
        },
        {
          "internalType": "uint256",
          "name": "",
          "type": "uint256"
        }
      ],
      "stateMutability": "nonpayable",
      "type": "function"
    },
    {
      "inputs": [],
      "name": "reset",
      "outputs": [],
      "stateMutability": "nonpayable",
      "type": "function"
    },
    {
      "inputs": [],
      "name": "seeBalance",
      "outputs": [
        {
          "internalType": "uint256",
          "name": "ethHere",
          "type": "uint256"
        }
      ],
      "stateMutability": "view",
      "type": "function"
    },
    {
      "inputs": [],
      "name": "sendEth",
      "outputs": [],
      "stateMutability": "payable",
      "type": "function"
    },
    {
      "inputs": [
        {
          "internalType": "address payable",
          "name": "_admina",
          "type": "address"
        }
      ],
      "name": "setAdmin",
      "outputs": [],
      "stateMutability": "nonpayable",
      "type": "function"
    },
    {
      "stateMutability": "payable",
      "type": "receive"
    }
  ],
  "bytecode": "0x608060405234801561001057600080fd5b506105a2806100206000396000f3fe60806040526004361061009a5760003560e01c8063937c0d0a11610069578063d2f7a5c41161004e578063d2f7a5c41461016b578063d55995ba1461018b578063d826f88f146101ab576100a1565b8063937c0d0a1461012957806393fd4fe81461014b576100a1565b806306e99fef146100a6578063429a1bb0146100b0578063704b6c02146100db578063830ca615146100fb576100a1565b366100a157005b600080fd5b6100ae6101c0565b005b3480156100bc57600080fd5b506100c56101c2565b6040516100d291906104e9565b60405180910390f35b3480156100e757600080fd5b506100ae6100f63660046103b6565b6101c6565b34801561010757600080fd5b5061011b6101163660046103f1565b61020d565b6040516100d29291906104f2565b34801561013557600080fd5b5061013e610242565b6040516100d29190610491565b34801561015757600080fd5b506100c5610166366004610476565b61025e565b34801561017757600080fd5b506100ae6101863660046103f1565b610275565b34801561019757600080fd5b506100ae6101a63660046103f1565b610286565b3480156101b757600080fd5b506100ae610346565b565b4790565b600880547fffffffffffffffffffffffff00000000000000000000000000000000000000001673ffffffffffffffffffffffffffffffffffffffff92909216919091179055565b60008061021c81846008610351565b5060005461022b906001610500565b600154610239906002610500565b91509150915091565b60085473ffffffffffffffffffffffffffffffffffffffff1681565b6000816008811061026e57600080fd5b0154905081565b6102826000826008610351565b5050565b6102936000826008610351565b5060085460405160009173ffffffffffffffffffffffffffffffffffffffff16906064906102c09061048e565b60006040518083038185875af1925050503d80600081146102fd576040519150601f19603f3d011682016040523d82523d6000602084013e610302565b606091505b5050905080610282576040517f08c379a000000000000000000000000000000000000000000000000000000000815260040161033d906104b2565b60405180910390fd5b6101c060008061038f565b826008810192821561037f579160200282015b8281111561037f578251825591602001919060010190610364565b5061038b9291506103a1565b5090565b5061039e9060088101906103a1565b50565b5b8082111561038b57600081556001016103a2565b6000602082840312156103c7578081fd5b813573ffffffffffffffffffffffffffffffffffffffff811681146103ea578182fd5b9392505050565b6000610100808385031215610404578182fd5b83601f840112610412578182fd5b60405181810181811067ffffffffffffffff821117156104345761043461053d565b6040528084838101871015610447578485fd5b8493505b600884101561046b5780358252600193909301926020918201910161044b565b509095945050505050565b600060208284031215610487578081fd5b5035919050565b90565b73ffffffffffffffffffffffffffffffffffffffff91909116815260200190565b6020808252600b908201527f43616c6c206661696c6564000000000000000000000000000000000000000000604082015260600190565b90815260200190565b918252602082015260400190565b60008219821115610538577f4e487b710000000000000000000000000000000000000000000000000000000081526011600452602481fd5b500190565b7f4e487b7100000000000000000000000000000000000000000000000000000000600052604160045260246000fdfea26469706673582212205cfb2a8f97af7ebc907cb38d371739b3cf9f313f3aa0b1633c5b6b409f22265a64736f6c63430008000033",
  "linkReferences": {},
  "deployedLinkReferences": {}
}