{
  "_format": "hh-sol-artifact-1",
  "contractName": "Bbb",
  "sourceName": "src/contracts/solidity/Bbb.sol",
  "abi": [
    {
      "inputs": [],
      "stateMutability": "nonpayable",
      "type": "constructor"
    },
    {
      "inputs": [],
      "name": "paramsb",
      "outputs": [
        {
          "internalType": "uint256",
          "name": "",
          "type": "uint256"
        }
      ],
      "stateMutability": "view",
      "type": "function"
    },
    {
      "inputs": [
        {
          "internalType": "uint256",
          "name": "_params",
          "type": "uint256"
        }
      ],
      "name": "pullGet",
      "outputs": [
        {
          "internalType": "uint256",
          "name": "a",
          "type": "uint256"
        },
        {
          "internalType": "uint32",
          "name": "b",
          "type": "uint32"
        }
      ],
      "stateMutability": "nonpayable",
      "type": "function"
    },
    {
      "inputs": [
        {
          "internalType": "uint256",
          "name": "_params",
          "type": "uint256"
        }
      ],
      "name": "pullOnly",
      "outputs": [],
      "stateMutability": "nonpayable",
      "type": "function"
    },
    {
      "inputs": [
        {
          "internalType": "uint256",
          "name": "_params",
          "type": "uint256"
        }
      ],
      "name": "pullPay",
      "outputs": [],
      "stateMutability": "nonpayable",
      "type": "function"
    },
    {
      "inputs": [],
      "name": "seeBalance",
      "outputs": [
        {
          "internalType": "uint256",
          "name": "ethHere",
          "type": "uint256"
        }
      ],
      "stateMutability": "view",
      "type": "function"
    },
    {
      "inputs": [],
      "name": "sendEth",
      "outputs": [],
      "stateMutability": "payable",
      "type": "function"
    },
    {
      "stateMutability": "payable",
      "type": "receive"
    }
  ],
  "bytecode": "0x608060405234801561001057600080fd5b5061026c806100206000396000f3fe6080604052600436106100695760003560e01c806336b80cc51161004357806336b80cc5146100d8578063429a1bb0146100f8578063564d3ffb1461010d57610070565b806306e99fef146100755780631360c2691461007f57806325fe6ba0146100aa57610070565b3661007057005b600080fd5b61007d61012d565b005b34801561008b57600080fd5b5061009461012f565b6040516100a191906101dc565b60405180910390f35b3480156100b657600080fd5b506100ca6100c53660046101c1565b610135565b6040516100a19291906101e5565b3480156100e457600080fd5b5061007d6100f33660046101c1565b61014e565b34801561010457600080fd5b50610094610153565b34801561011957600080fd5b5061007d6101283660046101c1565b610157565b565b60005481565b600081815581906101478260036101f9565b9050915091565b600055565b4790565b6000818155604051339060639061016d906101d9565b60006040518083038185875af1925050503d80600081146101aa576040519150601f19603f3d011682016040523d82523d6000602084013e6101af565b606091505b50509050806101bd57600080fd5b5050565b6000602082840312156101d2578081fd5b5035919050565b90565b90815260200190565b91825263ffffffff16602082015260400190565b60008219821115610231577f4e487b710000000000000000000000000000000000000000000000000000000081526011600452602481fd5b50019056fea26469706673582212206be14105169a350cd38587fa172e0cef0282d046aa38a236838650b9965bf7c764736f6c63430008000033",
  "linkReferences": {},
  "deployedLinkReferences": {}
}