{
  "_format": "hh-sol-artifact-1",
  "contractName": "Bbbv",
  "sourceName": "src/contracts/solidity/Bbbv.sol",
  "abi": [
    {
      "inputs": [],
      "stateMutability": "nonpayable",
      "type": "constructor"
    },
    {
      "inputs": [
        {
          "internalType": "uint256",
          "name": "",
          "type": "uint256"
        }
      ],
      "name": "paramsb",
      "outputs": [
        {
          "internalType": "uint256",
          "name": "",
          "type": "uint256"
        }
      ],
      "stateMutability": "view",
      "type": "function"
    },
    {
      "inputs": [
        {
          "internalType": "uint256[8]",
          "name": "_params",
          "type": "uint256[8]"
        }
      ],
      "name": "pullGet",
      "outputs": [
        {
          "internalType": "uint256",
          "name": "a",
          "type": "uint256"
        },
        {
          "internalType": "uint32",
          "name": "b",
          "type": "uint32"
        }
      ],
      "stateMutability": "nonpayable",
      "type": "function"
    },
    {
      "inputs": [
        {
          "internalType": "uint256[8]",
          "name": "_params",
          "type": "uint256[8]"
        }
      ],
      "name": "pullOnly",
      "outputs": [],
      "stateMutability": "nonpayable",
      "type": "function"
    },
    {
      "inputs": [
        {
          "internalType": "uint256[8]",
          "name": "_params",
          "type": "uint256[8]"
        }
      ],
      "name": "pullPay",
      "outputs": [],
      "stateMutability": "nonpayable",
      "type": "function"
    },
    {
      "inputs": [],
      "name": "seeBalance",
      "outputs": [
        {
          "internalType": "uint256",
          "name": "ethHere",
          "type": "uint256"
        }
      ],
      "stateMutability": "view",
      "type": "function"
    },
    {
      "inputs": [],
      "name": "sendEth",
      "outputs": [],
      "stateMutability": "payable",
      "type": "function"
    },
    {
      "stateMutability": "payable",
      "type": "receive"
    }
  ],
  "bytecode": "0x608060405234801561001057600080fd5b506103c4806100206000396000f3fe6080604052600436106100695760003560e01c8063d2f7a5c411610043578063d2f7a5c4146100ca578063d55995ba146100ea578063ecfbfa161461010a57610070565b806306e99fef14610075578063429a1bb01461007f57806393fd4fe8146100aa57610070565b3661007057005b600080fd5b61007d610138565b005b34801561008b57600080fd5b5061009461013a565b6040516100a19190610305565b60405180910390f35b3480156100b657600080fd5b506100946100c53660046102ea565b61013e565b3480156100d657600080fd5b5061007d6100e5366004610265565b610155565b3480156100f657600080fd5b5061007d610105366004610265565b610166565b34801561011657600080fd5b5061012a610125366004610265565b6101eb565b6040516100a192919061030e565b565b4790565b6000816008811061014e57600080fd5b0154905081565b6101626000826008610212565b5050565b6101736000826008610212565b5060003373ffffffffffffffffffffffffffffffffffffffff16606360405161019b90610302565b60006040518083038185875af1925050503d80600081146101d8576040519150601f19603f3d011682016040523d82523d6000602084013e6101dd565b606091505b505090508061016257600080fd5b6000806101fa81846008610212565b50600054915061020b826003610322565b9050915091565b8260088101928215610240579160200282015b82811115610240578251825591602001919060010190610225565b5061024c929150610250565b5090565b5b8082111561024c5760008155600101610251565b6000610100808385031215610278578182fd5b83601f840112610286578182fd5b60405181810181811067ffffffffffffffff821117156102a8576102a861035f565b60405280848381018710156102bb578485fd5b8493505b60088410156102df578035825260019390930192602091820191016102bf565b509095945050505050565b6000602082840312156102fb578081fd5b5035919050565b90565b90815260200190565b91825263ffffffff16602082015260400190565b6000821982111561035a577f4e487b710000000000000000000000000000000000000000000000000000000081526011600452602481fd5b500190565b7f4e487b7100000000000000000000000000000000000000000000000000000000600052604160045260246000fdfea2646970667358221220a1e3fa704f86530f3d8921d8582a9e909d9519235dfec47df42dc27d722b749f64736f6c63430008000033",
  "linkReferences": {},
  "deployedLinkReferences": {}
}