{
  "_format": "hh-sol-artifact-1",
  "contractName": "Betting",
  "sourceName": "src/contracts/solidity/Betting.sol",
  "abi": [
    {
      "inputs": [
        {
          "internalType": "address",
          "name": "_tokenAddress",
          "type": "address"
        }
      ],
      "stateMutability": "nonpayable",
      "type": "constructor"
    },
    {
      "anonymous": false,
      "inputs": [
        {
          "indexed": true,
          "internalType": "address",
          "name": "bettor",
          "type": "address"
        },
        {
          "indexed": true,
          "internalType": "uint8",
          "name": "epoch",
          "type": "uint8"
        },
        {
          "indexed": false,
          "internalType": "uint8",
          "name": "matchNum",
          "type": "uint8"
        },
        {
          "indexed": false,
          "internalType": "uint8",
          "name": "pick",
          "type": "uint8"
        },
        {
          "indexed": false,
          "internalType": "uint32",
          "name": "betAmount",
          "type": "uint32"
        },
        {
          "indexed": false,
          "internalType": "uint32",
          "name": "payoff",
          "type": "uint32"
        },
        {
          "indexed": false,
          "internalType": "bytes32",
          "name": "contractHash",
          "type": "bytes32"
        }
      ],
      "name": "BetRecord",
      "type": "event"
    },
    {
      "anonymous": false,
      "inputs": [
        {
          "indexed": false,
          "internalType": "address",
          "name": "bettor",
          "type": "address"
        },
        {
          "indexed": false,
          "internalType": "uint256",
          "name": "moveAmount",
          "type": "uint256"
        },
        {
          "indexed": false,
          "internalType": "uint32",
          "name": "epoch",
          "type": "uint32"
        },
        {
          "indexed": false,
          "internalType": "uint32",
          "name": "action",
          "type": "uint32"
        }
      ],
      "name": "Funding",
      "type": "event"
    },
    {
      "anonymous": false,
      "inputs": [
        {
          "indexed": true,
          "internalType": "address",
          "name": "bettor",
          "type": "address"
        },
        {
          "indexed": true,
          "internalType": "uint8",
          "name": "epoch",
          "type": "uint8"
        },
        {
          "indexed": false,
          "internalType": "uint8",
          "name": "matchNum",
          "type": "uint8"
        },
        {
          "indexed": false,
          "internalType": "uint8",
          "name": "pick",
          "type": "uint8"
        },
        {
          "indexed": false,
          "internalType": "uint32",
          "name": "betAmount",
          "type": "uint32"
        },
        {
          "indexed": false,
          "internalType": "uint32",
          "name": "payoff",
          "type": "uint32"
        },
        {
          "indexed": false,
          "internalType": "bytes32",
          "name": "contractHash",
          "type": "bytes32"
        }
      ],
      "name": "OfferRecord",
      "type": "event"
    },
    {
      "inputs": [],
      "name": "FUTURE_START",
      "outputs": [
        {
          "internalType": "uint32",
          "name": "",
          "type": "uint32"
        }
      ],
      "stateMutability": "view",
      "type": "function"
    },
    {
      "inputs": [],
      "name": "ORACLE_5PERC",
      "outputs": [
        {
          "internalType": "uint256",
          "name": "",
          "type": "uint256"
        }
      ],
      "stateMutability": "view",
      "type": "function"
    },
    {
      "inputs": [],
      "name": "UNITS_TRANS14",
      "outputs": [
        {
          "internalType": "uint256",
          "name": "",
          "type": "uint256"
        }
      ],
      "stateMutability": "view",
      "type": "function"
    },
    {
      "inputs": [
        {
          "internalType": "uint32",
          "name": "_maxPos",
          "type": "uint32"
        }
      ],
      "name": "adjustParams",
      "outputs": [],
      "stateMutability": "nonpayable",
      "type": "function"
    },
    {
      "inputs": [
        {
          "internalType": "uint8",
          "name": "_matchNumber",
          "type": "uint8"
        },
        {
          "internalType": "uint8",
          "name": "_team0or1",
          "type": "uint8"
        },
        {
          "internalType": "uint32",
          "name": "_betAmt",
          "type": "uint32"
        }
      ],
      "name": "bet",
      "outputs": [],
      "stateMutability": "nonpayable",
      "type": "function"
    },
    {
      "inputs": [
        {
          "internalType": "bytes32",
          "name": "",
          "type": "bytes32"
        }
      ],
      "name": "betContracts",
      "outputs": [
        {
          "internalType": "uint8",
          "name": "epoch",
          "type": "uint8"
        },
        {
          "internalType": "uint8",
          "name": "matchNum",
          "type": "uint8"
        },
        {
          "internalType": "uint8",
          "name": "pick",
          "type": "uint8"
        },
        {
          "internalType": "uint32",
          "name": "betAmount",
          "type": "uint32"
        },
        {
          "internalType": "uint32",
          "name": "payoff",
          "type": "uint32"
        },
        {
          "internalType": "address",
          "name": "bettor",
          "type": "address"
        }
      ],
      "stateMutability": "view",
      "type": "function"
    },
    {
      "inputs": [
        {
          "internalType": "uint256",
          "name": "",
          "type": "uint256"
        }
      ],
      "name": "betData",
      "outputs": [
        {
          "internalType": "uint256",
          "name": "",
          "type": "uint256"
        }
      ],
      "stateMutability": "view",
      "type": "function"
    },
    {
      "inputs": [
        {
          "internalType": "bytes32",
          "name": "_subkid",
          "type": "bytes32"
        }
      ],
      "name": "cancelBigBet",
      "outputs": [],
      "stateMutability": "nonpayable",
      "type": "function"
    },
    {
      "inputs": [
        {
          "internalType": "bytes32",
          "name": "_subkID",
          "type": "bytes32"
        }
      ],
      "name": "checkOffer",
      "outputs": [
        {
          "internalType": "bool",
          "name": "",
          "type": "bool"
        }
      ],
      "stateMutability": "view",
      "type": "function"
    },
    {
      "inputs": [
        {
          "internalType": "bytes32",
          "name": "_subkID",
          "type": "bytes32"
        }
      ],
      "name": "checkRedeem",
      "outputs": [
        {
          "internalType": "bool",
          "name": "",
          "type": "bool"
        }
      ],
      "stateMutability": "view",
      "type": "function"
    },
    {
      "inputs": [],
      "name": "fundBettor",
      "outputs": [],
      "stateMutability": "payable",
      "type": "function"
    },
    {
      "inputs": [],
      "name": "fundBook",
      "outputs": [],
      "stateMutability": "payable",
      "type": "function"
    },
    {
      "inputs": [
        {
          "internalType": "address",
          "name": "",
          "type": "address"
        }
      ],
      "name": "lpStruct",
      "outputs": [
        {
          "internalType": "uint32",
          "name": "shares",
          "type": "uint32"
        },
        {
          "internalType": "uint32",
          "name": "outEpoch",
          "type": "uint32"
        }
      ],
      "stateMutability": "view",
      "type": "function"
    },
    {
      "inputs": [
        {
          "internalType": "uint256",
          "name": "",
          "type": "uint256"
        }
      ],
      "name": "margin",
      "outputs": [
        {
          "internalType": "uint32",
          "name": "",
          "type": "uint32"
        }
      ],
      "stateMutability": "view",
      "type": "function"
    },
    {
      "inputs": [
        {
          "internalType": "bytes32",
          "name": "",
          "type": "bytes32"
        }
      ],
      "name": "offerContracts",
      "outputs": [
        {
          "internalType": "uint8",
          "name": "epoch",
          "type": "uint8"
        },
        {
          "internalType": "uint8",
          "name": "matchNum",
          "type": "uint8"
        },
        {
          "internalType": "uint8",
          "name": "pick",
          "type": "uint8"
        },
        {
          "internalType": "uint32",
          "name": "betAmount",
          "type": "uint32"
        },
        {
          "internalType": "uint32",
          "name": "payoff",
          "type": "uint32"
        },
        {
          "internalType": "address",
          "name": "bettor",
          "type": "address"
        }
      ],
      "stateMutability": "view",
      "type": "function"
    },
    {
      "inputs": [],
      "name": "oracleAdmin",
      "outputs": [
        {
          "internalType": "address payable",
          "name": "",
          "type": "address"
        }
      ],
      "stateMutability": "view",
      "type": "function"
    },
    {
      "inputs": [
        {
          "internalType": "uint32",
          "name": "",
          "type": "uint32"
        }
      ],
      "name": "outcomeMap",
      "outputs": [
        {
          "internalType": "uint8",
          "name": "",
          "type": "uint8"
        }
      ],
      "stateMutability": "view",
      "type": "function"
    },
    {
      "inputs": [
        {
          "internalType": "uint8",
          "name": "_matchNum",
          "type": "uint8"
        },
        {
          "internalType": "uint8",
          "name": "_team0or1",
          "type": "uint8"
        },
        {
          "internalType": "uint32",
          "name": "_betAmount",
          "type": "uint32"
        },
        {
          "internalType": "uint32",
          "name": "_decOddsBB",
          "type": "uint32"
        }
      ],
      "name": "postBigBet",
      "outputs": [],
      "stateMutability": "nonpayable",
      "type": "function"
    },
    {
      "inputs": [
        {
          "internalType": "bytes32",
          "name": "_subkId",
          "type": "bytes32"
        }
      ],
      "name": "redeem",
      "outputs": [],
      "stateMutability": "nonpayable",
      "type": "function"
    },
    {
      "inputs": [
        {
          "internalType": "address payable",
          "name": "_oracleAddress",
          "type": "address"
        }
      ],
      "name": "setOracleAddress",
      "outputs": [],
      "stateMutability": "nonpayable",
      "type": "function"
    },
    {
      "inputs": [
        {
          "internalType": "uint8[32]",
          "name": "_winner",
          "type": "uint8[32]"
        }
      ],
      "name": "settle",
      "outputs": [
        {
          "internalType": "uint32",
          "name": "",
          "type": "uint32"
        },
        {
          "internalType": "uint32",
          "name": "",
          "type": "uint32"
        }
      ],
      "stateMutability": "nonpayable",
      "type": "function"
    },
    {
      "inputs": [],
      "name": "showBetData",
      "outputs": [
        {
          "internalType": "uint256[32]",
          "name": "",
          "type": "uint256[32]"
        }
      ],
      "stateMutability": "view",
      "type": "function"
    },
    {
      "inputs": [
        {
          "internalType": "bytes32",
          "name": "_subkid",
          "type": "bytes32"
        }
      ],
      "name": "takeBigBet",
      "outputs": [],
      "stateMutability": "nonpayable",
      "type": "function"
    },
    {
      "inputs": [],
      "name": "token",
      "outputs": [
        {
          "internalType": "contract Token",
          "name": "",
          "type": "address"
        }
      ],
      "stateMutability": "view",
      "type": "function"
    },
    {
      "inputs": [
        {
          "internalType": "uint96[32]",
          "name": "_oddsAndStart",
          "type": "uint96[32]"
        }
      ],
      "name": "transmitInit",
      "outputs": [],
      "stateMutability": "nonpayable",
      "type": "function"
    },
    {
      "inputs": [
        {
          "internalType": "uint64[32]",
          "name": "_updateBetData",
          "type": "uint64[32]"
        }
      ],
      "name": "transmitUpdate",
      "outputs": [],
      "stateMutability": "nonpayable",
      "type": "function"
    },
    {
      "inputs": [
        {
          "internalType": "address",
          "name": "",
          "type": "address"
        }
      ],
      "name": "userBalance",
      "outputs": [
        {
          "internalType": "uint32",
          "name": "",
          "type": "uint32"
        }
      ],
      "stateMutability": "view",
      "type": "function"
    },
    {
      "inputs": [
        {
          "internalType": "uint32",
          "name": "_amt",
          "type": "uint32"
        }
      ],
      "name": "withdrawBettor",
      "outputs": [],
      "stateMutability": "nonpayable",
      "type": "function"
    },
    {
      "inputs": [
        {
          "internalType": "uint32",
          "name": "_sharesToSell",
          "type": "uint32"
        }
      ],
      "name": "withdrawBook",
      "outputs": [],
      "stateMutability": "nonpayable",
      "type": "function"
    },
    {
      "stateMutability": "payable",
      "type": "receive"
    }
  ],
  "bytecode": "0x60806040523480156200001157600080fd5b506040516200395d3803806200395d83398101604081905262000034916200008b565b600080546c0100000000000000000000000063ffffffff60a01b19909116600560a01b1763ffffffff60601b1916179055602780546001600160a01b0319166001600160a01b0392909216919091179055620000bb565b6000602082840312156200009d578081fd5b81516001600160a01b0381168114620000b4578182fd5b9392505050565b61389280620000cb6000396000f3fe6080604052600436106101c65760003560e01c80636b857267116100f7578063cae7af6111610095578063e176aabf11610064578063e176aabf14610504578063eaa2f6cf14610524578063eda1122c14610544578063fc0c546a14610564576101cd565b8063cae7af6114610475578063cf9ef50e14610495578063d8aff90e146104b5578063dea5e6e8146104e2576101cd565b80638f95a933116100d15780638f95a933146103f35780639e33670c14610413578063bca8e63e14610440578063be73205a14610455576101cd565b80636b857267146103815780636c597579146103b35780637d6f0100146103d3576101cd565b80633f68f1a1116101645780634c69c00f1161013e5780634c69c00f146103015780634e456676146103215780635ca3716114610341578063654e207f14610361576101cd565b80633f68f1a1146102ac57806345f29686146102c1578063493481bb146102e1576101cd565b80630c05cbb7116101a05780630c05cbb7146102345780630c26f9941461025457806313d116231461028257806326035fcf1461028a576101cd565b80630103c92b146101d257806303c2404e1461020857806303e95abf1461022a576101cd565b366101cd57005b600080fd5b3480156101de57600080fd5b506101f26101ed366004612cd1565b610579565b6040516101ff91906133eb565b60405180910390f35b34801561021457600080fd5b5061021d610591565b6040516101ff91906133e2565b61023261059b565b005b34801561024057600080fd5b5061023261024f366004612dd7565b6107c9565b34801561026057600080fd5b5061027461026f366004612d6e565b610849565b6040516101ff9291906133fc565b610232610c26565b34801561029657600080fd5b5061029f610cfe565b6040516101ff9190612fc3565b3480156102b857600080fd5b5061021d610d3a565b3480156102cd57600080fd5b506101f26102dc366004612e52565b610d44565b3480156102ed57600080fd5b506102326102fc366004612e52565b610d74565b34801561030d57600080fd5b5061023261031c366004612cd1565b6115b0565b34801561032d57600080fd5b5061021d61033c366004612e52565b611613565b34801561034d57600080fd5b5061023261035c366004612e52565b61162a565b34801561036d57600080fd5b5061023261037c366004612e6a565b61169d565b34801561038d57600080fd5b506103a161039c366004612e52565b6116be565b6040516101ff96959493929190613452565b3480156103bf57600080fd5b506102326103ce366004612ced565b611715565b3480156103df57600080fd5b506103a16103ee366004612e52565b6117e0565b3480156103ff57600080fd5b5061023261040e366004612ec6565b611837565b34801561041f57600080fd5b5061043361042e366004612e52565b611b46565b6040516101ff9190612ff9565b34801561044c57600080fd5b506101f2611b6a565b34801561046157600080fd5b50610433610470366004612e52565b611b72565b34801561048157600080fd5b50610274610490366004612cd1565b611bf5565b3480156104a157600080fd5b506102326104b0366004612e6a565b611c19565b3480156104c157600080fd5b506104d56104d0366004612e6a565b611d6e565b6040516101ff9190613413565b3480156104ee57600080fd5b506104f7611d83565b6040516101ff9190612f51565b34801561051057600080fd5b5061023261051f366004612e6a565b611d92565b34801561053057600080fd5b5061023261053f366004612e84565b6120ba565b34801561055057600080fd5b5061023261055f366004612e52565b612816565b34801561057057600080fd5b506104f7612a50565b60266020526000908152604090205463ffffffff1681565b65048c2739500081565b6000547c0100000000000000000000000000000000000000000000000000000000900463ffffffff1642106105eb5760405162461bcd60e51b81526004016105e29061314e565b60405180910390fd5b60006105fd655af3107a4000346135d2565b600080549192509063ffffffff1615610656576000805463ffffffff169061064590849060045b600891828204019190066004029054906101000a900463ffffffff16612a5f565b61064f91906135e6565b9050610659565b50805b60005461066c9063ffffffff1683612aa9565b6000805463ffffffff191663ffffffff928316179081905561069891600160601b909104166001613553565b336000908152602560205260408120805467ffffffff00000000191664010000000063ffffffff94851602179055805483926010916106ed918591700100000000000000000000000000000000900416613553565b82546101009290920a63ffffffff8181021990931691831602179091553360009081526025602052604081208054859450909261072c91859116613553565b92506101000a81548163ffffffff021916908363ffffffff1602179055507fee637ea1fc87312ddb03041e1bdf2955840bce4531e1242afe2f0aff24a6ecc63334600060036008811061078f57634e487b7160e01b600052603260045260246000fd5b600891828204019190066004029054906101000a900463ffffffff1660016040516107bd9493929190612f65565b60405180910390a15050565b6021546001600160a01b031633146107e057600080fd5b60005468010000000000000000900463ffffffff16156107ff57600080fd5b61080c6001826020612bc5565b50805160401c63ffffffff16600060075b600891828204019190066004026101000a81548163ffffffff021916908363ffffffff16021790555050565b60215460009081906001600160a01b0316331461086557600080fd5b60008060008060005b6020811015610a5b5787816020811061089757634e487b7160e01b600052603260045260246000fd5b602002015160ff16915060006108ce600183602081106108c757634e487b7160e01b600052603260045260246000fd5b0154612b35565b6000549091506108ed90600160601b900463ffffffff166103e86136dd565b63ffffffff166108fe83600a6136be565b610908919061353b565b9350806005602002015163ffffffff166103e714610a4857826002146109d15780836007811061094857634e487b7160e01b600052603260045260246000fd5b60200201516109579087613553565b95508061096584600261353b565b6007811061098357634e487b7160e01b600052603260045260246000fd5b60200201516109929086613553565b94506002602460006109a4868861353b565b63ffffffff1681526020810191909152604001600020805460ff191660ff92909216919091179055610a48565b602081015181516109e29190613553565b6109ec9087613553565b63ffffffff851660009081526024602081905260408220805460ff1916600190811790915592985090610a1f878461353b565b63ffffffff1681526020810191909152604001600020805460ff191660ff929092169190911790555b5080610a53816137ba565b91505061086e565b50600054610a9990610a819063ffffffff68010000000000000000820481169116613553565b610a8b8587613553565b610a94906137f9565b612aa9565b6000805463ffffffff191663ffffffff92831617808255600160601b900490911690600c610ac6836137d5565b91906101000a81548163ffffffff021916908363ffffffff1602179055505060008363ffffffff1665048c27395000610aff91906136be565b600080547fffffffffffffffffffffffffffffffffffffffff0000000000000000ffffffff168155909150610b3690600190612c13565b600080547bffffffffffffffffffffffffffffffffffffffffffffffffffffffff167f77359400000000000000000000000000000000000000000000000000000000001781556021546040516001600160a01b03909116908390610b9990612f19565b60006040518083038185875af1925050503d8060008114610bd6576040519150601f19603f3d011682016040523d82523d6000602084013e610bdb565b606091505b5050905080610bfc5760405162461bcd60e51b81526004016105e290613004565b600054600160601b900463ffffffff16610c178660056136dd565b97509750505050505050915091565b6000610c38655af3107a4000346135d2565b33600090815260266020526040812080549293508392909190610c6290849063ffffffff16613553565b92506101000a81548163ffffffff021916908363ffffffff1602179055507fee637ea1fc87312ddb03041e1bdf2955840bce4531e1242afe2f0aff24a6ecc633346000600360088110610cc557634e487b7160e01b600052603260045260246000fd5b600891828204019190066004029054906101000a900463ffffffff166000604051610cf39493929190612f65565b60405180910390a150565b610d06612c25565b604080516104008101918290529060019060209082845b815481526020019060010190808311610d1d575050505050905090565b655af3107a400081565b60008160088110610d5457600080fd5b60089182820401919006600402915054906101000a900463ffffffff1681565b6000818152602360209081526040808320815160c081018352905460ff8082168352610100820481168386018190526201000083049091169383019390935263ffffffff630100000082048116606084015267010000000000000082041660808301526001600160a01b03600160581b9091041660a08201529291610e129160019181106108c757634e487b7160e01b600052603260045260246000fd5b905042816004602002015163ffffffff1611610e405760405162461bcd60e51b81526004016105e2906132cf565b6000548251600160601b90910463ffffffff1660ff90911614610e755760405162461bcd60e51b81526004016105e290613374565b606082015160a08301516001600160a01b031660009081526026602052604090205463ffffffff918216911610801590610ecc575060808201513360009081526026602052604090205463ffffffff918216911610155b610ee85760405162461bcd60e51b81526004016105e2906131f3565b816060015181836040015160ff1660078110610f1457634e487b7160e01b600052603260045260246000fd5b60200201818151610f259190613553565b63ffffffff16905250608082015160408301518290610f45906002613572565b60ff1660078110610f6657634e487b7160e01b600052603260045260246000fd5b60200201818151610f779190613553565b63ffffffff16905250608082015160408301518290610f97906001613797565b60ff1660078110610fb857634e487b7160e01b600052603260045260246000fd5b60200201818151610fc99190613553565b63ffffffff16905250606082015160408301518290610fe9906003613797565b60ff166007811061100a57634e487b7160e01b600052603260045260246000fd5b6020020181815161101b9190613553565b63ffffffff908116909152606084015160a08501516001600160a01b03166000908152602660205260408120805492945092909161105b91859116613772565b825461010092830a63ffffffff818102199092169282160291909117909255600086815260226020908152604080832088518154938a0151928a015160608b015160808c015160a08d015160ff1990971660ff9485161761ff0019169584169098029490941762ff000019166201000092909116919091021766ffffffff0000001916630100000092871692909202919091176affffffff0000000000000019166701000000000000009490951693909302939093177fff0000000000000000000000000000000000000000ffffffffffffffffffffff16600160581b6001600160a01b039094169390930292909217905590506003600891828204019190066004029054906101000a900463ffffffff1660ff168260a001516001600160a01b03167f140adf89f9ece20de08856a1a87e5ddec46c74e2b3d59152c54eea9e2945b8788460200151856040015186606001518760800151896040516111c5959493929190613421565b60405180910390a3600080546040516111f091600160c01b900463ffffffff16904290602001612f1c565b604080517fffffffffffffffffffffffffffffffffffffffffffffffffffffffffffffffe081840301815291815281516020909201919091203360a086015260608501805160808701805163ffffffff908116909352911690529084015190915061125c906001613797565b60ff166040840152606083015160808401516112789190613553565b6000805460089061129c90849068010000000000000000900463ffffffff16613553565b82546101009290920a63ffffffff818102199093169183160217909155606085015133600090815260266020526040812080549294509290916112e191859116613772565b92506101000a81548163ffffffff021916908363ffffffff160217905550600060036008811061132157634e487b7160e01b600052603260045260246000fd5b600891828204019190066004029054906101000a900463ffffffff1660ff16336001600160a01b03167f140adf89f9ece20de08856a1a87e5ddec46c74e2b3d59152c54eea9e2945b878856020015186604001518760600151886080015187604051611391959493929190613421565b60405180910390a3600060e08382602002015163ffffffff16901b1760c0836001602002015163ffffffff16901b1760a0836002602002015163ffffffff16901b176080836003602002015163ffffffff16901b176040836004602002015163ffffffff16901b8117905060208360056007811061141f57634e487b7160e01b600052603260045260246000fd5b602002015163ffffffff16901b17826006602002015163ffffffff1681179050806001856020015160ff166020811061146857634e487b7160e01b600052603260045260246000fd5b0155600082815260226020908152604080832087518154938901519289015160608a015160808b015160a08c015160ff1990971660ff9485161761ff001916610100968516969096029590951762ff000019166201000093909216929092021766ffffffff0000001916630100000063ffffffff92831602176affffffff00000000000000191667010000000000000093821693909302929092177fff0000000000000000000000000000000000000000ffffffffffffffffffffff16600160581b6001600160a01b0390941693909302929092179091558154600160c01b900416906018611556836137d5565b825463ffffffff9182166101009390930a92830291909202199091161790555050506000928352505060236020526040902080547fff00000000000000000000000000000000000000000000000000000000000000169055565b6021546001600160a01b0316156115d95760405162461bcd60e51b81526004016105e290613261565b602180547fffffffffffffffffffffffff0000000000000000000000000000000000000000166001600160a01b0392909216919091179055565b6001816020811061162357600080fd5b0154905081565b600081815260236020526040902054600160581b90046001600160a01b031633146116675760405162461bcd60e51b81526004016105e29061322a565b600090815260226020526040902080547fff00000000000000000000000000000000000000000000000000000000000000169055565b6021546001600160a01b031633146116b457600080fd5b806000600561081d565b60236020526000908152604090205460ff808216916101008104821691620100008204169063ffffffff630100000082048116916701000000000000008104909116906001600160a01b03600160581b9091041686565b6021546001600160a01b0316331461172c57600080fd5b6000805b60208110156117db57600060406001836020811061175e57634e487b7160e01b600052603260045260246000fd5b0154901c9050604081901b8317925083826020811061178d57634e487b7160e01b600052603260045260246000fd5b602002015167ffffffffffffffff168317925082600183602081106117c257634e487b7160e01b600052603260045260246000fd5b01555060009150806117d3816137ba565b915050611730565b505050565b60226020526000908152604090205460ff808216916101008104821691620100008204169063ffffffff630100000082048116916701000000000000008104909116906001600160a01b03600160581b9091041686565b6000546118649063ffffffff740100000000000000000000000000000000000000008204811691166135e6565b63ffffffff168263ffffffff16101561188f5760405162461bcd60e51b81526004016105e290613185565b3360009081526026602052604090205463ffffffff90811690831611156118c85760405162461bcd60e51b81526004016105e2906131f3565b6103e88163ffffffff161180156118e6575061270f8163ffffffff16105b6119025760405162461bcd60e51b81526004016105e29061303b565b6000805460405161192591600160c01b900463ffffffff16904290602001612f1c565b604051602081830303815290604052805190602001209050611945612c44565b60ff85811660408301528681166020830152600054600160601b90041681523360a082015263ffffffff841660608201526103e8846119848286613772565b61198e91906136dd565b61199891906135e6565b63ffffffff9081166080830190815260008481526023602090815260408083208651815493880151928801516060890151965160a08a015160ff1990961660ff9384161761ff001916610100958416959095029490941762ff000019166201000092909116919091021766ffffffff0000001916630100000095871695909502949094176affffffff00000000000000191667010000000000000091861691909102177fff0000000000000000000000000000000000000000ffffffffffffffffffffff16600160581b6001600160a01b0390921691909102179091558054600160c01b9004909116906018611a8d836137d5565b91906101000a81548163ffffffff021916908363ffffffff160217905550506000600360088110611ace57634e487b7160e01b600052603260045260246000fd5b600891828204019190066004029054906101000a900463ffffffff1660ff16336001600160a01b03167f4e952280ad1b5e5b031cfce9aa00eb629d6ab4751f76792c07f4dbb4afe4461288888560600151866080015188604051611b36959493929190613421565b60405180910390a3505050505050565b6000818152602360205260409020546301000000900463ffffffff1615155b919050565b637735940081565b600081815260226020526040812054819060ff620100008204811691611ba09161010090910416600a613700565b60008581526022602052604090205460ff91821691611bc291166103e8613694565b611bcc9190613515565b611bd69190613515565b61ffff1660009081526024602052604090205460ff1615159392505050565b60256020526000908152604090205463ffffffff8082169164010000000090041682565b3360009081526026602052604090205463ffffffff9081169082161115611c3f57600080fd5b3360009081526026602052604081208054839290611c6490849063ffffffff16613772565b92506101000a81548163ffffffff021916908363ffffffff1602179055506000655af3107a40008263ffffffff16611c9c91906136be565b90506000336001600160a01b031682604051611cb790612f19565b60006040518083038185875af1925050503d8060008114611cf4576040519150601f19603f3d011682016040523d82523d6000602084013e611cf9565b606091505b5050905080611d1a5760405162461bcd60e51b81526004016105e290613004565b6000546040517fee637ea1fc87312ddb03041e1bdf2955840bce4531e1242afe2f0aff24a6ecc691611d619133918691600160601b90910463ffffffff1690600390612f65565b60405180910390a1505050565b60246020526000908152604090205460ff1681565b6021546001600160a01b031681565b6000547c0100000000000000000000000000000000000000000000000000000000900463ffffffff164210611dd95760405162461bcd60e51b81526004016105e29061314e565b3360009081526025602052604090205463ffffffff80831691161015611e115760405162461bcd60e51b81526004016105e2906131f3565b33600090815260256020526040812054905464010000000090910463ffffffff908116600160601b9092041611611e5a5760405162461bcd60e51b81526004016105e2906130e0565b60008054700100000000000000000000000000000000900463ffffffff16611e83838380610624565b611e8d91906135e6565b600054909150611ead9063ffffffff640100000000820481169116613772565b63ffffffff168163ffffffff161115611ed85760405162461bcd60e51b81526004016105e290613306565b60008054839190601090611f07908490700100000000000000000000000000000000900463ffffffff16613772565b82546101009290920a63ffffffff81810219909316918316021790915533600090815260256020526040812080548694509092611f4691859116613772565b92506101000a81548163ffffffff021916908363ffffffff1602179055508060008060088110611f8657634e487b7160e01b600052603260045260246000fd5b600891828204019190066004028282829054906101000a900463ffffffff16611faf9190613772565b92506101000a81548163ffffffff021916908363ffffffff1602179055506000655af3107a40008263ffffffff16611fe791906136be565b90506000336001600160a01b03168260405161200290612f19565b60006040518083038185875af1925050503d806000811461203f576040519150601f19603f3d011682016040523d82523d6000602084013e612044565b606091505b50509050806120655760405162461bcd60e51b81526004016105e290613004565b6000546040517fee637ea1fc87312ddb03041e1bdf2955840bce4531e1242afe2f0aff24a6ecc6916120ac9133918691600160601b90910463ffffffff1690600490612f65565b60405180910390a150505050565b3360009081526026602052604090205463ffffffff908116908216118015906120e95750600a8163ffffffff16115b6121055760405162461bcd60e51b81526004016105e290613117565b600061212e60018560ff16602081106108c757634e487b7160e01b600052603260045260246000fd5b905042816004602002015163ffffffff161161215c5760405162461bcd60e51b81526004016105e2906131bc565b60006103e88261216d866005613572565b60ff166007811061218e57634e487b7160e01b600052603260045260246000fd5b602002015161219d9085613609565b6121a79190613597565b90506000826121b7866001613797565b60ff16600781106121d857634e487b7160e01b600052603260045260246000fd5b6020020151836121e9876002613572565b60ff166007811061220a57634e487b7160e01b600052603260045260246000fd5b60200201516122199190613729565b6000549091506122499063ffffffff740100000000000000000000000000000000000000008204811691166135e6565b60030b61225682846134cd565b60030b126122765760405162461bcd60e51b81526004016105e2906130a9565b6000838660ff166007811061229b57634e487b7160e01b600052603260045260246000fd5b6020020151846122ac886003613797565b60ff16600781106122cd57634e487b7160e01b600052603260045260246000fd5b60200201516122dc9190613729565b905060006122ea8383612b95565b6123106122f785876134cd565b846123018a6137f9565b61230b91906134cd565b612b95565b61231a9190613729565b60005490915061233a9063ffffffff640100000000820481169116613772565b60030b8160030b1261235e5760405162461bcd60e51b81526004016105e290613072565b336000908152602660205260408120805488929061238390849063ffffffff16613772565b92506101000a81548163ffffffff021916908363ffffffff1602179055506000806006600881106123c457634e487b7160e01b600052603260045260246000fd5b600891828204019190066004029054906101000a900463ffffffff16426040516020016123f2929190612f1c565b604051602081830303815290604052805190602001209050612412612c44565b3360a082015263ffffffff80891660608301528616608082015260ff808a1660408301528a16602082015260006003600881049091015460ff600460079093169290920261010090810a909104821683526000848152602260209081526040808320865181549388015192880151606089015160808a015160a08b01516001600160a01b0316600160581b027fff0000000000000000000000000000000000000000ffffffffffffffffffffff63ffffffff928316670100000000000000026affffffff00000000000000199490931663010000000266ffffffff00000019958d16620100000262ff000019998e16909c0261ff001997909d1660ff19909a1699909917959095169a909a179590951697909717169390931794909416171692909217905588906002600891828204019190066004028282829054906101000a900463ffffffff166125649190613553565b92506101000a81548163ffffffff021916908363ffffffff1602179055506125c960006001600881106125a757634e487b7160e01b600052603260045260246000fd5b600891828204019190066004029054906101000a900463ffffffff1684612aa9565b6000805463ffffffff929092166401000000000267ffffffff0000000019909216919091179055878760ff8b166007811061261457634e487b7160e01b600052603260045260246000fd5b602002018181516126259190613553565b63ffffffff16905250858761263b8b6002613572565b60ff166007811061265c57634e487b7160e01b600052603260045260246000fd5b6020020181815161266d9190613553565b63ffffffff16905250600060e08882602002015163ffffffff16901b1760c0886001602002015163ffffffff16901b1760a0886002602002015163ffffffff16901b176080886003602002015163ffffffff16901b176040886004602002015163ffffffff16901b811790506020886005600781106126fc57634e487b7160e01b600052603260045260246000fd5b602002015163ffffffff16901b17876006602002015163ffffffff16811790508060018c60ff166020811061274157634e487b7160e01b600052603260045260246000fd5b015560008054600160c01b900463ffffffff16906018612760836137d5565b91906101000a81548163ffffffff021916908363ffffffff1602179055505060006003600881106127a157634e487b7160e01b600052603260045260246000fd5b600891828204019190066004029054906101000a900463ffffffff1660ff16336001600160a01b03167f140adf89f9ece20de08856a1a87e5ddec46c74e2b3d59152c54eea9e2945b8788d8d8d8c89604051612801959493929190613421565b60405180910390a35050505050505050505050565b600081815260226020526040902054600160581b90046001600160a01b031633146128535760405162461bcd60e51b81526004016105e29061322a565b60008181526022602052604081205460ff62010000820481169161287f9161010090910416600a613700565b60008481526022602052604090205460ff918216916128a191166103e8613694565b6128ab9190613515565b6128b59190613515565b61ffff1660008181526024602052604090205490915060ff166128ea5760405162461bcd60e51b81526004016105e29061333d565b60008281526022602090815260408083205463ffffffff858116855260249093529220546301000000909204169060ff16600214156129685760008381526022602052604090205460649061295190670100000000000000900463ffffffff16605f6136dd565b61295b91906135e6565b6129659082613553565b90505b600083815260226020908152604080832080547fff000000000000000000000000000000000000000000000000000000000000001690553383526026909152812080548392906129bf90849063ffffffff16613553565b92506101000a81548163ffffffff021916908363ffffffff1602179055507fee637ea1fc87312ddb03041e1bdf2955840bce4531e1242afe2f0aff24a6ecc633826000600360088110612a2257634e487b7160e01b600052603260045260246000fd5b600891828204019190066004029054906101000a900463ffffffff166002604051611d619493929190612f94565b6027546001600160a01b031681565b600080612a6c83856136dd565b905063ffffffff8316612a7f85836135e6565b63ffffffff1614612aa25760405162461bcd60e51b81526004016105e290613298565b9392505050565b60008060008360030b1215612afd57612ac1836137f9565b612acb9085613772565b90508363ffffffff168163ffffffff1610612af85760405162461bcd60e51b81526004016105e2906133ab565b612aa2565b612b078385613553565b90508363ffffffff168163ffffffff161015612aa25760405162461bcd60e51b81526004016105e2906133ab565b612b3d612c79565b60e082901c815263ffffffff60c083811c821660208085019190915260a085811c8416604080870191909152608087811c861660608801529087901c8516908601529085901c83169084015292169181019190915290565b6000808260030b8460030b1215612bac5782612bae565b835b905060008160030b13612aa2575060009392505050565b8260208101928215612c03579160200282015b82811115612c0357825182906bffffffffffffffffffffffff16905591602001919060010190612bd8565b50612c0f929150612c97565b5090565b50612c22906020810190612c97565b50565b6040518061040001604052806020906020820280368337509192915050565b6040805160c081018252600080825260208201819052918101829052606081018290526080810182905260a081019190915290565b6040518060e001604052806007906020820280368337509192915050565b5b80821115612c0f5760008155600101612c98565b803563ffffffff81168114611b6557600080fd5b803560ff81168114611b6557600080fd5b600060208284031215612ce2578081fd5b8135612aa281613847565b6000610400808385031215612d00578182fd5b83601f840112612d0e578182fd5b612d1781613495565b8084868487011115612d27578485fd5b8493505b6020808510612d3a5750612d64565b813567ffffffffffffffff81168114612d51578687fd5b8452600194909401939283019201612d2b565b5095945050505050565b6000610400808385031215612d81578182fd5b83601f840112612d8f578182fd5b612d9881613495565b8084868487011115612da8578485fd5b8493505b6020808510612dbb5750612d64565b612dc482612cc0565b8452600194909401939283019201612dac565b6000610400808385031215612dea578182fd5b83601f840112612df8578182fd5b612e0181613495565b8084868487011115612e11578485fd5b8493505b6020808510612e245750612d64565b81356bffffffffffffffffffffffff81168114612e3f578687fd5b8452600194909401939283019201612e15565b600060208284031215612e63578081fd5b5035919050565b600060208284031215612e7b578081fd5b612aa282612cac565b600080600060608486031215612e98578182fd5b612ea184612cc0565b9250612eaf60208501612cc0565b9150612ebd60408501612cac565b90509250925092565b60008060008060808587031215612edb578081fd5b612ee485612cc0565b9350612ef260208601612cc0565b9250612f0060408601612cac565b9150612f0e60608601612cac565b905092959194509250565b90565b60e09290921b7fffffffff00000000000000000000000000000000000000000000000000000000168252600482015260240190565b6001600160a01b0391909116815260200190565b6001600160a01b03949094168452602084019290925263ffffffff908116604084015216606082015260800190565b6001600160a01b0394909416845263ffffffff9283166020850152908216604084015216606082015260800190565b6104008101818360005b6020808210612fdc5750612ff0565b825184529283019290910190600101612fcd565b50505092915050565b901515815260200190565b6020808252600b908201527f43616c6c206661696c6564000000000000000000000000000000000000000000604082015260600190565b6020808252600c908201527f696e76616c6964206f6464730000000000000000000000000000000000000000604082015260600190565b6020808252601e908201527f62657473697a65206f76657220756e706c6564676564206361706974616c0000604082015260600190565b60208082526012908201527f62657473697a65206f766572206c696d69740000000000000000000000000000604082015260600190565b60208082526008908201527f746f6f20736f6f6e000000000000000000000000000000000000000000000000604082015260600190565b60208082526004908201527f4e53462000000000000000000000000000000000000000000000000000000000604082015260600190565b60208082526019908201527f6f6e6c79207072696f7220746f206669727374206576656e7400000000000000604082015260600190565b60208082526009908201527f636f6e634c696d69740000000000000000000000000000000000000000000000604082015260600190565b6020808252601b908201527f67616d652073746172746564206f72206e6f7420706c6179696e670000000000604082015260600190565b60208082526003908201527f4e53460000000000000000000000000000000000000000000000000000000000604082015260600190565b6020808252600d908201527f77726f6e67206163636f756e7400000000000000000000000000000000000000604082015260600190565b60208082526009908201527f4f6e6c79206f6e63650000000000000000000000000000000000000000000000604082015260600190565b6020808252600d908201527f6d756c74206f766572666c6f7700000000000000000000000000000000000000604082015260600190565b6020808252600c908201527f67616d6520737461727465640000000000000000000000000000000000000000604082015260600190565b60208082526019908201527f696e73756666696369656e742066726565206361706974616c00000000000000604082015260600190565b6020808252600f908201527f6e6565642077696e206f72207469650000000000000000000000000000000000604082015260600190565b6020808252600b908201527f6578706972656420626574000000000000000000000000000000000000000000604082015260600190565b60208082526008908201527f6f766572666c6f77000000000000000000000000000000000000000000000000604082015260600190565b90815260200190565b63ffffffff91909116815260200190565b63ffffffff92831681529116602082015260400190565b60ff91909116815260200190565b60ff958616815293909416602084015263ffffffff9182166040840152166060820152608081019190915260a00190565b60ff9687168152948616602086015292909416604084015263ffffffff908116606084015290921660808201526001600160a01b0390911660a082015260c00190565b60405181810167ffffffffffffffff811182821017156134c557634e487b7160e01b600052604160045260246000fd5b604052919050565b60008160030b8360030b82821282637fffffff038213811516156134f3576134f361381b565b82637fffffff1903821281161561350c5761350c61381b565b50019392505050565b600061ffff8083168185168083038211156135325761353261381b565b01949350505050565b6000821982111561354e5761354e61381b565b500190565b600063ffffffff8083168185168083038211156135325761353261381b565b600060ff821660ff84168060ff0382111561358f5761358f61381b565b019392505050565b60008160030b8360030b806135ae576135ae613831565b6000198114637fffffff19831416156135c9576135c961381b565b90059392505050565b6000826135e1576135e1613831565b500490565b600063ffffffff808416806135fd576135fd613831565b92169190910492915050565b60008160030b8360030b637fffffff838213848413838304851182821616156136345761363461381b565b637fffffff19868512868205861281841616156136535761365361381b565b87871292508582058712848416161561366e5761366e61381b565b858505871281841616156136845761368461381b565b5050509290910295945050505050565b600061ffff808316818516818304811182151516156136b5576136b561381b565b02949350505050565b60008160001904831182151516156136d8576136d861381b565b500290565b600063ffffffff808316818516818304811182151516156136b5576136b561381b565b600060ff821660ff84168160ff04811182151516156137215761372161381b565b029392505050565b60008160030b8360030b82811281637fffffff19018312811516156137505761375061381b565b81637fffffff0183138116156137685761376861381b565b5090039392505050565b600063ffffffff8381169083168181101561378f5761378f61381b565b039392505050565b600060ff821660ff8416808210156137b1576137b161381b565b90039392505050565b60006000198214156137ce576137ce61381b565b5060010190565b600063ffffffff808316818114156137ef576137ef61381b565b6001019392505050565b60008160030b637fffffff198114156138145761381461381b565b9003919050565b634e487b7160e01b600052601160045260246000fd5b634e487b7160e01b600052601260045260246000fd5b6001600160a01b0381168114612c2257600080fdfea2646970667358221220c52a1ede8943321c936cebd3efbe175753b9d0a7531aa57e3ac32a4ae34c364f64736f6c63430008000033",
  "linkReferences": {},
  "deployedLinkReferences": {}
}