{
  "_format": "hh-sol-artifact-1",
  "contractName": "Betting",
  "sourceName": "src/contracts/solidity/Betting.sol",
  "abi": [
    {
      "inputs": [
        {
          "internalType": "address",
          "name": "_tokenAddress",
          "type": "address"
        }
      ],
      "stateMutability": "nonpayable",
      "type": "constructor"
    },
    {
      "anonymous": false,
      "inputs": [
        {
          "indexed": true,
          "internalType": "address",
          "name": "bettor",
          "type": "address"
        },
        {
          "indexed": true,
          "internalType": "uint8",
          "name": "epoch",
          "type": "uint8"
        },
        {
          "indexed": false,
          "internalType": "uint8",
          "name": "matchNum",
          "type": "uint8"
        },
        {
          "indexed": false,
          "internalType": "uint8",
          "name": "pick",
          "type": "uint8"
        },
        {
          "indexed": false,
          "internalType": "uint32",
          "name": "betAmount",
          "type": "uint32"
        },
        {
          "indexed": false,
          "internalType": "uint32",
          "name": "payoff",
          "type": "uint32"
        },
        {
          "indexed": false,
          "internalType": "bytes32",
          "name": "contractHash",
          "type": "bytes32"
        }
      ],
      "name": "BetRecord",
      "type": "event"
    },
    {
      "anonymous": false,
      "inputs": [
        {
          "indexed": false,
          "internalType": "address",
          "name": "bettor",
          "type": "address"
        },
        {
          "indexed": false,
          "internalType": "uint256",
          "name": "moveAmount",
          "type": "uint256"
        },
        {
          "indexed": false,
          "internalType": "uint32",
          "name": "epoch",
          "type": "uint32"
        },
        {
          "indexed": false,
          "internalType": "uint32",
          "name": "action",
          "type": "uint32"
        }
      ],
      "name": "Funding",
      "type": "event"
    },
    {
      "anonymous": false,
      "inputs": [
        {
          "indexed": true,
          "internalType": "address",
          "name": "bettor",
          "type": "address"
        },
        {
          "indexed": true,
          "internalType": "uint8",
          "name": "epoch",
          "type": "uint8"
        },
        {
          "indexed": false,
          "internalType": "uint8",
          "name": "matchNum",
          "type": "uint8"
        },
        {
          "indexed": false,
          "internalType": "uint8",
          "name": "pick",
          "type": "uint8"
        },
        {
          "indexed": false,
          "internalType": "uint32",
          "name": "betAmount",
          "type": "uint32"
        },
        {
          "indexed": false,
          "internalType": "uint32",
          "name": "payoff",
          "type": "uint32"
        },
        {
          "indexed": false,
          "internalType": "bytes32",
          "name": "contractHash",
          "type": "bytes32"
        }
      ],
      "name": "OfferRecord",
      "type": "event"
    },
    {
      "inputs": [],
      "name": "FUTURE_START",
      "outputs": [
        {
          "internalType": "uint32",
          "name": "",
          "type": "uint32"
        }
      ],
      "stateMutability": "view",
      "type": "function"
    },
    {
      "inputs": [],
      "name": "ORACLE_5PERC",
      "outputs": [
        {
          "internalType": "uint256",
          "name": "",
          "type": "uint256"
        }
      ],
      "stateMutability": "view",
      "type": "function"
    },
    {
      "inputs": [],
      "name": "UNITS_TRANS14",
      "outputs": [
        {
          "internalType": "uint256",
          "name": "",
          "type": "uint256"
        }
      ],
      "stateMutability": "view",
      "type": "function"
    },
    {
      "inputs": [
        {
          "internalType": "uint32",
          "name": "_maxPos",
          "type": "uint32"
        }
      ],
      "name": "adjustParams",
      "outputs": [],
      "stateMutability": "nonpayable",
      "type": "function"
    },
    {
      "inputs": [
        {
          "internalType": "uint8",
          "name": "_matchNumber",
          "type": "uint8"
        },
        {
          "internalType": "uint8",
          "name": "_team0or1",
          "type": "uint8"
        },
        {
          "internalType": "uint32",
          "name": "_betAmt",
          "type": "uint32"
        }
      ],
      "name": "bet",
      "outputs": [],
      "stateMutability": "nonpayable",
      "type": "function"
    },
    {
      "inputs": [
        {
          "internalType": "bytes32",
          "name": "",
          "type": "bytes32"
        }
      ],
      "name": "betContracts",
      "outputs": [
        {
          "internalType": "uint8",
          "name": "epoch",
          "type": "uint8"
        },
        {
          "internalType": "uint8",
          "name": "matchNum",
          "type": "uint8"
        },
        {
          "internalType": "uint8",
          "name": "pick",
          "type": "uint8"
        },
        {
          "internalType": "uint32",
          "name": "betAmount",
          "type": "uint32"
        },
        {
          "internalType": "uint32",
          "name": "payoff",
          "type": "uint32"
        },
        {
          "internalType": "address",
          "name": "bettor",
          "type": "address"
        }
      ],
      "stateMutability": "view",
      "type": "function"
    },
    {
      "inputs": [
        {
          "internalType": "uint256",
          "name": "",
          "type": "uint256"
        }
      ],
      "name": "betData",
      "outputs": [
        {
          "internalType": "uint256",
          "name": "",
          "type": "uint256"
        }
      ],
      "stateMutability": "view",
      "type": "function"
    },
    {
      "inputs": [
        {
          "internalType": "bytes32",
          "name": "_subkid",
          "type": "bytes32"
        }
      ],
      "name": "cancelBigBet",
      "outputs": [],
      "stateMutability": "nonpayable",
      "type": "function"
    },
    {
      "inputs": [
        {
          "internalType": "bytes32",
          "name": "_subkID",
          "type": "bytes32"
        }
      ],
      "name": "checkOffer",
      "outputs": [
        {
          "internalType": "bool",
          "name": "",
          "type": "bool"
        }
      ],
      "stateMutability": "view",
      "type": "function"
    },
    {
      "inputs": [
        {
          "internalType": "bytes32",
          "name": "_subkID",
          "type": "bytes32"
        }
      ],
      "name": "checkRedeem",
      "outputs": [
        {
          "internalType": "bool",
          "name": "",
          "type": "bool"
        }
      ],
      "stateMutability": "view",
      "type": "function"
    },
    {
      "inputs": [],
      "name": "fundBettor",
      "outputs": [],
      "stateMutability": "payable",
      "type": "function"
    },
    {
      "inputs": [],
      "name": "fundBook",
      "outputs": [],
      "stateMutability": "payable",
      "type": "function"
    },
    {
      "inputs": [
        {
          "internalType": "address",
          "name": "",
          "type": "address"
        }
      ],
      "name": "lpStruct",
      "outputs": [
        {
          "internalType": "uint32",
          "name": "shares",
          "type": "uint32"
        },
        {
          "internalType": "uint32",
          "name": "outEpoch",
          "type": "uint32"
        }
      ],
      "stateMutability": "view",
      "type": "function"
    },
    {
      "inputs": [
        {
          "internalType": "uint256",
          "name": "",
          "type": "uint256"
        }
      ],
      "name": "margin",
      "outputs": [
        {
          "internalType": "uint32",
          "name": "",
          "type": "uint32"
        }
      ],
      "stateMutability": "view",
      "type": "function"
    },
    {
      "inputs": [
        {
          "internalType": "bytes32",
          "name": "",
          "type": "bytes32"
        }
      ],
      "name": "offerContracts",
      "outputs": [
        {
          "internalType": "uint8",
          "name": "epoch",
          "type": "uint8"
        },
        {
          "internalType": "uint8",
          "name": "matchNum",
          "type": "uint8"
        },
        {
          "internalType": "uint8",
          "name": "pick",
          "type": "uint8"
        },
        {
          "internalType": "uint32",
          "name": "betAmount",
          "type": "uint32"
        },
        {
          "internalType": "uint32",
          "name": "payoff",
          "type": "uint32"
        },
        {
          "internalType": "address",
          "name": "bettor",
          "type": "address"
        }
      ],
      "stateMutability": "view",
      "type": "function"
    },
    {
      "inputs": [],
      "name": "oracleAdmin",
      "outputs": [
        {
          "internalType": "address payable",
          "name": "",
          "type": "address"
        }
      ],
      "stateMutability": "view",
      "type": "function"
    },
    {
      "inputs": [
        {
          "internalType": "uint32",
          "name": "",
          "type": "uint32"
        }
      ],
      "name": "outcomeMap",
      "outputs": [
        {
          "internalType": "uint8",
          "name": "",
          "type": "uint8"
        }
      ],
      "stateMutability": "view",
      "type": "function"
    },
    {
      "inputs": [
        {
          "internalType": "uint8",
          "name": "_matchNum",
          "type": "uint8"
        },
        {
          "internalType": "uint8",
          "name": "_team0or1",
          "type": "uint8"
        },
        {
          "internalType": "uint32",
          "name": "_betAmount",
          "type": "uint32"
        },
        {
          "internalType": "uint32",
          "name": "_decOddsBB",
          "type": "uint32"
        }
      ],
      "name": "postBigBet",
      "outputs": [],
      "stateMutability": "nonpayable",
      "type": "function"
    },
    {
      "inputs": [
        {
          "internalType": "bytes32",
          "name": "_subkId",
          "type": "bytes32"
        }
      ],
      "name": "redeem",
      "outputs": [],
      "stateMutability": "nonpayable",
      "type": "function"
    },
    {
      "inputs": [
        {
          "internalType": "address payable",
          "name": "_oracleAddress",
          "type": "address"
        }
      ],
      "name": "setOracleAddress",
      "outputs": [],
      "stateMutability": "nonpayable",
      "type": "function"
    },
    {
      "inputs": [
        {
          "internalType": "uint8[32]",
          "name": "_winner",
          "type": "uint8[32]"
        }
      ],
      "name": "settle",
      "outputs": [
        {
          "internalType": "uint32",
          "name": "",
          "type": "uint32"
        },
        {
          "internalType": "uint32",
          "name": "",
          "type": "uint32"
        }
      ],
      "stateMutability": "nonpayable",
      "type": "function"
    },
    {
      "inputs": [],
      "name": "showBetData",
      "outputs": [
        {
          "internalType": "uint256[32]",
          "name": "",
          "type": "uint256[32]"
        }
      ],
      "stateMutability": "view",
      "type": "function"
    },
    {
      "inputs": [
        {
          "internalType": "bytes32",
          "name": "_subkid",
          "type": "bytes32"
        }
      ],
      "name": "takeBigBet",
      "outputs": [],
      "stateMutability": "nonpayable",
      "type": "function"
    },
    {
      "inputs": [],
      "name": "token",
      "outputs": [
        {
          "internalType": "contract Token",
          "name": "",
          "type": "address"
        }
      ],
      "stateMutability": "view",
      "type": "function"
    },
    {
      "inputs": [
        {
          "internalType": "uint96[32]",
          "name": "_oddsAndStart",
          "type": "uint96[32]"
        }
      ],
      "name": "transmitInit",
      "outputs": [],
      "stateMutability": "nonpayable",
      "type": "function"
    },
    {
      "inputs": [
        {
          "internalType": "uint64[32]",
          "name": "_updateBetData",
          "type": "uint64[32]"
        }
      ],
      "name": "transmitUpdate",
      "outputs": [],
      "stateMutability": "nonpayable",
      "type": "function"
    },
    {
      "inputs": [
        {
          "internalType": "address",
          "name": "",
          "type": "address"
        }
      ],
      "name": "userBalance",
      "outputs": [
        {
          "internalType": "uint32",
          "name": "",
          "type": "uint32"
        }
      ],
      "stateMutability": "view",
      "type": "function"
    },
    {
      "inputs": [
        {
          "internalType": "uint32",
          "name": "_amt",
          "type": "uint32"
        }
      ],
      "name": "withdrawBettor",
      "outputs": [],
      "stateMutability": "nonpayable",
      "type": "function"
    },
    {
      "inputs": [
        {
          "internalType": "uint32",
          "name": "_sharesToSell",
          "type": "uint32"
        }
      ],
      "name": "withdrawBook",
      "outputs": [],
      "stateMutability": "nonpayable",
      "type": "function"
    },
    {
      "stateMutability": "payable",
      "type": "receive"
    }
  ],
  "bytecode": "0x60806040523480156200001157600080fd5b50604051620036463803806200364683398101604081905262000034916200008b565b600080546c0100000000000000000000000063ffffffff60a01b19909116600560a01b1763ffffffff60601b1916179055602780546001600160a01b0319166001600160a01b0392909216919091179055620000bb565b6000602082840312156200009d578081fd5b81516001600160a01b0381168114620000b4578182fd5b9392505050565b61357b80620000cb6000396000f3fe6080604052600436106101c65760003560e01c80636b857267116100f7578063cae7af6111610095578063e176aabf11610064578063e176aabf14610504578063eaa2f6cf14610524578063eda1122c14610544578063fc0c546a14610564576101cd565b8063cae7af6114610475578063cf9ef50e14610495578063d8aff90e146104b5578063dea5e6e8146104e2576101cd565b80638f95a933116100d15780638f95a933146103f35780639e33670c14610413578063bca8e63e14610440578063be73205a14610455576101cd565b80636b857267146103815780636c597579146103b35780637d6f0100146103d3576101cd565b80633f68f1a1116101645780634c69c00f1161013e5780634c69c00f146103015780634e456676146103215780635ca3716114610341578063654e207f14610361576101cd565b80633f68f1a1146102ac57806345f29686146102c1578063493481bb146102e1576101cd565b80630c05cbb7116101a05780630c05cbb7146102345780630c26f9941461025457806313d116231461028257806326035fcf1461028a576101cd565b80630103c92b146101d257806303c2404e1461020857806303e95abf1461022a576101cd565b366101cd57005b600080fd5b3480156101de57600080fd5b506101f26101ed366004612a67565b610579565b6040516101ff91906130a2565b60405180910390f35b34801561021457600080fd5b5061021d610591565b6040516101ff9190613099565b61023261059b565b005b34801561024057600080fd5b5061023261024f366004612b6d565b610791565b34801561026057600080fd5b5061027461026f366004612b04565b61080c565b6040516101ff9291906130b3565b610232610b44565b34801561029657600080fd5b5061029f610c0a565b6040516101ff9190612da3565b3480156102b857600080fd5b5061021d610c46565b3480156102cd57600080fd5b506101f26102dc366004612c08565b610c50565b3480156102ed57600080fd5b506102326102fc366004612c08565b610c80565b34801561030d57600080fd5b5061023261031c366004612a67565b611443565b34801561032d57600080fd5b5061021d61033c366004612c08565b61148e565b34801561034d57600080fd5b5061023261035c366004612c08565b6114a5565b34801561036d57600080fd5b5061023261037c366004612c20565b611500565b34801561038d57600080fd5b506103a161039c366004612c08565b611521565b6040516101ff96959493929190613109565b3480156103bf57600080fd5b506102326103ce366004612a83565b611574565b3480156103df57600080fd5b506103a16103ee366004612c08565b61163f565b3480156103ff57600080fd5b5061023261040e366004612c9e565b611692565b34801561041f57600080fd5b5061043361042e366004612c08565b611973565b6040516101ff9190612dd9565b34801561044c57600080fd5b506101f2611997565b34801561046157600080fd5b50610433610470366004612c08565b61199f565b34801561048157600080fd5b50610274610490366004612a67565b611a22565b3480156104a157600080fd5b506102326104b0366004612c20565b611a46565b3480156104c157600080fd5b506104d56104d0366004612c20565b611b2f565b6040516101ff91906130ca565b3480156104ee57600080fd5b506104f7611b44565b6040516101ff9190612d12565b34801561051057600080fd5b5061023261051f366004612c20565b611b53565b34801561053057600080fd5b5061023261053f366004612c58565b611de8565b34801561055057600080fd5b5061023261055f366004612c08565b612504565b34801561057057600080fd5b506104f76127fa565b60266020526000908152604090205463ffffffff1681565b65048c2739500081565b600054600160e01b900463ffffffff1642106105d25760405162461bcd60e51b81526004016105c990612ead565b60405180910390fd5b60006105e4655af3107a400034613289565b600080549192509063ffffffff161561063d576000805463ffffffff169061062c90849060045b600891828204019190066004029054906101000a900463ffffffff16612809565b610636919061329d565b9050610640565b50805b6000546106539063ffffffff1683612853565b6000805463ffffffff191663ffffffff928316179081905561067f91600160601b90910416600161320a565b336000908152602560205260408120805467ffffffff00000000191664010000000063ffffffff94851602179055805483926010916106c7918591600160801b90041661320a565b82546101009290920a63ffffffff818102199093169183160217909155336000908152602560205260408120805485945090926107069185911661320a565b92506101000a81548163ffffffff021916908363ffffffff1602179055506000805160206135268339815191523334600060036008811061075757634e487b7160e01b600052603260045260246000fd5b600891828204019190066004029054906101000a900463ffffffff1660016040516107859493929190612d45565b60405180910390a15050565b6021546001600160a01b031633146107a857600080fd5b600054600160401b900463ffffffff16156107c257600080fd5b6107cf600182602061296f565b50805160401c63ffffffff16600060075b600891828204019190066004026101000a81548163ffffffff021916908363ffffffff16021790555050565b60215460009081906001600160a01b0316331461082857600080fd5b60008060008060005b6020811015610a085787816020811061085a57634e487b7160e01b600052603260045260246000fd5b602002015160ff16915060006108916001836020811061088a57634e487b7160e01b600052603260045260246000fd5b01546128df565b6000549091506108b090600160601b900463ffffffff166103e8613394565b63ffffffff166108c183600a613375565b6108cb91906131f2565b93508260021461097e578083600781106108f557634e487b7160e01b600052603260045260246000fd5b6020020151610904908761320a565b9550806109128460026131f2565b6007811061093057634e487b7160e01b600052603260045260246000fd5b602002015161093f908661320a565b945060026024600061095186886131f2565b63ffffffff1681526020810191909152604001600020805460ff191660ff929092169190911790556109f5565b6020810151815161098f919061320a565b610999908761320a565b63ffffffff851660009081526024602081905260408220805460ff19166001908117909155929850906109cc87846131f2565b63ffffffff1681526020810191909152604001600020805460ff191660ff929092169190911790555b5080610a0081613471565b915050610831565b50600054610a4190610a299063ffffffff600160401b82048116911661320a565b610a33858761320a565b610a3c906134b0565b612853565b6000805463ffffffff191663ffffffff92831617808255600160601b900490911690600c610a6e8361348c565b91906101000a81548163ffffffff021916908363ffffffff1602179055505060008363ffffffff1665048c27395000610aa79190613375565b600080546bffffffffffffffff0000000019168155909150610acb906001906129bd565b600080546001600160e01b0316621dcd6560ea1b1781556021546040516001600160a01b03909116916108fc841502918491818181858888f19350505050158015610b1a573d6000803e3d6000fd5b50600054600160601b900463ffffffff16610b36856005613394565b965096505050505050915091565b6000610b56655af3107a400034613289565b33600090815260266020526040812080549293508392909190610b8090849063ffffffff1661320a565b92506101000a81548163ffffffff021916908363ffffffff16021790555060008051602061352683398151915233346000600360088110610bd157634e487b7160e01b600052603260045260246000fd5b600891828204019190066004029054906101000a900463ffffffff166000604051610bff9493929190612d45565b60405180910390a150565b610c126129cf565b604080516104008101918290529060019060209082845b815481526020019060010190808311610c29575050505050905090565b655af3107a400081565b60008160088110610c6057600080fd5b60089182820401919006600402915054906101000a900463ffffffff1681565b6000818152602360209081526040808320815160c081018352905460ff8082168352610100820481168386018190526201000083049091169383019390935263ffffffff6301000000820481166060840152600160381b82041660808301526001600160a01b03600160581b9091041660a08201529291610d1a91600191811061088a57634e487b7160e01b600052603260045260246000fd5b905042816004602002015163ffffffff1611610d485760405162461bcd60e51b81526004016105c990612fcc565b6000548251600160601b90910463ffffffff1660ff90911614610d7d5760405162461bcd60e51b81526004016105c990613052565b606082015160a08301516001600160a01b031660009081526026602052604090205463ffffffff918216911610801590610dd4575060808201513360009081526026602052604090205463ffffffff918216911610155b610df05760405162461bcd60e51b81526004016105c990612f3e565b816060015181836040015160ff1660078110610e1c57634e487b7160e01b600052603260045260246000fd5b60200201818151610e2d919061320a565b63ffffffff16905250608082015160408301518290610e4d906002613229565b60ff1660078110610e6e57634e487b7160e01b600052603260045260246000fd5b60200201818151610e7f919061320a565b63ffffffff16905250608082015160408301518290610e9f90600161344e565b60ff1660078110610ec057634e487b7160e01b600052603260045260246000fd5b60200201818151610ed1919061320a565b63ffffffff16905250606082015160408301518290610ef190600361344e565b60ff1660078110610f1257634e487b7160e01b600052603260045260246000fd5b60200201818151610f23919061320a565b63ffffffff908116909152606084015160a08501516001600160a01b031660009081526026602052604081208054929450929091610f6391859116613429565b825461010092830a63ffffffff818102199092169282160291909117909255600086815260226020908152604080832088518154938a0151928a015160608b015160808c015160a08d015160ff1990971660ff9485161761ff0019169584169098029490941762ff000019166201000092909116919091021766ffffffff00000019166301000000928716929092029190911763ffffffff60381b1916600160381b949095169390930293909317600160581b600160f81b031916600160581b6001600160a01b039094169390930292909217905590506003600891828204019190066004029054906101000a900463ffffffff1660ff168260a001516001600160a01b03167f140adf89f9ece20de08856a1a87e5ddec46c74e2b3d59152c54eea9e2945b8788460200151856040015186606001518760800151896040516110b09594939291906130d8565b60405180910390a3600080546040516110db91600160c01b900463ffffffff16904290602001612cf5565b60408051601f1981840301815291815281516020909201919091203360a086015260608501805160808701805163ffffffff908116909352911690529084015190915061112990600161344e565b60ff16604084015260608301516080840151611145919061320a565b60008054600890611164908490600160401b900463ffffffff1661320a565b82546101009290920a63ffffffff818102199093169183160217909155606085015133600090815260266020526040812080549294509290916111a991859116613429565b92506101000a81548163ffffffff021916908363ffffffff16021790555060006003600881106111e957634e487b7160e01b600052603260045260246000fd5b600891828204019190066004029054906101000a900463ffffffff1660ff16336001600160a01b03167f140adf89f9ece20de08856a1a87e5ddec46c74e2b3d59152c54eea9e2945b8788560200151866040015187606001518860800151876040516112599594939291906130d8565b60405180910390a3600060e08382602002015163ffffffff16901b1760c0836001602002015163ffffffff16901b1760a0836002602002015163ffffffff16901b176080836003602002015163ffffffff16901b176040836004602002015163ffffffff16901b811790506020836005600781106112e757634e487b7160e01b600052603260045260246000fd5b602002015163ffffffff16901b17826006602002015163ffffffff1681179050806001856020015160ff166020811061133057634e487b7160e01b600052603260045260246000fd5b0155600082815260226020908152604080832087518154938901519289015160608a015160808b015160a08c015160ff1990971660ff9485161761ff001916610100968516969096029590951762ff000019166201000093909216929092021766ffffffff0000001916630100000063ffffffff928316021763ffffffff60381b1916600160381b9382169390930292909217600160581b600160f81b031916600160581b6001600160a01b0390941693909302929092179091558154600160c01b9004169060186114018361348c565b825463ffffffff9182166101009390930a92830291909202199091161790555050506000928352505060236020526040902080546001600160f81b0319169055565b6021546001600160a01b03161561146c5760405162461bcd60e51b81526004016105c990612f82565b602180546001600160a01b0319166001600160a01b0392909216919091179055565b6001816020811061149e57600080fd5b0154905081565b600081815260236020526040902054600160581b90046001600160a01b031633146114e25760405162461bcd60e51b81526004016105c990612f5b565b600090815260226020526040902080546001600160f81b0319169055565b6021546001600160a01b0316331461151757600080fd5b80600060056107e0565b60236020526000908152604090205460ff808216916101008104821691620100008204169063ffffffff63010000008204811691600160381b8104909116906001600160a01b03600160581b9091041686565b6021546001600160a01b0316331461158b57600080fd5b6000805b602081101561163a5760006040600183602081106115bd57634e487b7160e01b600052603260045260246000fd5b0154901c9050604081901b831792508382602081106115ec57634e487b7160e01b600052603260045260246000fd5b602002015167ffffffffffffffff1683179250826001836020811061162157634e487b7160e01b600052603260045260246000fd5b015550600091508061163281613471565b91505061158f565b505050565b60226020526000908152604090205460ff808216916101008104821691620100008204169063ffffffff63010000008204811691600160381b8104909116906001600160a01b03600160581b9091041686565b6000546116ae9063ffffffff600160a01b82048116911661329d565b63ffffffff168263ffffffff1610156116d95760405162461bcd60e51b81526004016105c990612ee4565b3360009081526026602052604090205463ffffffff90811690831611156117125760405162461bcd60e51b81526004016105c990612f3e565b6103e88163ffffffff16118015611730575061270f8163ffffffff16105b61174c5760405162461bcd60e51b81526004016105c990612de4565b6000805460405161176f91600160c01b900463ffffffff16904290602001612cf5565b60405160208183030381529060405280519060200120905061178f6129ee565b60ff85811660408301528681166020830152600054600160601b90041681523360a082015263ffffffff841660608201526103e8846117ce8286613429565b6117d89190613394565b6117e2919061329d565b63ffffffff9081166080830190815260008481526023602090815260408083208651815493880151928801516060890151965160a08a015160ff1990961660ff9384161761ff001916610100958416959095029490941762ff000019166201000092909116919091021766ffffffff00000019166301000000958716959095029490941763ffffffff60381b1916600160381b9186169190910217600160581b600160f81b031916600160581b6001600160a01b0390921691909102179091558054600160c01b90049091169060186118ba8361348c565b91906101000a81548163ffffffff021916908363ffffffff1602179055505060006003600881106118fb57634e487b7160e01b600052603260045260246000fd5b600891828204019190066004029054906101000a900463ffffffff1660ff16336001600160a01b03167f4e952280ad1b5e5b031cfce9aa00eb629d6ab4751f76792c07f4dbb4afe44612888885606001518660800151886040516119639594939291906130d8565b60405180910390a3505050505050565b6000818152602360205260409020546301000000900463ffffffff1615155b919050565b637735940081565b600081815260226020526040812054819060ff6201000082048116916119cd9161010090910416600a6133b7565b60008581526022602052604090205460ff918216916119ef91166103e861334b565b6119f991906131cc565b611a0391906131cc565b61ffff1660009081526024602052604090205460ff1615159392505050565b60256020526000908152604090205463ffffffff8082169164010000000090041682565b3360009081526026602052604090205463ffffffff9081169082161115611a6c57600080fd5b3360009081526026602052604081208054839290611a9190849063ffffffff16613429565b92506101000a81548163ffffffff021916908363ffffffff1602179055506000655af3107a40008263ffffffff16611ac99190613375565b604051909150339082156108fc029083906000818181858888f19350505050158015611af9573d6000803e3d6000fd5b50600054604051600080516020613526833981519152916107859133918591600160601b90910463ffffffff1690600390612d45565b60246020526000908152604090205460ff1681565b6021546001600160a01b031681565b600054600160e01b900463ffffffff164210611b815760405162461bcd60e51b81526004016105c990612ead565b3360009081526025602052604090205463ffffffff80831691161015611bb95760405162461bcd60e51b81526004016105c990612f3e565b33600090815260256020526040812054905464010000000090910463ffffffff908116600160601b9092041611611c025760405162461bcd60e51b81526004016105c990612e6d565b60008054600160801b900463ffffffff16611c1e83838061060b565b611c28919061329d565b600054909150611c489063ffffffff640100000000820481169116613429565b63ffffffff168163ffffffff161115611c735760405162461bcd60e51b81526004016105c990612ff2565b60008054839190601090611c95908490600160801b900463ffffffff16613429565b82546101009290920a63ffffffff81810219909316918316021790915533600090815260256020526040812080548694509092611cd491859116613429565b92506101000a81548163ffffffff021916908363ffffffff1602179055508060008060088110611d1457634e487b7160e01b600052603260045260246000fd5b600891828204019190066004028282829054906101000a900463ffffffff16611d3d9190613429565b92506101000a81548163ffffffff021916908363ffffffff1602179055506000655af3107a40008263ffffffff16611d759190613375565b604051909150339082156108fc029083906000818181858888f19350505050158015611da5573d6000803e3d6000fd5b5060005460405160008051602061352683398151915291611ddb9133918591600160601b90910463ffffffff1690600490612d45565b60405180910390a1505050565b3360009081526026602052604090205463ffffffff9081169082161115611e215760405162461bcd60e51b81526004016105c990612e8f565b6000611e4a60018560ff166020811061088a57634e487b7160e01b600052603260045260246000fd5b905042816004602002015163ffffffff1611611e785760405162461bcd60e51b81526004016105c990612f07565b60006103e882611e89866005613229565b60ff1660078110611eaa57634e487b7160e01b600052603260045260246000fd5b6020020151611eb990856132c0565b611ec3919061324e565b9050600082611ed386600161344e565b60ff1660078110611ef457634e487b7160e01b600052603260045260246000fd5b602002015183611f05876002613229565b60ff1660078110611f2657634e487b7160e01b600052603260045260246000fd5b6020020151611f3591906133e0565b600054909150611f549063ffffffff600160a01b82048116911661329d565b60030b611f618284613184565b60030b12611f815760405162461bcd60e51b81526004016105c990612e41565b6000838660ff1660078110611fa657634e487b7160e01b600052603260045260246000fd5b602002015184611fb788600361344e565b60ff1660078110611fd857634e487b7160e01b600052603260045260246000fd5b6020020151611fe791906133e0565b90506000611ff5838361293f565b61201b6120028587613184565b8461200c8a6134b0565b6120169190613184565b61293f565b61202591906133e0565b6000549091506120459063ffffffff640100000000820481169116613429565b60030b8160030b126120695760405162461bcd60e51b81526004016105c990612e0a565b336000908152602660205260408120805488929061208e90849063ffffffff16613429565b92506101000a81548163ffffffff021916908363ffffffff1602179055506000806006600881106120cf57634e487b7160e01b600052603260045260246000fd5b600891828204019190066004029054906101000a900463ffffffff16426040516020016120fd929190612cf5565b60405160208183030381529060405280519060200120905061211d6129ee565b3360a082015263ffffffff80891660608301528616608082015260ff808a1660408301528a16602082015260006003600881049091015460ff600460079093169290920261010090810a909104821683526000848152602260209081526040808320865181549388015192880151606089015160808a015160a08b01516001600160a01b0316600160581b02600160581b600160f81b031963ffffffff928316600160381b0263ffffffff60381b199490931663010000000266ffffffff00000019958d16620100000262ff000019998e16909c0261ff001997909d1660ff19909a1699909917959095169a909a179590951697909717169390931794909416171692909217905588906002600891828204019190066004028282829054906101000a900463ffffffff16612252919061320a565b92506101000a81548163ffffffff021916908363ffffffff1602179055506122b7600060016008811061229557634e487b7160e01b600052603260045260246000fd5b600891828204019190066004029054906101000a900463ffffffff1684612853565b6000805463ffffffff929092166401000000000267ffffffff0000000019909216919091179055878760ff8b166007811061230257634e487b7160e01b600052603260045260246000fd5b60200201818151612313919061320a565b63ffffffff1690525085876123298b6002613229565b60ff166007811061234a57634e487b7160e01b600052603260045260246000fd5b6020020181815161235b919061320a565b63ffffffff16905250600060e08882602002015163ffffffff16901b1760c0886001602002015163ffffffff16901b1760a0886002602002015163ffffffff16901b176080886003602002015163ffffffff16901b176040886004602002015163ffffffff16901b811790506020886005600781106123ea57634e487b7160e01b600052603260045260246000fd5b602002015163ffffffff16901b17876006602002015163ffffffff16811790508060018c60ff166020811061242f57634e487b7160e01b600052603260045260246000fd5b015560008054600160c01b900463ffffffff1690601861244e8361348c565b91906101000a81548163ffffffff021916908363ffffffff16021790555050600060036008811061248f57634e487b7160e01b600052603260045260246000fd5b600891828204019190066004029054906101000a900463ffffffff1660ff16336001600160a01b03167f140adf89f9ece20de08856a1a87e5ddec46c74e2b3d59152c54eea9e2945b8788d8d8d8c896040516124ef9594939291906130d8565b60405180910390a35050505050505050505050565b600081815260226020526040902054600160581b90046001600160a01b031633146125415760405162461bcd60e51b81526004016105c990612f5b565b60008181526022602052604081205460ff62010000820481169161256d9161010090910416600a6133b7565b60008481526022602052604090205460ff9182169161258f91166103e861334b565b61259991906131cc565b6125a391906131cc565b61ffff1660008181526024602052604090205490915060ff166125d85760405162461bcd60e51b81526004016105c990613029565b60008281526022602090815260408083205463ffffffff858116855260249093529220546301000000909204169060ff16600214156126525760008381526022602052604090205460649061263b90600160381b900463ffffffff16605f613394565b612645919061329d565b61264f908261320a565b90505b600083815260226020908152604080832080546001600160f81b031916905533835260269091528120805483929061269190849063ffffffff1661320a565b825463ffffffff9182166101009390930a9283029190920219909116179055506027546040516370a0823160e01b81526000916001600160a01b0316906370a08231906126e2903090600401612d12565b60206040518083038186803b1580156126fa57600080fd5b505afa15801561270e573d6000803e3d6000fd5b505050506040513d601f19601f820116820180604052508101906127329190612c3c565b63ffffffff1611156127c5576027546040516320025d2160e21b81526001600160a01b0390911690638009748490612771903390600190600401612d26565b602060405180830381600087803b15801561278b57600080fd5b505af115801561279f573d6000803e3d6000fd5b505050506040513d601f19601f820116820180604052508101906127c39190612be8565b505b60005460405160008051602061352683398151915291611ddb9133918591600160601b90910463ffffffff1690600290612d74565b6027546001600160a01b031681565b6000806128168385613394565b905063ffffffff8316612829858361329d565b63ffffffff161461284c5760405162461bcd60e51b81526004016105c990612fa5565b9392505050565b60008060008360030b12156128a75761286b836134b0565b6128759085613429565b90508363ffffffff168163ffffffff16106128a25760405162461bcd60e51b81526004016105c990613077565b61284c565b6128b1838561320a565b90508363ffffffff168163ffffffff16101561284c5760405162461bcd60e51b81526004016105c990613077565b6128e7612a23565b60e082901c815263ffffffff60c083811c821660208085019190915260a085811c8416604080870191909152608087811c861660608801529087901c8516908601529085901c83169084015292169181019190915290565b6000808260030b8460030b12156129565782612958565b835b905060008160030b1361284c575060009392505050565b82602081019282156129ad579160200282015b828111156129ad57825182906bffffffffffffffffffffffff16905591602001919060010190612982565b506129b9929150612a41565b5090565b506129cc906020810190612a41565b50565b6040518061040001604052806020906020820280368337509192915050565b6040805160c081018252600080825260208201819052918101829052606081018290526080810182905260a081019190915290565b6040518060e001604052806007906020820280368337509192915050565b5b808211156129b95760008155600101612a42565b803560ff8116811461199257600080fd5b600060208284031215612a78578081fd5b813561284c816134fe565b6000610400808385031215612a96578182fd5b83601f840112612aa4578182fd5b612aad8161314c565b8084868487011115612abd578485fd5b8493505b6020808510612ad05750612afa565b813567ffffffffffffffff81168114612ae7578687fd5b8452600194909401939283019201612ac1565b5095945050505050565b6000610400808385031215612b17578182fd5b83601f840112612b25578182fd5b612b2e8161314c565b8084868487011115612b3e578485fd5b8493505b6020808510612b515750612afa565b612b5a82612a56565b8452600194909401939283019201612b42565b6000610400808385031215612b80578182fd5b83601f840112612b8e578182fd5b612b978161314c565b8084868487011115612ba7578485fd5b8493505b6020808510612bba5750612afa565b81356bffffffffffffffffffffffff81168114612bd5578687fd5b8452600194909401939283019201612bab565b600060208284031215612bf9578081fd5b8151801515811461284c578182fd5b600060208284031215612c19578081fd5b5035919050565b600060208284031215612c31578081fd5b813561284c81613513565b600060208284031215612c4d578081fd5b815161284c81613513565b600080600060608486031215612c6c578182fd5b612c7584612a56565b9250612c8360208501612a56565b91506040840135612c9381613513565b809150509250925092565b60008060008060808587031215612cb3578182fd5b612cbc85612a56565b9350612cca60208601612a56565b92506040850135612cda81613513565b91506060850135612cea81613513565b939692955090935050565b60e09290921b6001600160e01b0319168252600482015260240190565b6001600160a01b0391909116815260200190565b6001600160a01b0392909216825263ffffffff16602082015260400190565b6001600160a01b03949094168452602084019290925263ffffffff908116604084015216606082015260800190565b6001600160a01b0394909416845263ffffffff9283166020850152908216604084015216606082015260800190565b6104008101818360005b6020808210612dbc5750612dd0565b825184529283019290910190600101612dad565b50505092915050565b901515815260200190565b6020808252600c908201526b696e76616c6964206f64647360a01b604082015260600190565b6020808252601e908201527f62657473697a65206f76657220756e706c6564676564206361706974616c0000604082015260600190565b60208082526012908201527118995d1cda5e99481bdd995c881b1a5b5a5d60721b604082015260600190565b6020808252600890820152673a37b79039b7b7b760c11b604082015260600190565b60208082526004908201526302729a3160e51b604082015260600190565b60208082526019908201527f6f6e6c79207072696f7220746f206669727374206576656e7400000000000000604082015260600190565b60208082526009908201526818dbdb98d31a5b5a5d60ba1b604082015260600190565b6020808252601b908201527f67616d652073746172746564206f72206e6f7420706c6179696e670000000000604082015260600190565b6020808252600390820152622729a360e91b604082015260600190565b6020808252600d908201526c1ddc9bdb99c81858d8dbdd5b9d609a1b604082015260600190565b6020808252600990820152684f6e6c79206f6e636560b81b604082015260600190565b6020808252600d908201526c6d756c74206f766572666c6f7760981b604082015260600190565b6020808252600c908201526b19d85b59481cdd185c9d195960a21b604082015260600190565b60208082526019908201527f696e73756666696369656e742066726565206361706974616c00000000000000604082015260600190565b6020808252600f908201526e6e6565642077696e206f722074696560881b604082015260600190565b6020808252600b908201526a195e1c1a5c99590818995d60aa1b604082015260600190565b6020808252600890820152676f766572666c6f7760c01b604082015260600190565b90815260200190565b63ffffffff91909116815260200190565b63ffffffff92831681529116602082015260400190565b60ff91909116815260200190565b60ff958616815293909416602084015263ffffffff9182166040840152166060820152608081019190915260a00190565b60ff9687168152948616602086015292909416604084015263ffffffff908116606084015290921660808201526001600160a01b0390911660a082015260c00190565b60405181810167ffffffffffffffff8111828210171561317c57634e487b7160e01b600052604160045260246000fd5b604052919050565b60008160030b8360030b82821282637fffffff038213811516156131aa576131aa6134d2565b82637fffffff190382128116156131c3576131c36134d2565b50019392505050565b600061ffff8083168185168083038211156131e9576131e96134d2565b01949350505050565b60008219821115613205576132056134d2565b500190565b600063ffffffff8083168185168083038211156131e9576131e96134d2565b600060ff821660ff84168060ff03821115613246576132466134d2565b019392505050565b60008160030b8360030b80613265576132656134e8565b637fffffff19821460001982141615613280576132806134d2565b90059392505050565b600082613298576132986134e8565b500490565b600063ffffffff808416806132b4576132b46134e8565b92169190910492915050565b60008160030b8360030b637fffffff838213848413838304851182821616156132eb576132eb6134d2565b637fffffff198685128281168783058712161561330a5761330a6134d2565b878712925085820587128484161615613325576133256134d2565b8585058712818416161561333b5761333b6134d2565b5050509290910295945050505050565b600061ffff8083168185168183048111821515161561336c5761336c6134d2565b02949350505050565b600081600019048311821515161561338f5761338f6134d2565b500290565b600063ffffffff8083168185168183048111821515161561336c5761336c6134d2565b600060ff821660ff84168160ff04811182151516156133d8576133d86134d2565b029392505050565b60008160030b8360030b82811281637fffffff1901831281151615613407576134076134d2565b81637fffffff01831381161561341f5761341f6134d2565b5090039392505050565b600063ffffffff83811690831681811015613446576134466134d2565b039392505050565b600060ff821660ff841680821015613468576134686134d2565b90039392505050565b6000600019821415613485576134856134d2565b5060010190565b600063ffffffff808316818114156134a6576134a66134d2565b6001019392505050565b60008160030b637fffffff198114156134cb576134cb6134d2565b9003919050565b634e487b7160e01b600052601160045260246000fd5b634e487b7160e01b600052601260045260246000fd5b6001600160a01b03811681146129cc57600080fd5b63ffffffff811681146129cc57600080fdfeee637ea1fc87312ddb03041e1bdf2955840bce4531e1242afe2f0aff24a6ecc6a2646970667358221220c32e313a80d3b22ec1d4ac22b87e3e9832ab7d0f9a7fcb3ca366080cced2538964736f6c63430008000033",
  "linkReferences": {},
  "deployedLinkReferences": {}
}