{
  "_format": "hh-sol-artifact-1",
  "contractName": "Betting",
  "sourceName": "src/contracts/solidity/Betting.sol",
  "abi": [
    {
      "inputs": [
        {
          "internalType": "address",
          "name": "_tokenAddress",
          "type": "address"
        }
      ],
      "stateMutability": "nonpayable",
      "type": "constructor"
    },
    {
      "anonymous": false,
      "inputs": [
        {
          "indexed": true,
          "internalType": "address",
          "name": "bettor",
          "type": "address"
        },
        {
          "indexed": true,
          "internalType": "uint8",
          "name": "epoch",
          "type": "uint8"
        },
        {
          "indexed": false,
          "internalType": "uint8",
          "name": "matchNum",
          "type": "uint8"
        },
        {
          "indexed": false,
          "internalType": "uint8",
          "name": "pick",
          "type": "uint8"
        },
        {
          "indexed": false,
          "internalType": "uint32",
          "name": "betAmount",
          "type": "uint32"
        },
        {
          "indexed": false,
          "internalType": "uint32",
          "name": "payoff",
          "type": "uint32"
        },
        {
          "indexed": false,
          "internalType": "bytes32",
          "name": "contractHash",
          "type": "bytes32"
        }
      ],
      "name": "BetRecord",
      "type": "event"
    },
    {
      "anonymous": false,
      "inputs": [
        {
          "indexed": false,
          "internalType": "address",
          "name": "bettor",
          "type": "address"
        },
        {
          "indexed": false,
          "internalType": "uint256",
          "name": "moveAmount",
          "type": "uint256"
        },
        {
          "indexed": false,
          "internalType": "uint32",
          "name": "epoch",
          "type": "uint32"
        },
        {
          "indexed": false,
          "internalType": "uint32",
          "name": "action",
          "type": "uint32"
        }
      ],
      "name": "Funding",
      "type": "event"
    },
    {
      "anonymous": false,
      "inputs": [
        {
          "indexed": true,
          "internalType": "address",
          "name": "bettor",
          "type": "address"
        },
        {
          "indexed": true,
          "internalType": "uint8",
          "name": "epoch",
          "type": "uint8"
        },
        {
          "indexed": false,
          "internalType": "uint8",
          "name": "matchNum",
          "type": "uint8"
        },
        {
          "indexed": false,
          "internalType": "uint8",
          "name": "pick",
          "type": "uint8"
        },
        {
          "indexed": false,
          "internalType": "uint32",
          "name": "betAmount",
          "type": "uint32"
        },
        {
          "indexed": false,
          "internalType": "uint32",
          "name": "payoff",
          "type": "uint32"
        },
        {
          "indexed": false,
          "internalType": "bytes32",
          "name": "contractHash",
          "type": "bytes32"
        }
      ],
      "name": "OfferRecord",
      "type": "event"
    },
    {
      "inputs": [],
      "name": "FUTURE_START",
      "outputs": [
        {
          "internalType": "uint32",
          "name": "",
          "type": "uint32"
        }
      ],
      "stateMutability": "view",
      "type": "function"
    },
    {
      "inputs": [],
      "name": "ORACLE_5PERC",
      "outputs": [
        {
          "internalType": "uint256",
          "name": "",
          "type": "uint256"
        }
      ],
      "stateMutability": "view",
      "type": "function"
    },
    {
      "inputs": [],
      "name": "UNITS_TRANS14",
      "outputs": [
        {
          "internalType": "uint256",
          "name": "",
          "type": "uint256"
        }
      ],
      "stateMutability": "view",
      "type": "function"
    },
    {
      "inputs": [
        {
          "internalType": "uint32",
          "name": "_maxPos",
          "type": "uint32"
        }
      ],
      "name": "adjustParams",
      "outputs": [],
      "stateMutability": "nonpayable",
      "type": "function"
    },
    {
      "inputs": [
        {
          "internalType": "uint8",
          "name": "_matchNumber",
          "type": "uint8"
        },
        {
          "internalType": "uint8",
          "name": "_team0or1",
          "type": "uint8"
        },
        {
          "internalType": "uint32",
          "name": "_betAmt",
          "type": "uint32"
        }
      ],
      "name": "bet",
      "outputs": [],
      "stateMutability": "nonpayable",
      "type": "function"
    },
    {
      "inputs": [
        {
          "internalType": "bytes32",
          "name": "",
          "type": "bytes32"
        }
      ],
      "name": "betContracts",
      "outputs": [
        {
          "internalType": "uint8",
          "name": "epoch",
          "type": "uint8"
        },
        {
          "internalType": "uint8",
          "name": "matchNum",
          "type": "uint8"
        },
        {
          "internalType": "uint8",
          "name": "pick",
          "type": "uint8"
        },
        {
          "internalType": "uint32",
          "name": "betAmount",
          "type": "uint32"
        },
        {
          "internalType": "uint32",
          "name": "payoff",
          "type": "uint32"
        },
        {
          "internalType": "address",
          "name": "bettor",
          "type": "address"
        }
      ],
      "stateMutability": "view",
      "type": "function"
    },
    {
      "inputs": [
        {
          "internalType": "uint256",
          "name": "",
          "type": "uint256"
        }
      ],
      "name": "betData",
      "outputs": [
        {
          "internalType": "uint256",
          "name": "",
          "type": "uint256"
        }
      ],
      "stateMutability": "view",
      "type": "function"
    },
    {
      "inputs": [
        {
          "internalType": "bytes32",
          "name": "_subkid",
          "type": "bytes32"
        }
      ],
      "name": "cancelBigBet",
      "outputs": [],
      "stateMutability": "nonpayable",
      "type": "function"
    },
    {
      "inputs": [
        {
          "internalType": "bytes32",
          "name": "_subkID",
          "type": "bytes32"
        }
      ],
      "name": "checkRedeem",
      "outputs": [
        {
          "internalType": "bool",
          "name": "",
          "type": "bool"
        }
      ],
      "stateMutability": "view",
      "type": "function"
    },
    {
      "inputs": [],
      "name": "fundBettor",
      "outputs": [],
      "stateMutability": "payable",
      "type": "function"
    },
    {
      "inputs": [],
      "name": "fundBook",
      "outputs": [],
      "stateMutability": "payable",
      "type": "function"
    },
    {
      "inputs": [
        {
          "internalType": "address",
          "name": "",
          "type": "address"
        }
      ],
      "name": "lpStruct",
      "outputs": [
        {
          "internalType": "uint32",
          "name": "shares",
          "type": "uint32"
        },
        {
          "internalType": "uint32",
          "name": "outEpoch",
          "type": "uint32"
        }
      ],
      "stateMutability": "view",
      "type": "function"
    },
    {
      "inputs": [
        {
          "internalType": "uint256",
          "name": "",
          "type": "uint256"
        }
      ],
      "name": "margin",
      "outputs": [
        {
          "internalType": "uint32",
          "name": "",
          "type": "uint32"
        }
      ],
      "stateMutability": "view",
      "type": "function"
    },
    {
      "inputs": [
        {
          "internalType": "bytes32",
          "name": "",
          "type": "bytes32"
        }
      ],
      "name": "offerContracts",
      "outputs": [
        {
          "internalType": "uint8",
          "name": "epoch",
          "type": "uint8"
        },
        {
          "internalType": "uint8",
          "name": "matchNum",
          "type": "uint8"
        },
        {
          "internalType": "uint8",
          "name": "pick",
          "type": "uint8"
        },
        {
          "internalType": "uint32",
          "name": "betAmount",
          "type": "uint32"
        },
        {
          "internalType": "uint32",
          "name": "payoff",
          "type": "uint32"
        },
        {
          "internalType": "address",
          "name": "bettor",
          "type": "address"
        }
      ],
      "stateMutability": "view",
      "type": "function"
    },
    {
      "inputs": [],
      "name": "oracleAdmin",
      "outputs": [
        {
          "internalType": "address payable",
          "name": "",
          "type": "address"
        }
      ],
      "stateMutability": "view",
      "type": "function"
    },
    {
      "inputs": [
        {
          "internalType": "uint32",
          "name": "",
          "type": "uint32"
        }
      ],
      "name": "outcomeMap",
      "outputs": [
        {
          "internalType": "uint8",
          "name": "",
          "type": "uint8"
        }
      ],
      "stateMutability": "view",
      "type": "function"
    },
    {
      "inputs": [
        {
          "internalType": "uint8",
          "name": "_matchNum",
          "type": "uint8"
        },
        {
          "internalType": "uint8",
          "name": "_team0or1",
          "type": "uint8"
        },
        {
          "internalType": "uint32",
          "name": "_betAmount",
          "type": "uint32"
        },
        {
          "internalType": "uint32",
          "name": "_decOddsBB",
          "type": "uint32"
        }
      ],
      "name": "postBigBet",
      "outputs": [],
      "stateMutability": "nonpayable",
      "type": "function"
    },
    {
      "inputs": [
        {
          "internalType": "bytes32",
          "name": "_subkId",
          "type": "bytes32"
        }
      ],
      "name": "redeem",
      "outputs": [],
      "stateMutability": "nonpayable",
      "type": "function"
    },
    {
      "inputs": [
        {
          "internalType": "address payable",
          "name": "_oracleAddress",
          "type": "address"
        }
      ],
      "name": "setOracleAddress",
      "outputs": [],
      "stateMutability": "nonpayable",
      "type": "function"
    },
    {
      "inputs": [
        {
          "internalType": "uint8[32]",
          "name": "_winner",
          "type": "uint8[32]"
        }
      ],
      "name": "settle",
      "outputs": [
        {
          "internalType": "uint32",
          "name": "",
          "type": "uint32"
        },
        {
          "internalType": "uint32",
          "name": "",
          "type": "uint32"
        }
      ],
      "stateMutability": "nonpayable",
      "type": "function"
    },
    {
      "inputs": [],
      "name": "showBetData",
      "outputs": [
        {
          "internalType": "uint256[32]",
          "name": "",
          "type": "uint256[32]"
        }
      ],
      "stateMutability": "view",
      "type": "function"
    },
    {
      "inputs": [
        {
          "internalType": "bytes32",
          "name": "_subkid",
          "type": "bytes32"
        }
      ],
      "name": "takeBigBet",
      "outputs": [],
      "stateMutability": "nonpayable",
      "type": "function"
    },
    {
      "inputs": [],
      "name": "token",
      "outputs": [
        {
          "internalType": "contract Token",
          "name": "",
          "type": "address"
        }
      ],
      "stateMutability": "view",
      "type": "function"
    },
    {
      "inputs": [
        {
          "internalType": "uint96[32]",
          "name": "_oddsAndStart",
          "type": "uint96[32]"
        }
      ],
      "name": "transmitInit",
      "outputs": [],
      "stateMutability": "nonpayable",
      "type": "function"
    },
    {
      "inputs": [
        {
          "internalType": "uint64[32]",
          "name": "_updateBetData",
          "type": "uint64[32]"
        }
      ],
      "name": "transmitUpdate",
      "outputs": [],
      "stateMutability": "nonpayable",
      "type": "function"
    },
    {
      "inputs": [
        {
          "internalType": "address",
          "name": "",
          "type": "address"
        }
      ],
      "name": "userBalance",
      "outputs": [
        {
          "internalType": "uint32",
          "name": "",
          "type": "uint32"
        }
      ],
      "stateMutability": "view",
      "type": "function"
    },
    {
      "inputs": [
        {
          "internalType": "uint32",
          "name": "_amt",
          "type": "uint32"
        }
      ],
      "name": "withdrawBettor",
      "outputs": [],
      "stateMutability": "nonpayable",
      "type": "function"
    },
    {
      "inputs": [
        {
          "internalType": "uint32",
          "name": "_sharesToSell",
          "type": "uint32"
        }
      ],
      "name": "withdrawBook",
      "outputs": [],
      "stateMutability": "nonpayable",
      "type": "function"
    },
    {
      "stateMutability": "payable",
      "type": "receive"
    }
  ],
  "bytecode": "0x60806040523480156200001157600080fd5b50604051620035fc380380620035fc83398101604081905262000034916200008b565b600080546c0100000000000000000000000063ffffffff60a01b19909116600560a01b1763ffffffff60601b1916179055602780546001600160a01b0319166001600160a01b0392909216919091179055620000bb565b6000602082840312156200009d578081fd5b81516001600160a01b0381168114620000b4578182fd5b9392505050565b61353180620000cb6000396000f3fe6080604052600436106101bb5760003560e01c80636b857267116100ec578063cf9ef50e1161008a578063e176aabf11610064578063e176aabf146104d9578063eaa2f6cf146104f9578063eda1122c14610519578063fc0c546a14610539576101c2565b8063cf9ef50e1461046a578063d8aff90e1461048a578063dea5e6e8146104b7576101c2565b80638f95a933116100c65780638f95a933146103e8578063bca8e63e14610408578063be73205a1461041d578063cae7af611461044a576101c2565b80636b857267146103765780636c597579146103a85780637d6f0100146103c8576101c2565b80633f68f1a1116101595780634c69c00f116101335780634c69c00f146102f65780634e456676146103165780635ca3716114610336578063654e207f14610356576101c2565b80633f68f1a1146102a157806345f29686146102b6578063493481bb146102d6576101c2565b80630c05cbb7116101955780630c05cbb7146102295780630c26f9941461024957806313d116231461027757806326035fcf1461027f576101c2565b80630103c92b146101c757806303c2404e146101fd57806303e95abf1461021f576101c2565b366101c257005b600080fd5b3480156101d357600080fd5b506101e76101e2366004612a1d565b61054e565b6040516101f49190613058565b60405180910390f35b34801561020957600080fd5b50610212610566565b6040516101f4919061304f565b610227610570565b005b34801561023557600080fd5b50610227610244366004612b23565b610766565b34801561025557600080fd5b50610269610264366004612aba565b6107e1565b6040516101f4929190613069565b610227610b19565b34801561028b57600080fd5b50610294610bdf565b6040516101f49190612d59565b3480156102ad57600080fd5b50610212610c1b565b3480156102c257600080fd5b506101e76102d1366004612bbe565b610c25565b3480156102e257600080fd5b506102276102f1366004612bbe565b610c55565b34801561030257600080fd5b50610227610311366004612a1d565b61141b565b34801561032257600080fd5b50610212610331366004612bbe565b611466565b34801561034257600080fd5b50610227610351366004612bbe565b61147d565b34801561036257600080fd5b50610227610371366004612bd6565b6114d8565b34801561038257600080fd5b50610396610391366004612bbe565b6114f9565b6040516101f4969594939291906130bf565b3480156103b457600080fd5b506102276103c3366004612a39565b61154c565b3480156103d457600080fd5b506103966103e3366004612bbe565b611617565b3480156103f457600080fd5b50610227610403366004612c54565b61166a565b34801561041457600080fd5b506101e761194b565b34801561042957600080fd5b5061043d610438366004612bbe565b611953565b6040516101f49190612d8f565b34801561045657600080fd5b50610269610465366004612a1d565b6119d8565b34801561047657600080fd5b50610227610485366004612bd6565b6119fc565b34801561049657600080fd5b506104aa6104a5366004612bd6565b611ae5565b6040516101f49190613080565b3480156104c357600080fd5b506104cc611afa565b6040516101f49190612cc8565b3480156104e557600080fd5b506102276104f4366004612bd6565b611b09565b34801561050557600080fd5b50610227610514366004612c0e565b611d9e565b34801561052557600080fd5b50610227610534366004612bbe565b6124ba565b34801561054557600080fd5b506104cc6127b0565b60266020526000908152604090205463ffffffff1681565b65048c2739500081565b600054600160e01b900463ffffffff1642106105a75760405162461bcd60e51b815260040161059e90612e63565b60405180910390fd5b60006105b9655af3107a40003461323f565b600080549192509063ffffffff1615610612576000805463ffffffff169061060190849060045b600891828204019190066004029054906101000a900463ffffffff166127bf565b61060b9190613253565b9050610615565b50805b6000546106289063ffffffff1683612809565b6000805463ffffffff191663ffffffff928316179081905561065491600160601b9091041660016131c0565b336000908152602560205260408120805467ffffffff00000000191664010000000063ffffffff948516021790558054839260109161069c918591600160801b9004166131c0565b82546101009290920a63ffffffff818102199093169183160217909155336000908152602560205260408120805485945090926106db918591166131c0565b92506101000a81548163ffffffff021916908363ffffffff1602179055506000805160206134dc8339815191523334600060036008811061072c57634e487b7160e01b600052603260045260246000fd5b600891828204019190066004029054906101000a900463ffffffff16600160405161075a9493929190612cfb565b60405180910390a15050565b6021546001600160a01b0316331461077d57600080fd5b600054600160401b900463ffffffff161561079757600080fd5b6107a46001826020612925565b50805160401c63ffffffff16600060075b600891828204019190066004026101000a81548163ffffffff021916908363ffffffff16021790555050565b60215460009081906001600160a01b031633146107fd57600080fd5b60008060008060005b60208110156109dd5787816020811061082f57634e487b7160e01b600052603260045260246000fd5b602002015160ff16915060006108666001836020811061085f57634e487b7160e01b600052603260045260246000fd5b0154612895565b60005490915061088590600160601b900463ffffffff166103e861334a565b63ffffffff1661089683600a61332b565b6108a091906131a8565b935082600214610953578083600781106108ca57634e487b7160e01b600052603260045260246000fd5b60200201516108d990876131c0565b9550806108e78460026131a8565b6007811061090557634e487b7160e01b600052603260045260246000fd5b602002015161091490866131c0565b945060026024600061092686886131a8565b63ffffffff1681526020810191909152604001600020805460ff191660ff929092169190911790556109ca565b6020810151815161096491906131c0565b61096e90876131c0565b63ffffffff851660009081526024602081905260408220805460ff19166001908117909155929850906109a187846131a8565b63ffffffff1681526020810191909152604001600020805460ff191660ff929092169190911790555b50806109d581613427565b915050610806565b50600054610a16906109fe9063ffffffff600160401b8204811691166131c0565b610a0885876131c0565b610a1190613466565b612809565b6000805463ffffffff191663ffffffff92831617808255600160601b900490911690600c610a4383613442565b91906101000a81548163ffffffff021916908363ffffffff1602179055505060008363ffffffff1665048c27395000610a7c919061332b565b600080546bffffffffffffffff0000000019168155909150610aa090600190612973565b600080546001600160e01b0316621dcd6560ea1b1781556021546040516001600160a01b03909116916108fc841502918491818181858888f19350505050158015610aef573d6000803e3d6000fd5b50600054600160601b900463ffffffff16610b0b85600561334a565b965096505050505050915091565b6000610b2b655af3107a40003461323f565b33600090815260266020526040812080549293508392909190610b5590849063ffffffff166131c0565b92506101000a81548163ffffffff021916908363ffffffff1602179055506000805160206134dc83398151915233346000600360088110610ba657634e487b7160e01b600052603260045260246000fd5b600891828204019190066004029054906101000a900463ffffffff166000604051610bd49493929190612cfb565b60405180910390a150565b610be7612985565b604080516104008101918290529060019060209082845b815481526020019060010190808311610bfe575050505050905090565b655af3107a400081565b60008160088110610c3557600080fd5b60089182820401919006600402915054906101000a900463ffffffff1681565b6000818152602360209081526040808320815160c081018352905460ff8082168352610100820481168386018190526201000083049091169383019390935263ffffffff6301000000820481166060840152600160381b82041660808301526001600160a01b03600160581b9091041660a08201529291610cef91600191811061085f57634e487b7160e01b600052603260045260246000fd5b905042816004602002015163ffffffff1611610d1d5760405162461bcd60e51b815260040161059e90612f82565b6000548251600160601b90910463ffffffff1660ff90911614610d525760405162461bcd60e51b815260040161059e90613008565b606082015160a08301516001600160a01b031660009081526026602052604090205463ffffffff918216911610801590610da9575060808201513360009081526026602052604090205463ffffffff918216911610155b610dc55760405162461bcd60e51b815260040161059e90612ef4565b816060015181836040015160ff1660078110610df157634e487b7160e01b600052603260045260246000fd5b60200201818151610e0291906131c0565b63ffffffff16905250608082015160408301518290610e229060026131df565b60ff1660078110610e4357634e487b7160e01b600052603260045260246000fd5b60200201818151610e5491906131c0565b63ffffffff16905250608082015160408301518290610e74906001613404565b60ff1660078110610e9557634e487b7160e01b600052603260045260246000fd5b60200201818151610ea691906131c0565b63ffffffff16905250606082015160408301518290610ec6906003613404565b60ff1660078110610ee757634e487b7160e01b600052603260045260246000fd5b60200201818151610ef891906131c0565b63ffffffff908116909152606084015160a08501516001600160a01b031660009081526026602052604081208054929450929091610f38918591166133df565b825461010092830a63ffffffff818102199092169282160291909117909255600086815260226020908152604080832088518154938a0151928a015160608b015160808c015160a08d015160ff1990971660ff9485161761ff0019169584169098029490941762ff000019166201000092909116919091021766ffffffff00000019166301000000928716929092029190911763ffffffff60381b1916600160381b949095169390930293909317600160581b600160f81b031916600160581b6001600160a01b039094169390930292909217905590506003600891828204019190066004029054906101000a900463ffffffff1660ff168260a001516001600160a01b03167f140adf89f9ece20de08856a1a87e5ddec46c74e2b3d59152c54eea9e2945b87884602001518560400151866060015187608001518960405161108595949392919061308e565b60405180910390a3600080546040516110b091600160c01b900463ffffffff16904290602001612cab565b60408051601f1981840301815291815281516020909201919091203360a086015260808501805160608701805163ffffffff90811690935291811690915291850151909250611100906001613404565b60ff1660408501526060840151608085015161111c91906131c0565b6000805460089061113b908490600160401b900463ffffffff166131c0565b82546101009290920a63ffffffff81810219909316918316021790915560608601513360009081526026602052604081208054929450929091611180918591166133df565b92506101000a81548163ffffffff021916908363ffffffff16021790555060006003600881106111c057634e487b7160e01b600052603260045260246000fd5b600891828204019190066004029054906101000a900463ffffffff1660ff16336001600160a01b03167f140adf89f9ece20de08856a1a87e5ddec46c74e2b3d59152c54eea9e2945b87886602001518760400151886060015189608001518860405161123095949392919061308e565b60405180910390a3600060e08482602002015163ffffffff16901b1760c0846001602002015163ffffffff16901b1760a0846002602002015163ffffffff16901b176080846003602002015163ffffffff16901b176040846004602002015163ffffffff16901b811790506020846005600781106112be57634e487b7160e01b600052603260045260246000fd5b602002015163ffffffff16901b17836006602002015163ffffffff1681179050806001866020015160ff166020811061130757634e487b7160e01b600052603260045260246000fd5b0155600083815260226020908152604080832088518154938a0151928a015160608b015160808c015160a08d015160ff1990971660ff9485161761ff001916610100968516969096029590951762ff000019166201000093909216929092021766ffffffff0000001916630100000063ffffffff928316021763ffffffff60381b1916600160381b9382169390930292909217600160581b600160f81b031916600160581b6001600160a01b0390941693909302929092179091558154600160c01b9004169060186113d883613442565b825463ffffffff9182166101009390930a9283029190920219909116179055505050600093845250506023602052506040902080546001600160f81b0319169055565b6021546001600160a01b0316156114445760405162461bcd60e51b815260040161059e90612f38565b602180546001600160a01b0319166001600160a01b0392909216919091179055565b6001816020811061147657600080fd5b0154905081565b600081815260236020526040902054600160581b90046001600160a01b031633146114ba5760405162461bcd60e51b815260040161059e90612f11565b600090815260226020526040902080546001600160f81b0319169055565b6021546001600160a01b031633146114ef57600080fd5b80600060056107b5565b60236020526000908152604090205460ff808216916101008104821691620100008204169063ffffffff63010000008204811691600160381b8104909116906001600160a01b03600160581b9091041686565b6021546001600160a01b0316331461156357600080fd5b6000805b602081101561161257600060406001836020811061159557634e487b7160e01b600052603260045260246000fd5b0154901c9050604081901b831792508382602081106115c457634e487b7160e01b600052603260045260246000fd5b602002015167ffffffffffffffff168317925082600183602081106115f957634e487b7160e01b600052603260045260246000fd5b015550600091508061160a81613427565b915050611567565b505050565b60226020526000908152604090205460ff808216916101008104821691620100008204169063ffffffff63010000008204811691600160381b8104909116906001600160a01b03600160581b9091041686565b6000546116869063ffffffff600160a01b820481169116613253565b63ffffffff168263ffffffff1610156116b15760405162461bcd60e51b815260040161059e90612e9a565b3360009081526026602052604090205463ffffffff90811690831611156116ea5760405162461bcd60e51b815260040161059e90612ef4565b6103e88163ffffffff16118015611708575061270f8163ffffffff16105b6117245760405162461bcd60e51b815260040161059e90612d9a565b6000805460405161174791600160c01b900463ffffffff16904290602001612cab565b6040516020818303038152906040528051906020012090506117676129a4565b60ff85811660408301528681166020830152600054600160601b90041681523360a082015263ffffffff841660608201526103e8846117a682866133df565b6117b0919061334a565b6117ba9190613253565b63ffffffff9081166080830190815260008481526023602090815260408083208651815493880151928801516060890151965160a08a015160ff1990961660ff9384161761ff001916610100958416959095029490941762ff000019166201000092909116919091021766ffffffff00000019166301000000958716959095029490941763ffffffff60381b1916600160381b9186169190910217600160581b600160f81b031916600160581b6001600160a01b0390921691909102179091558054600160c01b900490911690601861189283613442565b91906101000a81548163ffffffff021916908363ffffffff1602179055505060006003600881106118d357634e487b7160e01b600052603260045260246000fd5b600891828204019190066004029054906101000a900463ffffffff1660ff16336001600160a01b03167f4e952280ad1b5e5b031cfce9aa00eb629d6ab4751f76792c07f4dbb4afe446128888856060015186608001518860405161193b95949392919061308e565b60405180910390a3505050505050565b637735940081565b600081815260226020526040812054819060ff6201000082048116916119819161010090910416600a61336d565b60008581526022602052604090205460ff918216916119a391166103e8613301565b6119ad9190613182565b6119b79190613182565b61ffff1660009081526024602052604090205460ff1615159150505b919050565b60256020526000908152604090205463ffffffff8082169164010000000090041682565b3360009081526026602052604090205463ffffffff9081169082161115611a2257600080fd5b3360009081526026602052604081208054839290611a4790849063ffffffff166133df565b92506101000a81548163ffffffff021916908363ffffffff1602179055506000655af3107a40008263ffffffff16611a7f919061332b565b604051909150339082156108fc029083906000818181858888f19350505050158015611aaf573d6000803e3d6000fd5b506000546040516000805160206134dc8339815191529161075a9133918591600160601b90910463ffffffff1690600390612cfb565b60246020526000908152604090205460ff1681565b6021546001600160a01b031681565b600054600160e01b900463ffffffff164210611b375760405162461bcd60e51b815260040161059e90612e63565b3360009081526025602052604090205463ffffffff80831691161015611b6f5760405162461bcd60e51b815260040161059e90612ef4565b33600090815260256020526040812054905464010000000090910463ffffffff908116600160601b9092041611611bb85760405162461bcd60e51b815260040161059e90612e23565b60008054600160801b900463ffffffff16611bd48383806105e0565b611bde9190613253565b600054909150611bfe9063ffffffff6401000000008204811691166133df565b63ffffffff168163ffffffff161115611c295760405162461bcd60e51b815260040161059e90612fa8565b60008054839190601090611c4b908490600160801b900463ffffffff166133df565b82546101009290920a63ffffffff81810219909316918316021790915533600090815260256020526040812080548694509092611c8a918591166133df565b92506101000a81548163ffffffff021916908363ffffffff1602179055508060008060088110611cca57634e487b7160e01b600052603260045260246000fd5b600891828204019190066004028282829054906101000a900463ffffffff16611cf391906133df565b92506101000a81548163ffffffff021916908363ffffffff1602179055506000655af3107a40008263ffffffff16611d2b919061332b565b604051909150339082156108fc029083906000818181858888f19350505050158015611d5b573d6000803e3d6000fd5b506000546040516000805160206134dc83398151915291611d919133918591600160601b90910463ffffffff1690600490612cfb565b60405180910390a1505050565b3360009081526026602052604090205463ffffffff9081169082161115611dd75760405162461bcd60e51b815260040161059e90612e45565b6000611e0060018560ff166020811061085f57634e487b7160e01b600052603260045260246000fd5b905042816004602002015163ffffffff1611611e2e5760405162461bcd60e51b815260040161059e90612ebd565b60006103e882611e3f8660056131df565b60ff1660078110611e6057634e487b7160e01b600052603260045260246000fd5b6020020151611e6f9085613276565b611e799190613204565b9050600082611e89866001613404565b60ff1660078110611eaa57634e487b7160e01b600052603260045260246000fd5b602002015183611ebb8760026131df565b60ff1660078110611edc57634e487b7160e01b600052603260045260246000fd5b6020020151611eeb9190613396565b600054909150611f0a9063ffffffff600160a01b820481169116613253565b60030b611f17828461313a565b60030b12611f375760405162461bcd60e51b815260040161059e90612df7565b6000838660ff1660078110611f5c57634e487b7160e01b600052603260045260246000fd5b602002015184611f6d886003613404565b60ff1660078110611f8e57634e487b7160e01b600052603260045260246000fd5b6020020151611f9d9190613396565b90506000611fab83836128f5565b611fd1611fb8858761313a565b84611fc28a613466565b611fcc919061313a565b6128f5565b611fdb9190613396565b600054909150611ffb9063ffffffff6401000000008204811691166133df565b60030b8160030b1261201f5760405162461bcd60e51b815260040161059e90612dc0565b336000908152602660205260408120805488929061204490849063ffffffff166133df565b92506101000a81548163ffffffff021916908363ffffffff16021790555060008060066008811061208557634e487b7160e01b600052603260045260246000fd5b600891828204019190066004029054906101000a900463ffffffff16426040516020016120b3929190612cab565b6040516020818303038152906040528051906020012090506120d36129a4565b3360a082015263ffffffff80891660608301528616608082015260ff808a1660408301528a16602082015260006003600881049091015460ff600460079093169290920261010090810a909104821683526000848152602260209081526040808320865181549388015192880151606089015160808a015160a08b01516001600160a01b0316600160581b02600160581b600160f81b031963ffffffff928316600160381b0263ffffffff60381b199490931663010000000266ffffffff00000019958d16620100000262ff000019998e16909c0261ff001997909d1660ff19909a1699909917959095169a909a179590951697909717169390931794909416171692909217905588906002600891828204019190066004028282829054906101000a900463ffffffff1661220891906131c0565b92506101000a81548163ffffffff021916908363ffffffff16021790555061226d600060016008811061224b57634e487b7160e01b600052603260045260246000fd5b600891828204019190066004029054906101000a900463ffffffff1684612809565b6000805463ffffffff929092166401000000000267ffffffff0000000019909216919091179055878760ff8b16600781106122b857634e487b7160e01b600052603260045260246000fd5b602002018181516122c991906131c0565b63ffffffff1690525085876122df8b60026131df565b60ff166007811061230057634e487b7160e01b600052603260045260246000fd5b6020020181815161231191906131c0565b63ffffffff16905250600060e08882602002015163ffffffff16901b1760c0886001602002015163ffffffff16901b1760a0886002602002015163ffffffff16901b176080886003602002015163ffffffff16901b176040886004602002015163ffffffff16901b811790506020886005600781106123a057634e487b7160e01b600052603260045260246000fd5b602002015163ffffffff16901b17876006602002015163ffffffff16811790508060018c60ff16602081106123e557634e487b7160e01b600052603260045260246000fd5b015560008054600160c01b900463ffffffff1690601861240483613442565b91906101000a81548163ffffffff021916908363ffffffff16021790555050600060036008811061244557634e487b7160e01b600052603260045260246000fd5b600891828204019190066004029054906101000a900463ffffffff1660ff16336001600160a01b03167f140adf89f9ece20de08856a1a87e5ddec46c74e2b3d59152c54eea9e2945b8788d8d8d8c896040516124a595949392919061308e565b60405180910390a35050505050505050505050565b600081815260226020526040902054600160581b90046001600160a01b031633146124f75760405162461bcd60e51b815260040161059e90612f11565b60008181526022602052604081205460ff6201000082048116916125239161010090910416600a61336d565b60008481526022602052604090205460ff9182169161254591166103e8613301565b61254f9190613182565b6125599190613182565b61ffff1660008181526024602052604090205490915060ff1661258e5760405162461bcd60e51b815260040161059e90612fdf565b60008281526022602090815260408083205463ffffffff858116855260249093529220546301000000909204169060ff1660021415612608576000838152602260205260409020546064906125f190600160381b900463ffffffff16605f61334a565b6125fb9190613253565b61260590826131c0565b90505b600083815260226020908152604080832080546001600160f81b031916905533835260269091528120805483929061264790849063ffffffff166131c0565b825463ffffffff9182166101009390930a9283029190920219909116179055506027546040516370a0823160e01b81526000916001600160a01b0316906370a0823190612698903090600401612cc8565b60206040518083038186803b1580156126b057600080fd5b505afa1580156126c4573d6000803e3d6000fd5b505050506040513d601f19601f820116820180604052508101906126e89190612bf2565b63ffffffff16111561277b576027546040516320025d2160e21b81526001600160a01b0390911690638009748490612727903390600190600401612cdc565b602060405180830381600087803b15801561274157600080fd5b505af1158015612755573d6000803e3d6000fd5b505050506040513d601f19601f820116820180604052508101906127799190612b9e565b505b6000546040516000805160206134dc83398151915291611d919133918591600160601b90910463ffffffff1690600290612d2a565b6027546001600160a01b031681565b6000806127cc838561334a565b905063ffffffff83166127df8583613253565b63ffffffff16146128025760405162461bcd60e51b815260040161059e90612f5b565b9392505050565b60008060008360030b121561285d5761282183613466565b61282b90856133df565b90508363ffffffff168163ffffffff16106128585760405162461bcd60e51b815260040161059e9061302d565b612802565b61286783856131c0565b90508363ffffffff168163ffffffff1610156128025760405162461bcd60e51b815260040161059e9061302d565b61289d6129d9565b60e082901c815263ffffffff60c083811c821660208085019190915260a085811c8416604080870191909152608087811c861660608801529087901c8516908601529085901c83169084015292169181019190915290565b6000808260030b8460030b121561290c578261290e565b835b905060008160030b13612802575060009392505050565b8260208101928215612963579160200282015b8281111561296357825182906bffffffffffffffffffffffff16905591602001919060010190612938565b5061296f9291506129f7565b5090565b506129829060208101906129f7565b50565b6040518061040001604052806020906020820280368337509192915050565b6040805160c081018252600080825260208201819052918101829052606081018290526080810182905260a081019190915290565b6040518060e001604052806007906020820280368337509192915050565b5b8082111561296f57600081556001016129f8565b803560ff811681146119d357600080fd5b600060208284031215612a2e578081fd5b8135612802816134b4565b6000610400808385031215612a4c578182fd5b83601f840112612a5a578182fd5b612a6381613102565b8084868487011115612a73578485fd5b8493505b6020808510612a865750612ab0565b813567ffffffffffffffff81168114612a9d578687fd5b8452600194909401939283019201612a77565b5095945050505050565b6000610400808385031215612acd578182fd5b83601f840112612adb578182fd5b612ae481613102565b8084868487011115612af4578485fd5b8493505b6020808510612b075750612ab0565b612b1082612a0c565b8452600194909401939283019201612af8565b6000610400808385031215612b36578182fd5b83601f840112612b44578182fd5b612b4d81613102565b8084868487011115612b5d578485fd5b8493505b6020808510612b705750612ab0565b81356bffffffffffffffffffffffff81168114612b8b578687fd5b8452600194909401939283019201612b61565b600060208284031215612baf578081fd5b81518015158114612802578182fd5b600060208284031215612bcf578081fd5b5035919050565b600060208284031215612be7578081fd5b8135612802816134c9565b600060208284031215612c03578081fd5b8151612802816134c9565b600080600060608486031215612c22578182fd5b612c2b84612a0c565b9250612c3960208501612a0c565b91506040840135612c49816134c9565b809150509250925092565b60008060008060808587031215612c69578182fd5b612c7285612a0c565b9350612c8060208601612a0c565b92506040850135612c90816134c9565b91506060850135612ca0816134c9565b939692955090935050565b60e09290921b6001600160e01b0319168252600482015260240190565b6001600160a01b0391909116815260200190565b6001600160a01b0392909216825263ffffffff16602082015260400190565b6001600160a01b03949094168452602084019290925263ffffffff908116604084015216606082015260800190565b6001600160a01b0394909416845263ffffffff9283166020850152908216604084015216606082015260800190565b6104008101818360005b6020808210612d725750612d86565b825184529283019290910190600101612d63565b50505092915050565b901515815260200190565b6020808252600c908201526b696e76616c6964206f64647360a01b604082015260600190565b6020808252601e908201527f62657473697a65206f76657220756e706c6564676564206361706974616c0000604082015260600190565b60208082526012908201527118995d1cda5e99481bdd995c881b1a5b5a5d60721b604082015260600190565b6020808252600890820152673a37b79039b7b7b760c11b604082015260600190565b60208082526004908201526302729a3160e51b604082015260600190565b60208082526019908201527f6f6e6c79207072696f7220746f206669727374206576656e7400000000000000604082015260600190565b60208082526009908201526818dbdb98d31a5b5a5d60ba1b604082015260600190565b6020808252601b908201527f67616d652073746172746564206f72206e6f7420706c6179696e670000000000604082015260600190565b6020808252600390820152622729a360e91b604082015260600190565b6020808252600d908201526c1ddc9bdb99c81858d8dbdd5b9d609a1b604082015260600190565b6020808252600990820152684f6e6c79206f6e636560b81b604082015260600190565b6020808252600d908201526c6d756c74206f766572666c6f7760981b604082015260600190565b6020808252600c908201526b19d85b59481cdd185c9d195960a21b604082015260600190565b60208082526019908201527f696e73756666696369656e742066726565206361706974616c00000000000000604082015260600190565b6020808252600f908201526e6e6565642077696e206f722074696560881b604082015260600190565b6020808252600b908201526a195e1c1a5c99590818995d60aa1b604082015260600190565b6020808252600890820152676f766572666c6f7760c01b604082015260600190565b90815260200190565b63ffffffff91909116815260200190565b63ffffffff92831681529116602082015260400190565b60ff91909116815260200190565b60ff958616815293909416602084015263ffffffff9182166040840152166060820152608081019190915260a00190565b60ff9687168152948616602086015292909416604084015263ffffffff908116606084015290921660808201526001600160a01b0390911660a082015260c00190565b60405181810167ffffffffffffffff8111828210171561313257634e487b7160e01b600052604160045260246000fd5b604052919050565b60008160030b8360030b82821282637fffffff0382138115161561316057613160613488565b82637fffffff1903821281161561317957613179613488565b50019392505050565b600061ffff80831681851680830382111561319f5761319f613488565b01949350505050565b600082198211156131bb576131bb613488565b500190565b600063ffffffff80831681851680830382111561319f5761319f613488565b600060ff821660ff84168060ff038211156131fc576131fc613488565b019392505050565b60008160030b8360030b8061321b5761321b61349e565b637fffffff1982146000198214161561323657613236613488565b90059392505050565b60008261324e5761324e61349e565b500490565b600063ffffffff8084168061326a5761326a61349e565b92169190910492915050565b60008160030b8360030b637fffffff838213848413838304851182821616156132a1576132a1613488565b637fffffff19868512828116878305871216156132c0576132c0613488565b8787129250858205871284841616156132db576132db613488565b858505871281841616156132f1576132f1613488565b5050509290910295945050505050565b600061ffff8083168185168183048111821515161561332257613322613488565b02949350505050565b600081600019048311821515161561334557613345613488565b500290565b600063ffffffff8083168185168183048111821515161561332257613322613488565b600060ff821660ff84168160ff048111821515161561338e5761338e613488565b029392505050565b60008160030b8360030b82811281637fffffff19018312811516156133bd576133bd613488565b81637fffffff0183138116156133d5576133d5613488565b5090039392505050565b600063ffffffff838116908316818110156133fc576133fc613488565b039392505050565b600060ff821660ff84168082101561341e5761341e613488565b90039392505050565b600060001982141561343b5761343b613488565b5060010190565b600063ffffffff8083168181141561345c5761345c613488565b6001019392505050565b60008160030b637fffffff1981141561348157613481613488565b9003919050565b634e487b7160e01b600052601160045260246000fd5b634e487b7160e01b600052601260045260246000fd5b6001600160a01b038116811461298257600080fd5b63ffffffff8116811461298257600080fdfeee637ea1fc87312ddb03041e1bdf2955840bce4531e1242afe2f0aff24a6ecc6a26469706673582212207c5f213e6fd6fda0b3696045b00e97f4783a05162282376b598c400c6937daa064736f6c63430008000033",
  "linkReferences": {},
  "deployedLinkReferences": {}
}