{
  "_format": "hh-sol-artifact-1",
  "contractName": "Oracle",
  "sourceName": "src/contracts/solidity/Oracle.sol",
  "abi": [
    {
      "inputs": [
        {
          "internalType": "address payable",
          "name": "bettingk",
          "type": "address"
        },
        {
          "internalType": "address",
          "name": "_token",
          "type": "address"
        }
      ],
      "stateMutability": "nonpayable",
      "type": "constructor"
    },
    {
      "anonymous": false,
      "inputs": [
        {
          "indexed": false,
          "internalType": "uint32",
          "name": "epoch",
          "type": "uint32"
        },
        {
          "indexed": false,
          "internalType": "uint32",
          "name": "propnum",
          "type": "uint32"
        },
        {
          "indexed": false,
          "internalType": "uint32[32]",
          "name": "oddsStart",
          "type": "uint32[32]"
        }
      ],
      "name": "BetDataPosted",
      "type": "event"
    },
    {
      "anonymous": false,
      "inputs": [
        {
          "indexed": false,
          "internalType": "uint32",
          "name": "epoch",
          "type": "uint32"
        },
        {
          "indexed": false,
          "internalType": "uint32",
          "name": "propnum",
          "type": "uint32"
        },
        {
          "indexed": false,
          "internalType": "uint32[32]",
          "name": "decOdds",
          "type": "uint32[32]"
        }
      ],
      "name": "DecOddsPosted",
      "type": "event"
    },
    {
      "anonymous": false,
      "inputs": [
        {
          "indexed": false,
          "internalType": "uint32",
          "name": "tokensChange",
          "type": "uint32"
        },
        {
          "indexed": false,
          "internalType": "uint256",
          "name": "etherChange",
          "type": "uint256"
        },
        {
          "indexed": false,
          "internalType": "address",
          "name": "transactor",
          "type": "address"
        }
      ],
      "name": "Funding",
      "type": "event"
    },
    {
      "anonymous": false,
      "inputs": [
        {
          "indexed": false,
          "internalType": "uint32",
          "name": "concLimit",
          "type": "uint32"
        }
      ],
      "name": "ParamsPosted",
      "type": "event"
    },
    {
      "anonymous": false,
      "inputs": [
        {
          "indexed": false,
          "internalType": "uint32",
          "name": "epoch",
          "type": "uint32"
        },
        {
          "indexed": false,
          "internalType": "uint32",
          "name": "propnum",
          "type": "uint32"
        },
        {
          "indexed": false,
          "internalType": "uint8[32]",
          "name": "winner",
          "type": "uint8[32]"
        }
      ],
      "name": "ResultsPosted",
      "type": "event"
    },
    {
      "anonymous": false,
      "inputs": [
        {
          "indexed": false,
          "internalType": "uint32",
          "name": "epoch",
          "type": "uint32"
        },
        {
          "indexed": false,
          "internalType": "uint32",
          "name": "propnum",
          "type": "uint32"
        },
        {
          "indexed": false,
          "internalType": "string[32]",
          "name": "sched",
          "type": "string[32]"
        }
      ],
      "name": "SchedulePosted",
      "type": "event"
    },
    {
      "anonymous": false,
      "inputs": [
        {
          "indexed": false,
          "internalType": "uint32",
          "name": "propnum",
          "type": "uint32"
        },
        {
          "indexed": false,
          "internalType": "uint32",
          "name": "epoch",
          "type": "uint32"
        },
        {
          "indexed": false,
          "internalType": "uint32[32]",
          "name": "starttimes",
          "type": "uint32[32]"
        }
      ],
      "name": "StartTimesPosted",
      "type": "event"
    },
    {
      "anonymous": false,
      "inputs": [
        {
          "indexed": false,
          "internalType": "bool",
          "name": "voteResult",
          "type": "bool"
        },
        {
          "indexed": false,
          "internalType": "uint32",
          "name": "propnum",
          "type": "uint32"
        },
        {
          "indexed": false,
          "internalType": "uint32",
          "name": "epoch",
          "type": "uint32"
        }
      ],
      "name": "VoteOutcome",
      "type": "event"
    },
    {
      "inputs": [],
      "name": "CURE_TIME",
      "outputs": [
        {
          "internalType": "uint32",
          "name": "",
          "type": "uint32"
        }
      ],
      "stateMutability": "view",
      "type": "function"
    },
    {
      "inputs": [],
      "name": "HOUR_END",
      "outputs": [
        {
          "internalType": "uint32",
          "name": "",
          "type": "uint32"
        }
      ],
      "stateMutability": "view",
      "type": "function"
    },
    {
      "inputs": [],
      "name": "HOUR_START",
      "outputs": [
        {
          "internalType": "uint32",
          "name": "",
          "type": "uint32"
        }
      ],
      "stateMutability": "view",
      "type": "function"
    },
    {
      "inputs": [],
      "name": "MIN_SUBMIT",
      "outputs": [
        {
          "internalType": "uint32",
          "name": "",
          "type": "uint32"
        }
      ],
      "stateMutability": "view",
      "type": "function"
    },
    {
      "inputs": [
        {
          "internalType": "address",
          "name": "",
          "type": "address"
        }
      ],
      "name": "adminStruct",
      "outputs": [
        {
          "internalType": "uint32",
          "name": "tokens",
          "type": "uint32"
        },
        {
          "internalType": "uint32",
          "name": "voteTracker",
          "type": "uint32"
        },
        {
          "internalType": "uint32",
          "name": "initFeePool",
          "type": "uint32"
        }
      ],
      "stateMutability": "view",
      "type": "function"
    },
    {
      "inputs": [],
      "name": "bettingContract",
      "outputs": [
        {
          "internalType": "contract Betting",
          "name": "",
          "type": "address"
        }
      ],
      "stateMutability": "view",
      "type": "function"
    },
    {
      "inputs": [
        {
          "internalType": "uint32",
          "name": "_amt",
          "type": "uint32"
        }
      ],
      "name": "depositTokens",
      "outputs": [],
      "stateMutability": "nonpayable",
      "type": "function"
    },
    {
      "inputs": [],
      "name": "hourOfDay",
      "outputs": [
        {
          "internalType": "uint256",
          "name": "hour",
          "type": "uint256"
        }
      ],
      "stateMutability": "view",
      "type": "function"
    },
    {
      "inputs": [
        {
          "internalType": "string[32]",
          "name": "_teamsched",
          "type": "string[32]"
        },
        {
          "internalType": "uint32[32]",
          "name": "_starts",
          "type": "uint32[32]"
        },
        {
          "internalType": "uint32[32]",
          "name": "_decimalOdds",
          "type": "uint32[32]"
        }
      ],
      "name": "initPost",
      "outputs": [],
      "stateMutability": "nonpayable",
      "type": "function"
    },
    {
      "inputs": [],
      "name": "initProcess",
      "outputs": [],
      "stateMutability": "nonpayable",
      "type": "function"
    },
    {
      "inputs": [
        {
          "internalType": "uint256",
          "name": "",
          "type": "uint256"
        }
      ],
      "name": "matchSchedule",
      "outputs": [
        {
          "internalType": "string",
          "name": "",
          "type": "string"
        }
      ],
      "stateMutability": "view",
      "type": "function"
    },
    {
      "inputs": [
        {
          "internalType": "uint32",
          "name": "_concentrationLim",
          "type": "uint32"
        }
      ],
      "name": "paramUpdate",
      "outputs": [],
      "stateMutability": "nonpayable",
      "type": "function"
    },
    {
      "inputs": [
        {
          "internalType": "uint256",
          "name": "",
          "type": "uint256"
        }
      ],
      "name": "params",
      "outputs": [
        {
          "internalType": "uint32",
          "name": "",
          "type": "uint32"
        }
      ],
      "stateMutability": "view",
      "type": "function"
    },
    {
      "inputs": [
        {
          "internalType": "uint256",
          "name": "",
          "type": "uint256"
        }
      ],
      "name": "propOddsStarts",
      "outputs": [
        {
          "internalType": "uint96",
          "name": "",
          "type": "uint96"
        }
      ],
      "stateMutability": "view",
      "type": "function"
    },
    {
      "inputs": [
        {
          "internalType": "uint256",
          "name": "",
          "type": "uint256"
        }
      ],
      "name": "propOddsUpdate",
      "outputs": [
        {
          "internalType": "uint64",
          "name": "",
          "type": "uint64"
        }
      ],
      "stateMutability": "view",
      "type": "function"
    },
    {
      "inputs": [
        {
          "internalType": "uint256",
          "name": "",
          "type": "uint256"
        }
      ],
      "name": "propResults",
      "outputs": [
        {
          "internalType": "uint8",
          "name": "",
          "type": "uint8"
        }
      ],
      "stateMutability": "view",
      "type": "function"
    },
    {
      "inputs": [],
      "name": "proposer",
      "outputs": [
        {
          "internalType": "address",
          "name": "",
          "type": "address"
        }
      ],
      "stateMutability": "view",
      "type": "function"
    },
    {
      "inputs": [
        {
          "internalType": "uint8[32]",
          "name": "_resultVector",
          "type": "uint8[32]"
        }
      ],
      "name": "settlePost",
      "outputs": [],
      "stateMutability": "nonpayable",
      "type": "function"
    },
    {
      "inputs": [],
      "name": "settleProcess",
      "outputs": [],
      "stateMutability": "nonpayable",
      "type": "function"
    },
    {
      "inputs": [],
      "name": "showSchedString",
      "outputs": [
        {
          "internalType": "string[32]",
          "name": "",
          "type": "string[32]"
        }
      ],
      "stateMutability": "view",
      "type": "function"
    },
    {
      "inputs": [],
      "name": "token",
      "outputs": [
        {
          "internalType": "contract Token",
          "name": "",
          "type": "address"
        }
      ],
      "stateMutability": "view",
      "type": "function"
    },
    {
      "inputs": [
        {
          "internalType": "uint32[32]",
          "name": "_decimalOdds",
          "type": "uint32[32]"
        }
      ],
      "name": "updatePost",
      "outputs": [],
      "stateMutability": "nonpayable",
      "type": "function"
    },
    {
      "inputs": [],
      "name": "updateProcess",
      "outputs": [],
      "stateMutability": "nonpayable",
      "type": "function"
    },
    {
      "inputs": [
        {
          "internalType": "bool",
          "name": "_sendData",
          "type": "bool"
        }
      ],
      "name": "vote",
      "outputs": [],
      "stateMutability": "nonpayable",
      "type": "function"
    },
    {
      "inputs": [
        {
          "internalType": "uint32",
          "name": "_amtTokens",
          "type": "uint32"
        }
      ],
      "name": "withdrawTokens",
      "outputs": [],
      "stateMutability": "nonpayable",
      "type": "function"
    },
    {
      "stateMutability": "payable",
      "type": "receive"
    }
  ],
  "bytecode": "0x60806040523480156200001157600080fd5b5060405162002e5638038062002e568339810160408190526200003491620000a8565b603d80546001600160a01b039384166001600160a01b031991821617909155603c80549290931691161790556000805467ffffffff00000001600160801b0319166f77359400000000010000000000000001179055620000e7565b6001600160a01b0381168114620000a557600080fd5b50565b60008060408385031215620000bc57600080fd5b8251620000c9816200008f565b6020840151909250620000dc816200008f565b809150509250929050565b612d5f80620000f76000396000f3fe60806040526004361061019a5760003560e01c806398823b90116100e1578063c37ac23b1161008a578063e2a9fc3f11610064578063e2a9fc3f146104be578063e966f49f146104f7578063f1ed3b391461050c578063fc0c546a1461053957600080fd5b8063c37ac23b14610417578063c68ec64514610437578063d3322374146104a857600080fd5b80639e6df0d8116100bb5780639e6df0d8146103c2578063a8e4fb90146103d7578063bd64f10f146103f757600080fd5b806398823b901461036d5780639d2f053c146103825780639d73f0a6146103a257600080fd5b80634b9f5c98116101435780637345b10b1161011d5780637345b10b146102e3578063862a79821461030657806391e04f7e1461033057600080fd5b80634b9f5c981461028357806350abb018146102a35780635d85579d146102c357600080fd5b806321cb48311161017457806321cb48311461021657806347dee2281461024e5780634a1247ae1461026e57600080fd5b806303ecacc7146101a65780630a491d08146101dd578063160919bf146101f457600080fd5b366101a157005b600080fd5b3480156101b257600080fd5b506101c66101c1366004612260565b610559565b60405160ff90911681526020015b60405180910390f35b3480156101e957600080fd5b506101f2610583565b005b34801561020057600080fd5b50610209610941565b6040516101d49190612308565b34801561022257600080fd5b50603d54610236906001600160a01b031681565b6040516001600160a01b0390911681526020016101d4565b34801561025a57600080fd5b506101f2610269366004612334565b610a09565b34801561027a57600080fd5b506101f2610c68565b34801561028f57600080fd5b506101f261029e36600461235f565b610f74565b3480156102af57600080fd5b506101f26102be366004612334565b6110ad565b3480156102cf57600080fd5b506101f26102de3660046123ed565b61118f565b3480156102ef57600080fd5b506102f8611260565b6040519081526020016101d4565b34801561031257600080fd5b5061031b603281565b60405163ffffffff90911681526020016101d4565b34801561033c57600080fd5b5061035061034b366004612260565b611281565b6040516bffffffffffffffffffffffff90911681526020016101d4565b34801561037957600080fd5b5061031b601881565b34801561038e57600080fd5b5061031b61039d366004612260565b6112b9565b3480156103ae57600080fd5b506101f26103bd3660046124ad565b6112e9565b3480156103ce57600080fd5b5061031b600081565b3480156103e357600080fd5b50603a54610236906001600160a01b031681565b34801561040357600080fd5b506101f26104123660046124ca565b6113c4565b34801561042357600080fd5b506101f2610432366004612334565b611555565b34801561044357600080fd5b506104816104523660046125e1565b603b6020526000908152604090205463ffffffff808216916401000000008104821691600160401b9091041683565b6040805163ffffffff948516815292841660208401529216918101919091526060016101d4565b3480156104b457600080fd5b5061031b61a8c081565b3480156104ca57600080fd5b506104de6104d9366004612260565b61185b565b60405167ffffffffffffffff90911681526020016101d4565b34801561050357600080fd5b506101f261188f565b34801561051857600080fd5b5061052c610527366004612260565b6119ac565b6040516101d4919061260a565b34801561054557600080fd5b50603c54610236906001600160a01b031681565b6019816020811061056957600080fd5b60209182820401919006915054906101000a900460ff1681565b600054640100000000900463ffffffff166003146105e85760405162461bcd60e51b815260206004820152600a60248201527f77726f6e6720646174610000000000000000000000000000000000000000000060448201526064015b60405180910390fd5b6000546c01000000000000000000000000900463ffffffff16421161063a5760405162461bcd60e51b81526020600482015260086024820152673a37b79039b7b7b760c11b60448201526064016105df565b60008054819063ffffffff600160c01b82048116600160a01b90920416111561080457603d546040517f0c26f9940000000000000000000000000000000000000000000000000000000081526001600160a01b0390911690630c26f994906106a790601990600401612633565b60408051808303816000875af11580156106c5573d6000803e3d6000fd5b505050506040513d601f19601f820116820180604052508101906106e991906128ca565b600080547fffffffffffffffffffffffffffffffffffffffffffffffffffffffff000000001663ffffffff84811691909117918290559194509192506107449170010000000000000000000000000000000090041683612930565b60008054601c90610763908490600160e01b900463ffffffff16612953565b92506101000a81548163ffffffff021916908363ffffffff1602179055507f20dd2d358fe34919211e50a7415bbe4e0837dd45b50b2f611e3997dc7562520f6001600080600881106107b7576107b761261d565b60088104919091015460005460408051941515855260079093166004026101000a90910463ffffffff9081166020850152600160401b9091041682820152519081900360600190a1610935565b61081060026032612930565b6000805460109061083c908490700100000000000000000000000000000000900463ffffffff16612977565b92506101000a81548163ffffffff021916908363ffffffff160217905550600260326108689190612930565b603a546001600160a01b03166000908152603b60205260408120805490919061089890849063ffffffff16612977565b92506101000a81548163ffffffff021916908363ffffffff1602179055507f20dd2d358fe34919211e50a7415bbe4e0837dd45b50b2f611e3997dc7562520f6000806000600881106108ec576108ec61261d565b60088104919091015460005460408051941515855260079093166004026101000a90910463ffffffff9081166020850152600160401b9091041682820152519081900360600190a15b61093d611a4c565b5050565b610949611f9d565b604080516104008101909152601a60206000835b82821015610a0057838201805461097390612994565b80601f016020809104026020016040519081016040528092919081815260200182805461099f90612994565b80156109ec5780601f106109c1576101008083540402835291602001916109ec565b820191906000526020600020905b8154815290600101906020018083116109cf57829003601f168201915b50505050508152602001906001019061095d565b50505050905090565b336000908152603b602052604081205463ffffffff1615610abe57336000908152603b60205260408120549054610a579163ffffffff600160401b909104811691600160e01b900416612977565b336000908152603b6020526040902054610a77919063ffffffff166129ce565b610a8c9063ffffffff1664e8d4a510006129f6565b604051909150339082156108fc029083906000818181858888f19350505050158015610abc573d6000803e3d6000fd5b505b603c546040517f84269ed900000000000000000000000000000000000000000000000000000000815233600482015230602482015263ffffffff841660448201526001600160a01b03909116906384269ed9906064016020604051808303816000875af1158015610b33573d6000803e3d6000fd5b505050506040513d601f19601f82011682018060405250810190610b579190612a13565b5060008054338252603b602052604082208054600160401b63ffffffff600160e01b9094048416026bffffffff00000000000000001982168117835586949293610ba79286928216911617612953565b92506101000a81548163ffffffff021916908363ffffffff160217905550816000600460088110610bda57610bda61261d565b600891828204019190066004028282829054906101000a900463ffffffff16610c039190612953565b82546101009290920a63ffffffff8181021990931691831602179091556040805191851682526020820184905233908201527fcd8a5ece39d0b175e7e2ae6d276a5296bcd7da645b615b3d857b7fa2769db58391506060015b60405180910390a15050565b600054640100000000900463ffffffff16600214610cc85760405162461bcd60e51b815260206004820152600a60248201527f77726f6e6720646174610000000000000000000000000000000000000000000060448201526064016105df565b6000546c01000000000000000000000000900463ffffffff164211610d1a5760405162461bcd60e51b81526020600482015260086024820152673a37b79039b7b7b760c11b60448201526064016105df565b60005463ffffffff600160c01b82048116600160a01b909204161115610e3957603d546040517f6c5975790000000000000000000000000000000000000000000000000000000081526001600160a01b0390911690636c59757990610d8490601190600401612a30565b600060405180830381600087803b158015610d9e57600080fd5b505af1158015610db2573d6000803e3d6000fd5b505050507f20dd2d358fe34919211e50a7415bbe4e0837dd45b50b2f611e3997dc7562520f600160008060088110610dec57610dec61261d565b60088104919091015460005460408051941515855260079093166004026101000a90910463ffffffff9081166020850152600160401b9091041682820152519081900360600190a1610f6a565b610e4560026032612930565b60008054601090610e71908490700100000000000000000000000000000000900463ffffffff16612977565b92506101000a81548163ffffffff021916908363ffffffff16021790555060026032610e9d9190612930565b603a546001600160a01b03166000908152603b602052604081208054909190610ecd90849063ffffffff16612977565b92506101000a81548163ffffffff021916908363ffffffff1602179055507f20dd2d358fe34919211e50a7415bbe4e0837dd45b50b2f611e3997dc7562520f600080600060088110610f2157610f2161261d565b60088104919091015460005460408051941515855260079093166004026101000a90910463ffffffff9081166020850152600160401b9091041682820152519081900360600190a15b610f72611a4c565b565b336000908152603b602052604090205463ffffffff16610f9357600080fd5b60008054640100000000900463ffffffff169003610fb057600080fd5b60008054338252603b602052604090912054600160401b90910463ffffffff9081166401000000009092041603610fe657600080fd5b60008054338252603b6020526040909120805467ffffffff000000001916600160401b90920463ffffffff1664010000000002919091179055801561107857336000908152603b6020526040812054815463ffffffff9182169291601491611057918591600160a01b900416612953565b92506101000a81548163ffffffff021916908363ffffffff16021790555050565b336000908152603b6020526040812054815463ffffffff9182169291601891611057918591600160c01b900416612953565b50565b336000908152603b6020526040902054631dcd650063ffffffff90911610156110d557600080fd5b603d546040517f654e207f00000000000000000000000000000000000000000000000000000000815263ffffffff831660048201526001600160a01b039091169063654e207f90602401600060405180830381600087803b15801561113957600080fd5b505af115801561114d573d6000803e3d6000fd5b505060405163ffffffff841681527f0814d5d412c9e5c68d4adafd64c8d3d494e6ce7124cae6745a99b5af1c58ca79925060200190505b60405180910390a150565b600054640100000000900463ffffffff16156111ed5760405162461bcd60e51b815260206004820152601460248201527f416c726561647920756e6465722052657669657700000000000000000000000060448201526064016105df565b6000805467ffffffff00000000191664030000000017905561120d611b52565b61121a6019826020611fc5565b506000546040517fc3112836f9ee0a75d7eb745ceb3d24f881bd142a63d78420be0ed828947d69dc916111849163ffffffff80831692600160401b900416908590612a93565b6000610e106112726201518042612ae2565b61127c9190612af6565b905090565b6001816020811061129157600080fd5b60029182820401919006600c02915054906101000a90046bffffffffffffffffffffffff1681565b600081600881106112c957600080fd5b60089182820401919006600402915054906101000a900463ffffffff1681565b600054640100000000900463ffffffff16156113475760405162461bcd60e51b815260206004820152601460248201527f416c726561647920756e6465722052657669657700000000000000000000000060448201526064016105df565b6000805467ffffffff000000001916640200000000179055611367611b52565b61137081611d17565b61137e906011906020612058565b506000546040517f49b4bc9c053b4c36615642b3229d4b569c3357e92266aed739428f05c2b15407916111849163ffffffff80831692600160401b900416908590612b0a565b600054640100000000900463ffffffff16156114225760405162461bcd60e51b815260206004820152601460248201527f416c726561647920756e6465722052657669657700000000000000000000000060448201526064016105df565b61142c8282611e3c565b61143a9060019060206120ee565b506000805467ffffffff00000000191664010000000017905561145b611b52565b611468601a846020612190565b506000546040517f6530cb2e3260e20d52f3ae9c7966099ad3ddb5e2bedfd0fe4c0459c7245fae42916114ae9163ffffffff80831692600160401b900416908790612b59565b60405180910390a16000546040517f155123c2dd70f9f15fa563c0d47f5ba62d9dd1602a73d7ab36b33ca4cb2940c6916114fb9163ffffffff80831692600160401b900416908690612b0a565b60405180910390a16000546040517f49b4bc9c053b4c36615642b3229d4b569c3357e92266aed739428f05c2b15407916115489163ffffffff80831692600160401b900416908590612b0a565b60405180910390a1505050565b336000908152603b602052604090205463ffffffff90811690821611156115be5760405162461bcd60e51b815260206004820152600b60248201527f6e65656420746f6b656e7300000000000000000000000000000000000000000060448201526064016105df565b600054640100000000900463ffffffff161561161c5760405162461bcd60e51b815260206004820152601160248201527f6e6f20776420647572696e6720766f746500000000000000000000000000000060448201526064016105df565b336000908152603b6020526040812054815461164f9163ffffffff600160401b909104811691600160e01b900416612977565b336000908152603b602052604090205461166f919063ffffffff166129ce565b6116849063ffffffff1664e8d4a510006129f6565b60008054338252603b602052604082208054600160401b63ffffffff600160e01b9094048416026bffffffff000000000000000019909116179055815492935084926010916116ea91859170010000000000000000000000000000000090910416612977565b82546101009290920a63ffffffff818102199093169183160217909155336000908152603b602052604081208054869450909261172991859116612977565b92506101000a81548163ffffffff021916908363ffffffff160217905550336001600160a01b03166108fc829081150290604051600060405180830381858888f19350505050158015611780573d6000803e3d6000fd5b50603c546040517f8009748400000000000000000000000000000000000000000000000000000000815233600482015263ffffffff841660248201526001600160a01b03909116906380097484906044016020604051808303816000875af11580156117f0573d6000803e3d6000fd5b505050506040513d601f19601f820116820180604052508101906118149190612a13565b506040805163ffffffff841681526020810183905233918101919091527fcd8a5ece39d0b175e7e2ae6d276a5296bcd7da645b615b3d857b7fa2769db58390606001610c5c565b6011816020811061186b57600080fd5b60049182820401919006600802915054906101000a900467ffffffffffffffff1681565b60005463ffffffff640100000000909104166001146118f05760405162461bcd60e51b815260206004820152600a60248201527f77726f6e6720646174610000000000000000000000000000000000000000000060448201526064016105df565b6000546c01000000000000000000000000900463ffffffff1642116119425760405162461bcd60e51b81526020600482015260086024820152673a37b79039b7b7b760c11b60448201526064016105df565b60005463ffffffff600160c01b82048116600160a01b909204161115610e3957603d546040517f0c05cbb70000000000000000000000000000000000000000000000000000000081526001600160a01b0390911690630c05cbb790610d8490600190600401612b8b565b601a81602081106119bc57600080fd5b0180549091506119cb90612994565b80601f01602080910402602001604051908101604052809291908181526020018280546119f790612994565b8015611a445780601f10611a1957610100808354040283529160200191611a44565b820191906000526020600020905b815481529060010190602001808311611a2757829003601f168201915b505050505081565b6000805467ffffffff000000001916808255600160401b900463ffffffff16906008611a7783612bdd565b91906101000a81548163ffffffff021916908363ffffffff16021790555050600080600360088110611aab57611aab61261d565b600891828204019190066004026101000a81548163ffffffff021916908363ffffffff160217905550600080600560088110611ae957611ae961261d565b600891828204019190066004026101000a81548163ffffffff021916908363ffffffff160217905550600080600660088110611b2757611b2761261d565b600891828204019190066004026101000a81548163ffffffff021916908363ffffffff160217905550565b611b5a611260565b50336000908152603b6020526040902054603263ffffffff9091161015611bc35760405162461bcd60e51b815260206004820152600b60248201527f4c6f772042616c616e636500000000000000000000000000000000000000000060448201526064016105df565b611bcf61a8c042612953565b600080547fffffffffffffffffffffffffffffffff00000000ffffffffffffffffffffffff81166c0100000000000000000000000063ffffffff94851602908117835533808452603b6020526040842080548616600160a01b027fffffffffffffffff00000000ffffffff00000000ffffffffffffffffffffffff9094167fffffffffffffffff00000000ffffffffffffffffffffffffffffffffffffffff9093169290921792909217909255603a80547fffffffffffffffffffffffff0000000000000000000000000000000000000000169091179055546101f491161115611cdc57600080547fffffffffffffffffffffffffffffffff00000000ffffffffffffffffffffffff1690555b60008054338252603b6020526040909120805467ffffffff000000001916600160401b90920463ffffffff1664010000000002919091179055565b611d1f6121d5565b60008060005b6020811015611e3457607d858260208110611d4257611d4261261d565b602002015163ffffffff16118015611d775750611f40858260208110611d6a57611d6a61261d565b602002015163ffffffff16105b611d8057600080fd5b6029858260208110611d9457611d9461261d565b6020020151611da4906029612953565b611db190620f4240612930565b611dbb9190612977565b92506020858260208110611dd157611dd161261d565b602002015163ffffffff1667ffffffffffffffff16901b821791508263ffffffff168217915081848260208110611e0a57611e0a61261d565b67ffffffffffffffff90921660209290920201526000915080611e2c81612c00565b915050611d25565b505050919050565b611e446121d5565b60008060005b6020811015611f9457607d858260208110611e6757611e6761261d565b602002015163ffffffff16118015611e9c5750611f40858260208110611e8f57611e8f61261d565b602002015163ffffffff16105b611ea557600080fd5b6029858260208110611eb957611eb961261d565b6020020151611ec9906029612953565b611ed690620f4240612930565b611ee09190612977565b92506040868260208110611ef657611ef661261d565b602002015163ffffffff166bffffffffffffffffffffffff16901b821791506020858260208110611f2957611f2961261d565b602002015163ffffffff166bffffffffffffffffffffffff16901b821791508263ffffffff168217915081848260208110611f6657611f6661261d565b6bffffffffffffffffffffffff90921660209290920201526000915080611f8c81612c00565b915050611e4a565b50505092915050565b6040518061040001604052806020905b6060815260200190600190039081611fad5790505090565b6001830191839082156120485791602002820160005b8382111561201957835183826101000a81548160ff021916908360ff1602179055509260200192600101602081600001049283019260010302611fdb565b80156120465782816101000a81549060ff0219169055600101602081600001049283019260010302612019565b505b506120549291506121f4565b5090565b6008830191839082156120485791602002820160005b838211156120ba57835183826101000a81548167ffffffffffffffff021916908367ffffffffffffffff160217905550926020019260080160208160070104928301926001030261206e565b80156120465782816101000a81549067ffffffffffffffff02191690556008016020816007010492830192600103026120ba565b6010830191839082156120485791602002820160005b8382111561215857835183826101000a8154816bffffffffffffffffffffffff02191690836bffffffffffffffffffffffff1602179055509260200192600c01602081600b01049283019260010302612104565b80156120465782816101000a8154906bffffffffffffffffffffffff0219169055600c01602081600b01049283019260010302612158565b82602081019282156121c9579160200282015b828111156121c957825182906121b99082612c69565b50916020019190600101906121a3565b50612054929150612209565b6040518061040001604052806020906020820280368337509192915050565b5b8082111561205457600081556001016121f5565b8082111561205457600061221d8282612226565b50600101612209565b50805461223290612994565b6000825580601f10612242575050565b601f0160209004906000526020600020908101906110aa91906121f4565b60006020828403121561227257600080fd5b5035919050565b6000815180845260005b8181101561229f57602081850181015186830182015201612283565b506000602082860101526020601f19601f83011685010191505092915050565b60008261040081018360005b60208082106122da57506122fd565b84840388526122ea848451612279565b97810197935091909101906001016122cb565b509095945050505050565b60208152600061231b60208301846122bf565b9392505050565b63ffffffff811681146110aa57600080fd5b60006020828403121561234657600080fd5b813561231b81612322565b80151581146110aa57600080fd5b60006020828403121561237157600080fd5b813561231b81612351565b634e487b7160e01b600052604160045260246000fd5b604051610400810167ffffffffffffffff811182821017156123b6576123b661237c565b60405290565b604051601f8201601f1916810167ffffffffffffffff811182821017156123e5576123e561237c565b604052919050565b600061040080838503121561240157600080fd5b83601f84011261241057600080fd5b612418612392565b90830190808583111561242a57600080fd5b845b8381101561245457803560ff811681146124465760008081fd5b83526020928301920161242c565b5095945050505050565b600082601f83011261246f57600080fd5b612477612392565b8061040084018581111561248a57600080fd5b845b818110156122fd57803561249f81612322565b84526020938401930161248c565b600061040082840312156124c057600080fd5b61231b838361245e565b600080600061082084860312156124e057600080fd5b833567ffffffffffffffff808211156124f857600080fd5b8186019150601f878184011261250d57600080fd5b612515612392565b8061040085018a81111561252857600080fd5b855b818110156125b1578035868111156125425760008081fd5b87018581018d136125535760008081fd5b80356020888211156125675761256761237c565b61257881601f198a850116016123bc565b8281528f8284860101111561258d5760008081fd5b8282850183830137600092810182019290925290865294909401935060200161252a565b505080975050505050506125c8856020860161245e565b91506125d885610420860161245e565b90509250925092565b6000602082840312156125f357600080fd5b81356001600160a01b038116811461231b57600080fd5b60208152600061231b6020830184612279565b634e487b7160e01b600052603260045260246000fd5b61040081810190828460005b602080601f83011061265157506128c0565b825460ff8082168652600882901c811683870152604061267a818801838560101c1660ff169052565b606061268f818901848660181c1660ff169052565b60806126a3818a018587891c1660ff169052565b60a095506126ba868a01858760281c1660ff169052565b60c06126cf818b01868860301c1660ff169052565b60e06126e4818c01878960381c1660ff169052565b60ff87861c8716166101008c01526127076101208c01878960481c1660ff169052565b61271c6101408c01878960501c1660ff169052565b6127316101608c01878960581c1660ff169052565b60ff87851c8716166101808c01526127546101a08c01878960681c1660ff169052565b6127696101c08c01878960701c1660ff169052565b61277e6101e08c01878960781c1660ff169052565b60ff87841c8716166102008c01526127a16102208c01878960881c1660ff169052565b6127b66102408c01878960901c1660ff169052565b6127cb6102608c01878960981c1660ff169052565b60ff87891c8716166102808c01526127ee6102a08c01878960a81c1660ff169052565b6128036102c08c01878960b01c1660ff169052565b6128186102e08c01878960b81c1660ff169052565b60ff87831c8716166103008c015261283b6103208c01878960c81c1660ff169052565b6128506103408c01878960d01c1660ff169052565b6128656103608c01878960d81c1660ff169052565b60ff87821c8716166103808c0152505050505061288d6103a08701828460e81c1660ff169052565b6128a26103c08701828460f01c1660ff169052565b5060f81c6103e085015250918301916001919091019060200161263f565b5050505092915050565b600080604083850312156128dd57600080fd5b82516128e881612322565b60208401519092506128f981612322565b809150509250929050565b634e487b7160e01b600052601260045260246000fd5b634e487b7160e01b600052601160045260246000fd5b600063ffffffff8084168061294757612947612904565b92169190910492915050565b63ffffffff8181168382160190808211156129705761297061291a565b5092915050565b63ffffffff8281168282160390808211156129705761297061291a565b600181811c908216806129a857607f821691505b6020821081036129c857634e487b7160e01b600052602260045260246000fd5b50919050565b63ffffffff8181168382160280821691908281146129ee576129ee61291a565b505092915050565b8082028115828204841417612a0d57612a0d61291a565b92915050565b600060208284031215612a2557600080fd5b815161231b81612351565b6104008101818360005b6020806003830110612a4c5750611f94565b825467ffffffffffffffff8082168652604082811c821693870193909352608082811c9091169286019290925260c01c606085015290920191600190910190600401612a3a565b63ffffffff8481168252831660208083019190915261044082019060408301908460005b82811015612ad657815160ff1684529282019290820190600101612ab7565b50505050949350505050565b600082612af157612af1612904565b500690565b600082612b0557612b05612904565b500490565b60006104408201905063ffffffff8086168352602081861681850152604084018560005b83811015612b4c578151851683529183019190830190600101612b2e565b5050505050949350505050565b600063ffffffff808616835280851660208401525060606040830152612b8260608301846122bf565b95945050505050565b6104008101818360005b602060018181840110612ba9575050611f94565b83546bffffffffffffffffffffffff808216875260609190911c169185019190915260409093019290910190600201612b95565b600063ffffffff808316818103612bf657612bf661291a565b6001019392505050565b60006000198203612c1357612c1361291a565b5060010190565b601f821115612c6457600081815260208120601f850160051c81016020861015612c415750805b601f850160051c820191505b81811015612c6057828155600101612c4d565b5050505b505050565b815167ffffffffffffffff811115612c8357612c8361237c565b612c9781612c918454612994565b84612c1a565b602080601f831160018114612ccc5760008415612cb45750858301515b600019600386901b1c1916600185901b178555612c60565b600085815260208120601f198616915b82811015612cfb57888601518255948401946001909101908401612cdc565b5085821015612d195787850151600019600388901b60f8161c191681555b5050505050600190811b0190555056fea2646970667358221220dcfaebe69a7f1d5468182284ba0ad9d7ed4bd7b4cce84edd630830f002beb10c64736f6c63430008110033",
  "linkReferences": {},
  "deployedLinkReferences": {}
}