{
  "_format": "hh-sol-artifact-1",
  "contractName": "Oracle",
  "sourceName": "src/contracts/solidity/Oracle.sol",
  "abi": [
    {
      "inputs": [
        {
          "internalType": "address payable",
          "name": "bettingk",
          "type": "address"
        },
        {
          "internalType": "address",
          "name": "_token",
          "type": "address"
        }
      ],
      "stateMutability": "nonpayable",
      "type": "constructor"
    },
    {
      "anonymous": false,
      "inputs": [
        {
          "indexed": false,
          "internalType": "uint32",
          "name": "epoch",
          "type": "uint32"
        },
        {
          "indexed": false,
          "internalType": "uint32",
          "name": "propnum",
          "type": "uint32"
        },
        {
          "indexed": false,
          "internalType": "uint32[32]",
          "name": "oddsStart",
          "type": "uint32[32]"
        },
        {
          "indexed": false,
          "internalType": "address",
          "name": "proposer",
          "type": "address"
        }
      ],
      "name": "BetDataPosted",
      "type": "event"
    },
    {
      "anonymous": false,
      "inputs": [
        {
          "indexed": false,
          "internalType": "uint32",
          "name": "epoch",
          "type": "uint32"
        },
        {
          "indexed": false,
          "internalType": "uint32",
          "name": "propnum",
          "type": "uint32"
        },
        {
          "indexed": false,
          "internalType": "uint32[32]",
          "name": "decOdds",
          "type": "uint32[32]"
        },
        {
          "indexed": false,
          "internalType": "address",
          "name": "proposer",
          "type": "address"
        }
      ],
      "name": "DecOddsPosted",
      "type": "event"
    },
    {
      "anonymous": false,
      "inputs": [
        {
          "indexed": false,
          "internalType": "uint32",
          "name": "tokensChange",
          "type": "uint32"
        },
        {
          "indexed": false,
          "internalType": "uint256",
          "name": "etherChange",
          "type": "uint256"
        },
        {
          "indexed": false,
          "internalType": "address",
          "name": "transactor",
          "type": "address"
        }
      ],
      "name": "Funding",
      "type": "event"
    },
    {
      "anonymous": false,
      "inputs": [
        {
          "indexed": false,
          "internalType": "uint32",
          "name": "concLimit",
          "type": "uint32"
        },
        {
          "indexed": false,
          "internalType": "uint32",
          "name": "epoch",
          "type": "uint32"
        },
        {
          "indexed": false,
          "internalType": "address",
          "name": "proposer",
          "type": "address"
        }
      ],
      "name": "ParamsPosted",
      "type": "event"
    },
    {
      "anonymous": false,
      "inputs": [
        {
          "indexed": false,
          "internalType": "uint32",
          "name": "epoch",
          "type": "uint32"
        },
        {
          "indexed": false,
          "internalType": "uint32",
          "name": "propnum",
          "type": "uint32"
        },
        {
          "indexed": false,
          "internalType": "uint8[32]",
          "name": "winner",
          "type": "uint8[32]"
        },
        {
          "indexed": false,
          "internalType": "address",
          "name": "proposer",
          "type": "address"
        }
      ],
      "name": "ResultsPosted",
      "type": "event"
    },
    {
      "anonymous": false,
      "inputs": [
        {
          "indexed": false,
          "internalType": "uint32",
          "name": "epoch",
          "type": "uint32"
        },
        {
          "indexed": false,
          "internalType": "uint32",
          "name": "propnum",
          "type": "uint32"
        },
        {
          "indexed": false,
          "internalType": "string[32]",
          "name": "sched",
          "type": "string[32]"
        },
        {
          "indexed": false,
          "internalType": "address",
          "name": "proposer",
          "type": "address"
        }
      ],
      "name": "SchedulePosted",
      "type": "event"
    },
    {
      "anonymous": false,
      "inputs": [
        {
          "indexed": false,
          "internalType": "uint32",
          "name": "propnum",
          "type": "uint32"
        },
        {
          "indexed": false,
          "internalType": "uint32",
          "name": "epoch",
          "type": "uint32"
        },
        {
          "indexed": false,
          "internalType": "uint32[32]",
          "name": "starttimes",
          "type": "uint32[32]"
        },
        {
          "indexed": false,
          "internalType": "address",
          "name": "proposer",
          "type": "address"
        }
      ],
      "name": "StartTimesPosted",
      "type": "event"
    },
    {
      "anonymous": false,
      "inputs": [
        {
          "indexed": false,
          "internalType": "bool",
          "name": "voteResult",
          "type": "bool"
        },
        {
          "indexed": false,
          "internalType": "uint32",
          "name": "propnum",
          "type": "uint32"
        },
        {
          "indexed": false,
          "internalType": "uint32",
          "name": "epoch",
          "type": "uint32"
        },
        {
          "indexed": false,
          "internalType": "address",
          "name": "proposer",
          "type": "address"
        }
      ],
      "name": "VoteOutcome",
      "type": "event"
    },
    {
      "inputs": [],
      "name": "CURE_TIME",
      "outputs": [
        {
          "internalType": "uint32",
          "name": "",
          "type": "uint32"
        }
      ],
      "stateMutability": "view",
      "type": "function"
    },
    {
      "inputs": [],
      "name": "HOUR_START",
      "outputs": [
        {
          "internalType": "uint32",
          "name": "",
          "type": "uint32"
        }
      ],
      "stateMutability": "view",
      "type": "function"
    },
    {
      "inputs": [],
      "name": "MIN_SUBMIT",
      "outputs": [
        {
          "internalType": "uint32",
          "name": "",
          "type": "uint32"
        }
      ],
      "stateMutability": "view",
      "type": "function"
    },
    {
      "inputs": [
        {
          "internalType": "address",
          "name": "",
          "type": "address"
        }
      ],
      "name": "adminStruct",
      "outputs": [
        {
          "internalType": "uint32",
          "name": "tokens",
          "type": "uint32"
        },
        {
          "internalType": "uint32",
          "name": "voteTracker",
          "type": "uint32"
        },
        {
          "internalType": "uint32",
          "name": "initFeePool",
          "type": "uint32"
        }
      ],
      "stateMutability": "view",
      "type": "function"
    },
    {
      "inputs": [],
      "name": "bettingContract",
      "outputs": [
        {
          "internalType": "contract Betting",
          "name": "",
          "type": "address"
        }
      ],
      "stateMutability": "view",
      "type": "function"
    },
    {
      "inputs": [
        {
          "internalType": "uint32",
          "name": "_amt",
          "type": "uint32"
        }
      ],
      "name": "depositTokens",
      "outputs": [],
      "stateMutability": "nonpayable",
      "type": "function"
    },
    {
      "inputs": [],
      "name": "hourOfDay",
      "outputs": [
        {
          "internalType": "uint256",
          "name": "hour1",
          "type": "uint256"
        }
      ],
      "stateMutability": "view",
      "type": "function"
    },
    {
      "inputs": [
        {
          "internalType": "string[32]",
          "name": "_teamsched",
          "type": "string[32]"
        },
        {
          "internalType": "uint32[32]",
          "name": "_starts",
          "type": "uint32[32]"
        },
        {
          "internalType": "uint32[32]",
          "name": "_decimalOdds",
          "type": "uint32[32]"
        }
      ],
      "name": "initPost",
      "outputs": [],
      "stateMutability": "nonpayable",
      "type": "function"
    },
    {
      "inputs": [],
      "name": "initProcess",
      "outputs": [],
      "stateMutability": "nonpayable",
      "type": "function"
    },
    {
      "inputs": [
        {
          "internalType": "uint256",
          "name": "",
          "type": "uint256"
        }
      ],
      "name": "matchSchedule",
      "outputs": [
        {
          "internalType": "string",
          "name": "",
          "type": "string"
        }
      ],
      "stateMutability": "view",
      "type": "function"
    },
    {
      "inputs": [
        {
          "internalType": "uint32",
          "name": "_concentrationLim",
          "type": "uint32"
        }
      ],
      "name": "paramUpdate",
      "outputs": [],
      "stateMutability": "nonpayable",
      "type": "function"
    },
    {
      "inputs": [
        {
          "internalType": "uint256",
          "name": "",
          "type": "uint256"
        }
      ],
      "name": "params",
      "outputs": [
        {
          "internalType": "uint32",
          "name": "",
          "type": "uint32"
        }
      ],
      "stateMutability": "view",
      "type": "function"
    },
    {
      "inputs": [
        {
          "internalType": "uint256",
          "name": "",
          "type": "uint256"
        }
      ],
      "name": "propOddsStarts",
      "outputs": [
        {
          "internalType": "uint96",
          "name": "",
          "type": "uint96"
        }
      ],
      "stateMutability": "view",
      "type": "function"
    },
    {
      "inputs": [
        {
          "internalType": "uint256",
          "name": "",
          "type": "uint256"
        }
      ],
      "name": "propOddsUpdate",
      "outputs": [
        {
          "internalType": "uint64",
          "name": "",
          "type": "uint64"
        }
      ],
      "stateMutability": "view",
      "type": "function"
    },
    {
      "inputs": [
        {
          "internalType": "uint256",
          "name": "",
          "type": "uint256"
        }
      ],
      "name": "propResults",
      "outputs": [
        {
          "internalType": "uint8",
          "name": "",
          "type": "uint8"
        }
      ],
      "stateMutability": "view",
      "type": "function"
    },
    {
      "inputs": [],
      "name": "proposer",
      "outputs": [
        {
          "internalType": "address",
          "name": "",
          "type": "address"
        }
      ],
      "stateMutability": "view",
      "type": "function"
    },
    {
      "inputs": [
        {
          "internalType": "uint8[32]",
          "name": "_resultVector",
          "type": "uint8[32]"
        }
      ],
      "name": "settlePost",
      "outputs": [],
      "stateMutability": "nonpayable",
      "type": "function"
    },
    {
      "inputs": [],
      "name": "settleProcess",
      "outputs": [],
      "stateMutability": "nonpayable",
      "type": "function"
    },
    {
      "inputs": [],
      "name": "showSchedString",
      "outputs": [
        {
          "internalType": "string[32]",
          "name": "",
          "type": "string[32]"
        }
      ],
      "stateMutability": "view",
      "type": "function"
    },
    {
      "inputs": [],
      "name": "token",
      "outputs": [
        {
          "internalType": "contract Token",
          "name": "",
          "type": "address"
        }
      ],
      "stateMutability": "view",
      "type": "function"
    },
    {
      "inputs": [
        {
          "internalType": "uint32[32]",
          "name": "_decimalOdds",
          "type": "uint32[32]"
        }
      ],
      "name": "updatePost",
      "outputs": [],
      "stateMutability": "nonpayable",
      "type": "function"
    },
    {
      "inputs": [],
      "name": "updateProcess",
      "outputs": [],
      "stateMutability": "nonpayable",
      "type": "function"
    },
    {
      "inputs": [
        {
          "internalType": "bool",
          "name": "_sendData",
          "type": "bool"
        }
      ],
      "name": "vote",
      "outputs": [],
      "stateMutability": "nonpayable",
      "type": "function"
    },
    {
      "inputs": [
        {
          "internalType": "uint32",
          "name": "_amtTokens",
          "type": "uint32"
        }
      ],
      "name": "withdrawTokens",
      "outputs": [],
      "stateMutability": "nonpayable",
      "type": "function"
    },
    {
      "stateMutability": "payable",
      "type": "receive"
    }
  ],
  "bytecode": "0x60806040523480156200001157600080fd5b5060405162002bec38038062002bec8339810160408190526200003491620000a9565b603d80546001600160a01b039384166001600160a01b031991821617909155603c8054929093169116179055600080546801000000000000000063ffffffff60601b199091166f773594000000000000000000000000001763ffffffff191660011763ffffffff60401b191617905562000100565b60008060408385031215620000bc578182fd5b8251620000c981620000e7565b6020840151909250620000dc81620000e7565b809150509250929050565b6001600160a01b0381168114620000fd57600080fd5b50565b612adc80620001106000396000f3fe60806040526004361061014f5760003560e01c80639d2f053c116100b6578063c68ec6451161006f578063c68ec6451461039c578063d3322374146103cb578063e2a9fc3f146103e0578063e966f49f1461040d578063f1ed3b3914610422578063fc0c546a1461044f57610156565b80639d2f053c146102f25780639d73f0a6146103125780639e6df0d814610332578063a8e4fb9014610347578063bd64f10f1461035c578063c37ac23b1461037c57610156565b80634b9f5c98116101085780634b9f5c981461022157806350abb018146102415780635d85579d146102615780637345b10b14610281578063862a7982146102a357806391e04f7e146102c557610156565b806303ecacc71461015b5780630a491d0814610191578063160919bf146101a857806321cb4831146101ca57806347dee228146101ec5780634a1247ae1461020c57610156565b3661015657005b600080fd5b34801561016757600080fd5b5061017b6101763660046120ac565b610464565b6040516101889190612845565b60405180910390f35b34801561019d57600080fd5b506101a661048e565b005b3480156101b457600080fd5b506101bd6106ce565b6040516101889190612204565b3480156101d657600080fd5b506101df610796565b60405161018891906121a8565b3480156101f857600080fd5b506101a66102073660046120c4565b6107a5565b34801561021857600080fd5b506101a66109ef565b34801561022d57600080fd5b506101a661023c366004612074565b610b92565b34801561024d57600080fd5b506101a661025c3660046120c4565b610ce6565b34801561026d57600080fd5b506101a661027c366004611fde565b610de8565b34801561028d57600080fd5b50610296610e8a565b60405161018891906126a4565b3480156102af57600080fd5b506102b8610eb8565b60405161018891906126ad565b3480156102d157600080fd5b506102e56102e03660046120ac565b610ebd565b6040516101889190612853565b3480156102fe57600080fd5b506102b861030d3660046120ac565b610ef0565b34801561031e57600080fd5b506101a661032d366004611fc2565b610f20565b34801561033e57600080fd5b506102b8610fcc565b34801561035357600080fd5b506101df610fd1565b34801561036857600080fd5b506101a6610377366004611eca565b610fe0565b34801561038857600080fd5b506101a66103973660046120c4565b611145565b3480156103a857600080fd5b506103bc6103b7366004611e9c565b6113b6565b60405161018893929190612811565b3480156103d757600080fd5b506102b86113e4565b3480156103ec57600080fd5b506104006103fb3660046120ac565b6113ea565b6040516101889190612831565b34801561041957600080fd5b506101a661141d565b34801561042e57600080fd5b5061044261043d3660046120ac565b6114cc565b604051610188919061258a565b34801561045b57600080fd5b506101df61156c565b6019816020811061047457600080fd5b60209182820401919006915054906101000a900460ff1681565b600054600160201b900463ffffffff166003146104c65760405162461bcd60e51b81526004016104bd90612680565b60405180910390fd5b600054600160601b900463ffffffff1642116104f45760405162461bcd60e51b81526004016104bd90612605565b60008054819063ffffffff600160c01b82048116600160a01b90920416111561068357603d54604051630309be6560e21b81526001600160a01b0390911690630c26f9949061054890601990600401612279565b6040805180830381600087803b15801561056157600080fd5b505af1158015610575573d6000803e3d6000fd5b505050506040513d601f19601f8201168201806040525081019061059991906120e0565b6000805463ffffffff191663ffffffff84811691909117918290559194509192506105cc91600160801b900416836128ec565b60008054601c906105eb908490600160e01b900463ffffffff166128b0565b92506101000a81548163ffffffff021916908363ffffffff160217905550600080516020612a8783398151915260016000806008811061063b57634e487b7160e01b600052603260045260246000fd5b60088104919091015460005460405161067694936007166004026101000a90920463ffffffff90811692600160401b9092041690339061255d565b60405180910390a16106c2565b60008054604051600080516020612a87833981519152926106b992909163ffffffff80831692600160401b90041690339061255d565b60405180910390a15b6106ca61157b565b5050565b6106d6611aeb565b604080516104008101909152601a60206000835b8282101561078d57838201805461070090612996565b80601f016020809104026020016040519081016040528092919081815260200182805461072c90612996565b80156107795780601f1061074e57610100808354040283529160200191610779565b820191906000526020600020905b81548152906001019060200180831161075c57829003601f168201915b5050505050815260200190600101906106ea565b50505050905090565b603d546001600160a01b031681565b336000908152603b602052604081205463ffffffff161561085a57336000908152603b602052604081205490546107f39163ffffffff600160401b909104811691600160e01b900416612971565b336000908152603b6020526040902054610813919063ffffffff1661292e565b6108289063ffffffff1664e8d4a5100061290f565b604051909150339082156108fc029083906000818181858888f19350505050158015610858573d6000803e3d6000fd5b505b603c546040516384269ed960e01b81526001600160a01b03909116906384269ed99061088e903390309087906004016121bc565b602060405180830381600087803b1580156108a857600080fd5b505af11580156108bc573d6000803e3d6000fd5b505050506040513d601f19601f820116820180604052508101906108e09190612090565b5060008054338252603b602052604082208054600160401b63ffffffff600160e01b90940484160263ffffffff60401b199091161780825585939192610928918591166128b0565b92506101000a81548163ffffffff021916908363ffffffff16021790555081600060046008811061096957634e487b7160e01b600052603260045260246000fd5b600891828204019190066004028282829054906101000a900463ffffffff1661099291906128b0565b92506101000a81548163ffffffff021916908363ffffffff1602179055507fcd8a5ece39d0b175e7e2ae6d276a5296bcd7da645b615b3d857b7fa2769db5838282336040516109e3939291906126be565b60405180910390a15050565b600054600160201b900463ffffffff16600214610a1e5760405162461bcd60e51b81526004016104bd90612680565b600054600160601b900463ffffffff164211610a4c5760405162461bcd60e51b81526004016104bd90612605565b60005463ffffffff600160c01b82048116600160a01b909204161115610b4957603d54604051636c59757960e01b81526001600160a01b0390911690636c59757990610a9d90601190600401612217565b600060405180830381600087803b158015610ab757600080fd5b505af1158015610acb573d6000803e3d6000fd5b50505050600080516020612a87833981519152600160008060088110610b0157634e487b7160e01b600052603260045260246000fd5b600881049190910154600054604051610b3c94936007166004026101000a90920463ffffffff90811692600160401b9092041690339061255d565b60405180910390a1610b88565b60008054604051600080516020612a8783398151915292610b7f92909163ffffffff80831692600160401b90041690339061255d565b60405180910390a15b610b9061157b565b565b336000908152603b602052604090205463ffffffff16610bb157600080fd5b600054600160201b900463ffffffff16610bca57600080fd5b60008054338252603b602052604090912054600160201b900463ffffffff908116600160401b909204161415610bff57600080fd5b60008054338252603b6020526040909120805467ffffffff000000001916600160401b90920463ffffffff16600160201b029190911790558015610c9257336000908152603b6020526040812054815463ffffffff9182169291601491610c6f918591600160a01b9004166128b0565b92506101000a81548163ffffffff021916908363ffffffff160217905550610ce3565b336000908152603b6020526040812054815463ffffffff9182169291601891610cc4918591600160c01b9004166128b0565b92506101000a81548163ffffffff021916908363ffffffff1602179055505b50565b336000908152603b60205260409020546101f463ffffffff9091161015610d0c57600080fd5b603d5460405163654e207f60e01b81526001600160a01b039091169063654e207f90610d3c9084906004016126ad565b600060405180830381600087803b158015610d5657600080fd5b505af1158015610d6a573d6000803e3d6000fd5b505050507f9bf9a2f240ec17a6eb5c9cb9615fbbc3806cead8abd03b59a62c91012af907068160008060088110610db157634e487b7160e01b600052603260045260246000fd5b600891828204019190066004029054906101000a900463ffffffff1633604051610ddd939291906126e5565b60405180910390a150565b600054600160201b900463ffffffff1615610e155760405162461bcd60e51b81526004016104bd90612627565b6000805467ffffffff000000001916640300000000179055610e356116bb565b610e426019826020611b13565b506000546040517f8a15fb8b2d408dc0d92ad23659aeb284937acac93d443a690a08c891764cba8791610ddd9163ffffffff80831692600160401b90041690859033906127af565b6000610e1062015180610e9f611db04261295a565b610ea99190612a10565b610eb391906128d8565b905090565b603281565b60018160208110610ecd57600080fd5b60029182820401919006600c02915054906101000a90046001600160601b031681565b60008160088110610f0057600080fd5b60089182820401919006600402915054906101000a900463ffffffff1681565b600054600160201b900463ffffffff1615610f4d5760405162461bcd60e51b81526004016104bd90612627565b6000805467ffffffff000000001916640200000000179055610f6d6116bb565b610f76816117dc565b610f84906011906020611ba6565b506000546040517f7358bf582f4bb7564bc563cff06c0debd526544e29b6a7bf68e45642327830f791610ddd9163ffffffff80831692600160401b9004169085903390612750565b600081565b603a546001600160a01b031681565b600054600160201b900463ffffffff161561100d5760405162461bcd60e51b81526004016104bd90612627565b6110178282611945565b611025906001906020611c39565b506000805467ffffffff000000001916600160201b1790556110456116bb565b611052601a846020611ccc565b506000546040517f86a3b49c8d4c7bda56245d74c7e627f2752a3756ec8f1d068f5ee5da91e2d44f9161109a9163ffffffff80831692600160401b900416908790339061270e565b60405180910390a16000546040517fecf78242293aa26fa234f91541001e7dcd576dffb6d94494068fb592d9d60e26916110e99163ffffffff80831692600160401b9004169086903390612750565b60405180910390a16000546040517f7358bf582f4bb7564bc563cff06c0debd526544e29b6a7bf68e45642327830f7916111389163ffffffff80831692600160401b9004169085903390612750565b60405180910390a1505050565b336000908152603b602052604090205463ffffffff908116908216111561117e5760405162461bcd60e51b81526004016104bd906125e0565b600054600160201b900463ffffffff16156111ab5760405162461bcd60e51b81526004016104bd90612655565b336000908152603b602052604081205481546111de9163ffffffff600160401b909104811691600160e01b900416612971565b336000908152603b60205260409020546111fe919063ffffffff1661292e565b6112139063ffffffff1664e8d4a5100061290f565b60008054338252603b602052604082208054600160401b63ffffffff600160e01b90940484160263ffffffff60401b1990911617905581549293508492601091611267918591600160801b90910416612971565b82546101009290920a63ffffffff818102199093169183160217909155336000908152603b60205260408120805486945090926112a691859116612971565b92506101000a81548163ffffffff021916908363ffffffff160217905550336001600160a01b03166108fc829081150290604051600060405180830381858888f193505050501580156112fd573d6000803e3d6000fd5b50603c546040516320025d2160e21b81526001600160a01b039091169063800974849061133090339086906004016121e5565b602060405180830381600087803b15801561134a57600080fd5b505af115801561135e573d6000803e3d6000fd5b505050506040513d601f19601f820116820180604052508101906113829190612090565b507fcd8a5ece39d0b175e7e2ae6d276a5296bcd7da645b615b3d857b7fa2769db5838282336040516109e3939291906126be565b603b6020526000908152604090205463ffffffff80821691600160201b8104821691600160401b9091041683565b61465081565b601181602081106113fa57600080fd5b60049182820401919006600802915054906101000a90046001600160401b031681565b60005463ffffffff600160201b9091041660011461144d5760405162461bcd60e51b81526004016104bd90612680565b600054600160601b900463ffffffff16421161147b5760405162461bcd60e51b81526004016104bd90612605565b60005463ffffffff600160c01b82048116600160a01b909204161115610b4957603d54604051630c05cbb760e01b81526001600160a01b0390911690630c05cbb790610a9d90600190600401612510565b601a81602081106114dc57600080fd5b0180549091506114eb90612996565b80601f016020809104026020016040519081016040528092919081815260200182805461151790612996565b80156115645780601f1061153957610100808354040283529160200191611564565b820191906000526020600020905b81548152906001019060200180831161154757829003601f168201915b505050505081565b603c546001600160a01b031681565b603a80546001600160a01b03191690556000805467ffffffff000000001916808255600160401b900463ffffffff169060086115b6836129ec565b91906101000a81548163ffffffff021916908363ffffffff160217905550506000806003600881106115f857634e487b7160e01b600052603260045260246000fd5b600891828204019190066004026101000a81548163ffffffff021916908363ffffffff16021790555060008060056008811061164457634e487b7160e01b600052603260045260246000fd5b600891828204019190066004026101000a81548163ffffffff021916908363ffffffff16021790555060008060066008811061169057634e487b7160e01b600052603260045260246000fd5b600891828204019190066004026101000a81548163ffffffff021916908363ffffffff160217905550565b60006116c5610e8a565b10156116e35760405162461bcd60e51b81526004016104bd906125c2565b336000908152603b6020526040902054603263ffffffff909116101561171b5760405162461bcd60e51b81526004016104bd9061259d565b611727614650426128b0565b6000805463ffffffff60601b1916600160601b63ffffffff9384160217808255338252603b60205260408220805463ffffffff60a01b19909216918416600160a01b0291909117909155546101f49116111561178e576000805463ffffffff60601b191690555b6000805433808352603b6020526040909220805467ffffffff000000001916600160401b90920463ffffffff16600160201b02919091179055603a80546001600160a01b0319169091179055565b6117e4611d18565b60008060005b602081101561193d57606485826020811061181557634e487b7160e01b600052603260045260246000fd5b602002015163ffffffff16118015611858575061270f85826020811061184b57634e487b7160e01b600052603260045260246000fd5b602002015163ffffffff16105b61186157600080fd5b602985826020811061188357634e487b7160e01b600052603260045260246000fd5b60200201516118939060296128b0565b6118a090620f42406128ec565b6118aa9190612971565b925060208582602081106118ce57634e487b7160e01b600052603260045260246000fd5b602002015163ffffffff166001600160401b0316901b821791508263ffffffff16821791508184826020811061191457634e487b7160e01b600052603260045260246000fd5b6001600160401b0390921660209290920201526000915080611935816129d1565b9150506117ea565b505050919050565b61194d611d18565b60008060005b6020811015611ae257606485826020811061197e57634e487b7160e01b600052603260045260246000fd5b602002015163ffffffff161180156119c1575061270f8582602081106119b457634e487b7160e01b600052603260045260246000fd5b602002015163ffffffff16105b6119ca57600080fd5b60298582602081106119ec57634e487b7160e01b600052603260045260246000fd5b60200201516119fc9060296128b0565b611a0990620f42406128ec565b611a139190612971565b92506040868260208110611a3757634e487b7160e01b600052603260045260246000fd5b602002015163ffffffff166001600160601b0316901b821791506020858260208110611a7357634e487b7160e01b600052603260045260246000fd5b602002015163ffffffff166001600160601b0316901b821791508263ffffffff168217915081848260208110611ab957634e487b7160e01b600052603260045260246000fd5b6001600160601b0390921660209290920201526000915080611ada816129d1565b915050611953565b50505092915050565b6040518061040001604052806020905b6060815260200190600190039081611afb5790505090565b600183019183908215611b965791602002820160005b83821115611b6757835183826101000a81548160ff021916908360ff1602179055509260200192600101602081600001049283019260010302611b29565b8015611b945782816101000a81549060ff0219169055600101602081600001049283019260010302611b67565b505b50611ba2929150611d37565b5090565b600883019183908215611b965791602002820160005b83821115611c0657835183826101000a8154816001600160401b0302191690836001600160401b031602179055509260200192600801602081600701049283019260010302611bbc565b8015611b945782816101000a8154906001600160401b030219169055600801602081600701049283019260010302611c06565b601083019183908215611b965791602002820160005b83821115611c9957835183826101000a8154816001600160601b0302191690836001600160601b031602179055509260200192600c01602081600b01049283019260010302611c4f565b8015611b945782816101000a8154906001600160601b030219169055600c01602081600b01049283019260010302611c99565b8260208101928215611d0c579160200282015b82811115611d0c5782518051611cfc918491602090910190611d4c565b5091602001919060010190611cdf565b50611ba2929150611dc0565b6040518061040001604052806020906020820280368337509192915050565b5b80821115611ba25760008155600101611d38565b828054611d5890612996565b90600052602060002090601f016020900481019282611d7a5760008555611b96565b82601f10611d9357805160ff1916838001178555611b96565b82800160010185558215611b96579182015b82811115611b96578251825591602001919060010190611da5565b80821115611ba2576000611dd48282611ddd565b50600101611dc0565b508054611de990612996565b6000825580601f10611dfb5750610ce3565b601f016020900490600052602060002090810190610ce39190611d37565b600082601f830112611e29578081fd5b6040516104008082018281106001600160401b0382111715611e4d57611e4d612a50565b6040528184828101871015611e60578485fd5b8492505b6020808410611e735750611e91565b8135611e7e81612a74565b8352600193909301929182019101611e64565b509195945050505050565b600060208284031215611ead578081fd5b81356001600160a01b0381168114611ec3578182fd5b9392505050565b60008060006108208486031215611edf578182fd5b83356001600160401b0380821115611ef5578384fd5b8186019150601f8781840112611f09578485fd5b6020611f1c611f1782612890565b612867565b8085885b84811015611f9257813588018d87820112611f39578a8bfd5b803588811115611f4b57611f4b612a50565b611f5c818901601f19168801612867565b8181528f88838501011115611f6f578c8dfd5b818884018983013790810187018c90528552509284019290840190600101611f20565b50508098505050611fa589828a01611e19565b955050505050611fb9856104208601611e19565b90509250925092565b60006104008284031215611fd4578081fd5b611ec38383611e19565b6000610400808385031215611ff1578182fd5b83601f840112611fff578182fd5b6040518181018181106001600160401b038211171561202057612020612a50565b6040528084838101871015612033578485fd5b8493505b60208085106120465750612069565b813560ff81168114612056578687fd5b8352600194909401939182019101612037565b509095945050505050565b600060208284031215612085578081fd5b8135611ec381612a66565b6000602082840312156120a1578081fd5b8151611ec381612a66565b6000602082840312156120bd578081fd5b5035919050565b6000602082840312156120d5578081fd5b8135611ec381612a74565b600080604083850312156120f2578182fd5b82516120fd81612a74565b602084015190925061210e81612a74565b809150509250929050565b600082610400810183835b60208082106121335750612069565b8484038852612143848451612156565b9781019793509190910190600101612124565b60008151808452815b8181101561217b5760208185018101518683018201520161215f565b8181111561218c5782602083870101525b50601f01601f19169290920160200192915050565b60ff169052565b6001600160a01b0391909116815260200190565b6001600160a01b03938416815291909216602082015263ffffffff909116604082015260600190565b6001600160a01b0392909216825263ffffffff16602082015260400190565b600060208252611ec36020830184612119565b6104008101818360005b60208060038301106122335750611ae2565b82546001600160401b038082168652604082811c821693870193909352608082811c9091169286019290925260c01c606085015290920191600190910190600401612221565b61040081810190828460005b602080601f8301106122975750612506565b825460ff6122a7868284166121a1565b6122b8838701828460081c166121a1565b60406122cb818801838560101c166121a1565b60606122de818901848660181c166121a1565b60806122f0818a018587891c166121a1565b60a09550612305868a01858760281c166121a1565b60c0612318818b01868860301c166121a1565b60e061232b818c01878960381c166121a1565b61233d6101008c018789881c166121a1565b6123506101208c01878960481c166121a1565b6123636101408c01878960501c166121a1565b6123766101608c01878960581c166121a1565b6123886101808c018789871c166121a1565b61239b6101a08c01878960681c166121a1565b6123ae6101c08c01878960701c166121a1565b6123c16101e08c01878960781c166121a1565b6123d36102008c018789861c166121a1565b6123e66102208c01878960881c166121a1565b6123f96102408c01878960901c166121a1565b61240c6102608c01878960981c166121a1565b61241e6102808c0187898b1c166121a1565b6124316102a08c01878960a81c166121a1565b6124446102c08c01878960b01c166121a1565b6124576102e08c01878960b81c166121a1565b6124696103008c018789851c166121a1565b61247c6103208c01878960c81c166121a1565b61248f6103408c01878960d01c166121a1565b6124a26103608c01878960d81c166121a1565b6124b46103808c018789841c166121a1565b50505050506124cc6103a08701828460e81c166121a1565b6124df6103c08701828460f01c166121a1565b506124f16103e086018260f81c6121a1565b50509183019160019190910190602001612285565b5050505092915050565b6104008101818360005b60206001818184011061252e575050611ae2565b83546001600160601b03808216875260609190911c16918501919091526040909301929091019060020161251a565b931515845263ffffffff9283166020850152911660408301526001600160a01b0316606082015260800190565b600060208252611ec36020830184612156565b6020808252600b908201526a4c6f772042616c616e636560a81b604082015260600190565b6020808252600490820152633437bab960e11b604082015260600190565b6020808252600b908201526a6e65656420746f6b656e7360a81b604082015260600190565b6020808252600890820152673a37b79039b7b7b760c11b604082015260600190565b602080825260149082015273416c726561647920756e6465722052657669657760601b604082015260600190565b6020808252601190820152706e6f20776420647572696e6720766f746560781b604082015260600190565b6020808252600a908201526977726f6e67206461746160b01b604082015260600190565b90815260200190565b63ffffffff91909116815260200190565b63ffffffff93909316835260208301919091526001600160a01b0316604082015260600190565b63ffffffff93841681529190921660208201526001600160a01b03909116604082015260600190565b600063ffffffff8087168352808616602084015250608060408301526127376080830185612119565b905060018060a01b038316606083015295945050505050565b60006104608201905063ffffffff8087168352602081871681850152604084018660005b83811015612792578151851683529183019190830190600101612774565b505050505060018060a01b03831661044083015295945050505050565b63ffffffff8581168252841660208083019190915261046082019060408301908560005b828110156127f257815160ff16845292820192908201906001016127d3565b505050506001600160a01b039290921661044091909101529392505050565b63ffffffff93841681529183166020830152909116604082015260600190565b6001600160401b0391909116815260200190565b60ff91909116815260200190565b6001600160601b0391909116815260200190565b6040518181016001600160401b038111828210171561288857612888612a50565b604052919050565b60006001600160401b038211156128a9576128a9612a50565b5060200290565b600063ffffffff8083168185168083038211156128cf576128cf612a24565b01949350505050565b6000826128e7576128e7612a3a565b500490565b600063ffffffff8084168061290357612903612a3a565b92169190910492915050565b600081600019048311821515161561292957612929612a24565b500290565b600063ffffffff8083168185168183048111821515161561295157612951612a24565b02949350505050565b60008282101561296c5761296c612a24565b500390565b600063ffffffff8381169083168181101561298e5761298e612a24565b039392505050565b6002810460018216806129aa57607f821691505b602082108114156129cb57634e487b7160e01b600052602260045260246000fd5b50919050565b60006000198214156129e5576129e5612a24565b5060010190565b600063ffffffff80831681811415612a0657612a06612a24565b6001019392505050565b600082612a1f57612a1f612a3a565b500690565b634e487b7160e01b600052601160045260246000fd5b634e487b7160e01b600052601260045260246000fd5b634e487b7160e01b600052604160045260246000fd5b8015158114610ce357600080fd5b63ffffffff81168114610ce357600080fdfe5a37f5f4e38b2734bb53f9ef8fd305df0fbe07934a553b15fea567af49b5c4c2a2646970667358221220b7c016205f3ffb7f2b89b9749e51cf85979071110e76e1c92fa03b5f717f90e264736f6c63430008000033",
  "linkReferences": {},
  "deployedLinkReferences": {}
}