{
  "_format": "hh-sol-artifact-1",
  "contractName": "Oracle",
  "sourceName": "src/contracts/solidity/Oracle.sol",
  "abi": [
    {
      "inputs": [
        {
          "internalType": "address payable",
          "name": "bettingk",
          "type": "address"
        },
        {
          "internalType": "address",
          "name": "_token",
          "type": "address"
        }
      ],
      "stateMutability": "nonpayable",
      "type": "constructor"
    },
    {
      "anonymous": false,
      "inputs": [
        {
          "indexed": false,
          "internalType": "uint32",
          "name": "epoch",
          "type": "uint32"
        },
        {
          "indexed": false,
          "internalType": "uint32",
          "name": "propnum",
          "type": "uint32"
        },
        {
          "indexed": false,
          "internalType": "uint32[32]",
          "name": "oddsStart",
          "type": "uint32[32]"
        },
        {
          "indexed": false,
          "internalType": "address",
          "name": "proposer",
          "type": "address"
        }
      ],
      "name": "BetDataPosted",
      "type": "event"
    },
    {
      "anonymous": false,
      "inputs": [
        {
          "indexed": false,
          "internalType": "uint32",
          "name": "epoch",
          "type": "uint32"
        },
        {
          "indexed": false,
          "internalType": "uint32",
          "name": "propnum",
          "type": "uint32"
        },
        {
          "indexed": false,
          "internalType": "uint32[32]",
          "name": "decOdds",
          "type": "uint32[32]"
        },
        {
          "indexed": false,
          "internalType": "address",
          "name": "proposer",
          "type": "address"
        }
      ],
      "name": "DecOddsPosted",
      "type": "event"
    },
    {
      "anonymous": false,
      "inputs": [
        {
          "indexed": false,
          "internalType": "uint32",
          "name": "tokensChange",
          "type": "uint32"
        },
        {
          "indexed": false,
          "internalType": "uint256",
          "name": "etherChange",
          "type": "uint256"
        },
        {
          "indexed": false,
          "internalType": "address",
          "name": "transactor",
          "type": "address"
        }
      ],
      "name": "Funding",
      "type": "event"
    },
    {
      "anonymous": false,
      "inputs": [
        {
          "indexed": false,
          "internalType": "uint32",
          "name": "concLimit",
          "type": "uint32"
        },
        {
          "indexed": false,
          "internalType": "uint32",
          "name": "epoch",
          "type": "uint32"
        },
        {
          "indexed": false,
          "internalType": "address",
          "name": "proposer",
          "type": "address"
        }
      ],
      "name": "ParamsPosted",
      "type": "event"
    },
    {
      "anonymous": false,
      "inputs": [
        {
          "indexed": false,
          "internalType": "uint32",
          "name": "epoch",
          "type": "uint32"
        },
        {
          "indexed": false,
          "internalType": "uint32",
          "name": "propnum",
          "type": "uint32"
        },
        {
          "indexed": false,
          "internalType": "uint8[32]",
          "name": "winner",
          "type": "uint8[32]"
        },
        {
          "indexed": false,
          "internalType": "address",
          "name": "proposer",
          "type": "address"
        }
      ],
      "name": "ResultsPosted",
      "type": "event"
    },
    {
      "anonymous": false,
      "inputs": [
        {
          "indexed": false,
          "internalType": "uint32",
          "name": "epoch",
          "type": "uint32"
        },
        {
          "indexed": false,
          "internalType": "uint32",
          "name": "propnum",
          "type": "uint32"
        },
        {
          "indexed": false,
          "internalType": "string[32]",
          "name": "sched",
          "type": "string[32]"
        },
        {
          "indexed": false,
          "internalType": "address",
          "name": "proposer",
          "type": "address"
        }
      ],
      "name": "SchedulePosted",
      "type": "event"
    },
    {
      "anonymous": false,
      "inputs": [
        {
          "indexed": false,
          "internalType": "uint32",
          "name": "propnum",
          "type": "uint32"
        },
        {
          "indexed": false,
          "internalType": "uint32",
          "name": "epoch",
          "type": "uint32"
        },
        {
          "indexed": false,
          "internalType": "uint32[32]",
          "name": "starttimes",
          "type": "uint32[32]"
        },
        {
          "indexed": false,
          "internalType": "address",
          "name": "proposer",
          "type": "address"
        }
      ],
      "name": "StartTimesPosted",
      "type": "event"
    },
    {
      "anonymous": false,
      "inputs": [
        {
          "indexed": false,
          "internalType": "bool",
          "name": "voteResult",
          "type": "bool"
        },
        {
          "indexed": false,
          "internalType": "uint32",
          "name": "propnum",
          "type": "uint32"
        },
        {
          "indexed": false,
          "internalType": "uint32",
          "name": "epoch",
          "type": "uint32"
        },
        {
          "indexed": false,
          "internalType": "address",
          "name": "proposer",
          "type": "address"
        }
      ],
      "name": "VoteOutcome",
      "type": "event"
    },
    {
      "inputs": [],
      "name": "CURE_TIME",
      "outputs": [
        {
          "internalType": "uint32",
          "name": "",
          "type": "uint32"
        }
      ],
      "stateMutability": "view",
      "type": "function"
    },
    {
      "inputs": [],
      "name": "HOUR_START",
      "outputs": [
        {
          "internalType": "uint32",
          "name": "",
          "type": "uint32"
        }
      ],
      "stateMutability": "view",
      "type": "function"
    },
    {
      "inputs": [],
      "name": "MIN_SUBMIT",
      "outputs": [
        {
          "internalType": "uint32",
          "name": "",
          "type": "uint32"
        }
      ],
      "stateMutability": "view",
      "type": "function"
    },
    {
      "inputs": [
        {
          "internalType": "address",
          "name": "",
          "type": "address"
        }
      ],
      "name": "adminStruct",
      "outputs": [
        {
          "internalType": "uint32",
          "name": "tokens",
          "type": "uint32"
        },
        {
          "internalType": "uint32",
          "name": "voteTracker",
          "type": "uint32"
        },
        {
          "internalType": "uint32",
          "name": "initFeePool",
          "type": "uint32"
        }
      ],
      "stateMutability": "view",
      "type": "function"
    },
    {
      "inputs": [],
      "name": "bettingContract",
      "outputs": [
        {
          "internalType": "contract Betting",
          "name": "",
          "type": "address"
        }
      ],
      "stateMutability": "view",
      "type": "function"
    },
    {
      "inputs": [
        {
          "internalType": "uint32",
          "name": "_amt",
          "type": "uint32"
        }
      ],
      "name": "depositTokens",
      "outputs": [],
      "stateMutability": "nonpayable",
      "type": "function"
    },
    {
      "inputs": [],
      "name": "hourOfDay",
      "outputs": [
        {
          "internalType": "uint256",
          "name": "hour1",
          "type": "uint256"
        }
      ],
      "stateMutability": "view",
      "type": "function"
    },
    {
      "inputs": [
        {
          "internalType": "string[32]",
          "name": "_teamsched",
          "type": "string[32]"
        },
        {
          "internalType": "uint32[32]",
          "name": "_starts",
          "type": "uint32[32]"
        },
        {
          "internalType": "uint32[32]",
          "name": "_decimalOdds",
          "type": "uint32[32]"
        }
      ],
      "name": "initPost",
      "outputs": [],
      "stateMutability": "nonpayable",
      "type": "function"
    },
    {
      "inputs": [],
      "name": "initProcess",
      "outputs": [],
      "stateMutability": "nonpayable",
      "type": "function"
    },
    {
      "inputs": [
        {
          "internalType": "uint256",
          "name": "",
          "type": "uint256"
        }
      ],
      "name": "matchSchedule",
      "outputs": [
        {
          "internalType": "string",
          "name": "",
          "type": "string"
        }
      ],
      "stateMutability": "view",
      "type": "function"
    },
    {
      "inputs": [
        {
          "internalType": "uint32",
          "name": "_concentrationLim",
          "type": "uint32"
        }
      ],
      "name": "paramUpdate",
      "outputs": [],
      "stateMutability": "nonpayable",
      "type": "function"
    },
    {
      "inputs": [
        {
          "internalType": "uint256",
          "name": "",
          "type": "uint256"
        }
      ],
      "name": "params",
      "outputs": [
        {
          "internalType": "uint32",
          "name": "",
          "type": "uint32"
        }
      ],
      "stateMutability": "view",
      "type": "function"
    },
    {
      "inputs": [
        {
          "internalType": "uint256",
          "name": "",
          "type": "uint256"
        }
      ],
      "name": "propOddsStarts",
      "outputs": [
        {
          "internalType": "uint96",
          "name": "",
          "type": "uint96"
        }
      ],
      "stateMutability": "view",
      "type": "function"
    },
    {
      "inputs": [
        {
          "internalType": "uint256",
          "name": "",
          "type": "uint256"
        }
      ],
      "name": "propOddsUpdate",
      "outputs": [
        {
          "internalType": "uint64",
          "name": "",
          "type": "uint64"
        }
      ],
      "stateMutability": "view",
      "type": "function"
    },
    {
      "inputs": [
        {
          "internalType": "uint256",
          "name": "",
          "type": "uint256"
        }
      ],
      "name": "propResults",
      "outputs": [
        {
          "internalType": "uint8",
          "name": "",
          "type": "uint8"
        }
      ],
      "stateMutability": "view",
      "type": "function"
    },
    {
      "inputs": [],
      "name": "proposer",
      "outputs": [
        {
          "internalType": "address",
          "name": "",
          "type": "address"
        }
      ],
      "stateMutability": "view",
      "type": "function"
    },
    {
      "inputs": [
        {
          "internalType": "uint8[32]",
          "name": "_resultVector",
          "type": "uint8[32]"
        }
      ],
      "name": "settlePost",
      "outputs": [],
      "stateMutability": "nonpayable",
      "type": "function"
    },
    {
      "inputs": [],
      "name": "settleProcess",
      "outputs": [],
      "stateMutability": "nonpayable",
      "type": "function"
    },
    {
      "inputs": [],
      "name": "showSchedString",
      "outputs": [
        {
          "internalType": "string[32]",
          "name": "",
          "type": "string[32]"
        }
      ],
      "stateMutability": "view",
      "type": "function"
    },
    {
      "inputs": [],
      "name": "token",
      "outputs": [
        {
          "internalType": "contract Token",
          "name": "",
          "type": "address"
        }
      ],
      "stateMutability": "view",
      "type": "function"
    },
    {
      "inputs": [
        {
          "internalType": "uint32[32]",
          "name": "_decimalOdds",
          "type": "uint32[32]"
        }
      ],
      "name": "updatePost",
      "outputs": [],
      "stateMutability": "nonpayable",
      "type": "function"
    },
    {
      "inputs": [],
      "name": "updateProcess",
      "outputs": [],
      "stateMutability": "nonpayable",
      "type": "function"
    },
    {
      "inputs": [
        {
          "internalType": "bool",
          "name": "_sendData",
          "type": "bool"
        }
      ],
      "name": "vote",
      "outputs": [],
      "stateMutability": "nonpayable",
      "type": "function"
    },
    {
      "inputs": [
        {
          "internalType": "uint32",
          "name": "_amtTokens",
          "type": "uint32"
        }
      ],
      "name": "withdrawTokens",
      "outputs": [],
      "stateMutability": "nonpayable",
      "type": "function"
    },
    {
      "stateMutability": "payable",
      "type": "receive"
    }
  ],
  "bytecode": "0x60806040523480156200001157600080fd5b5060405162002c3238038062002c328339810160408190526200003491620000a9565b603d80546001600160a01b039384166001600160a01b031991821617909155603c8054929093169116179055600080546801000000000000000063ffffffff60601b199091166f773594000000000000000000000000001763ffffffff191660011763ffffffff60401b191617905562000100565b60008060408385031215620000bc578182fd5b8251620000c981620000e7565b6020840151909250620000dc81620000e7565b809150509250929050565b6001600160a01b0381168114620000fd57600080fd5b50565b612b2280620001106000396000f3fe60806040526004361061014f5760003560e01c80639d2f053c116100b6578063c68ec6451161006f578063c68ec6451461039c578063d3322374146103cb578063e2a9fc3f146103e0578063e966f49f1461040d578063f1ed3b3914610422578063fc0c546a1461044f57610156565b80639d2f053c146102f25780639d73f0a6146103125780639e6df0d814610332578063a8e4fb9014610347578063bd64f10f1461035c578063c37ac23b1461037c57610156565b80634b9f5c98116101085780634b9f5c981461022157806350abb018146102415780635d85579d146102615780637345b10b14610281578063862a7982146102a357806391e04f7e146102c557610156565b806303ecacc71461015b5780630a491d0814610191578063160919bf146101a857806321cb4831146101ca57806347dee228146101ec5780634a1247ae1461020c57610156565b3661015657005b600080fd5b34801561016757600080fd5b5061017b6101763660046120f2565b610464565b604051610188919061288b565b60405180910390f35b34801561019d57600080fd5b506101a661048e565b005b3480156101b457600080fd5b506101bd6106ce565b604051610188919061224a565b3480156101d657600080fd5b506101df610796565b60405161018891906121ee565b3480156101f857600080fd5b506101a661020736600461210a565b6107a5565b34801561021857600080fd5b506101a6610a35565b34801561022d57600080fd5b506101a661023c3660046120ba565b610bd8565b34801561024d57600080fd5b506101a661025c36600461210a565b610d2c565b34801561026d57600080fd5b506101a661027c366004612024565b610e2e565b34801561028d57600080fd5b50610296610ed0565b60405161018891906126ea565b3480156102af57600080fd5b506102b8610efe565b60405161018891906126f3565b3480156102d157600080fd5b506102e56102e03660046120f2565b610f03565b6040516101889190612899565b3480156102fe57600080fd5b506102b861030d3660046120f2565b610f36565b34801561031e57600080fd5b506101a661032d366004612008565b610f66565b34801561033e57600080fd5b506102b8611012565b34801561035357600080fd5b506101df611017565b34801561036857600080fd5b506101a6610377366004611f10565b611026565b34801561038857600080fd5b506101a661039736600461210a565b61118b565b3480156103a857600080fd5b506103bc6103b7366004611ee2565b6113fc565b60405161018893929190612857565b3480156103d757600080fd5b506102b861142a565b3480156103ec57600080fd5b506104006103fb3660046120f2565b611430565b6040516101889190612877565b34801561041957600080fd5b506101a6611463565b34801561042e57600080fd5b5061044261043d3660046120f2565b611512565b60405161018891906125d0565b34801561045b57600080fd5b506101df6115b2565b6019816020811061047457600080fd5b60209182820401919006915054906101000a900460ff1681565b600054600160201b900463ffffffff166003146104c65760405162461bcd60e51b81526004016104bd906126c6565b60405180910390fd5b600054600160601b900463ffffffff1642116104f45760405162461bcd60e51b81526004016104bd9061264b565b60008054819063ffffffff600160c01b82048116600160a01b90920416111561068357603d54604051630309be6560e21b81526001600160a01b0390911690630c26f99490610548906019906004016122bf565b6040805180830381600087803b15801561056157600080fd5b505af1158015610575573d6000803e3d6000fd5b505050506040513d601f19601f820116820180604052508101906105999190612126565b6000805463ffffffff191663ffffffff84811691909117918290559194509192506105cc91600160801b90041683612932565b60008054601c906105eb908490600160e01b900463ffffffff166128f6565b92506101000a81548163ffffffff021916908363ffffffff160217905550600080516020612acd83398151915260016000806008811061063b57634e487b7160e01b600052603260045260246000fd5b60088104919091015460005460405161067694936007166004026101000a90920463ffffffff90811692600160401b909204169033906125a3565b60405180910390a16106c2565b60008054604051600080516020612acd833981519152926106b992909163ffffffff80831692600160401b9004169033906125a3565b60405180910390a15b6106ca6115c1565b5050565b6106d6611b31565b604080516104008101909152601a60206000835b8282101561078d578382018054610700906129dc565b80601f016020809104026020016040519081016040528092919081815260200182805461072c906129dc565b80156107795780601f1061074e57610100808354040283529160200191610779565b820191906000526020600020905b81548152906001019060200180831161075c57829003601f168201915b5050505050815260200190600101906106ea565b50505050905090565b603d546001600160a01b031681565b336000908152603b602052604081205463ffffffff161561085a57336000908152603b602052604081205490546107f39163ffffffff600160401b909104811691600160e01b9004166129b7565b336000908152603b6020526040902054610813919063ffffffff16612974565b6108289063ffffffff1664e8d4a51000612955565b604051909150339082156108fc029083906000818181858888f19350505050158015610858573d6000803e3d6000fd5b505b603c546040516384269ed960e01b81526001600160a01b03909116906384269ed99061088e90339030908790600401612202565b602060405180830381600087803b1580156108a857600080fd5b505af11580156108bc573d6000803e3d6000fd5b505050506040513d601f19601f820116820180604052508101906108e091906120d6565b50336000908152603b60205260408120805484929061090690849063ffffffff166128f6565b92506101000a81548163ffffffff021916908363ffffffff16021790555081600060046008811061094757634e487b7160e01b600052603260045260246000fd5b600891828204019190066004028282829054906101000a900463ffffffff1661097091906128f6565b92506101000a81548163ffffffff021916908363ffffffff16021790555060006007600881106109b057634e487b7160e01b600052603260045260246000fd5b600881049190910154336000818152603b602052604090819020805463ffffffff60401b191660079095166004026101000a90930463ffffffff16600160401b029390931790915590517fcd8a5ece39d0b175e7e2ae6d276a5296bcd7da645b615b3d857b7fa2769db58391610a299185918591612704565b60405180910390a15050565b600054600160201b900463ffffffff16600214610a645760405162461bcd60e51b81526004016104bd906126c6565b600054600160601b900463ffffffff164211610a925760405162461bcd60e51b81526004016104bd9061264b565b60005463ffffffff600160c01b82048116600160a01b909204161115610b8f57603d54604051636c59757960e01b81526001600160a01b0390911690636c59757990610ae39060119060040161225d565b600060405180830381600087803b158015610afd57600080fd5b505af1158015610b11573d6000803e3d6000fd5b50505050600080516020612acd833981519152600160008060088110610b4757634e487b7160e01b600052603260045260246000fd5b600881049190910154600054604051610b8294936007166004026101000a90920463ffffffff90811692600160401b909204169033906125a3565b60405180910390a1610bce565b60008054604051600080516020612acd83398151915292610bc592909163ffffffff80831692600160401b9004169033906125a3565b60405180910390a15b610bd66115c1565b565b336000908152603b602052604090205463ffffffff16610bf757600080fd5b600054600160201b900463ffffffff16610c1057600080fd5b60008054338252603b602052604090912054600160201b900463ffffffff908116600160401b909204161415610c4557600080fd5b60008054338252603b6020526040909120805467ffffffff000000001916600160401b90920463ffffffff16600160201b029190911790558015610cd857336000908152603b6020526040812054815463ffffffff9182169291601491610cb5918591600160a01b9004166128f6565b92506101000a81548163ffffffff021916908363ffffffff160217905550610d29565b336000908152603b6020526040812054815463ffffffff9182169291601891610d0a918591600160c01b9004166128f6565b92506101000a81548163ffffffff021916908363ffffffff1602179055505b50565b336000908152603b60205260409020546101f463ffffffff9091161015610d5257600080fd5b603d5460405163654e207f60e01b81526001600160a01b039091169063654e207f90610d829084906004016126f3565b600060405180830381600087803b158015610d9c57600080fd5b505af1158015610db0573d6000803e3d6000fd5b505050507f9bf9a2f240ec17a6eb5c9cb9615fbbc3806cead8abd03b59a62c91012af907068160008060088110610df757634e487b7160e01b600052603260045260246000fd5b600891828204019190066004029054906101000a900463ffffffff1633604051610e239392919061272b565b60405180910390a150565b600054600160201b900463ffffffff1615610e5b5760405162461bcd60e51b81526004016104bd9061266d565b6000805467ffffffff000000001916640300000000179055610e7b611701565b610e886019826020611b59565b506000546040517f8a15fb8b2d408dc0d92ad23659aeb284937acac93d443a690a08c891764cba8791610e239163ffffffff80831692600160401b90041690859033906127f5565b6000610e1062015180610ee5611db0426129a0565b610eef9190612a56565b610ef9919061291e565b905090565b603281565b60018160208110610f1357600080fd5b60029182820401919006600c02915054906101000a90046001600160601b031681565b60008160088110610f4657600080fd5b60089182820401919006600402915054906101000a900463ffffffff1681565b600054600160201b900463ffffffff1615610f935760405162461bcd60e51b81526004016104bd9061266d565b6000805467ffffffff000000001916640200000000179055610fb3611701565b610fbc81611822565b610fca906011906020611bec565b506000546040517f7358bf582f4bb7564bc563cff06c0debd526544e29b6a7bf68e45642327830f791610e239163ffffffff80831692600160401b9004169085903390612796565b600081565b603a546001600160a01b031681565b600054600160201b900463ffffffff16156110535760405162461bcd60e51b81526004016104bd9061266d565b61105d828261198b565b61106b906001906020611c7f565b506000805467ffffffff000000001916600160201b17905561108b611701565b611098601a846020611d12565b506000546040517f86a3b49c8d4c7bda56245d74c7e627f2752a3756ec8f1d068f5ee5da91e2d44f916110e09163ffffffff80831692600160401b9004169087903390612754565b60405180910390a16000546040517fecf78242293aa26fa234f91541001e7dcd576dffb6d94494068fb592d9d60e269161112f9163ffffffff80831692600160401b9004169086903390612796565b60405180910390a16000546040517f7358bf582f4bb7564bc563cff06c0debd526544e29b6a7bf68e45642327830f79161117e9163ffffffff80831692600160401b9004169085903390612796565b60405180910390a1505050565b336000908152603b602052604090205463ffffffff90811690821611156111c45760405162461bcd60e51b81526004016104bd90612626565b600054600160201b900463ffffffff16156111f15760405162461bcd60e51b81526004016104bd9061269b565b336000908152603b602052604081205481546112249163ffffffff600160401b909104811691600160e01b9004166129b7565b336000908152603b6020526040902054611244919063ffffffff16612974565b6112599063ffffffff1664e8d4a51000612955565b60008054338252603b602052604082208054600160401b63ffffffff600160e01b90940484160263ffffffff60401b19909116179055815492935084926010916112ad918591600160801b909104166129b7565b82546101009290920a63ffffffff818102199093169183160217909155336000908152603b60205260408120805486945090926112ec918591166129b7565b92506101000a81548163ffffffff021916908363ffffffff160217905550336001600160a01b03166108fc829081150290604051600060405180830381858888f19350505050158015611343573d6000803e3d6000fd5b50603c546040516320025d2160e21b81526001600160a01b0390911690638009748490611376903390869060040161222b565b602060405180830381600087803b15801561139057600080fd5b505af11580156113a4573d6000803e3d6000fd5b505050506040513d601f19601f820116820180604052508101906113c891906120d6565b507fcd8a5ece39d0b175e7e2ae6d276a5296bcd7da645b615b3d857b7fa2769db583828233604051610a2993929190612704565b603b6020526000908152604090205463ffffffff80821691600160201b8104821691600160401b9091041683565b61465081565b6011816020811061144057600080fd5b60049182820401919006600802915054906101000a90046001600160401b031681565b60005463ffffffff600160201b909104166001146114935760405162461bcd60e51b81526004016104bd906126c6565b600054600160601b900463ffffffff1642116114c15760405162461bcd60e51b81526004016104bd9061264b565b60005463ffffffff600160c01b82048116600160a01b909204161115610b8f57603d54604051630c05cbb760e01b81526001600160a01b0390911690630c05cbb790610ae390600190600401612556565b601a816020811061152257600080fd5b018054909150611531906129dc565b80601f016020809104026020016040519081016040528092919081815260200182805461155d906129dc565b80156115aa5780601f1061157f576101008083540402835291602001916115aa565b820191906000526020600020905b81548152906001019060200180831161158d57829003601f168201915b505050505081565b603c546001600160a01b031681565b603a80546001600160a01b03191690556000805467ffffffff000000001916808255600160401b900463ffffffff169060086115fc83612a32565b91906101000a81548163ffffffff021916908363ffffffff1602179055505060008060036008811061163e57634e487b7160e01b600052603260045260246000fd5b600891828204019190066004026101000a81548163ffffffff021916908363ffffffff16021790555060008060056008811061168a57634e487b7160e01b600052603260045260246000fd5b600891828204019190066004026101000a81548163ffffffff021916908363ffffffff1602179055506000806006600881106116d657634e487b7160e01b600052603260045260246000fd5b600891828204019190066004026101000a81548163ffffffff021916908363ffffffff160217905550565b600061170b610ed0565b10156117295760405162461bcd60e51b81526004016104bd90612608565b336000908152603b6020526040902054603263ffffffff90911610156117615760405162461bcd60e51b81526004016104bd906125e3565b61176d614650426128f6565b6000805463ffffffff60601b1916600160601b63ffffffff9384160217808255338252603b60205260408220805463ffffffff60a01b19909216918416600160a01b0291909117909155546101f4911611156117d4576000805463ffffffff60601b191690555b6000805433808352603b6020526040909220805467ffffffff000000001916600160401b90920463ffffffff16600160201b02919091179055603a80546001600160a01b0319169091179055565b61182a611d5e565b60008060005b602081101561198357606485826020811061185b57634e487b7160e01b600052603260045260246000fd5b602002015163ffffffff1611801561189e575061270f85826020811061189157634e487b7160e01b600052603260045260246000fd5b602002015163ffffffff16105b6118a757600080fd5b60298582602081106118c957634e487b7160e01b600052603260045260246000fd5b60200201516118d99060296128f6565b6118e690620f4240612932565b6118f091906129b7565b9250602085826020811061191457634e487b7160e01b600052603260045260246000fd5b602002015163ffffffff166001600160401b0316901b821791508263ffffffff16821791508184826020811061195a57634e487b7160e01b600052603260045260246000fd5b6001600160401b039092166020929092020152600091508061197b81612a17565b915050611830565b505050919050565b611993611d5e565b60008060005b6020811015611b285760648582602081106119c457634e487b7160e01b600052603260045260246000fd5b602002015163ffffffff16118015611a07575061270f8582602081106119fa57634e487b7160e01b600052603260045260246000fd5b602002015163ffffffff16105b611a1057600080fd5b6029858260208110611a3257634e487b7160e01b600052603260045260246000fd5b6020020151611a429060296128f6565b611a4f90620f4240612932565b611a5991906129b7565b92506040868260208110611a7d57634e487b7160e01b600052603260045260246000fd5b602002015163ffffffff166001600160601b0316901b821791506020858260208110611ab957634e487b7160e01b600052603260045260246000fd5b602002015163ffffffff166001600160601b0316901b821791508263ffffffff168217915081848260208110611aff57634e487b7160e01b600052603260045260246000fd5b6001600160601b0390921660209290920201526000915080611b2081612a17565b915050611999565b50505092915050565b6040518061040001604052806020905b6060815260200190600190039081611b415790505090565b600183019183908215611bdc5791602002820160005b83821115611bad57835183826101000a81548160ff021916908360ff1602179055509260200192600101602081600001049283019260010302611b6f565b8015611bda5782816101000a81549060ff0219169055600101602081600001049283019260010302611bad565b505b50611be8929150611d7d565b5090565b600883019183908215611bdc5791602002820160005b83821115611c4c57835183826101000a8154816001600160401b0302191690836001600160401b031602179055509260200192600801602081600701049283019260010302611c02565b8015611bda5782816101000a8154906001600160401b030219169055600801602081600701049283019260010302611c4c565b601083019183908215611bdc5791602002820160005b83821115611cdf57835183826101000a8154816001600160601b0302191690836001600160601b031602179055509260200192600c01602081600b01049283019260010302611c95565b8015611bda5782816101000a8154906001600160601b030219169055600c01602081600b01049283019260010302611cdf565b8260208101928215611d52579160200282015b82811115611d525782518051611d42918491602090910190611d92565b5091602001919060010190611d25565b50611be8929150611e06565b6040518061040001604052806020906020820280368337509192915050565b5b80821115611be85760008155600101611d7e565b828054611d9e906129dc565b90600052602060002090601f016020900481019282611dc05760008555611bdc565b82601f10611dd957805160ff1916838001178555611bdc565b82800160010185558215611bdc579182015b82811115611bdc578251825591602001919060010190611deb565b80821115611be8576000611e1a8282611e23565b50600101611e06565b508054611e2f906129dc565b6000825580601f10611e415750610d29565b601f016020900490600052602060002090810190610d299190611d7d565b600082601f830112611e6f578081fd5b6040516104008082018281106001600160401b0382111715611e9357611e93612a96565b6040528184828101871015611ea6578485fd5b8492505b6020808410611eb95750611ed7565b8135611ec481612aba565b8352600193909301929182019101611eaa565b509195945050505050565b600060208284031215611ef3578081fd5b81356001600160a01b0381168114611f09578182fd5b9392505050565b60008060006108208486031215611f25578182fd5b83356001600160401b0380821115611f3b578384fd5b8186019150601f8781840112611f4f578485fd5b6020611f62611f5d826128d6565b6128ad565b8085885b84811015611fd857813588018d87820112611f7f578a8bfd5b803588811115611f9157611f91612a96565b611fa2818901601f191688016128ad565b8181528f88838501011115611fb5578c8dfd5b818884018983013790810187018c90528552509284019290840190600101611f66565b50508098505050611feb89828a01611e5f565b955050505050611fff856104208601611e5f565b90509250925092565b6000610400828403121561201a578081fd5b611f098383611e5f565b6000610400808385031215612037578182fd5b83601f840112612045578182fd5b6040518181018181106001600160401b038211171561206657612066612a96565b6040528084838101871015612079578485fd5b8493505b602080851061208c57506120af565b813560ff8116811461209c578687fd5b835260019490940193918201910161207d565b509095945050505050565b6000602082840312156120cb578081fd5b8135611f0981612aac565b6000602082840312156120e7578081fd5b8151611f0981612aac565b600060208284031215612103578081fd5b5035919050565b60006020828403121561211b578081fd5b8135611f0981612aba565b60008060408385031215612138578182fd5b825161214381612aba565b602084015190925061215481612aba565b809150509250929050565b600082610400810183835b602080821061217957506120af565b848403885261218984845161219c565b978101979350919091019060010161216a565b60008151808452815b818110156121c1576020818501810151868301820152016121a5565b818111156121d25782602083870101525b50601f01601f19169290920160200192915050565b60ff169052565b6001600160a01b0391909116815260200190565b6001600160a01b03938416815291909216602082015263ffffffff909116604082015260600190565b6001600160a01b0392909216825263ffffffff16602082015260400190565b600060208252611f09602083018461215f565b6104008101818360005b60208060038301106122795750611b28565b82546001600160401b038082168652604082811c821693870193909352608082811c9091169286019290925260c01c606085015290920191600190910190600401612267565b61040081810190828460005b602080601f8301106122dd575061254c565b825460ff6122ed868284166121e7565b6122fe838701828460081c166121e7565b6040612311818801838560101c166121e7565b6060612324818901848660181c166121e7565b6080612336818a018587891c166121e7565b60a0955061234b868a01858760281c166121e7565b60c061235e818b01868860301c166121e7565b60e0612371818c01878960381c166121e7565b6123836101008c018789881c166121e7565b6123966101208c01878960481c166121e7565b6123a96101408c01878960501c166121e7565b6123bc6101608c01878960581c166121e7565b6123ce6101808c018789871c166121e7565b6123e16101a08c01878960681c166121e7565b6123f46101c08c01878960701c166121e7565b6124076101e08c01878960781c166121e7565b6124196102008c018789861c166121e7565b61242c6102208c01878960881c166121e7565b61243f6102408c01878960901c166121e7565b6124526102608c01878960981c166121e7565b6124646102808c0187898b1c166121e7565b6124776102a08c01878960a81c166121e7565b61248a6102c08c01878960b01c166121e7565b61249d6102e08c01878960b81c166121e7565b6124af6103008c018789851c166121e7565b6124c26103208c01878960c81c166121e7565b6124d56103408c01878960d01c166121e7565b6124e86103608c01878960d81c166121e7565b6124fa6103808c018789841c166121e7565b50505050506125126103a08701828460e81c166121e7565b6125256103c08701828460f01c166121e7565b506125376103e086018260f81c6121e7565b505091830191600191909101906020016122cb565b5050505092915050565b6104008101818360005b602060018181840110612574575050611b28565b83546001600160601b03808216875260609190911c169185019190915260409093019290910190600201612560565b931515845263ffffffff9283166020850152911660408301526001600160a01b0316606082015260800190565b600060208252611f09602083018461219c565b6020808252600b908201526a4c6f772042616c616e636560a81b604082015260600190565b6020808252600490820152633437bab960e11b604082015260600190565b6020808252600b908201526a6e65656420746f6b656e7360a81b604082015260600190565b6020808252600890820152673a37b79039b7b7b760c11b604082015260600190565b602080825260149082015273416c726561647920756e6465722052657669657760601b604082015260600190565b6020808252601190820152706e6f20776420647572696e6720766f746560781b604082015260600190565b6020808252600a908201526977726f6e67206461746160b01b604082015260600190565b90815260200190565b63ffffffff91909116815260200190565b63ffffffff93909316835260208301919091526001600160a01b0316604082015260600190565b63ffffffff93841681529190921660208201526001600160a01b03909116604082015260600190565b600063ffffffff80871683528086166020840152506080604083015261277d608083018561215f565b905060018060a01b038316606083015295945050505050565b60006104608201905063ffffffff8087168352602081871681850152604084018660005b838110156127d85781518516835291830191908301906001016127ba565b505050505060018060a01b03831661044083015295945050505050565b63ffffffff8581168252841660208083019190915261046082019060408301908560005b8281101561283857815160ff1684529282019290820190600101612819565b505050506001600160a01b039290921661044091909101529392505050565b63ffffffff93841681529183166020830152909116604082015260600190565b6001600160401b0391909116815260200190565b60ff91909116815260200190565b6001600160601b0391909116815260200190565b6040518181016001600160401b03811182821017156128ce576128ce612a96565b604052919050565b60006001600160401b038211156128ef576128ef612a96565b5060200290565b600063ffffffff80831681851680830382111561291557612915612a6a565b01949350505050565b60008261292d5761292d612a80565b500490565b600063ffffffff8084168061294957612949612a80565b92169190910492915050565b600081600019048311821515161561296f5761296f612a6a565b500290565b600063ffffffff8083168185168183048111821515161561299757612997612a6a565b02949350505050565b6000828210156129b2576129b2612a6a565b500390565b600063ffffffff838116908316818110156129d4576129d4612a6a565b039392505050565b6002810460018216806129f057607f821691505b60208210811415612a1157634e487b7160e01b600052602260045260246000fd5b50919050565b6000600019821415612a2b57612a2b612a6a565b5060010190565b600063ffffffff80831681811415612a4c57612a4c612a6a565b6001019392505050565b600082612a6557612a65612a80565b500690565b634e487b7160e01b600052601160045260246000fd5b634e487b7160e01b600052601260045260246000fd5b634e487b7160e01b600052604160045260246000fd5b8015158114610d2957600080fd5b63ffffffff81168114610d2957600080fdfe5a37f5f4e38b2734bb53f9ef8fd305df0fbe07934a553b15fea567af49b5c4c2a2646970667358221220b5c6dbb1d41c54dee25ab42a1d424e287d9a127e2db4ec28fc7da8bf5e6c7ad964736f6c63430008000033",
  "linkReferences": {},
  "deployedLinkReferences": {}
}